{
	"data": {
		"bytecode": {
			"linkReferences": {},
			"object": "608060405234801561001057600080fd5b50610cd6806100206000396000f3fe6080604052600436106100f35760003560e01c80634d2301cc1161008a578063a8b0574e11610059578063a8b0574e1461022f578063bce38bd71461024a578063c3077fa91461025d578063ee82ac5e1461027057600080fd5b80634d2301cc146101ce57806372425d9d146101f657806382ad56cb1461020957806386d516e81461021c57600080fd5b80633408e470116100c65780633408e47014610173578063399542e9146101865780633e64a696146101a857806342cbb15c146101bb57600080fd5b80630f28c97d146100f8578063174dea711461011a578063252dba421461013a57806327e86d6e1461015b575b600080fd5b34801561010457600080fd5b50425b6040519081526020015b60405180910390f35b61012d61012836600461098c565b61028f565b6040516101119190610a89565b61014d61014836600461098c565b61047d565b604051610111929190610aa3565b34801561016757600080fd5b50436000190140610107565b34801561017f57600080fd5b5046610107565b610199610194366004610b0d565b6105f1565b60405161011193929190610b67565b3480156101b457600080fd5b5048610107565b3480156101c757600080fd5b5043610107565b3480156101da57600080fd5b506101076101e9366004610b8f565b6001600160a01b03163190565b34801561020257600080fd5b5044610107565b61012d61021736600461098c565b61060c565b34801561022857600080fd5b5045610107565b34801561023b57600080fd5b50604051418152602001610111565b61012d610258366004610b0d565b61078e565b61019961026b36600461098c565b610921565b34801561027c57600080fd5b5061010761028b366004610bb8565b4090565b60606000828067ffffffffffffffff8111156102ad576102ad610bd1565b6040519080825280602002602001820160405280156102f357816020015b6040805180820190915260008152606060208201528152602001906001900390816102cb5790505b5092503660005b8281101561041f57600085828151811061031657610316610be7565b6020026020010151905087878381811061033257610332610be7565b90506020028101906103449190610bfd565b60408101359586019590935061035d6020850185610b8f565b6001600160a01b0316816103746060870187610c1d565b604051610382929190610c64565b60006040518083038185875af1925050503d80600081146103bf576040519150601f19603f3d011682016040523d82523d6000602084013e6103c4565b606091505b5060208085019190915290151580845290850135176104155762461bcd60e51b6000526020600452601760245276135d5b1d1a58d85b1b0cce8818d85b1b0819985a5b1959604a1b60445260846000fd5b50506001016102fa565b508234146104745760405162461bcd60e51b815260206004820152601a60248201527f4d756c746963616c6c333a2076616c7565206d69736d6174636800000000000060448201526064015b60405180910390fd5b50505092915050565b436060828067ffffffffffffffff81111561049a5761049a610bd1565b6040519080825280602002602001820160405280156104cd57816020015b60608152602001906001900390816104b85790505b5091503660005b828110156105e75760008787838181106104f0576104f0610be7565b90506020028101906105029190610c74565b92506105116020840184610b8f565b6001600160a01b03166105276020850185610c1d565b604051610535929190610c64565b6000604051808303816000865af19150503d8060008114610572576040519150601f19603f3d011682016040523d82523d6000602084013e610577565b606091505b5086848151811061058a5761058a610be7565b60209081029190910101529050806105de5760405162461bcd60e51b8152602060048201526017602482015276135d5b1d1a58d85b1b0cce8818d85b1b0819985a5b1959604a1b604482015260640161046b565b506001016104d4565b5050509250929050565b438040606061060186868661078e565b905093509350939050565b6060818067ffffffffffffffff81111561062857610628610bd1565b60405190808252806020026020018201604052801561066e57816020015b6040805180820190915260008152606060208201528152602001906001900390816106465790505b5091503660005b8281101561047457600084828151811061069157610691610be7565b602002602001015190508686838181106106ad576106ad610be7565b90506020028101906106bf9190610c8a565b92506106ce6020840184610b8f565b6001600160a01b03166106e46040850185610c1d565b6040516106f2929190610c64565b6000604051808303816000865af19150503d806000811461072f576040519150601f19603f3d011682016040523d82523d6000602084013e610734565b606091505b5060208084019190915290151580835290840135176107855762461bcd60e51b6000526020600452601760245276135d5b1d1a58d85b1b0cce8818d85b1b0819985a5b1959604a1b60445260646000fd5b50600101610675565b6060818067ffffffffffffffff8111156107aa576107aa610bd1565b6040519080825280602002602001820160405280156107f057816020015b6040805180820190915260008152606060208201528152602001906001900390816107c85790505b5091503660005b8281101561091757600084828151811061081357610813610be7565b6020026020010151905086868381811061082f5761082f610be7565b90506020028101906108419190610c74565b92506108506020840184610b8f565b6001600160a01b03166108666020850185610c1d565b604051610874929190610c64565b6000604051808303816000865af19150503d80600081146108b1576040519150601f19603f3d011682016040523d82523d6000602084013e6108b6565b606091505b50602083015215158152871561090e57805161090e5760405162461bcd60e51b8152602060048201526017602482015276135d5b1d1a58d85b1b0cce8818d85b1b0819985a5b1959604a1b604482015260640161046b565b506001016107f7565b5050509392505050565b6000806060610932600186866105f1565b919790965090945092505050565b60008083601f84011261095257600080fd5b50813567ffffffffffffffff81111561096a57600080fd5b6020830191508360208260051b850101111561098557600080fd5b9250929050565b6000806020838503121561099f57600080fd5b823567ffffffffffffffff8111156109b657600080fd5b6109c285828601610940565b90969095509350505050565b6000815180845260005b818110156109f4576020818501810151868301820152016109d8565b81811115610a06576000602083870101525b50601f01601f19169290920160200192915050565b600082825180855260208086019550808260051b84010181860160005b84811015610a7c57858303601f1901895281518051151584528401516040858501819052610a68818601836109ce565b9a86019a9450505090830190600101610a38565b5090979650505050505050565b602081526000610a9c6020830184610a1b565b9392505050565b600060408201848352602060408185015281855180845260608601915060608160051b870101935082870160005b82811015610aff57605f19888703018452610aed8683516109ce565b95509284019290840190600101610ad1565b509398975050505050505050565b600080600060408486031215610b2257600080fd5b83358015158114610b3257600080fd5b9250602084013567ffffffffffffffff811115610b4e57600080fd5b610b5a86828701610940565b9497909650939450505050565b838152826020820152606060408201526000610b866060830184610a1b565b95945050505050565b600060208284031215610ba157600080fd5b81356001600160a01b0381168114610a9c57600080fd5b600060208284031215610bca57600080fd5b5035919050565b634e487b7160e01b600052604160045260246000fd5b634e487b7160e01b600052603260045260246000fd5b60008235607e19833603018112610c1357600080fd5b9190910192915050565b6000808335601e19843603018112610c3457600080fd5b83018035915067ffffffffffffffff821115610c4f57600080fd5b60200191503681900382131561098557600080fd5b8183823760009101908152919050565b60008235603e19833603018112610c1357600080fd5b60008235605e19833603018112610c1357600080fdfea2646970667358221220bfb196f5836305d8ad305fe21868cecab478369ed980fe84db418e6dcd1adf0764736f6c634300080c0033",
			"opcodes": "PUSH1 0x80 PUSH1 0x40 MSTORE CALLVALUE DUP1 ISZERO PUSH2 0x10 JUMPI PUSH1 0x0 DUP1 REVERT JUMPDEST POP PUSH2 0xCD6 DUP1 PUSH2 0x20 PUSH1 0x0 CODECOPY PUSH1 0x0 RETURN INVALID PUSH1 0x80 PUSH1 0x40 MSTORE PUSH1 0x4 CALLDATASIZE LT PUSH2 0xF3 JUMPI PUSH1 0x0 CALLDATALOAD PUSH1 0xE0 SHR DUP1 PUSH4 0x4D2301CC GT PUSH2 0x8A JUMPI DUP1 PUSH4 0xA8B0574E GT PUSH2 0x59 JUMPI DUP1 PUSH4 0xA8B0574E EQ PUSH2 0x22F JUMPI DUP1 PUSH4 0xBCE38BD7 EQ PUSH2 0x24A JUMPI DUP1 PUSH4 0xC3077FA9 EQ PUSH2 0x25D JUMPI DUP1 PUSH4 0xEE82AC5E EQ PUSH2 0x270 JUMPI PUSH1 0x0 DUP1 REVERT JUMPDEST DUP1 PUSH4 0x4D2301CC EQ PUSH2 0x1CE JUMPI DUP1 PUSH4 0x72425D9D EQ PUSH2 0x1F6 JUMPI DUP1 PUSH4 0x82AD56CB EQ PUSH2 0x209 JUMPI DUP1 PUSH4 0x86D516E8 EQ PUSH2 0x21C JUMPI PUSH1 0x0 DUP1 REVERT JUMPDEST DUP1 PUSH4 0x3408E470 GT PUSH2 0xC6 JUMPI DUP1 PUSH4 0x3408E470 EQ PUSH2 0x173 JUMPI DUP1 PUSH4 0x399542E9 EQ PUSH2 0x186 JUMPI DUP1 PUSH4 0x3E64A696 EQ PUSH2 0x1A8 JUMPI DUP1 PUSH4 0x42CBB15C EQ PUSH2 0x1BB JUMPI PUSH1 0x0 DUP1 REVERT JUMPDEST DUP1 PUSH4 0xF28C97D EQ PUSH2 0xF8 JUMPI DUP1 PUSH4 0x174DEA71 EQ PUSH2 0x11A JUMPI DUP1 PUSH4 0x252DBA42 EQ PUSH2 0x13A JUMPI DUP1 PUSH4 0x27E86D6E EQ PUSH2 0x15B JUMPI JUMPDEST PUSH1 0x0 DUP1 REVERT JUMPDEST CALLVALUE DUP1 ISZERO PUSH2 0x104 JUMPI PUSH1 0x0 DUP1 REVERT JUMPDEST POP TIMESTAMP JUMPDEST PUSH1 0x40 MLOAD SWAP1 DUP2 MSTORE PUSH1 0x20 ADD JUMPDEST PUSH1 0x40 MLOAD DUP1 SWAP2 SUB SWAP1 RETURN JUMPDEST PUSH2 0x12D PUSH2 0x128 CALLDATASIZE PUSH1 0x4 PUSH2 0x98C JUMP JUMPDEST PUSH2 0x28F JUMP JUMPDEST PUSH1 0x40 MLOAD PUSH2 0x111 SWAP2 SWAP1 PUSH2 0xA89 JUMP JUMPDEST PUSH2 0x14D PUSH2 0x148 CALLDATASIZE PUSH1 0x4 PUSH2 0x98C JUMP JUMPDEST PUSH2 0x47D JUMP JUMPDEST PUSH1 0x40 MLOAD PUSH2 0x111 SWAP3 SWAP2 SWAP1 PUSH2 0xAA3 JUMP JUMPDEST CALLVALUE DUP1 ISZERO PUSH2 0x167 JUMPI PUSH1 0x0 DUP1 REVERT JUMPDEST POP NUMBER PUSH1 0x0 NOT ADD BLOCKHASH PUSH2 0x107 JUMP JUMPDEST CALLVALUE DUP1 ISZERO PUSH2 0x17F JUMPI PUSH1 0x0 DUP1 REVERT JUMPDEST POP CHAINID PUSH2 0x107 JUMP JUMPDEST PUSH2 0x199 PUSH2 0x194 CALLDATASIZE PUSH1 0x4 PUSH2 0xB0D JUMP JUMPDEST PUSH2 0x5F1 JUMP JUMPDEST PUSH1 0x40 MLOAD PUSH2 0x111 SWAP4 SWAP3 SWAP2 SWAP1 PUSH2 0xB67 JUMP JUMPDEST CALLVALUE DUP1 ISZERO PUSH2 0x1B4 JUMPI PUSH1 0x0 DUP1 REVERT JUMPDEST POP BASEFEE PUSH2 0x107 JUMP JUMPDEST CALLVALUE DUP1 ISZERO PUSH2 0x1C7 JUMPI PUSH1 0x0 DUP1 REVERT JUMPDEST POP NUMBER PUSH2 0x107 JUMP JUMPDEST CALLVALUE DUP1 ISZERO PUSH2 0x1DA JUMPI PUSH1 0x0 DUP1 REVERT JUMPDEST POP PUSH2 0x107 PUSH2 0x1E9 CALLDATASIZE PUSH1 0x4 PUSH2 0xB8F JUMP JUMPDEST PUSH1 0x1 PUSH1 0x1 PUSH1 0xA0 SHL SUB AND BALANCE SWAP1 JUMP JUMPDEST CALLVALUE DUP1 ISZERO PUSH2 0x202 JUMPI PUSH1 0x0 DUP1 REVERT JUMPDEST POP DIFFICULTY PUSH2 0x107 JUMP JUMPDEST PUSH2 0x12D PUSH2 0x217 CALLDATASIZE PUSH1 0x4 PUSH2 0x98C JUMP JUMPDEST PUSH2 0x60C JUMP JUMPDEST CALLVALUE DUP1 ISZERO PUSH2 0x228 JUMPI PUSH1 0x0 DUP1 REVERT JUMPDEST POP GASLIMIT PUSH2 0x107 JUMP JUMPDEST CALLVALUE DUP1 ISZERO PUSH2 0x23B JUMPI PUSH1 0x0 DUP1 REVERT JUMPDEST POP PUSH1 0x40 MLOAD COINBASE DUP2 MSTORE PUSH1 0x20 ADD PUSH2 0x111 JUMP JUMPDEST PUSH2 0x12D PUSH2 0x258 CALLDATASIZE PUSH1 0x4 PUSH2 0xB0D JUMP JUMPDEST PUSH2 0x78E JUMP JUMPDEST PUSH2 0x199 PUSH2 0x26B CALLDATASIZE PUSH1 0x4 PUSH2 0x98C JUMP JUMPDEST PUSH2 0x921 JUMP JUMPDEST CALLVALUE DUP1 ISZERO PUSH2 0x27C JUMPI PUSH1 0x0 DUP1 REVERT JUMPDEST POP PUSH2 0x107 PUSH2 0x28B CALLDATASIZE PUSH1 0x4 PUSH2 0xBB8 JUMP JUMPDEST BLOCKHASH SWAP1 JUMP JUMPDEST PUSH1 0x60 PUSH1 0x0 DUP3 DUP1 PUSH8 0xFFFFFFFFFFFFFFFF DUP2 GT ISZERO PUSH2 0x2AD JUMPI PUSH2 0x2AD PUSH2 0xBD1 JUMP JUMPDEST PUSH1 0x40 MLOAD SWAP1 DUP1 DUP3 MSTORE DUP1 PUSH1 0x20 MUL PUSH1 0x20 ADD DUP3 ADD PUSH1 0x40 MSTORE DUP1 ISZERO PUSH2 0x2F3 JUMPI DUP2 PUSH1 0x20 ADD JUMPDEST PUSH1 0x40 DUP1 MLOAD DUP1 DUP3 ADD SWAP1 SWAP2 MSTORE PUSH1 0x0 DUP2 MSTORE PUSH1 0x60 PUSH1 0x20 DUP3 ADD MSTORE DUP2 MSTORE PUSH1 0x20 ADD SWAP1 PUSH1 0x1 SWAP1 SUB SWAP1 DUP2 PUSH2 0x2CB JUMPI SWAP1 POP JUMPDEST POP SWAP3 POP CALLDATASIZE PUSH1 0x0 JUMPDEST DUP3 DUP2 LT ISZERO PUSH2 0x41F JUMPI PUSH1 0x0 DUP6 DUP3 DUP2 MLOAD DUP2 LT PUSH2 0x316 JUMPI PUSH2 0x316 PUSH2 0xBE7 JUMP JUMPDEST PUSH1 0x20 MUL PUSH1 0x20 ADD ADD MLOAD SWAP1 POP DUP8 DUP8 DUP4 DUP2 DUP2 LT PUSH2 0x332 JUMPI PUSH2 0x332 PUSH2 0xBE7 JUMP JUMPDEST SWAP1 POP PUSH1 0x20 MUL DUP2 ADD SWAP1 PUSH2 0x344 SWAP2 SWAP1 PUSH2 0xBFD JUMP JUMPDEST PUSH1 0x40 DUP2 ADD CALLDATALOAD SWAP6 DUP7 ADD SWAP6 SWAP1 SWAP4 POP PUSH2 0x35D PUSH1 0x20 DUP6 ADD DUP6 PUSH2 0xB8F JUMP JUMPDEST PUSH1 0x1 PUSH1 0x1 PUSH1 0xA0 SHL SUB AND DUP2 PUSH2 0x374 PUSH1 0x60 DUP8 ADD DUP8 PUSH2 0xC1D JUMP JUMPDEST PUSH1 0x40 MLOAD PUSH2 0x382 SWAP3 SWAP2 SWAP1 PUSH2 0xC64 JUMP JUMPDEST PUSH1 0x0 PUSH1 0x40 MLOAD DUP1 DUP4 SUB DUP2 DUP6 DUP8 GAS CALL SWAP3 POP POP POP RETURNDATASIZE DUP1 PUSH1 0x0 DUP2 EQ PUSH2 0x3BF JUMPI PUSH1 0x40 MLOAD SWAP2 POP PUSH1 0x1F NOT PUSH1 0x3F RETURNDATASIZE ADD AND DUP3 ADD PUSH1 0x40 MSTORE RETURNDATASIZE DUP3 MSTORE RETURNDATASIZE PUSH1 0x0 PUSH1 0x20 DUP5 ADD RETURNDATACOPY PUSH2 0x3C4 JUMP JUMPDEST PUSH1 0x60 SWAP2 POP JUMPDEST POP PUSH1 0x20 DUP1 DUP6 ADD SWAP2 SWAP1 SWAP2 MSTORE SWAP1 ISZERO ISZERO DUP1 DUP5 MSTORE SWAP1 DUP6 ADD CALLDATALOAD OR PUSH2 0x415 JUMPI PUSH3 0x461BCD PUSH1 0xE5 SHL PUSH1 0x0 MSTORE PUSH1 0x20 PUSH1 0x4 MSTORE PUSH1 0x17 PUSH1 0x24 MSTORE PUSH23 0x135D5B1D1A58D85B1B0CCE8818D85B1B0819985A5B1959 PUSH1 0x4A SHL PUSH1 0x44 MSTORE PUSH1 0x84 PUSH1 0x0 REVERT JUMPDEST POP POP PUSH1 0x1 ADD PUSH2 0x2FA JUMP JUMPDEST POP DUP3 CALLVALUE EQ PUSH2 0x474 JUMPI PUSH1 0x40 MLOAD PUSH3 0x461BCD PUSH1 0xE5 SHL DUP2 MSTORE PUSH1 0x20 PUSH1 0x4 DUP3 ADD MSTORE PUSH1 0x1A PUSH1 0x24 DUP3 ADD MSTORE PUSH32 0x4D756C746963616C6C333A2076616C7565206D69736D61746368000000000000 PUSH1 0x44 DUP3 ADD MSTORE PUSH1 0x64 ADD JUMPDEST PUSH1 0x40 MLOAD DUP1 SWAP2 SUB SWAP1 REVERT JUMPDEST POP POP POP SWAP3 SWAP2 POP POP JUMP JUMPDEST NUMBER PUSH1 0x60 DUP3 DUP1 PUSH8 0xFFFFFFFFFFFFFFFF DUP2 GT ISZERO PUSH2 0x49A JUMPI PUSH2 0x49A PUSH2 0xBD1 JUMP JUMPDEST PUSH1 0x40 MLOAD SWAP1 DUP1 DUP3 MSTORE DUP1 PUSH1 0x20 MUL PUSH1 0x20 ADD DUP3 ADD PUSH1 0x40 MSTORE DUP1 ISZERO PUSH2 0x4CD JUMPI DUP2 PUSH1 0x20 ADD JUMPDEST PUSH1 0x60 DUP2 MSTORE PUSH1 0x20 ADD SWAP1 PUSH1 0x1 SWAP1 SUB SWAP1 DUP2 PUSH2 0x4B8 JUMPI SWAP1 POP JUMPDEST POP SWAP2 POP CALLDATASIZE PUSH1 0x0 JUMPDEST DUP3 DUP2 LT ISZERO PUSH2 0x5E7 JUMPI PUSH1 0x0 DUP8 DUP8 DUP4 DUP2 DUP2 LT PUSH2 0x4F0 JUMPI PUSH2 0x4F0 PUSH2 0xBE7 JUMP JUMPDEST SWAP1 POP PUSH1 0x20 MUL DUP2 ADD SWAP1 PUSH2 0x502 SWAP2 SWAP1 PUSH2 0xC74 JUMP JUMPDEST SWAP3 POP PUSH2 0x511 PUSH1 0x20 DUP5 ADD DUP5 PUSH2 0xB8F JUMP JUMPDEST PUSH1 0x1 PUSH1 0x1 PUSH1 0xA0 SHL SUB AND PUSH2 0x527 PUSH1 0x20 DUP6 ADD DUP6 PUSH2 0xC1D JUMP JUMPDEST PUSH1 0x40 MLOAD PUSH2 0x535 SWAP3 SWAP2 SWAP1 PUSH2 0xC64 JUMP JUMPDEST PUSH1 0x0 PUSH1 0x40 MLOAD DUP1 DUP4 SUB DUP2 PUSH1 0x0 DUP7 GAS CALL SWAP2 POP POP RETURNDATASIZE DUP1 PUSH1 0x0 DUP2 EQ PUSH2 0x572 JUMPI PUSH1 0x40 MLOAD SWAP2 POP PUSH1 0x1F NOT PUSH1 0x3F RETURNDATASIZE ADD AND DUP3 ADD PUSH1 0x40 MSTORE RETURNDATASIZE DUP3 MSTORE RETURNDATASIZE PUSH1 0x0 PUSH1 0x20 DUP5 ADD RETURNDATACOPY PUSH2 0x577 JUMP JUMPDEST PUSH1 0x60 SWAP2 POP JUMPDEST POP DUP7 DUP5 DUP2 MLOAD DUP2 LT PUSH2 0x58A JUMPI PUSH2 0x58A PUSH2 0xBE7 JUMP JUMPDEST PUSH1 0x20 SWAP1 DUP2 MUL SWAP2 SWAP1 SWAP2 ADD ADD MSTORE SWAP1 POP DUP1 PUSH2 0x5DE JUMPI PUSH1 0x40 MLOAD PUSH3 0x461BCD PUSH1 0xE5 SHL DUP2 MSTORE PUSH1 0x20 PUSH1 0x4 DUP3 ADD MSTORE PUSH1 0x17 PUSH1 0x24 DUP3 ADD MSTORE PUSH23 0x135D5B1D1A58D85B1B0CCE8818D85B1B0819985A5B1959 PUSH1 0x4A SHL PUSH1 0x44 DUP3 ADD MSTORE PUSH1 0x64 ADD PUSH2 0x46B JUMP JUMPDEST POP PUSH1 0x1 ADD PUSH2 0x4D4 JUMP JUMPDEST POP POP POP SWAP3 POP SWAP3 SWAP1 POP JUMP JUMPDEST NUMBER DUP1 BLOCKHASH PUSH1 0x60 PUSH2 0x601 DUP7 DUP7 DUP7 PUSH2 0x78E JUMP JUMPDEST SWAP1 POP SWAP4 POP SWAP4 POP SWAP4 SWAP1 POP JUMP JUMPDEST PUSH1 0x60 DUP2 DUP1 PUSH8 0xFFFFFFFFFFFFFFFF DUP2 GT ISZERO PUSH2 0x628 JUMPI PUSH2 0x628 PUSH2 0xBD1 JUMP JUMPDEST PUSH1 0x40 MLOAD SWAP1 DUP1 DUP3 MSTORE DUP1 PUSH1 0x20 MUL PUSH1 0x20 ADD DUP3 ADD PUSH1 0x40 MSTORE DUP1 ISZERO PUSH2 0x66E JUMPI DUP2 PUSH1 0x20 ADD JUMPDEST PUSH1 0x40 DUP1 MLOAD DUP1 DUP3 ADD SWAP1 SWAP2 MSTORE PUSH1 0x0 DUP2 MSTORE PUSH1 0x60 PUSH1 0x20 DUP3 ADD MSTORE DUP2 MSTORE PUSH1 0x20 ADD SWAP1 PUSH1 0x1 SWAP1 SUB SWAP1 DUP2 PUSH2 0x646 JUMPI SWAP1 POP JUMPDEST POP SWAP2 POP CALLDATASIZE PUSH1 0x0 JUMPDEST DUP3 DUP2 LT ISZERO PUSH2 0x474 JUMPI PUSH1 0x0 DUP5 DUP3 DUP2 MLOAD DUP2 LT PUSH2 0x691 JUMPI PUSH2 0x691 PUSH2 0xBE7 JUMP JUMPDEST PUSH1 0x20 MUL PUSH1 0x20 ADD ADD MLOAD SWAP1 POP DUP7 DUP7 DUP4 DUP2 DUP2 LT PUSH2 0x6AD JUMPI PUSH2 0x6AD PUSH2 0xBE7 JUMP JUMPDEST SWAP1 POP PUSH1 0x20 MUL DUP2 ADD SWAP1 PUSH2 0x6BF SWAP2 SWAP1 PUSH2 0xC8A JUMP JUMPDEST SWAP3 POP PUSH2 0x6CE PUSH1 0x20 DUP5 ADD DUP5 PUSH2 0xB8F JUMP JUMPDEST PUSH1 0x1 PUSH1 0x1 PUSH1 0xA0 SHL SUB AND PUSH2 0x6E4 PUSH1 0x40 DUP6 ADD DUP6 PUSH2 0xC1D JUMP JUMPDEST PUSH1 0x40 MLOAD PUSH2 0x6F2 SWAP3 SWAP2 SWAP1 PUSH2 0xC64 JUMP JUMPDEST PUSH1 0x0 PUSH1 0x40 MLOAD DUP1 DUP4 SUB DUP2 PUSH1 0x0 DUP7 GAS CALL SWAP2 POP POP RETURNDATASIZE DUP1 PUSH1 0x0 DUP2 EQ PUSH2 0x72F JUMPI PUSH1 0x40 MLOAD SWAP2 POP PUSH1 0x1F NOT PUSH1 0x3F RETURNDATASIZE ADD AND DUP3 ADD PUSH1 0x40 MSTORE RETURNDATASIZE DUP3 MSTORE RETURNDATASIZE PUSH1 0x0 PUSH1 0x20 DUP5 ADD RETURNDATACOPY PUSH2 0x734 JUMP JUMPDEST PUSH1 0x60 SWAP2 POP JUMPDEST POP PUSH1 0x20 DUP1 DUP5 ADD SWAP2 SWAP1 SWAP2 MSTORE SWAP1 ISZERO ISZERO DUP1 DUP4 MSTORE SWAP1 DUP5 ADD CALLDATALOAD OR PUSH2 0x785 JUMPI PUSH3 0x461BCD PUSH1 0xE5 SHL PUSH1 0x0 MSTORE PUSH1 0x20 PUSH1 0x4 MSTORE PUSH1 0x17 PUSH1 0x24 MSTORE PUSH23 0x135D5B1D1A58D85B1B0CCE8818D85B1B0819985A5B1959 PUSH1 0x4A SHL PUSH1 0x44 MSTORE PUSH1 0x64 PUSH1 0x0 REVERT JUMPDEST POP PUSH1 0x1 ADD PUSH2 0x675 JUMP JUMPDEST PUSH1 0x60 DUP2 DUP1 PUSH8 0xFFFFFFFFFFFFFFFF DUP2 GT ISZERO PUSH2 0x7AA JUMPI PUSH2 0x7AA PUSH2 0xBD1 JUMP JUMPDEST PUSH1 0x40 MLOAD SWAP1 DUP1 DUP3 MSTORE DUP1 PUSH1 0x20 MUL PUSH1 0x20 ADD DUP3 ADD PUSH1 0x40 MSTORE DUP1 ISZERO PUSH2 0x7F0 JUMPI DUP2 PUSH1 0x20 ADD JUMPDEST PUSH1 0x40 DUP1 MLOAD DUP1 DUP3 ADD SWAP1 SWAP2 MSTORE PUSH1 0x0 DUP2 MSTORE PUSH1 0x60 PUSH1 0x20 DUP3 ADD MSTORE DUP2 MSTORE PUSH1 0x20 ADD SWAP1 PUSH1 0x1 SWAP1 SUB SWAP1 DUP2 PUSH2 0x7C8 JUMPI SWAP1 POP JUMPDEST POP SWAP2 POP CALLDATASIZE PUSH1 0x0 JUMPDEST DUP3 DUP2 LT ISZERO PUSH2 0x917 JUMPI PUSH1 0x0 DUP5 DUP3 DUP2 MLOAD DUP2 LT PUSH2 0x813 JUMPI PUSH2 0x813 PUSH2 0xBE7 JUMP JUMPDEST PUSH1 0x20 MUL PUSH1 0x20 ADD ADD MLOAD SWAP1 POP DUP7 DUP7 DUP4 DUP2 DUP2 LT PUSH2 0x82F JUMPI PUSH2 0x82F PUSH2 0xBE7 JUMP JUMPDEST SWAP1 POP PUSH1 0x20 MUL DUP2 ADD SWAP1 PUSH2 0x841 SWAP2 SWAP1 PUSH2 0xC74 JUMP JUMPDEST SWAP3 POP PUSH2 0x850 PUSH1 0x20 DUP5 ADD DUP5 PUSH2 0xB8F JUMP JUMPDEST PUSH1 0x1 PUSH1 0x1 PUSH1 0xA0 SHL SUB AND PUSH2 0x866 PUSH1 0x20 DUP6 ADD DUP6 PUSH2 0xC1D JUMP JUMPDEST PUSH1 0x40 MLOAD PUSH2 0x874 SWAP3 SWAP2 SWAP1 PUSH2 0xC64 JUMP JUMPDEST PUSH1 0x0 PUSH1 0x40 MLOAD DUP1 DUP4 SUB DUP2 PUSH1 0x0 DUP7 GAS CALL SWAP2 POP POP RETURNDATASIZE DUP1 PUSH1 0x0 DUP2 EQ PUSH2 0x8B1 JUMPI PUSH1 0x40 MLOAD SWAP2 POP PUSH1 0x1F NOT PUSH1 0x3F RETURNDATASIZE ADD AND DUP3 ADD PUSH1 0x40 MSTORE RETURNDATASIZE DUP3 MSTORE RETURNDATASIZE PUSH1 0x0 PUSH1 0x20 DUP5 ADD RETURNDATACOPY PUSH2 0x8B6 JUMP JUMPDEST PUSH1 0x60 SWAP2 POP JUMPDEST POP PUSH1 0x20 DUP4 ADD MSTORE ISZERO ISZERO DUP2 MSTORE DUP8 ISZERO PUSH2 0x90E JUMPI DUP1 MLOAD PUSH2 0x90E JUMPI PUSH1 0x40 MLOAD PUSH3 0x461BCD PUSH1 0xE5 SHL DUP2 MSTORE PUSH1 0x20 PUSH1 0x4 DUP3 ADD MSTORE PUSH1 0x17 PUSH1 0x24 DUP3 ADD MSTORE PUSH23 0x135D5B1D1A58D85B1B0CCE8818D85B1B0819985A5B1959 PUSH1 0x4A SHL PUSH1 0x44 DUP3 ADD MSTORE PUSH1 0x64 ADD PUSH2 0x46B JUMP JUMPDEST POP PUSH1 0x1 ADD PUSH2 0x7F7 JUMP JUMPDEST POP POP POP SWAP4 SWAP3 POP POP POP JUMP JUMPDEST PUSH1 0x0 DUP1 PUSH1 0x60 PUSH2 0x932 PUSH1 0x1 DUP7 DUP7 PUSH2 0x5F1 JUMP JUMPDEST SWAP2 SWAP8 SWAP1 SWAP7 POP SWAP1 SWAP5 POP SWAP3 POP POP POP JUMP JUMPDEST PUSH1 0x0 DUP1 DUP4 PUSH1 0x1F DUP5 ADD SLT PUSH2 0x952 JUMPI PUSH1 0x0 DUP1 REVERT JUMPDEST POP DUP2 CALLDATALOAD PUSH8 0xFFFFFFFFFFFFFFFF DUP2 GT ISZERO PUSH2 0x96A JUMPI PUSH1 0x0 DUP1 REVERT JUMPDEST PUSH1 0x20 DUP4 ADD SWAP2 POP DUP4 PUSH1 0x20 DUP3 PUSH1 0x5 SHL DUP6 ADD ADD GT ISZERO PUSH2 0x985 JUMPI PUSH1 0x0 DUP1 REVERT JUMPDEST SWAP3 POP SWAP3 SWAP1 POP JUMP JUMPDEST PUSH1 0x0 DUP1 PUSH1 0x20 DUP4 DUP6 SUB SLT ISZERO PUSH2 0x99F JUMPI PUSH1 0x0 DUP1 REVERT JUMPDEST DUP3 CALLDATALOAD PUSH8 0xFFFFFFFFFFFFFFFF DUP2 GT ISZERO PUSH2 0x9B6 JUMPI PUSH1 0x0 DUP1 REVERT JUMPDEST PUSH2 0x9C2 DUP6 DUP3 DUP7 ADD PUSH2 0x940 JUMP JUMPDEST SWAP1 SWAP7 SWAP1 SWAP6 POP SWAP4 POP POP POP POP JUMP JUMPDEST PUSH1 0x0 DUP2 MLOAD DUP1 DUP5 MSTORE PUSH1 0x0 JUMPDEST DUP2 DUP2 LT ISZERO PUSH2 0x9F4 JUMPI PUSH1 0x20 DUP2 DUP6 ADD DUP2 ADD MLOAD DUP7 DUP4 ADD DUP3 ADD MSTORE ADD PUSH2 0x9D8 JUMP JUMPDEST DUP2 DUP2 GT ISZERO PUSH2 0xA06 JUMPI PUSH1 0x0 PUSH1 0x20 DUP4 DUP8 ADD ADD MSTORE JUMPDEST POP PUSH1 0x1F ADD PUSH1 0x1F NOT AND SWAP3 SWAP1 SWAP3 ADD PUSH1 0x20 ADD SWAP3 SWAP2 POP POP JUMP JUMPDEST PUSH1 0x0 DUP3 DUP3 MLOAD DUP1 DUP6 MSTORE PUSH1 0x20 DUP1 DUP7 ADD SWAP6 POP DUP1 DUP3 PUSH1 0x5 SHL DUP5 ADD ADD DUP2 DUP7 ADD PUSH1 0x0 JUMPDEST DUP5 DUP2 LT ISZERO PUSH2 0xA7C JUMPI DUP6 DUP4 SUB PUSH1 0x1F NOT ADD DUP10 MSTORE DUP2 MLOAD DUP1 MLOAD ISZERO ISZERO DUP5 MSTORE DUP5 ADD MLOAD PUSH1 0x40 DUP6 DUP6 ADD DUP2 SWAP1 MSTORE PUSH2 0xA68 DUP2 DUP7 ADD DUP4 PUSH2 0x9CE JUMP JUMPDEST SWAP11 DUP7 ADD SWAP11 SWAP5 POP POP POP SWAP1 DUP4 ADD SWAP1 PUSH1 0x1 ADD PUSH2 0xA38 JUMP JUMPDEST POP SWAP1 SWAP8 SWAP7 POP POP POP POP POP POP POP JUMP JUMPDEST PUSH1 0x20 DUP2 MSTORE PUSH1 0x0 PUSH2 0xA9C PUSH1 0x20 DUP4 ADD DUP5 PUSH2 0xA1B JUMP JUMPDEST SWAP4 SWAP3 POP POP POP JUMP JUMPDEST PUSH1 0x0 PUSH1 0x40 DUP3 ADD DUP5 DUP4 MSTORE PUSH1 0x20 PUSH1 0x40 DUP2 DUP6 ADD MSTORE DUP2 DUP6 MLOAD DUP1 DUP5 MSTORE PUSH1 0x60 DUP7 ADD SWAP2 POP PUSH1 0x60 DUP2 PUSH1 0x5 SHL DUP8 ADD ADD SWAP4 POP DUP3 DUP8 ADD PUSH1 0x0 JUMPDEST DUP3 DUP2 LT ISZERO PUSH2 0xAFF JUMPI PUSH1 0x5F NOT DUP9 DUP8 SUB ADD DUP5 MSTORE PUSH2 0xAED DUP7 DUP4 MLOAD PUSH2 0x9CE JUMP JUMPDEST SWAP6 POP SWAP3 DUP5 ADD SWAP3 SWAP1 DUP5 ADD SWAP1 PUSH1 0x1 ADD PUSH2 0xAD1 JUMP JUMPDEST POP SWAP4 SWAP9 SWAP8 POP POP POP POP POP POP POP POP JUMP JUMPDEST PUSH1 0x0 DUP1 PUSH1 0x0 PUSH1 0x40 DUP5 DUP7 SUB SLT ISZERO PUSH2 0xB22 JUMPI PUSH1 0x0 DUP1 REVERT JUMPDEST DUP4 CALLDATALOAD DUP1 ISZERO ISZERO DUP2 EQ PUSH2 0xB32 JUMPI PUSH1 0x0 DUP1 REVERT JUMPDEST SWAP3 POP PUSH1 0x20 DUP5 ADD CALLDATALOAD PUSH8 0xFFFFFFFFFFFFFFFF DUP2 GT ISZERO PUSH2 0xB4E JUMPI PUSH1 0x0 DUP1 REVERT JUMPDEST PUSH2 0xB5A DUP7 DUP3 DUP8 ADD PUSH2 0x940 JUMP JUMPDEST SWAP5 SWAP8 SWAP1 SWAP7 POP SWAP4 SWAP5 POP POP POP POP JUMP JUMPDEST DUP4 DUP2 MSTORE DUP3 PUSH1 0x20 DUP3 ADD MSTORE PUSH1 0x60 PUSH1 0x40 DUP3 ADD MSTORE PUSH1 0x0 PUSH2 0xB86 PUSH1 0x60 DUP4 ADD DUP5 PUSH2 0xA1B JUMP JUMPDEST SWAP6 SWAP5 POP POP POP POP POP JUMP JUMPDEST PUSH1 0x0 PUSH1 0x20 DUP3 DUP5 SUB SLT ISZERO PUSH2 0xBA1 JUMPI PUSH1 0x0 DUP1 REVERT JUMPDEST DUP2 CALLDATALOAD PUSH1 0x1 PUSH1 0x1 PUSH1 0xA0 SHL SUB DUP2 AND DUP2 EQ PUSH2 0xA9C JUMPI PUSH1 0x0 DUP1 REVERT JUMPDEST PUSH1 0x0 PUSH1 0x20 DUP3 DUP5 SUB SLT ISZERO PUSH2 0xBCA JUMPI PUSH1 0x0 DUP1 REVERT JUMPDEST POP CALLDATALOAD SWAP2 SWAP1 POP JUMP JUMPDEST PUSH4 0x4E487B71 PUSH1 0xE0 SHL PUSH1 0x0 MSTORE PUSH1 0x41 PUSH1 0x4 MSTORE PUSH1 0x24 PUSH1 0x0 REVERT JUMPDEST PUSH4 0x4E487B71 PUSH1 0xE0 SHL PUSH1 0x0 MSTORE PUSH1 0x32 PUSH1 0x4 MSTORE PUSH1 0x24 PUSH1 0x0 REVERT JUMPDEST PUSH1 0x0 DUP3 CALLDATALOAD PUSH1 0x7E NOT DUP4 CALLDATASIZE SUB ADD DUP2 SLT PUSH2 0xC13 JUMPI PUSH1 0x0 DUP1 REVERT JUMPDEST SWAP2 SWAP1 SWAP2 ADD SWAP3 SWAP2 POP POP JUMP JUMPDEST PUSH1 0x0 DUP1 DUP4 CALLDATALOAD PUSH1 0x1E NOT DUP5 CALLDATASIZE SUB ADD DUP2 SLT PUSH2 0xC34 JUMPI PUSH1 0x0 DUP1 REVERT JUMPDEST DUP4 ADD DUP1 CALLDATALOAD SWAP2 POP PUSH8 0xFFFFFFFFFFFFFFFF DUP3 GT ISZERO PUSH2 0xC4F JUMPI PUSH1 0x0 DUP1 REVERT JUMPDEST PUSH1 0x20 ADD SWAP2 POP CALLDATASIZE DUP2 SWAP1 SUB DUP3 SGT ISZERO PUSH2 0x985 JUMPI PUSH1 0x0 DUP1 REVERT JUMPDEST DUP2 DUP4 DUP3 CALLDATACOPY PUSH1 0x0 SWAP2 ADD SWAP1 DUP2 MSTORE SWAP2 SWAP1 POP JUMP JUMPDEST PUSH1 0x0 DUP3 CALLDATALOAD PUSH1 0x3E NOT DUP4 CALLDATASIZE SUB ADD DUP2 SLT PUSH2 0xC13 JUMPI PUSH1 0x0 DUP1 REVERT JUMPDEST PUSH1 0x0 DUP3 CALLDATALOAD PUSH1 0x5E NOT DUP4 CALLDATASIZE SUB ADD DUP2 SLT PUSH2 0xC13 JUMPI PUSH1 0x0 DUP1 REVERT INVALID LOG2 PUSH5 0x6970667358 0x22 SLT KECCAK256 0xBF 0xB1 SWAP7 CREATE2 DUP4 PUSH4 0x5D8AD30 0x5F 0xE2 XOR PUSH9 0xCECAB478369ED980FE DUP5 0xDB COINBASE DUP15 PUSH14 0xCD1ADF0764736F6C634300080C00 CALLER "
		},
		"gasEstimates": {
			"creation": {
				"codeDepositCost": "657200",
				"executionCost": "689",
				"totalCost": "657889"
			},
			"external": {
				"aggregate((address,bytes)[])": "infinite",
				"aggregate3((address,bool,bytes)[])": "infinite",
				"aggregate3Value((address,bool,uint256,bytes)[])": "infinite",
				"blockAndAggregate((address,bytes)[])": "infinite",
				"getBasefee()": "247",
				"getBlockHash(uint256)": "366",
				"getBlockNumber()": "269",
				"getChainId()": "203",
				"getCurrentBlockCoinbase()": "198",
				"getCurrentBlockDifficulty()": "225",
				"getCurrentBlockGasLimit()": "269",
				"getCurrentBlockTimestamp()": "193",
				"getEthBalance(address)": "2945",
				"getLastBlockHash()": "299",
				"tryAggregate(bool,(address,bytes)[])": "infinite",
				"tryBlockAndAggregate(bool,(address,bytes)[])": "infinite"
			}
		},
		"methodIdentifiers": {
			"aggregate((address,bytes)[])": "252dba42",
			"aggregate3((address,bool,bytes)[])": "82ad56cb",
			"aggregate3Value((address,bool,uint256,bytes)[])": "174dea71",
			"blockAndAggregate((address,bytes)[])": "c3077fa9",
			"getBasefee()": "3e64a696",
			"getBlockHash(uint256)": "ee82ac5e",
			"getBlockNumber()": "42cbb15c",
			"getChainId()": "3408e470",
			"getCurrentBlockCoinbase()": "a8b0574e",
			"getCurrentBlockDifficulty()": "72425d9d",
			"getCurrentBlockGasLimit()": "86d516e8",
			"getCurrentBlockTimestamp()": "0f28c97d",
			"getEthBalance(address)": "4d2301cc",
			"getLastBlockHash()": "27e86d6e",
			"tryAggregate(bool,(address,bytes)[])": "bce38bd7",
			"tryBlockAndAggregate(bool,(address,bytes)[])": "399542e9"
		}
	},
	"abi": [
		{
			"inputs": [
				{
					"components": [
						{
							"internalType": "address",
							"name": "target",
							"type": "address"
						},
						{
							"internalType": "bytes",
							"name": "callData",
							"type": "bytes"
						}
					],
					"internalType": "struct Multicall3.Call[]",
					"name": "calls",
					"type": "tuple[]"
				}
			],
			"name": "aggregate",
			"outputs": [
				{
					"internalType": "uint256",
					"name": "blockNumber",
					"type": "uint256"
				},
				{
					"internalType": "bytes[]",
					"name": "returnData",
					"type": "bytes[]"
				}
			],
			"stateMutability": "payable",
			"type": "function"
		},
		{
			"inputs": [
				{
					"components": [
						{
							"internalType": "address",
							"name": "target",
							"type": "address"
						},
						{
							"internalType": "bool",
							"name": "allowFailure",
							"type": "bool"
						},
						{
							"internalType": "bytes",
							"name": "callData",
							"type": "bytes"
						}
					],
					"internalType": "struct Multicall3.Call3[]",
					"name": "calls",
					"type": "tuple[]"
				}
			],
			"name": "aggregate3",
			"outputs": [
				{
					"components": [
						{
							"internalType": "bool",
							"name": "success",
							"type": "bool"
						},
						{
							"internalType": "bytes",
							"name": "returnData",
							"type": "bytes"
						}
					],
					"internalType": "struct Multicall3.Result[]",
					"name": "returnData",
					"type": "tuple[]"
				}
			],
			"stateMutability": "payable",
			"type": "function"
		},
		{
			"inputs": [
				{
					"components": [
						{
							"internalType": "address",
							"name": "target",
							"type": "address"
						},
						{
							"internalType": "bool",
							"name": "allowFailure",
							"type": "bool"
						},
						{
							"internalType": "uint256",
							"name": "value",
							"type": "uint256"
						},
						{
							"internalType": "bytes",
							"name": "callData",
							"type": "bytes"
						}
					],
					"internalType": "struct Multicall3.Call3Value[]",
					"name": "calls",
					"type": "tuple[]"
				}
			],
			"name": "aggregate3Value",
			"outputs": [
				{
					"components": [
						{
							"internalType": "bool",
							"name": "success",
							"type": "bool"
						},
						{
							"internalType": "bytes",
							"name": "returnData",
							"type": "bytes"
						}
					],
					"internalType": "struct Multicall3.Result[]",
					"name": "returnData",
					"type": "tuple[]"
				}
			],
			"stateMutability": "payable",
			"type": "function"
		},
		{
			"inputs": [
				{
					"components": [
						{
							"internalType": "address",
							"name": "target",
							"type": "address"
						},
						{
							"internalType": "bytes",
							"name": "callData",
							"type": "bytes"
						}
					],
					"internalType": "struct Multicall3.Call[]",
					"name": "calls",
					"type": "tuple[]"
				}
			],
			"name": "blockAndAggregate",
			"outputs": [
				{
					"internalType": "uint256",
					"name": "blockNumber",
					"type": "uint256"
				},
				{
					"internalType": "bytes32",
					"name": "blockHash",
					"type": "bytes32"
				},
				{
					"components": [
						{
							"internalType": "bool",
							"name": "success",
							"type": "bool"
						},
						{
							"internalType": "bytes",
							"name": "returnData",
							"type": "bytes"
						}
					],
					"internalType": "struct Multicall3.Result[]",
					"name": "returnData",
					"type": "tuple[]"
				}
			],
			"stateMutability": "payable",
			"type": "function"
		},
		{
			"inputs": [],
			"name": "getBasefee",
			"outputs": [
				{
					"internalType": "uint256",
					"name": "basefee",
					"type": "uint256"
				}
			],
			"stateMutability": "view",
			"type": "function"
		},
		{
			"inputs": [
				{
					"internalType": "uint256",
					"name": "blockNumber",
					"type": "uint256"
				}
			],
			"name": "getBlockHash",
			"outputs": [
				{
					"internalType": "bytes32",
					"name": "blockHash",
					"type": "bytes32"
				}
			],
			"stateMutability": "view",
			"type": "function"
		},
		{
			"inputs": [],
			"name": "getBlockNumber",
			"outputs": [
				{
					"internalType": "uint256",
					"name": "blockNumber",
					"type": "uint256"
				}
			],
			"stateMutability": "view",
			"type": "function"
		},
		{
			"inputs": [],
			"name": "getChainId",
			"outputs": [
				{
					"internalType": "uint256",
					"name": "chainid",
					"type": "uint256"
				}
			],
			"stateMutability": "view",
			"type": "function"
		},
		{
			"inputs": [],
			"name": "getCurrentBlockCoinbase",
			"outputs": [
				{
					"internalType": "address",
					"name": "coinbase",
					"type": "address"
				}
			],
			"stateMutability": "view",
			"type": "function"
		},
		{
			"inputs": [],
			"name": "getCurrentBlockDifficulty",
			"outputs": [
				{
					"internalType": "uint256",
					"name": "difficulty",
					"type": "uint256"
				}
			],
			"stateMutability": "view",
			"type": "function"
		},
		{
			"inputs": [],
			"name": "getCurrentBlockGasLimit",
			"outputs": [
				{
					"internalType": "uint256",
					"name": "gaslimit",
					"type": "uint256"
				}
			],
			"stateMutability": "view",
			"type": "function"
		},
		{
			"inputs": [],
			"name": "getCurrentBlockTimestamp",
			"outputs": [
				{
					"internalType": "uint256",
					"name": "timestamp",
					"type": "uint256"
				}
			],
			"stateMutability": "view",
			"type": "function"
		},
		{
			"inputs": [
				{
					"internalType": "address",
					"name": "addr",
					"type": "address"
				}
			],
			"name": "getEthBalance",
			"outputs": [
				{
					"internalType": "uint256",
					"name": "balance",
					"type": "uint256"
				}
			],
			"stateMutability": "view",
			"type": "function"
		},
		{
			"inputs": [],
			"name": "getLastBlockHash",
			"outputs": [
				{
					"internalType": "bytes32",
					"name": "blockHash",
					"type": "bytes32"
				}
			],
			"stateMutability": "view",
			"type": "function"
		},
		{
			"inputs": [
				{
					"internalType": "bool",
					"name": "requireSuccess",
					"type": "bool"
				},
				{
					"components": [
						{
							"internalType": "address",
							"name": "target",
							"type": "address"
						},
						{
							"internalType": "bytes",
							"name": "callData",
							"type": "bytes"
						}
					],
					"internalType": "struct Multicall3.Call[]",
					"name": "calls",
					"type": "tuple[]"
				}
			],
			"name": "tryAggregate",
			"outputs": [
				{
					"components": [
						{
							"internalType": "bool",
							"name": "success",
							"type": "bool"
						},
						{
							"internalType": "bytes",
							"name": "returnData",
							"type": "bytes"
						}
					],
					"internalType": "struct Multicall3.Result[]",
					"name": "returnData",
					"type": "tuple[]"
				}
			],
			"stateMutability": "payable",
			"type": "function"
		},
		{
			"inputs": [
				{
					"internalType": "bool",
					"name": "requireSuccess",
					"type": "bool"
				},
				{
					"components": [
						{
							"internalType": "address",
							"name": "target",
							"type": "address"
						},
						{
							"internalType": "bytes",
							"name": "callData",
							"type": "bytes"
						}
					],
					"internalType": "struct Multicall3.Call[]",
					"name": "calls",
					"type": "tuple[]"
				}
			],
			"name": "tryBlockAndAggregate",
			"outputs": [
				{
					"internalType": "uint256",
					"name": "blockNumber",
					"type": "uint256"
				},
				{
					"internalType": "bytes32",
					"name": "blockHash",
					"type": "bytes32"
				},
				{
					"components": [
						{
							"internalType": "bool",
							"name": "success",
							"type": "bool"
						},
						{
							"internalType": "bytes",
							"name": "returnData",
							"type": "bytes"
						}
					],
					"internalType": "struct Multicall3.Result[]",
					"name": "returnData",
					"type": "tuple[]"
				}
			],
			"stateMutability": "payable",
			"type": "function"
		}
	]
}