{
	"DexSwap/DexFactory.sol": {
		"DexFactory": {
			"abi": [
				{
					"inputs": [
						{
							"internalType": "address",
							"name": "_feeToSetter",
							"type": "address"
						}
					],
					"payable": false,
					"stateMutability": "nonpayable",
					"type": "constructor"
				},
				{
					"anonymous": false,
					"inputs": [
						{
							"indexed": true,
							"internalType": "address",
							"name": "token0",
							"type": "address"
						},
						{
							"indexed": true,
							"internalType": "address",
							"name": "token1",
							"type": "address"
						},
						{
							"indexed": false,
							"internalType": "address",
							"name": "pair",
							"type": "address"
						},
						{
							"indexed": false,
							"internalType": "uint256",
							"name": "",
							"type": "uint256"
						}
					],
					"name": "PairCreated",
					"type": "event"
				},
				{
					"constant": true,
					"inputs": [],
					"name": "INIT_CODE_PAIR_HASH",
					"outputs": [
						{
							"internalType": "bytes32",
							"name": "",
							"type": "bytes32"
						}
					],
					"payable": false,
					"stateMutability": "view",
					"type": "function"
				},
				{
					"constant": true,
					"inputs": [
						{
							"internalType": "uint256",
							"name": "",
							"type": "uint256"
						}
					],
					"name": "allPairs",
					"outputs": [
						{
							"internalType": "address",
							"name": "",
							"type": "address"
						}
					],
					"payable": false,
					"stateMutability": "view",
					"type": "function"
				},
				{
					"constant": true,
					"inputs": [],
					"name": "allPairsLength",
					"outputs": [
						{
							"internalType": "uint256",
							"name": "",
							"type": "uint256"
						}
					],
					"payable": false,
					"stateMutability": "view",
					"type": "function"
				},
				{
					"constant": false,
					"inputs": [
						{
							"internalType": "address",
							"name": "tokenA",
							"type": "address"
						},
						{
							"internalType": "address",
							"name": "tokenB",
							"type": "address"
						}
					],
					"name": "createPair",
					"outputs": [
						{
							"internalType": "address",
							"name": "pair",
							"type": "address"
						}
					],
					"payable": false,
					"stateMutability": "nonpayable",
					"type": "function"
				},
				{
					"constant": true,
					"inputs": [],
					"name": "feeTo",
					"outputs": [
						{
							"internalType": "address",
							"name": "",
							"type": "address"
						}
					],
					"payable": false,
					"stateMutability": "view",
					"type": "function"
				},
				{
					"constant": true,
					"inputs": [],
					"name": "feeToSetter",
					"outputs": [
						{
							"internalType": "address",
							"name": "",
							"type": "address"
						}
					],
					"payable": false,
					"stateMutability": "view",
					"type": "function"
				},
				{
					"constant": true,
					"inputs": [
						{
							"internalType": "address",
							"name": "",
							"type": "address"
						},
						{
							"internalType": "address",
							"name": "",
							"type": "address"
						}
					],
					"name": "getPair",
					"outputs": [
						{
							"internalType": "address",
							"name": "",
							"type": "address"
						}
					],
					"payable": false,
					"stateMutability": "view",
					"type": "function"
				},
				{
					"constant": false,
					"inputs": [
						{
							"internalType": "address",
							"name": "_feeTo",
							"type": "address"
						}
					],
					"name": "setFeeTo",
					"outputs": [],
					"payable": false,
					"stateMutability": "nonpayable",
					"type": "function"
				},
				{
					"constant": false,
					"inputs": [
						{
							"internalType": "address",
							"name": "_feeToSetter",
							"type": "address"
						}
					],
					"name": "setFeeToSetter",
					"outputs": [],
					"payable": false,
					"stateMutability": "nonpayable",
					"type": "function"
				}
			],
			"devdoc": {
				"methods": {}
			},
			"evm": {
				"assembly": "    /* \"DexSwap/DexFactory.sol\":130:1976  contract DexFactory is IPancakeFactory {... */\n  mstore(0x40, 0x80)\n    /* \"DexSwap/DexFactory.sol\":534:618  constructor(address _feeToSetter) public {... */\n  callvalue\n    /* \"--CODEGEN--\":8:17   */\n  dup1\n    /* \"--CODEGEN--\":5:7   */\n  iszero\n  tag_1\n  jumpi\n    /* \"--CODEGEN--\":30:31   */\n  0x00\n    /* \"--CODEGEN--\":27:28   */\n  dup1\n    /* \"--CODEGEN--\":20:32   */\n  revert\n    /* \"--CODEGEN--\":5:7   */\ntag_1:\n    /* \"DexSwap/DexFactory.sol\":534:618  constructor(address _feeToSetter) public {... */\n  pop\n  mload(0x40)\n  sub(codesize, bytecodeSize)\n  dup1\n  bytecodeSize\n  dup4\n  codecopy\n  dup2\n  dup2\n  add\n  0x40\n  mstore\n    /* \"--CODEGEN--\":13:15   */\n  0x20\n    /* \"--CODEGEN--\":8:11   */\n  dup2\n    /* \"--CODEGEN--\":5:16   */\n  lt\n    /* \"--CODEGEN--\":2:4   */\n  iszero\n  tag_2\n  jumpi\n    /* \"--CODEGEN--\":29:30   */\n  0x00\n    /* \"--CODEGEN--\":26:27   */\n  dup1\n    /* \"--CODEGEN--\":19:31   */\n  revert\n    /* \"--CODEGEN--\":2:4   */\ntag_2:\n  pop\n    /* \"DexSwap/DexFactory.sol\":534:618  constructor(address _feeToSetter) public {... */\n  mload\n    /* \"DexSwap/DexFactory.sol\":585:596  feeToSetter */\n  0x01\n    /* \"DexSwap/DexFactory.sol\":585:611  feeToSetter = _feeToSetter */\n  dup1\n  sload\n  not(sub(shl(0xa0, 0x01), 0x01))\n  and\n  sub(shl(0xa0, 0x01), 0x01)\n  swap1\n  swap3\n  and\n  swap2\n  swap1\n  swap2\n  or\n  swap1\n  sstore\n    /* \"DexSwap/DexFactory.sol\":130:1976  contract DexFactory is IPancakeFactory {... */\n  dataSize(sub_0)\n  dup1\n  dataOffset(sub_0)\n  0x00\n  codecopy\n  0x00\n  return\nstop\n\nsub_0: assembly {\n        /* \"DexSwap/DexFactory.sol\":130:1976  contract DexFactory is IPancakeFactory {... */\n      mstore(0x40, 0x80)\n      callvalue\n        /* \"--CODEGEN--\":8:17   */\n      dup1\n        /* \"--CODEGEN--\":5:7   */\n      iszero\n      tag_1\n      jumpi\n        /* \"--CODEGEN--\":30:31   */\n      0x00\n        /* \"--CODEGEN--\":27:28   */\n      dup1\n        /* \"--CODEGEN--\":20:32   */\n      revert\n        /* \"--CODEGEN--\":5:7   */\n    tag_1:\n        /* \"DexSwap/DexFactory.sol\":130:1976  contract DexFactory is IPancakeFactory {... */\n      pop\n      jumpi(tag_2, lt(calldatasize, 0x04))\n      shr(0xe0, calldataload(0x00))\n      dup1\n      0x5855a25a\n      gt\n      tag_12\n      jumpi\n      dup1\n      0x5855a25a\n      eq\n      tag_7\n      jumpi\n      dup1\n      0xa2e74af6\n      eq\n      tag_8\n      jumpi\n      dup1\n      0xc9c65396\n      eq\n      tag_9\n      jumpi\n      dup1\n      0xe6a43905\n      eq\n      tag_10\n      jumpi\n      dup1\n      0xf46901ed\n      eq\n      tag_11\n      jumpi\n      jump(tag_2)\n    tag_12:\n      dup1\n      0x017e7e58\n      eq\n      tag_3\n      jumpi\n      dup1\n      0x094b7415\n      eq\n      tag_4\n      jumpi\n      dup1\n      0x1e3dd18b\n      eq\n      tag_5\n      jumpi\n      dup1\n      0x574f2ba3\n      eq\n      tag_6\n      jumpi\n    tag_2:\n      0x00\n      dup1\n      revert\n        /* \"DexSwap/DexFactory.sol\":283:303  address public feeTo */\n    tag_3:\n      tag_13\n      tag_14\n      jump\t// in\n    tag_13:\n      0x40\n      dup1\n      mload\n      sub(shl(0xa0, 0x01), 0x01)\n      swap1\n      swap3\n      and\n      dup3\n      mstore\n      mload\n      swap1\n      dup2\n      swap1\n      sub\n      0x20\n      add\n      swap1\n      return\n        /* \"DexSwap/DexFactory.sol\":309:335  address public feeToSetter */\n    tag_4:\n      tag_13\n      tag_16\n      jump\t// in\n        /* \"DexSwap/DexFactory.sol\":410:435  address[] public allPairs */\n    tag_5:\n      tag_13\n      0x04\n      dup1\n      calldatasize\n      sub\n        /* \"--CODEGEN--\":13:15   */\n      0x20\n        /* \"--CODEGEN--\":8:11   */\n      dup2\n        /* \"--CODEGEN--\":5:16   */\n      lt\n        /* \"--CODEGEN--\":2:4   */\n      iszero\n      tag_18\n      jumpi\n        /* \"--CODEGEN--\":29:30   */\n      0x00\n        /* \"--CODEGEN--\":26:27   */\n      dup1\n        /* \"--CODEGEN--\":19:31   */\n      revert\n        /* \"--CODEGEN--\":2:4   */\n    tag_18:\n      pop\n        /* \"DexSwap/DexFactory.sol\":410:435  address[] public allPairs */\n      calldataload\n      tag_19\n      jump\t// in\n        /* \"DexSwap/DexFactory.sol\":624:718  function allPairsLength() external view returns (uint) {... */\n    tag_6:\n      tag_20\n      tag_21\n      jump\t// in\n    tag_20:\n      0x40\n      dup1\n      mload\n      swap2\n      dup3\n      mstore\n      mload\n      swap1\n      dup2\n      swap1\n      sub\n      0x20\n      add\n      swap1\n      return\n        /* \"DexSwap/DexFactory.sol\":175:276  bytes32 public constant INIT_CODE_PAIR_HASH = keccak256(abi.encodePacked(type(DexPair).creationCode)) */\n    tag_7:\n      tag_20\n      tag_23\n      jump\t// in\n        /* \"DexSwap/DexFactory.sol\":1810:1974  function setFeeToSetter(address _feeToSetter) external {... */\n    tag_8:\n      tag_24\n      0x04\n      dup1\n      calldatasize\n      sub\n        /* \"--CODEGEN--\":13:15   */\n      0x20\n        /* \"--CODEGEN--\":8:11   */\n      dup2\n        /* \"--CODEGEN--\":5:16   */\n      lt\n        /* \"--CODEGEN--\":2:4   */\n      iszero\n      tag_25\n      jumpi\n        /* \"--CODEGEN--\":29:30   */\n      0x00\n        /* \"--CODEGEN--\":26:27   */\n      dup1\n        /* \"--CODEGEN--\":19:31   */\n      revert\n        /* \"--CODEGEN--\":2:4   */\n    tag_25:\n      pop\n        /* \"DexSwap/DexFactory.sol\":1810:1974  function setFeeToSetter(address _feeToSetter) external {... */\n      calldataload\n      sub(shl(0xa0, 0x01), 0x01)\n      and\n      tag_26\n      jump\t// in\n    tag_24:\n      stop\n        /* \"DexSwap/DexFactory.sol\":724:1658  function createPair(address tokenA, address tokenB) external returns (address pair) {... */\n    tag_9:\n      tag_13\n      0x04\n      dup1\n      calldatasize\n      sub\n        /* \"--CODEGEN--\":13:15   */\n      0x40\n        /* \"--CODEGEN--\":8:11   */\n      dup2\n        /* \"--CODEGEN--\":5:16   */\n      lt\n        /* \"--CODEGEN--\":2:4   */\n      iszero\n      tag_28\n      jumpi\n        /* \"--CODEGEN--\":29:30   */\n      0x00\n        /* \"--CODEGEN--\":26:27   */\n      dup1\n        /* \"--CODEGEN--\":19:31   */\n      revert\n        /* \"--CODEGEN--\":2:4   */\n    tag_28:\n      pop\n      sub(shl(0xa0, 0x01), 0x01)\n        /* \"DexSwap/DexFactory.sol\":724:1658  function createPair(address tokenA, address tokenB) external returns (address pair) {... */\n      dup2\n      calldataload\n      dup2\n      and\n      swap2\n      0x20\n      add\n      calldataload\n      and\n      tag_29\n      jump\t// in\n        /* \"DexSwap/DexFactory.sol\":342:404  mapping(address => mapping(address => address)) public getPair */\n    tag_10:\n      tag_13\n      0x04\n      dup1\n      calldatasize\n      sub\n        /* \"--CODEGEN--\":13:15   */\n      0x40\n        /* \"--CODEGEN--\":8:11   */\n      dup2\n        /* \"--CODEGEN--\":5:16   */\n      lt\n        /* \"--CODEGEN--\":2:4   */\n      iszero\n      tag_31\n      jumpi\n        /* \"--CODEGEN--\":29:30   */\n      0x00\n        /* \"--CODEGEN--\":26:27   */\n      dup1\n        /* \"--CODEGEN--\":19:31   */\n      revert\n        /* \"--CODEGEN--\":2:4   */\n    tag_31:\n      pop\n      sub(shl(0xa0, 0x01), 0x01)\n        /* \"DexSwap/DexFactory.sol\":342:404  mapping(address => mapping(address => address)) public getPair */\n      dup2\n      calldataload\n      dup2\n      and\n      swap2\n      0x20\n      add\n      calldataload\n      and\n      tag_32\n      jump\t// in\n        /* \"DexSwap/DexFactory.sol\":1664:1804  function setFeeTo(address _feeTo) external {... */\n    tag_11:\n      tag_24\n      0x04\n      dup1\n      calldatasize\n      sub\n        /* \"--CODEGEN--\":13:15   */\n      0x20\n        /* \"--CODEGEN--\":8:11   */\n      dup2\n        /* \"--CODEGEN--\":5:16   */\n      lt\n        /* \"--CODEGEN--\":2:4   */\n      iszero\n      tag_34\n      jumpi\n        /* \"--CODEGEN--\":29:30   */\n      0x00\n        /* \"--CODEGEN--\":26:27   */\n      dup1\n        /* \"--CODEGEN--\":19:31   */\n      revert\n        /* \"--CODEGEN--\":2:4   */\n    tag_34:\n      pop\n        /* \"DexSwap/DexFactory.sol\":1664:1804  function setFeeTo(address _feeTo) external {... */\n      calldataload\n      sub(shl(0xa0, 0x01), 0x01)\n      and\n      tag_35\n      jump\t// in\n        /* \"DexSwap/DexFactory.sol\":283:303  address public feeTo */\n    tag_14:\n      and(sub(shl(0xa0, 0x01), 0x01), sload(0x00))\n      dup2\n      jump\t// out\n        /* \"DexSwap/DexFactory.sol\":309:335  address public feeToSetter */\n    tag_16:\n      and(sub(shl(0xa0, 0x01), 0x01), sload(0x01))\n      dup2\n      jump\t// out\n        /* \"DexSwap/DexFactory.sol\":410:435  address[] public allPairs */\n    tag_19:\n      0x03\n      dup2\n      dup2\n      sload\n      dup2\n      lt\n      tag_36\n      jumpi\n      invalid\n    tag_36:\n      0x00\n      swap2\n      dup3\n      mstore\n      0x20\n      swap1\n      swap2\n      keccak256\n      add\n      sload\n      sub(shl(0xa0, 0x01), 0x01)\n      and\n      swap1\n      pop\n      dup2\n      jump\t// out\n        /* \"DexSwap/DexFactory.sol\":624:718  function allPairsLength() external view returns (uint) {... */\n    tag_21:\n        /* \"DexSwap/DexFactory.sol\":696:704  allPairs */\n      0x03\n        /* \"DexSwap/DexFactory.sol\":696:711  allPairs.length */\n      sload\n        /* \"DexSwap/DexFactory.sol\":624:718  function allPairsLength() external view returns (uint) {... */\n      swap1\n      jump\t// out\n        /* \"DexSwap/DexFactory.sol\":175:276  bytes32 public constant INIT_CODE_PAIR_HASH = keccak256(abi.encodePacked(type(DexPair).creationCode)) */\n    tag_23:\n        /* \"DexSwap/DexFactory.sol\":248:274  type(DexPair).creationCode */\n      mload(0x40)\n      tag_39\n      0x20\n      dup3\n      add\n      tag_40\n      jump\t// in\n    tag_39:\n        /* \"--CODEGEN--\":41:45   */\n      0x20\n        /* \"--CODEGEN--\":34:39   */\n      dup3\n        /* \"--CODEGEN--\":30:46   */\n      add\n        /* \"--CODEGEN--\":25:28   */\n      dup2\n        /* \"--CODEGEN--\":21:47   */\n      sub\n        /* \"--CODEGEN--\":14:19   */\n      dup3\n        /* \"--CODEGEN--\":7:48   */\n      mstore\n        /* \"--CODEGEN--\":87:89   */\n      0x1f\n        /* \"--CODEGEN--\":83:90   */\n      not\n        /* \"--CODEGEN--\":78:80   */\n      0x1f\n        /* \"--CODEGEN--\":73:76   */\n      dup3\n        /* \"--CODEGEN--\":69:81   */\n      add\n        /* \"--CODEGEN--\":65:91   */\n      and\n        /* \"--CODEGEN--\":61:63   */\n      0x40\n        /* \"--CODEGEN--\":54:92   */\n      mstore\n        /* \"DexSwap/DexFactory.sol\":248:274  type(DexPair).creationCode */\n      pop\n        /* \"DexSwap/DexFactory.sol\":231:275  abi.encodePacked(type(DexPair).creationCode) */\n      add(0x20, mload(0x40))\n      dup1\n      dup3\n      dup1\n      mload\n      swap1\n      0x20\n      add\n      swap1\n      dup1\n      dup4\n      dup4\n        /* \"--CODEGEN--\":36:189   */\n    tag_41:\n        /* \"--CODEGEN--\":66:68   */\n      0x20\n        /* \"--CODEGEN--\":61:64   */\n      dup4\n        /* \"--CODEGEN--\":58:69   */\n      lt\n        /* \"--CODEGEN--\":36:189   */\n      tag_43\n      jumpi\n        /* \"--CODEGEN--\":176:186   */\n      dup1\n      mload\n        /* \"--CODEGEN--\":164:187   */\n      dup3\n      mstore\n      not(0x1f)\n        /* \"--CODEGEN--\":139:151   */\n      swap1\n      swap3\n      add\n      swap2\n        /* \"--CODEGEN--\":98:100   */\n      0x20\n        /* \"--CODEGEN--\":89:101   */\n      swap2\n      dup3\n      add\n      swap2\n        /* \"--CODEGEN--\":114:126   */\n      add\n        /* \"--CODEGEN--\":36:189   */\n      jump(tag_41)\n    tag_43:\n        /* \"--CODEGEN--\":274:275   */\n      0x01\n        /* \"--CODEGEN--\":267:270   */\n      dup4\n        /* \"--CODEGEN--\":263:265   */\n      0x20\n        /* \"--CODEGEN--\":259:271   */\n      sub\n        /* \"--CODEGEN--\":254:257   */\n      0x0100\n        /* \"--CODEGEN--\":250:272   */\n      exp\n        /* \"--CODEGEN--\":246:276   */\n      sub\n        /* \"--CODEGEN--\":315:319   */\n      dup1\n        /* \"--CODEGEN--\":311:320   */\n      not\n        /* \"--CODEGEN--\":305:308   */\n      dup3\n        /* \"--CODEGEN--\":299:309   */\n      mload\n        /* \"--CODEGEN--\":295:321   */\n      and\n        /* \"--CODEGEN--\":356:360   */\n      dup2\n        /* \"--CODEGEN--\":350:353   */\n      dup5\n        /* \"--CODEGEN--\":344:354   */\n      mload\n        /* \"--CODEGEN--\":340:361   */\n      and\n        /* \"--CODEGEN--\":389:396   */\n      dup1\n        /* \"--CODEGEN--\":380:387   */\n      dup3\n        /* \"--CODEGEN--\":377:397   */\n      or\n        /* \"--CODEGEN--\":372:375   */\n      dup6\n        /* \"--CODEGEN--\":365:398   */\n      mstore\n        /* \"--CODEGEN--\":3:402   */\n      pop\n      pop\n      pop\n        /* \"DexSwap/DexFactory.sol\":231:275  abi.encodePacked(type(DexPair).creationCode) */\n      pop\n      pop\n      pop\n      swap1\n      pop\n      add\n      swap2\n      pop\n      pop\n      mload(0x40)\n        /* \"--CODEGEN--\":49:53   */\n      0x20\n        /* \"--CODEGEN--\":39:46   */\n      dup2\n        /* \"--CODEGEN--\":30:37   */\n      dup4\n        /* \"--CODEGEN--\":26:47   */\n      sub\n        /* \"--CODEGEN--\":22:54   */\n      sub\n        /* \"--CODEGEN--\":13:20   */\n      dup2\n        /* \"--CODEGEN--\":6:55   */\n      mstore\n        /* \"DexSwap/DexFactory.sol\":231:275  abi.encodePacked(type(DexPair).creationCode) */\n      swap1\n      0x40\n      mstore\n        /* \"DexSwap/DexFactory.sol\":221:276  keccak256(abi.encodePacked(type(DexPair).creationCode)) */\n      dup1\n      mload\n      swap1\n      0x20\n      add\n      keccak256\n        /* \"DexSwap/DexFactory.sol\":175:276  bytes32 public constant INIT_CODE_PAIR_HASH = keccak256(abi.encodePacked(type(DexPair).creationCode)) */\n      dup2\n      jump\t// out\n        /* \"DexSwap/DexFactory.sol\":1810:1974  function setFeeToSetter(address _feeToSetter) external {... */\n    tag_26:\n        /* \"DexSwap/DexFactory.sol\":1897:1908  feeToSetter */\n      and(sub(shl(0xa0, 0x01), 0x01), sload(0x01))\n        /* \"DexSwap/DexFactory.sol\":1883:1893  msg.sender */\n      caller\n        /* \"DexSwap/DexFactory.sol\":1883:1908  msg.sender == feeToSetter */\n      eq\n        /* \"DexSwap/DexFactory.sol\":1875:1931  require(msg.sender == feeToSetter, 'Pancake: FORBIDDEN') */\n      tag_45\n      jumpi\n      0x40\n      dup1\n      mload\n      shl(0xe5, 0x461bcd)\n      dup2\n      mstore\n      0x20\n      0x04\n      dup3\n      add\n      mstore\n      0x12\n      0x24\n      dup3\n      add\n      mstore\n      shl(0x71, 0x2830b731b0b5b29d102327a92124a22222a7)\n      0x44\n      dup3\n      add\n      mstore\n      swap1\n      mload\n      swap1\n      dup2\n      swap1\n      sub\n      0x64\n      add\n      swap1\n      revert\n    tag_45:\n        /* \"DexSwap/DexFactory.sol\":1941:1952  feeToSetter */\n      0x01\n        /* \"DexSwap/DexFactory.sol\":1941:1967  feeToSetter = _feeToSetter */\n      dup1\n      sload\n      not(sub(shl(0xa0, 0x01), 0x01))\n      and\n      sub(shl(0xa0, 0x01), 0x01)\n      swap3\n      swap1\n      swap3\n      and\n      swap2\n      swap1\n      swap2\n      or\n      swap1\n      sstore\n        /* \"DexSwap/DexFactory.sol\":1810:1974  function setFeeToSetter(address _feeToSetter) external {... */\n      jump\t// out\n        /* \"DexSwap/DexFactory.sol\":724:1658  function createPair(address tokenA, address tokenB) external returns (address pair) {... */\n    tag_29:\n        /* \"DexSwap/DexFactory.sol\":794:806  address pair */\n      0x00\n        /* \"DexSwap/DexFactory.sol\":836:842  tokenB */\n      dup2\n      sub(shl(0xa0, 0x01), 0x01)\n        /* \"DexSwap/DexFactory.sol\":826:842  tokenA != tokenB */\n      and\n        /* \"DexSwap/DexFactory.sol\":826:832  tokenA */\n      dup4\n      sub(shl(0xa0, 0x01), 0x01)\n        /* \"DexSwap/DexFactory.sol\":826:842  tokenA != tokenB */\n      and\n      eq\n      iszero\n        /* \"DexSwap/DexFactory.sol\":818:875  require(tokenA != tokenB, 'Pancake: IDENTICAL_ADDRESSES') */\n      tag_47\n      jumpi\n      0x40\n      dup1\n      mload\n      shl(0xe5, 0x461bcd)\n      dup2\n      mstore\n      0x20\n      0x04\n      dup3\n      add\n      mstore\n      0x1c\n      0x24\n      dup3\n      add\n      mstore\n      0x50616e63616b653a204944454e544943414c5f41444452455353455300000000\n      0x44\n      dup3\n      add\n      mstore\n      swap1\n      mload\n      swap1\n      dup2\n      swap1\n      sub\n      0x64\n      add\n      swap1\n      revert\n    tag_47:\n        /* \"DexSwap/DexFactory.sol\":886:900  address token0 */\n      0x00\n        /* \"DexSwap/DexFactory.sol\":902:916  address token1 */\n      dup1\n        /* \"DexSwap/DexFactory.sol\":929:935  tokenB */\n      dup4\n      sub(shl(0xa0, 0x01), 0x01)\n        /* \"DexSwap/DexFactory.sol\":920:935  tokenA < tokenB */\n      and\n        /* \"DexSwap/DexFactory.sol\":920:926  tokenA */\n      dup6\n      sub(shl(0xa0, 0x01), 0x01)\n        /* \"DexSwap/DexFactory.sol\":920:935  tokenA < tokenB */\n      and\n      lt\n        /* \"DexSwap/DexFactory.sol\":920:973  tokenA < tokenB ? (tokenA, tokenB) : (tokenB, tokenA) */\n      tag_48\n      jumpi\n        /* \"DexSwap/DexFactory.sol\":958:964  tokenB */\n      dup4\n        /* \"DexSwap/DexFactory.sol\":966:972  tokenA */\n      dup6\n        /* \"DexSwap/DexFactory.sol\":920:973  tokenA < tokenB ? (tokenA, tokenB) : (tokenB, tokenA) */\n      jump(tag_49)\n    tag_48:\n        /* \"DexSwap/DexFactory.sol\":939:945  tokenA */\n      dup5\n        /* \"DexSwap/DexFactory.sol\":947:953  tokenB */\n      dup5\n        /* \"DexSwap/DexFactory.sol\":920:973  tokenA < tokenB ? (tokenA, tokenB) : (tokenB, tokenA) */\n    tag_49:\n        /* \"DexSwap/DexFactory.sol\":885:973  (address token0, address token1) = tokenA < tokenB ? (tokenA, tokenB) : (tokenB, tokenA) */\n      swap1\n      swap3\n      pop\n      swap1\n      pop\n      sub(shl(0xa0, 0x01), 0x01)\n        /* \"DexSwap/DexFactory.sol\":991:1011  token0 != address(0) */\n      dup3\n      and\n        /* \"DexSwap/DexFactory.sol\":983:1037  require(token0 != address(0), 'Pancake: ZERO_ADDRESS') */\n      tag_50\n      jumpi\n      0x40\n      dup1\n      mload\n      shl(0xe5, 0x461bcd)\n      dup2\n      mstore\n      0x20\n      0x04\n      dup3\n      add\n      mstore\n      0x15\n      0x24\n      dup3\n      add\n      mstore\n      shl(0x58, 0x50616e63616b653a205a45524f5f41444452455353)\n      0x44\n      dup3\n      add\n      mstore\n      swap1\n      mload\n      swap1\n      dup2\n      swap1\n      sub\n      0x64\n      add\n      swap1\n      revert\n    tag_50:\n      sub(shl(0xa0, 0x01), 0x01)\n        /* \"DexSwap/DexFactory.sol\":1055:1070  getPair[token0] */\n      dup3\n      dup2\n      and\n        /* \"DexSwap/DexFactory.sol\":1090:1091  0 */\n      0x00\n        /* \"DexSwap/DexFactory.sol\":1055:1070  getPair[token0] */\n      swap1\n      dup2\n      mstore\n        /* \"DexSwap/DexFactory.sol\":1055:1062  getPair */\n      0x02\n        /* \"DexSwap/DexFactory.sol\":1055:1070  getPair[token0] */\n      0x20\n      swap1\n      dup2\n      mstore\n      0x40\n      dup1\n      dup4\n      keccak256\n        /* \"DexSwap/DexFactory.sol\":1055:1078  getPair[token0][token1] */\n      dup6\n      dup6\n      and\n      dup5\n      mstore\n      swap1\n      swap2\n      mstore\n      swap1\n      keccak256\n      sload\n      and\n        /* \"DexSwap/DexFactory.sol\":1055:1092  getPair[token0][token1] == address(0) */\n      iszero\n        /* \"DexSwap/DexFactory.sol\":1047:1117  require(getPair[token0][token1] == address(0), 'Pancake: PAIR_EXISTS') */\n      tag_51\n      jumpi\n      0x40\n      dup1\n      mload\n      shl(0xe5, 0x461bcd)\n      dup2\n      mstore\n      0x20\n      0x04\n      dup3\n      add\n      mstore\n      0x14\n      0x24\n      dup3\n      add\n      mstore\n      shl(0x60, 0x50616e63616b653a20504149525f455849535453)\n      0x44\n      dup3\n      add\n      mstore\n      swap1\n      mload\n      swap1\n      dup2\n      swap1\n      sub\n      0x64\n      add\n      swap1\n      revert\n    tag_51:\n        /* \"DexSwap/DexFactory.sol\":1157:1178  bytes memory bytecode */\n      0x60\n        /* \"DexSwap/DexFactory.sol\":1181:1207  type(DexPair).creationCode */\n      mload(0x40)\n      dup1\n      0x20\n      add\n      tag_52\n      swap1\n      tag_40\n      jump\t// in\n    tag_52:\n        /* \"--CODEGEN--\":41:45   */\n      0x20\n        /* \"--CODEGEN--\":34:39   */\n      dup3\n        /* \"--CODEGEN--\":30:46   */\n      add\n        /* \"--CODEGEN--\":25:28   */\n      dup2\n        /* \"--CODEGEN--\":21:47   */\n      sub\n        /* \"--CODEGEN--\":14:19   */\n      dup3\n        /* \"--CODEGEN--\":7:48   */\n      mstore\n        /* \"--CODEGEN--\":87:89   */\n      0x1f\n        /* \"--CODEGEN--\":83:90   */\n      not\n        /* \"--CODEGEN--\":78:80   */\n      0x1f\n        /* \"--CODEGEN--\":73:76   */\n      dup3\n        /* \"--CODEGEN--\":69:81   */\n      add\n        /* \"--CODEGEN--\":65:91   */\n      and\n        /* \"--CODEGEN--\":61:63   */\n      0x40\n        /* \"--CODEGEN--\":54:92   */\n      mstore\n        /* \"DexSwap/DexFactory.sol\":1181:1207  type(DexPair).creationCode */\n      pop\n        /* \"DexSwap/DexFactory.sol\":1157:1207  bytes memory bytecode = type(DexPair).creationCode */\n      swap1\n      pop\n        /* \"DexSwap/DexFactory.sol\":1217:1229  bytes32 salt */\n      0x00\n        /* \"DexSwap/DexFactory.sol\":1259:1265  token0 */\n      dup4\n        /* \"DexSwap/DexFactory.sol\":1267:1273  token1 */\n      dup4\n        /* \"DexSwap/DexFactory.sol\":1242:1274  abi.encodePacked(token0, token1) */\n      add(0x20, mload(0x40))\n      dup1\n      dup4\n      sub(shl(0xa0, 0x01), 0x01)\n      and\n      sub(shl(0xa0, 0x01), 0x01)\n      and\n      0x60\n      shl\n      dup2\n      mstore\n      0x14\n      add\n      dup3\n      sub(shl(0xa0, 0x01), 0x01)\n      and\n      sub(shl(0xa0, 0x01), 0x01)\n      and\n      0x60\n      shl\n      dup2\n      mstore\n      0x14\n      add\n      swap3\n      pop\n      pop\n      pop\n      mload(0x40)\n        /* \"--CODEGEN--\":49:53   */\n      0x20\n        /* \"--CODEGEN--\":39:46   */\n      dup2\n        /* \"--CODEGEN--\":30:37   */\n      dup4\n        /* \"--CODEGEN--\":26:47   */\n      sub\n        /* \"--CODEGEN--\":22:54   */\n      sub\n        /* \"--CODEGEN--\":13:20   */\n      dup2\n        /* \"--CODEGEN--\":6:55   */\n      mstore\n        /* \"DexSwap/DexFactory.sol\":1242:1274  abi.encodePacked(token0, token1) */\n      swap1\n      0x40\n      mstore\n        /* \"DexSwap/DexFactory.sol\":1232:1275  keccak256(abi.encodePacked(token0, token1)) */\n      dup1\n      mload\n      swap1\n      0x20\n      add\n      keccak256\n        /* \"DexSwap/DexFactory.sol\":1217:1275  bytes32 salt = keccak256(abi.encodePacked(token0, token1)) */\n      swap1\n      pop\n        /* \"DexSwap/DexFactory.sol\":1363:1367  salt */\n      dup1\n        /* \"DexSwap/DexFactory.sol\":1352:1360  bytecode */\n      dup3\n        /* \"DexSwap/DexFactory.sol\":1346:1361  mload(bytecode) */\n      mload\n        /* \"DexSwap/DexFactory.sol\":1341:1343  32 */\n      0x20\n        /* \"DexSwap/DexFactory.sol\":1331:1339  bytecode */\n      dup5\n        /* \"DexSwap/DexFactory.sol\":1327:1344  add(bytecode, 32) */\n      add\n        /* \"DexSwap/DexFactory.sol\":1324:1325  0 */\n      0x00\n        /* \"DexSwap/DexFactory.sol\":1316:1368  create2(0, add(bytecode, 32), mload(bytecode), salt) */\n      create2\n        /* \"DexSwap/DexFactory.sol\":1387:1432  IPancakePair(pair).initialize(token0, token1) */\n      0x40\n      dup1\n      mload\n      shl(0xe0, 0x485cc955)\n      dup2\n      mstore\n      sub(shl(0xa0, 0x01), 0x01)\n      dup8\n      dup2\n      and\n      0x04\n      dup4\n      add\n      mstore\n      dup7\n      dup2\n      and\n      0x24\n      dup4\n      add\n      mstore\n      swap2\n      mload\n        /* \"DexSwap/DexFactory.sol\":1308:1368  pair := create2(0, add(bytecode, 32), mload(bytecode), salt) */\n      swap3\n      swap8\n      pop\n        /* \"DexSwap/DexFactory.sol\":1387:1416  IPancakePair(pair).initialize */\n      swap1\n      dup8\n      and\n      swap2\n      0x485cc955\n      swap2\n        /* \"DexSwap/DexFactory.sol\":1387:1432  IPancakePair(pair).initialize(token0, token1) */\n      0x44\n      dup1\n      dup3\n      add\n      swap3\n      0x00\n      swap3\n      swap1\n      swap2\n      swap1\n      dup3\n      swap1\n      sub\n      add\n      dup2\n      dup4\n        /* \"DexSwap/DexFactory.sol\":1387:1416  IPancakePair(pair).initialize */\n      dup8\n        /* \"DexSwap/DexFactory.sol\":1387:1432  IPancakePair(pair).initialize(token0, token1) */\n      dup1\n      extcodesize\n      iszero\n        /* \"--CODEGEN--\":5:7   */\n      dup1\n      iszero\n      tag_53\n      jumpi\n        /* \"--CODEGEN--\":30:31   */\n      0x00\n        /* \"--CODEGEN--\":27:28   */\n      dup1\n        /* \"--CODEGEN--\":20:32   */\n      revert\n        /* \"--CODEGEN--\":5:7   */\n    tag_53:\n        /* \"DexSwap/DexFactory.sol\":1387:1432  IPancakePair(pair).initialize(token0, token1) */\n      pop\n      gas\n      call\n      iszero\n        /* \"--CODEGEN--\":8:17   */\n      dup1\n        /* \"--CODEGEN--\":5:7   */\n      iszero\n      tag_54\n      jumpi\n        /* \"--CODEGEN--\":45:61   */\n      returndatasize\n        /* \"--CODEGEN--\":42:43   */\n      0x00\n        /* \"--CODEGEN--\":39:40   */\n      dup1\n        /* \"--CODEGEN--\":24:62   */\n      returndatacopy\n        /* \"--CODEGEN--\":77:93   */\n      returndatasize\n        /* \"--CODEGEN--\":74:75   */\n      0x00\n        /* \"--CODEGEN--\":67:94   */\n      revert\n        /* \"--CODEGEN--\":5:7   */\n    tag_54:\n      pop\n      pop\n      pop\n      pop\n      sub(shl(0xa0, 0x01), 0x01)\n        /* \"DexSwap/DexFactory.sol\":1442:1457  getPair[token0] */\n      dup5\n      dup2\n      and\n      0x00\n      dup2\n      dup2\n      mstore\n        /* \"DexSwap/DexFactory.sol\":1442:1449  getPair */\n      0x02\n        /* \"DexSwap/DexFactory.sol\":1442:1457  getPair[token0] */\n      0x20\n      dup2\n      dup2\n      mstore\n      0x40\n      dup1\n      dup5\n      keccak256\n        /* \"DexSwap/DexFactory.sol\":1442:1465  getPair[token0][token1] */\n      dup10\n      dup8\n      and\n      dup1\n      dup7\n      mstore\n      swap1\n      dup4\n      mstore\n      dup2\n      dup6\n      keccak256\n        /* \"DexSwap/DexFactory.sol\":1442:1472  getPair[token0][token1] = pair */\n      dup1\n      sload\n      swap8\n      dup14\n      and\n      not(sub(shl(0xa0, 0x01), 0x01))\n      swap9\n      dup10\n      and\n      dup2\n      or\n      swap1\n      swap2\n      sstore\n        /* \"DexSwap/DexFactory.sol\":1482:1497  getPair[token1] */\n      swap4\n      dup4\n      mstore\n      dup2\n      dup6\n      keccak256\n        /* \"DexSwap/DexFactory.sol\":1482:1505  getPair[token1][token0] */\n      dup7\n      dup7\n      mstore\n      dup4\n      mstore\n      dup2\n      dup6\n      keccak256\n        /* \"DexSwap/DexFactory.sol\":1482:1512  getPair[token1][token0] = pair */\n      dup1\n      sload\n      dup9\n      and\n      dup6\n      or\n      swap1\n      sstore\n        /* \"DexSwap/DexFactory.sol\":1567:1575  allPairs */\n      0x03\n        /* \"--CODEGEN--\":27:37   */\n      dup1\n      sload\n      0x01\n        /* \"--CODEGEN--\":23:41   */\n      dup2\n      add\n        /* \"--CODEGEN--\":45:68   */\n      dup3\n      sstore\n        /* \"DexSwap/DexFactory.sol\":1567:1586  allPairs.push(pair) */\n      swap6\n      dup2\n      swap1\n      mstore\n      0xc2575a0e9e593c00f959f8c92f12db2869c3395a3b0502d05e2516446f71f85b\n      swap1\n      swap6\n      add\n      dup1\n      sload\n      swap1\n      swap8\n      and\n      dup5\n      or\n      swap1\n      swap7\n      sstore\n        /* \"DexSwap/DexFactory.sol\":1635:1650  allPairs.length */\n      swap3\n      sload\n        /* \"DexSwap/DexFactory.sol\":1601:1651  PairCreated(token0, token1, pair, allPairs.length) */\n      dup4\n      mload\n      swap3\n      dup4\n      mstore\n      swap1\n      dup3\n      add\n      mstore\n      dup2\n      mload\n      0x0d3648bd0f6ba80134a33ba9275ac585d9d315f0ad8355cddefde31afa28d0e9\n      swap3\n      swap2\n      dup2\n      swap1\n      sub\n      swap1\n      swap2\n      add\n      swap1\n      log3\n        /* \"DexSwap/DexFactory.sol\":724:1658  function createPair(address tokenA, address tokenB) external returns (address pair) {... */\n      pop\n      pop\n      pop\n      pop\n      swap3\n      swap2\n      pop\n      pop\n      jump\t// out\n        /* \"DexSwap/DexFactory.sol\":342:404  mapping(address => mapping(address => address)) public getPair */\n    tag_32:\n      0x02\n      0x20\n      swap1\n      dup2\n      mstore\n      0x00\n      swap3\n      dup4\n      mstore\n      0x40\n      dup1\n      dup5\n      keccak256\n      swap1\n      swap2\n      mstore\n      swap1\n      dup3\n      mstore\n      swap1\n      keccak256\n      sload\n      sub(shl(0xa0, 0x01), 0x01)\n      and\n      dup2\n      jump\t// out\n        /* \"DexSwap/DexFactory.sol\":1664:1804  function setFeeTo(address _feeTo) external {... */\n    tag_35:\n        /* \"DexSwap/DexFactory.sol\":1739:1750  feeToSetter */\n      and(sub(shl(0xa0, 0x01), 0x01), sload(0x01))\n        /* \"DexSwap/DexFactory.sol\":1725:1735  msg.sender */\n      caller\n        /* \"DexSwap/DexFactory.sol\":1725:1750  msg.sender == feeToSetter */\n      eq\n        /* \"DexSwap/DexFactory.sol\":1717:1773  require(msg.sender == feeToSetter, 'Pancake: FORBIDDEN') */\n      tag_57\n      jumpi\n      0x40\n      dup1\n      mload\n      shl(0xe5, 0x461bcd)\n      dup2\n      mstore\n      0x20\n      0x04\n      dup3\n      add\n      mstore\n      0x12\n      0x24\n      dup3\n      add\n      mstore\n      shl(0x71, 0x2830b731b0b5b29d102327a92124a22222a7)\n      0x44\n      dup3\n      add\n      mstore\n      swap1\n      mload\n      swap1\n      dup2\n      swap1\n      sub\n      0x64\n      add\n      swap1\n      revert\n    tag_57:\n        /* \"DexSwap/DexFactory.sol\":1783:1788  feeTo */\n      0x00\n        /* \"DexSwap/DexFactory.sol\":1783:1797  feeTo = _feeTo */\n      dup1\n      sload\n      not(sub(shl(0xa0, 0x01), 0x01))\n      and\n      sub(shl(0xa0, 0x01), 0x01)\n      swap3\n      swap1\n      swap3\n      and\n      swap2\n      swap1\n      swap2\n      or\n      swap1\n      sstore\n        /* \"DexSwap/DexFactory.sol\":1664:1804  function setFeeTo(address _feeTo) external {... */\n      jump\t// out\n        /* \"DexSwap/DexFactory.sol\":130:1976  contract DexFactory is IPancakeFactory {... */\n    tag_40:\n      dataSize(sub_0)\n      dup1\n      dataOffset(sub_0)\n      dup4\n      codecopy\n      add\n      swap1\n      jump\t// out\n    stop\n\n    sub_0: assembly {\n            /* \"DexSwap/DexPair.sol\":318:9800  contract DexPair is IPancakePair, PancakeERC20 {... */\n          mstore(0x40, 0x80)\n            /* \"DexSwap/DexPair.sol\":1158:1159  1 */\n          0x01\n            /* \"DexSwap/DexPair.sol\":1134:1159  uint private unlocked = 1 */\n          0x0c\n          sstore\n            /* \"DexSwap/DexPair.sol\":2210:2268  constructor() public {... */\n          callvalue\n            /* \"--CODEGEN--\":8:17   */\n          dup1\n            /* \"--CODEGEN--\":5:7   */\n          iszero\n          tag_1\n          jumpi\n            /* \"--CODEGEN--\":30:31   */\n          0x00\n            /* \"--CODEGEN--\":27:28   */\n          dup1\n            /* \"--CODEGEN--\":20:32   */\n          revert\n            /* \"--CODEGEN--\":5:7   */\n        tag_1:\n          pop\n            /* \"DexSwap/PancakeERC20.sol\":1160:1255  keccak256(\"EIP712Domain(string name,string version,uint256 chainId,address verifyingContract)\") */\n          mload(0x40)\n            /* \"DexSwap/PancakeERC20.sol\":1064:1071  chainid */\n          chainid\n          swap1\n            /* \"DexSwap/PancakeERC20.sol\":1160:1255  keccak256(\"EIP712Domain(string name,string version,uint256 chainId,address verifyingContract)\") */\n          dup1\n          0x52\n          data_8b73c3c69bb8fe3d512ecc4cf759cc79239f7b179b0ffacaa9a75d522b39400f\n          dup3\n          codecopy\n          0x40\n          dup1\n          mload\n          swap2\n          dup3\n          swap1\n          sub\n          0x52\n          add\n          dup3\n          keccak256\n            /* \"DexSwap/PancakeERC20.sol\":1289:1293  name */\n          dup3\n          dup3\n          add\n          dup3\n          mstore\n          0x0b\n          dup4\n          mstore\n          shl(0xa8, 0x44657853776170204c5073)\n          0x20\n          swap4\n          dup5\n          add\n          mstore\n            /* \"DexSwap/PancakeERC20.sol\":1323:1333  bytes(\"1\") */\n          dup2\n          mload\n          dup1\n          dup4\n          add\n          dup4\n          mstore\n          0x01\n          dup2\n          mstore\n          shl(0xf8, 0x31)\n          swap1\n          dup5\n          add\n          mstore\n            /* \"DexSwap/PancakeERC20.sol\":1132:1404  abi.encode(... */\n          dup2\n          mload\n          dup1\n          dup5\n          add\n          swap2\n          swap1\n          swap2\n          mstore\n            /* \"DexSwap/PancakeERC20.sol\":1273:1295  keccak256(bytes(name)) */\n          0x2e1074c3d07633e155da54b471df7d2db05e930cf983650fa82ae075d6880ddc\n            /* \"DexSwap/PancakeERC20.sol\":1132:1404  abi.encode(... */\n          dup2\n          dup4\n          add\n          mstore\n            /* \"DexSwap/PancakeERC20.sol\":1313:1334  keccak256(bytes(\"1\")) */\n          0xc89efdaa54c0f20c7adf612882df0950f5a951637e0307cdcb4c672f298b8bc6\n            /* \"DexSwap/PancakeERC20.sol\":1132:1404  abi.encode(... */\n          0x60\n          dup3\n          add\n          mstore\n          0x80\n          dup2\n          add\n          swap5\n          swap1\n          swap5\n          mstore\n            /* \"DexSwap/PancakeERC20.sol\":1385:1389  this */\n          address\n            /* \"DexSwap/PancakeERC20.sol\":1132:1404  abi.encode(... */\n          0xa0\n          dup1\n          dup7\n          add\n          swap2\n          swap1\n          swap2\n          mstore\n          dup2\n          mload\n            /* \"--CODEGEN--\":26:47   */\n          dup1\n          dup7\n          sub\n            /* \"--CODEGEN--\":22:54   */\n          swap1\n          swap2\n          add\n            /* \"--CODEGEN--\":6:55   */\n          dup2\n          mstore\n            /* \"DexSwap/PancakeERC20.sol\":1132:1404  abi.encode(... */\n          0xc0\n          swap1\n          swap5\n          add\n          swap1\n          mstore\n            /* \"DexSwap/PancakeERC20.sol\":1109:1414  keccak256(... */\n          dup3\n          mload\n          swap3\n          add\n          swap2\n          swap1\n          swap2\n          keccak256\n            /* \"DexSwap/PancakeERC20.sol\":1090:1106  DOMAIN_SEPARATOR */\n          0x03\n            /* \"DexSwap/PancakeERC20.sol\":1090:1414  DOMAIN_SEPARATOR = keccak256(... */\n          sstore\n          pop\n            /* \"DexSwap/DexPair.sol\":2241:2248  factory */\n          0x05\n            /* \"DexSwap/DexPair.sol\":2241:2261  factory = msg.sender */\n          dup1\n          sload\n          not(sub(shl(0xa0, 0x01), 0x01))\n          and\n            /* \"DexSwap/DexPair.sol\":2251:2261  msg.sender */\n          caller\n            /* \"DexSwap/DexPair.sol\":2241:2261  factory = msg.sender */\n          or\n          swap1\n          sstore\n          0x2275\n          dup1\n            /* \"DexSwap/DexPair.sol\":318:9800  contract DexPair is IPancakePair, PancakeERC20 {... */\n          dataOffset(sub_0)\n          0x00\n          codecopy\n          0x00\n          return\n        stop\n        data_8b73c3c69bb8fe3d512ecc4cf759cc79239f7b179b0ffacaa9a75d522b39400f 454950373132446f6d61696e28737472696e67206e616d652c737472696e672076657273696f6e2c75696e7432353620636861696e49642c6164647265737320766572696679696e67436f6e747261637429\n\n        sub_0: assembly {\n                /* \"DexSwap/DexPair.sol\":318:9800  contract DexPair is IPancakePair, PancakeERC20 {... */\n              mstore(0x40, 0x80)\n              callvalue\n                /* \"--CODEGEN--\":8:17   */\n              dup1\n                /* \"--CODEGEN--\":5:7   */\n              iszero\n              tag_1\n              jumpi\n                /* \"--CODEGEN--\":30:31   */\n              0x00\n                /* \"--CODEGEN--\":27:28   */\n              dup1\n                /* \"--CODEGEN--\":20:32   */\n              revert\n                /* \"--CODEGEN--\":5:7   */\n            tag_1:\n                /* \"DexSwap/DexPair.sol\":318:9800  contract DexPair is IPancakePair, PancakeERC20 {... */\n              pop\n              jumpi(tag_2, lt(calldatasize, 0x04))\n              shr(0xe0, calldataload(0x00))\n              dup1\n              0x6a627842\n              gt\n              tag_30\n              jumpi\n              dup1\n              0xba9a7a56\n              gt\n              tag_31\n              jumpi\n              dup1\n              0xd21220a7\n              gt\n              tag_32\n              jumpi\n              dup1\n              0xd21220a7\n              eq\n              tag_26\n              jumpi\n              dup1\n              0xd505accf\n              eq\n              tag_27\n              jumpi\n              dup1\n              0xdd62ed3e\n              eq\n              tag_28\n              jumpi\n              dup1\n              0xfff6cae9\n              eq\n              tag_29\n              jumpi\n              jump(tag_2)\n            tag_32:\n              dup1\n              0xba9a7a56\n              eq\n              tag_23\n              jumpi\n              dup1\n              0xbc25cf77\n              eq\n              tag_24\n              jumpi\n              dup1\n              0xc45a0155\n              eq\n              tag_25\n              jumpi\n              jump(tag_2)\n            tag_31:\n              dup1\n              0x7ecebe00\n              gt\n              tag_33\n              jumpi\n              dup1\n              0x7ecebe00\n              eq\n              tag_19\n              jumpi\n              dup1\n              0x89afcb44\n              eq\n              tag_20\n              jumpi\n              dup1\n              0x95d89b41\n              eq\n              tag_21\n              jumpi\n              dup1\n              0xa9059cbb\n              eq\n              tag_22\n              jumpi\n              jump(tag_2)\n            tag_33:\n              dup1\n              0x6a627842\n              eq\n              tag_16\n              jumpi\n              dup1\n              0x70a08231\n              eq\n              tag_17\n              jumpi\n              dup1\n              0x7464fc3d\n              eq\n              tag_18\n              jumpi\n              jump(tag_2)\n            tag_30:\n              dup1\n              0x23b872dd\n              gt\n              tag_34\n              jumpi\n              dup1\n              0x3644e515\n              gt\n              tag_35\n              jumpi\n              dup1\n              0x3644e515\n              eq\n              tag_12\n              jumpi\n              dup1\n              0x485cc955\n              eq\n              tag_13\n              jumpi\n              dup1\n              0x5909c0d5\n              eq\n              tag_14\n              jumpi\n              dup1\n              0x5a3d5493\n              eq\n              tag_15\n              jumpi\n              jump(tag_2)\n            tag_35:\n              dup1\n              0x23b872dd\n              eq\n              tag_9\n              jumpi\n              dup1\n              0x30adf81f\n              eq\n              tag_10\n              jumpi\n              dup1\n              0x313ce567\n              eq\n              tag_11\n              jumpi\n              jump(tag_2)\n            tag_34:\n              dup1\n              0x022c0d9f\n              eq\n              tag_3\n              jumpi\n              dup1\n              0x06fdde03\n              eq\n              tag_4\n              jumpi\n              dup1\n              0x0902f1ac\n              eq\n              tag_5\n              jumpi\n              dup1\n              0x095ea7b3\n              eq\n              tag_6\n              jumpi\n              dup1\n              0x0dfe1681\n              eq\n              tag_7\n              jumpi\n              dup1\n              0x18160ddd\n              eq\n              tag_8\n              jumpi\n            tag_2:\n              0x00\n              dup1\n              revert\n                /* \"DexSwap/DexPair.sol\":7365:9221  function swap(uint amount0Out, uint amount1Out, address to, bytes calldata data) external lock {... */\n            tag_3:\n              tag_36\n              0x04\n              dup1\n              calldatasize\n              sub\n                /* \"--CODEGEN--\":13:16   */\n              0x80\n                /* \"--CODEGEN--\":8:11   */\n              dup2\n                /* \"--CODEGEN--\":5:17   */\n              lt\n                /* \"--CODEGEN--\":2:4   */\n              iszero\n              tag_37\n              jumpi\n                /* \"--CODEGEN--\":30:31   */\n              0x00\n                /* \"--CODEGEN--\":27:28   */\n              dup1\n                /* \"--CODEGEN--\":20:32   */\n              revert\n                /* \"--CODEGEN--\":2:4   */\n            tag_37:\n                /* \"DexSwap/DexPair.sol\":7365:9221  function swap(uint amount0Out, uint amount1Out, address to, bytes calldata data) external lock {... */\n              dup2\n              calldataload\n              swap2\n              0x20\n              dup2\n              add\n              calldataload\n              swap2\n              0x40\n              dup3\n              add\n              calldataload\n              sub(shl(0xa0, 0x01), 0x01)\n              and\n              swap2\n              swap1\n              dup2\n              add\n              swap1\n              0x80\n              dup2\n              add\n              0x60\n              dup3\n              add\n              calldataload\n                /* \"--CODEGEN--\":21:32   */\n              0x0100000000\n                /* \"--CODEGEN--\":5:33   */\n              dup2\n              gt\n                /* \"--CODEGEN--\":2:4   */\n              iszero\n              tag_38\n              jumpi\n                /* \"--CODEGEN--\":46:47   */\n              0x00\n                /* \"--CODEGEN--\":43:44   */\n              dup1\n                /* \"--CODEGEN--\":36:48   */\n              revert\n                /* \"--CODEGEN--\":2:4   */\n            tag_38:\n                /* \"DexSwap/DexPair.sol\":7365:9221  function swap(uint amount0Out, uint amount1Out, address to, bytes calldata data) external lock {... */\n              dup3\n              add\n                /* \"--CODEGEN--\":35:44   */\n              dup4\n                /* \"--CODEGEN--\":28:32   */\n              0x20\n                /* \"--CODEGEN--\":12:26   */\n              dup3\n                /* \"--CODEGEN--\":8:33   */\n              add\n                /* \"--CODEGEN--\":5:45   */\n              gt\n                /* \"--CODEGEN--\":2:4   */\n              iszero\n              tag_39\n              jumpi\n                /* \"--CODEGEN--\":58:59   */\n              0x00\n                /* \"--CODEGEN--\":55:56   */\n              dup1\n                /* \"--CODEGEN--\":48:60   */\n              revert\n                /* \"--CODEGEN--\":2:4   */\n            tag_39:\n                /* \"DexSwap/DexPair.sol\":7365:9221  function swap(uint amount0Out, uint amount1Out, address to, bytes calldata data) external lock {... */\n              dup1\n              calldataload\n              swap1\n              0x20\n              add\n              swap2\n                /* \"--CODEGEN--\":100:109   */\n              dup5\n                /* \"--CODEGEN--\":95:96   */\n              0x01\n                /* \"--CODEGEN--\":81:93   */\n              dup4\n                /* \"--CODEGEN--\":77:97   */\n              mul\n                /* \"--CODEGEN--\":67:75   */\n              dup5\n                /* \"--CODEGEN--\":63:98   */\n              add\n                /* \"--CODEGEN--\":60:110   */\n              gt\n                /* \"--CODEGEN--\":39:50   */\n              0x0100000000\n                /* \"--CODEGEN--\":25:37   */\n              dup4\n                /* \"--CODEGEN--\":22:51   */\n              gt\n                /* \"--CODEGEN--\":11:118   */\n              or\n                /* \"--CODEGEN--\":8:10   */\n              iszero\n              tag_40\n              jumpi\n                /* \"--CODEGEN--\":131:132   */\n              0x00\n                /* \"--CODEGEN--\":128:129   */\n              dup1\n                /* \"--CODEGEN--\":121:133   */\n              revert\n                /* \"--CODEGEN--\":8:10   */\n            tag_40:\n              pop\n                /* \"DexSwap/DexPair.sol\":7365:9221  function swap(uint amount0Out, uint amount1Out, address to, bytes calldata data) external lock {... */\n              swap1\n              swap3\n              pop\n              swap1\n              pop\n              tag_41\n              jump\t// in\n            tag_36:\n              stop\n                /* \"DexSwap/PancakeERC20.sol\":217:260  string public constant name = \"DexSwap LPs\" */\n            tag_4:\n              tag_42\n              tag_43\n              jump\t// in\n            tag_42:\n              0x40\n              dup1\n              mload\n              0x20\n              dup1\n              dup3\n              mstore\n              dup4\n              mload\n              dup2\n              dup4\n              add\n              mstore\n              dup4\n              mload\n              swap2\n              swap3\n              dup4\n              swap3\n              swap1\n              dup4\n              add\n              swap2\n              dup6\n              add\n              swap1\n              dup1\n              dup4\n              dup4\n              0x00\n                /* \"--CODEGEN--\":8:108   */\n            tag_44:\n                /* \"--CODEGEN--\":33:36   */\n              dup4\n                /* \"--CODEGEN--\":30:31   */\n              dup2\n                /* \"--CODEGEN--\":27:37   */\n              lt\n                /* \"--CODEGEN--\":8:108   */\n              iszero\n              tag_46\n              jumpi\n                /* \"--CODEGEN--\":90:101   */\n              dup2\n              dup2\n              add\n                /* \"--CODEGEN--\":84:102   */\n              mload\n                /* \"--CODEGEN--\":71:82   */\n              dup4\n              dup3\n              add\n                /* \"--CODEGEN--\":64:103   */\n              mstore\n                /* \"--CODEGEN--\":52:54   */\n              0x20\n                /* \"--CODEGEN--\":45:55   */\n              add\n                /* \"--CODEGEN--\":8:108   */\n              jump(tag_44)\n            tag_46:\n                /* \"--CODEGEN--\":12:26   */\n              pop\n                /* \"DexSwap/PancakeERC20.sol\":217:260  string public constant name = \"DexSwap LPs\" */\n              pop\n              pop\n              pop\n              swap1\n              pop\n              swap1\n              dup2\n              add\n              swap1\n              0x1f\n              and\n              dup1\n              iszero\n              tag_47\n              jumpi\n              dup1\n              dup3\n              sub\n              dup1\n              mload\n              0x01\n              dup4\n              0x20\n              sub\n              0x0100\n              exp\n              sub\n              not\n              and\n              dup2\n              mstore\n              0x20\n              add\n              swap2\n              pop\n            tag_47:\n              pop\n              swap3\n              pop\n              pop\n              pop\n              mload(0x40)\n              dup1\n              swap2\n              sub\n              swap1\n              return\n                /* \"DexSwap/DexPair.sol\":1300:1527  function getReserves() public view returns (uint112 _reserve0, uint112 _reserve1, uint32 _blockTimestampLast) {... */\n            tag_5:\n              tag_48\n              tag_49\n              jump\t// in\n            tag_48:\n              0x40\n              dup1\n              mload\n              sub(shl(0x70, 0x01), 0x01)\n              swap5\n              dup6\n              and\n              dup2\n              mstore\n              swap3\n              swap1\n              swap4\n              and\n              0x20\n              dup4\n              add\n              mstore\n              0xffffffff\n              and\n              dup2\n              dup4\n              add\n              mstore\n              swap1\n              mload\n              swap1\n              dup2\n              swap1\n              sub\n              0x60\n              add\n              swap1\n              return\n                /* \"DexSwap/PancakeERC20.sol\":2307:2454  function approve(address spender, uint256 value) external returns (bool) {... */\n            tag_6:\n              tag_50\n              0x04\n              dup1\n              calldatasize\n              sub\n                /* \"--CODEGEN--\":13:15   */\n              0x40\n                /* \"--CODEGEN--\":8:11   */\n              dup2\n                /* \"--CODEGEN--\":5:16   */\n              lt\n                /* \"--CODEGEN--\":2:4   */\n              iszero\n              tag_51\n              jumpi\n                /* \"--CODEGEN--\":29:30   */\n              0x00\n                /* \"--CODEGEN--\":26:27   */\n              dup1\n                /* \"--CODEGEN--\":19:31   */\n              revert\n                /* \"--CODEGEN--\":2:4   */\n            tag_51:\n              pop\n                /* \"DexSwap/PancakeERC20.sol\":2307:2454  function approve(address spender, uint256 value) external returns (bool) {... */\n              dup1\n              calldataload\n              sub(shl(0xa0, 0x01), 0x01)\n              and\n              swap1\n              0x20\n              add\n              calldataload\n              tag_52\n              jump\t// in\n            tag_50:\n              0x40\n              dup1\n              mload\n              swap2\n              iszero\n              iszero\n              dup3\n              mstore\n              mload\n              swap1\n              dup2\n              swap1\n              sub\n              0x20\n              add\n              swap1\n              return\n                /* \"DexSwap/DexPair.sol\":610:631  address public token0 */\n            tag_7:\n              tag_53\n              tag_54\n              jump\t// in\n            tag_53:\n              0x40\n              dup1\n              mload\n              0x01\n              dup1\n              0xa0\n              shl\n              sub\n              swap1\n              swap3\n              and\n              dup3\n              mstore\n              mload\n              swap1\n              dup2\n              swap1\n              sub\n              0x20\n              add\n              swap1\n              return\n                /* \"DexSwap/PancakeERC20.sol\":357:383  uint256 public totalSupply */\n            tag_8:\n              tag_55\n              tag_56\n              jump\t// in\n            tag_55:\n              0x40\n              dup1\n              mload\n              swap2\n              dup3\n              mstore\n              mload\n              swap1\n              dup2\n              swap1\n              sub\n              0x20\n              add\n              swap1\n              return\n                /* \"DexSwap/PancakeERC20.sol\":2605:2936  function transferFrom(... */\n            tag_9:\n              tag_50\n              0x04\n              dup1\n              calldatasize\n              sub\n                /* \"--CODEGEN--\":13:15   */\n              0x60\n                /* \"--CODEGEN--\":8:11   */\n              dup2\n                /* \"--CODEGEN--\":5:16   */\n              lt\n                /* \"--CODEGEN--\":2:4   */\n              iszero\n              tag_58\n              jumpi\n                /* \"--CODEGEN--\":29:30   */\n              0x00\n                /* \"--CODEGEN--\":26:27   */\n              dup1\n                /* \"--CODEGEN--\":19:31   */\n              revert\n                /* \"--CODEGEN--\":2:4   */\n            tag_58:\n              pop\n              sub(shl(0xa0, 0x01), 0x01)\n                /* \"DexSwap/PancakeERC20.sol\":2605:2936  function transferFrom(... */\n              dup2\n              calldataload\n              dup2\n              and\n              swap2\n              0x20\n              dup2\n              add\n              calldataload\n              swap1\n              swap2\n              and\n              swap1\n              0x40\n              add\n              calldataload\n              tag_59\n              jump\t// in\n                /* \"DexSwap/PancakeERC20.sol\":651:759  bytes32 public constant PERMIT_TYPEHASH = 0x6e71edae12b1b97f4d1f60370fef10105fa2faae0126114a169c64845d6126c9 */\n            tag_10:\n              tag_55\n              tag_61\n              jump\t// in\n                /* \"DexSwap/PancakeERC20.sol\":316:351  uint8 public constant decimals = 18 */\n            tag_11:\n              tag_62\n              tag_63\n              jump\t// in\n            tag_62:\n              0x40\n              dup1\n              mload\n              0xff\n              swap1\n              swap3\n              and\n              dup3\n              mstore\n              mload\n              swap1\n              dup2\n              swap1\n              sub\n              0x20\n              add\n              swap1\n              return\n                /* \"DexSwap/PancakeERC20.sol\":510:541  bytes32 public DOMAIN_SEPARATOR */\n            tag_12:\n              tag_55\n              tag_65\n              jump\t// in\n                /* \"DexSwap/DexPair.sol\":2330:2534  function initialize(address _token0, address _token1) external {... */\n            tag_13:\n              tag_36\n              0x04\n              dup1\n              calldatasize\n              sub\n                /* \"--CODEGEN--\":13:15   */\n              0x40\n                /* \"--CODEGEN--\":8:11   */\n              dup2\n                /* \"--CODEGEN--\":5:16   */\n              lt\n                /* \"--CODEGEN--\":2:4   */\n              iszero\n              tag_67\n              jumpi\n                /* \"--CODEGEN--\":29:30   */\n              0x00\n                /* \"--CODEGEN--\":26:27   */\n              dup1\n                /* \"--CODEGEN--\":19:31   */\n              revert\n                /* \"--CODEGEN--\":2:4   */\n            tag_67:\n              pop\n              sub(shl(0xa0, 0x01), 0x01)\n                /* \"DexSwap/DexPair.sol\":2330:2534  function initialize(address _token0, address _token1) external {... */\n              dup2\n              calldataload\n              dup2\n              and\n              swap2\n              0x20\n              add\n              calldataload\n              and\n              tag_68\n              jump\t// in\n                /* \"DexSwap/DexPair.sol\":954:986  uint public price0CumulativeLast */\n            tag_14:\n              tag_55\n              tag_70\n              jump\t// in\n                /* \"DexSwap/DexPair.sol\":992:1024  uint public price1CumulativeLast */\n            tag_15:\n              tag_55\n              tag_72\n              jump\t// in\n                /* \"DexSwap/DexPair.sol\":4488:5705  function mint(address to) external lock returns (uint liquidity) {... */\n            tag_16:\n              tag_55\n              0x04\n              dup1\n              calldatasize\n              sub\n                /* \"--CODEGEN--\":13:15   */\n              0x20\n                /* \"--CODEGEN--\":8:11   */\n              dup2\n                /* \"--CODEGEN--\":5:16   */\n              lt\n                /* \"--CODEGEN--\":2:4   */\n              iszero\n              tag_74\n              jumpi\n                /* \"--CODEGEN--\":29:30   */\n              0x00\n                /* \"--CODEGEN--\":26:27   */\n              dup1\n                /* \"--CODEGEN--\":19:31   */\n              revert\n                /* \"--CODEGEN--\":2:4   */\n            tag_74:\n              pop\n                /* \"DexSwap/DexPair.sol\":4488:5705  function mint(address to) external lock returns (uint liquidity) {... */\n              calldataload\n              sub(shl(0xa0, 0x01), 0x01)\n              and\n              tag_75\n              jump\t// in\n                /* \"DexSwap/PancakeERC20.sol\":389:433  mapping(address => uint256) public balanceOf */\n            tag_17:\n              tag_55\n              0x04\n              dup1\n              calldatasize\n              sub\n                /* \"--CODEGEN--\":13:15   */\n              0x20\n                /* \"--CODEGEN--\":8:11   */\n              dup2\n                /* \"--CODEGEN--\":5:16   */\n              lt\n                /* \"--CODEGEN--\":2:4   */\n              iszero\n              tag_77\n              jumpi\n                /* \"--CODEGEN--\":29:30   */\n              0x00\n                /* \"--CODEGEN--\":26:27   */\n              dup1\n                /* \"--CODEGEN--\":19:31   */\n              revert\n                /* \"--CODEGEN--\":2:4   */\n            tag_77:\n              pop\n                /* \"DexSwap/PancakeERC20.sol\":389:433  mapping(address => uint256) public balanceOf */\n              calldataload\n              sub(shl(0xa0, 0x01), 0x01)\n              and\n              tag_78\n              jump\t// in\n                /* \"DexSwap/DexPair.sol\":1030:1047  uint public kLast */\n            tag_18:\n              tag_55\n              tag_80\n              jump\t// in\n                /* \"DexSwap/PancakeERC20.sol\":765:806  mapping(address => uint256) public nonces */\n            tag_19:\n              tag_55\n              0x04\n              dup1\n              calldatasize\n              sub\n                /* \"--CODEGEN--\":13:15   */\n              0x20\n                /* \"--CODEGEN--\":8:11   */\n              dup2\n                /* \"--CODEGEN--\":5:16   */\n              lt\n                /* \"--CODEGEN--\":2:4   */\n              iszero\n              tag_82\n              jumpi\n                /* \"--CODEGEN--\":29:30   */\n              0x00\n                /* \"--CODEGEN--\":26:27   */\n              dup1\n                /* \"--CODEGEN--\":19:31   */\n              revert\n                /* \"--CODEGEN--\":2:4   */\n            tag_82:\n              pop\n                /* \"DexSwap/PancakeERC20.sol\":765:806  mapping(address => uint256) public nonces */\n              calldataload\n              sub(shl(0xa0, 0x01), 0x01)\n              and\n              tag_83\n              jump\t// in\n                /* \"DexSwap/DexPair.sol\":5814:7256  function burn(address to) external lock returns (uint amount0, uint amount1) {... */\n            tag_20:\n              tag_84\n              0x04\n              dup1\n              calldatasize\n              sub\n                /* \"--CODEGEN--\":13:15   */\n              0x20\n                /* \"--CODEGEN--\":8:11   */\n              dup2\n                /* \"--CODEGEN--\":5:16   */\n              lt\n                /* \"--CODEGEN--\":2:4   */\n              iszero\n              tag_85\n              jumpi\n                /* \"--CODEGEN--\":29:30   */\n              0x00\n                /* \"--CODEGEN--\":26:27   */\n              dup1\n                /* \"--CODEGEN--\":19:31   */\n              revert\n                /* \"--CODEGEN--\":2:4   */\n            tag_85:\n              pop\n                /* \"DexSwap/DexPair.sol\":5814:7256  function burn(address to) external lock returns (uint amount0, uint amount1) {... */\n              calldataload\n              sub(shl(0xa0, 0x01), 0x01)\n              and\n              tag_86\n              jump\t// in\n            tag_84:\n              0x40\n              dup1\n              mload\n              swap3\n              dup4\n              mstore\n              0x20\n              dup4\n              add\n              swap2\n              swap1\n              swap2\n              mstore\n              dup1\n              mload\n              swap2\n              dup3\n              swap1\n              sub\n              add\n              swap1\n              return\n                /* \"DexSwap/PancakeERC20.sol\":266:310  string public constant symbol = \"DexSwap-LP\" */\n            tag_21:\n              tag_42\n              tag_88\n              jump\t// in\n                /* \"DexSwap/PancakeERC20.sol\":2460:2599  function transfer(address to, uint256 value) external returns (bool) {... */\n            tag_22:\n              tag_50\n              0x04\n              dup1\n              calldatasize\n              sub\n                /* \"--CODEGEN--\":13:15   */\n              0x40\n                /* \"--CODEGEN--\":8:11   */\n              dup2\n                /* \"--CODEGEN--\":5:16   */\n              lt\n                /* \"--CODEGEN--\":2:4   */\n              iszero\n              tag_94\n              jumpi\n                /* \"--CODEGEN--\":29:30   */\n              0x00\n                /* \"--CODEGEN--\":26:27   */\n              dup1\n                /* \"--CODEGEN--\":19:31   */\n              revert\n                /* \"--CODEGEN--\":2:4   */\n            tag_94:\n              pop\n                /* \"DexSwap/PancakeERC20.sol\":2460:2599  function transfer(address to, uint256 value) external returns (bool) {... */\n              dup1\n              calldataload\n              sub(shl(0xa0, 0x01), 0x01)\n              and\n              swap1\n              0x20\n              add\n              calldataload\n              tag_95\n              jump\t// in\n                /* \"DexSwap/DexPair.sol\":435:481  uint public constant MINIMUM_LIQUIDITY = 10**3 */\n            tag_23:\n              tag_55\n              tag_97\n              jump\t// in\n                /* \"DexSwap/DexPair.sol\":9267:9596  function skim(address to) external lock {... */\n            tag_24:\n              tag_36\n              0x04\n              dup1\n              calldatasize\n              sub\n                /* \"--CODEGEN--\":13:15   */\n              0x20\n                /* \"--CODEGEN--\":8:11   */\n              dup2\n                /* \"--CODEGEN--\":5:16   */\n              lt\n                /* \"--CODEGEN--\":2:4   */\n              iszero\n              tag_99\n              jumpi\n                /* \"--CODEGEN--\":29:30   */\n              0x00\n                /* \"--CODEGEN--\":26:27   */\n              dup1\n                /* \"--CODEGEN--\":19:31   */\n              revert\n                /* \"--CODEGEN--\":2:4   */\n            tag_99:\n              pop\n                /* \"DexSwap/DexPair.sol\":9267:9596  function skim(address to) external lock {... */\n              calldataload\n              sub(shl(0xa0, 0x01), 0x01)\n              and\n              tag_100\n              jump\t// in\n                /* \"DexSwap/DexPair.sol\":582:604  address public factory */\n            tag_25:\n              tag_53\n              tag_102\n              jump\t// in\n                /* \"DexSwap/DexPair.sol\":637:658  address public token1 */\n            tag_26:\n              tag_53\n              tag_104\n              jump\t// in\n                /* \"DexSwap/PancakeERC20.sol\":2942:3668  function permit(... */\n            tag_27:\n              tag_36\n              0x04\n              dup1\n              calldatasize\n              sub\n                /* \"--CODEGEN--\":13:16   */\n              0xe0\n                /* \"--CODEGEN--\":8:11   */\n              dup2\n                /* \"--CODEGEN--\":5:17   */\n              lt\n                /* \"--CODEGEN--\":2:4   */\n              iszero\n              tag_106\n              jumpi\n                /* \"--CODEGEN--\":30:31   */\n              0x00\n                /* \"--CODEGEN--\":27:28   */\n              dup1\n                /* \"--CODEGEN--\":20:32   */\n              revert\n                /* \"--CODEGEN--\":2:4   */\n            tag_106:\n              pop\n              sub(shl(0xa0, 0x01), 0x01)\n                /* \"DexSwap/PancakeERC20.sol\":2942:3668  function permit(... */\n              dup2\n              calldataload\n              dup2\n              and\n              swap2\n              0x20\n              dup2\n              add\n              calldataload\n              swap1\n              swap2\n              and\n              swap1\n              0x40\n              dup2\n              add\n              calldataload\n              swap1\n              0x60\n              dup2\n              add\n              calldataload\n              swap1\n              0xff\n              0x80\n              dup3\n              add\n              calldataload\n              and\n              swap1\n              0xa0\n              dup2\n              add\n              calldataload\n              swap1\n              0xc0\n              add\n              calldataload\n              tag_107\n              jump\t// in\n                /* \"DexSwap/PancakeERC20.sol\":439:503  mapping(address => mapping(address => uint256)) public allowance */\n            tag_28:\n              tag_55\n              0x04\n              dup1\n              calldatasize\n              sub\n                /* \"--CODEGEN--\":13:15   */\n              0x40\n                /* \"--CODEGEN--\":8:11   */\n              dup2\n                /* \"--CODEGEN--\":5:16   */\n              lt\n                /* \"--CODEGEN--\":2:4   */\n              iszero\n              tag_109\n              jumpi\n                /* \"--CODEGEN--\":29:30   */\n              0x00\n                /* \"--CODEGEN--\":26:27   */\n              dup1\n                /* \"--CODEGEN--\":19:31   */\n              revert\n                /* \"--CODEGEN--\":2:4   */\n            tag_109:\n              pop\n              sub(shl(0xa0, 0x01), 0x01)\n                /* \"DexSwap/PancakeERC20.sol\":439:503  mapping(address => mapping(address => uint256)) public allowance */\n              dup2\n              calldataload\n              dup2\n              and\n              swap2\n              0x20\n              add\n              calldataload\n              and\n              tag_110\n              jump\t// in\n                /* \"DexSwap/DexPair.sol\":9642:9798  function sync() external lock {... */\n            tag_29:\n              tag_36\n              tag_112\n              jump\t// in\n                /* \"DexSwap/DexPair.sol\":7365:9221  function swap(uint amount0Out, uint amount1Out, address to, bytes calldata data) external lock {... */\n            tag_41:\n                /* \"DexSwap/DexPair.sol\":1199:1207  unlocked */\n              sload(0x0c)\n                /* \"DexSwap/DexPair.sol\":1211:1212  1 */\n              0x01\n                /* \"DexSwap/DexPair.sol\":1199:1212  unlocked == 1 */\n              eq\n                /* \"DexSwap/DexPair.sol\":1191:1232  require(unlocked == 1, 'Pancake: LOCKED') */\n              tag_114\n              jumpi\n              0x40\n              dup1\n              mload\n              shl(0xe5, 0x461bcd)\n              dup2\n              mstore\n              0x20\n              0x04\n              dup3\n              add\n              mstore\n              0x0f\n              0x24\n              dup3\n              add\n              mstore\n              shl(0x8a, 0x14185b98d85ad94e881313d0d2d151)\n              0x44\n              dup3\n              add\n              mstore\n              swap1\n              mload\n              swap1\n              dup2\n              swap1\n              sub\n              0x64\n              add\n              swap1\n              revert\n            tag_114:\n                /* \"DexSwap/DexPair.sol\":1253:1254  0 */\n              0x00\n                /* \"DexSwap/DexPair.sol\":1242:1250  unlocked */\n              0x0c\n                /* \"DexSwap/DexPair.sol\":1242:1254  unlocked = 0 */\n              sstore\n                /* \"DexSwap/DexPair.sol\":7478:7492  amount0Out > 0 */\n              dup5\n              iszero\n              iszero\n              dup1\n                /* \"DexSwap/DexPair.sol\":7478:7510  amount0Out > 0 || amount1Out > 0 */\n              tag_116\n              jumpi\n              pop\n                /* \"DexSwap/DexPair.sol\":7509:7510  0 */\n              0x00\n                /* \"DexSwap/DexPair.sol\":7496:7506  amount1Out */\n              dup5\n                /* \"DexSwap/DexPair.sol\":7496:7510  amount1Out > 0 */\n              gt\n                /* \"DexSwap/DexPair.sol\":7478:7510  amount0Out > 0 || amount1Out > 0 */\n            tag_116:\n                /* \"DexSwap/DexPair.sol\":7470:7550  require(amount0Out > 0 || amount1Out > 0, 'Pancake: INSUFFICIENT_OUTPUT_AMOUNT') */\n              tag_117\n              jumpi\n              mload(0x40)\n              shl(0xe5, 0x461bcd)\n              dup2\n              mstore\n              0x04\n              add\n              dup1\n              dup1\n              0x20\n              add\n              dup3\n              dup2\n              sub\n              dup3\n              mstore\n              0x23\n              dup2\n              mstore\n              0x20\n              add\n              dup1\n              data_c654718515b5f98052eb92744d97d32cccabf6e8b2bae886738591c9b906cfd8\n              0x23\n              swap2\n              codecopy\n              0x40\n              add\n              swap2\n              pop\n              pop\n              mload(0x40)\n              dup1\n              swap2\n              sub\n              swap1\n              revert\n            tag_117:\n                /* \"DexSwap/DexPair.sol\":7561:7578  uint112 _reserve0 */\n              0x00\n                /* \"DexSwap/DexPair.sol\":7580:7597  uint112 _reserve1 */\n              dup1\n                /* \"DexSwap/DexPair.sol\":7602:7615  getReserves() */\n              tag_118\n                /* \"DexSwap/DexPair.sol\":7602:7613  getReserves */\n              tag_49\n                /* \"DexSwap/DexPair.sol\":7602:7615  getReserves() */\n              jump\t// in\n            tag_118:\n              pop\n                /* \"DexSwap/DexPair.sol\":7560:7615  (uint112 _reserve0, uint112 _reserve1,) = getReserves() */\n              swap1\n              swap3\n              pop\n              swap1\n              pop\n              sub(shl(0x70, 0x01), 0x01)\n                /* \"DexSwap/DexPair.sol\":7648:7670  amount0Out < _reserve0 */\n              dup3\n              and\n              dup8\n              lt\n                /* \"DexSwap/DexPair.sol\":7648:7696  amount0Out < _reserve0 && amount1Out < _reserve1 */\n              dup1\n              iszero\n              tag_119\n              jumpi\n              pop\n              sub(shl(0x70, 0x01), 0x01)\n                /* \"DexSwap/DexPair.sol\":7674:7696  amount1Out < _reserve1 */\n              dup2\n              and\n              dup7\n              lt\n                /* \"DexSwap/DexPair.sol\":7648:7696  amount0Out < _reserve0 && amount1Out < _reserve1 */\n            tag_119:\n                /* \"DexSwap/DexPair.sol\":7640:7732  require(amount0Out < _reserve0 && amount1Out < _reserve1, 'Pancake: INSUFFICIENT_LIQUIDITY') */\n              tag_120\n              jumpi\n              0x40\n              dup1\n              mload\n              shl(0xe5, 0x461bcd)\n              dup2\n              mstore\n              0x20\n              0x04\n              dup3\n              add\n              mstore\n              0x1f\n              0x24\n              dup3\n              add\n              mstore\n              0x50616e63616b653a20494e53554646494349454e545f4c495155494449545900\n              0x44\n              dup3\n              add\n              mstore\n              swap1\n              mload\n              swap1\n              dup2\n              swap1\n              sub\n              0x64\n              add\n              swap1\n              revert\n            tag_120:\n                /* \"DexSwap/DexPair.sol\":7872:7878  token0 */\n              sload(0x06)\n                /* \"DexSwap/DexPair.sol\":7906:7912  token1 */\n              sload(0x07)\n                /* \"DexSwap/DexPair.sol\":7743:7756  uint balance0 */\n              0x00\n              swap2\n              dup3\n              swap2\n              sub(shl(0xa0, 0x01), 0x01)\n                /* \"DexSwap/DexPair.sol\":7872:7878  token0 */\n              swap2\n              dup3\n              and\n              swap2\n                /* \"DexSwap/DexPair.sol\":7906:7912  token1 */\n              swap1\n              dup2\n              and\n              swap1\n                /* \"DexSwap/DexPair.sol\":7930:7943  to != _token0 */\n              dup10\n              and\n              dup3\n              eq\n              dup1\n              iszero\n              swap1\n                /* \"DexSwap/DexPair.sol\":7930:7960  to != _token0 && to != _token1 */\n              tag_121\n              jumpi\n              pop\n              sub(shl(0xa0, 0x01), 0x01)\n                /* \"DexSwap/DexPair.sol\":7947:7960  to != _token1 */\n              dup10\n              dup2\n              and\n              swap1\n              dup3\n              and\n              eq\n              iszero\n                /* \"DexSwap/DexPair.sol\":7930:7960  to != _token0 && to != _token1 */\n            tag_121:\n                /* \"DexSwap/DexPair.sol\":7922:7984  require(to != _token0 && to != _token1, 'Pancake: INVALID_TO') */\n              tag_122\n              jumpi\n              0x40\n              dup1\n              mload\n              shl(0xe5, 0x461bcd)\n              dup2\n              mstore\n              0x20\n              0x04\n              dup3\n              add\n              mstore\n              0x13\n              0x24\n              dup3\n              add\n              mstore\n              shl(0x68, 0x50616e63616b653a20494e56414c49445f544f)\n              0x44\n              dup3\n              add\n              mstore\n              swap1\n              mload\n              swap1\n              dup2\n              swap1\n              sub\n              0x64\n              add\n              swap1\n              revert\n            tag_122:\n                /* \"DexSwap/DexPair.sol\":7998:8012  amount0Out > 0 */\n              dup11\n              iszero\n                /* \"DexSwap/DexPair.sol\":7994:8052  if (amount0Out > 0) _safeTransfer(_token0, to, amount0Out) */\n              tag_124\n              jumpi\n                /* \"DexSwap/DexPair.sol\":8014:8052  _safeTransfer(_token0, to, amount0Out) */\n              tag_124\n                /* \"DexSwap/DexPair.sol\":8028:8035  _token0 */\n              dup3\n                /* \"DexSwap/DexPair.sol\":8037:8039  to */\n              dup11\n                /* \"DexSwap/DexPair.sol\":8041:8051  amount0Out */\n              dup14\n                /* \"DexSwap/DexPair.sol\":8014:8027  _safeTransfer */\n              tag_125\n                /* \"DexSwap/DexPair.sol\":8014:8052  _safeTransfer(_token0, to, amount0Out) */\n              jump\t// in\n            tag_124:\n                /* \"DexSwap/DexPair.sol\":8100:8114  amount1Out > 0 */\n              dup10\n              iszero\n                /* \"DexSwap/DexPair.sol\":8096:8154  if (amount1Out > 0) _safeTransfer(_token1, to, amount1Out) */\n              tag_127\n              jumpi\n                /* \"DexSwap/DexPair.sol\":8116:8154  _safeTransfer(_token1, to, amount1Out) */\n              tag_127\n                /* \"DexSwap/DexPair.sol\":8130:8137  _token1 */\n              dup2\n                /* \"DexSwap/DexPair.sol\":8139:8141  to */\n              dup11\n                /* \"DexSwap/DexPair.sol\":8143:8153  amount1Out */\n              dup13\n                /* \"DexSwap/DexPair.sol\":8116:8129  _safeTransfer */\n              tag_125\n                /* \"DexSwap/DexPair.sol\":8116:8154  _safeTransfer(_token1, to, amount1Out) */\n              jump\t// in\n            tag_127:\n                /* \"DexSwap/DexPair.sol\":8202:8217  data.length > 0 */\n              dup7\n              iszero\n                /* \"DexSwap/DexPair.sol\":8198:8291  if (data.length > 0) IPancakeCallee(to).pancakeCall(msg.sender, amount0Out, amount1Out, data) */\n              tag_128\n              jumpi\n                /* \"DexSwap/DexPair.sol\":8234:8236  to */\n              dup9\n              0x01\n              dup1\n              0xa0\n              shl\n              sub\n                /* \"DexSwap/DexPair.sol\":8219:8249  IPancakeCallee(to).pancakeCall */\n              and\n              0x84800812\n                /* \"DexSwap/DexPair.sol\":8250:8260  msg.sender */\n              caller\n                /* \"DexSwap/DexPair.sol\":8262:8272  amount0Out */\n              dup14\n                /* \"DexSwap/DexPair.sol\":8274:8284  amount1Out */\n              dup14\n                /* \"DexSwap/DexPair.sol\":8286:8290  data */\n              dup13\n              dup13\n                /* \"DexSwap/DexPair.sol\":8219:8291  IPancakeCallee(to).pancakeCall(msg.sender, amount0Out, amount1Out, data) */\n              mload(0x40)\n              dup7\n              0xffffffff\n              and\n              0xe0\n              shl\n              dup2\n              mstore\n              0x04\n              add\n              dup1\n              dup7\n              0x01\n              dup1\n              0xa0\n              shl\n              sub\n              and\n              0x01\n              dup1\n              0xa0\n              shl\n              sub\n              and\n              dup2\n              mstore\n              0x20\n              add\n              dup6\n              dup2\n              mstore\n              0x20\n              add\n              dup5\n              dup2\n              mstore\n              0x20\n              add\n              dup1\n              0x20\n              add\n              dup3\n              dup2\n              sub\n              dup3\n              mstore\n              dup5\n              dup5\n              dup3\n              dup2\n              dup2\n              mstore\n              0x20\n              add\n              swap3\n              pop\n                /* \"--CODEGEN--\":30:33   */\n              dup1\n                /* \"--CODEGEN--\":22:28   */\n              dup3\n                /* \"--CODEGEN--\":14:20   */\n              dup5\n                /* \"--CODEGEN--\":1:34   */\n              calldatacopy\n                /* \"--CODEGEN--\":99:100   */\n              0x00\n                /* \"--CODEGEN--\":93:96   */\n              dup2\n                /* \"--CODEGEN--\":85:91   */\n              dup5\n                /* \"--CODEGEN--\":81:97   */\n              add\n                /* \"--CODEGEN--\":74:101   */\n              mstore\n                /* \"--CODEGEN--\":137:141   */\n              0x1f\n                /* \"--CODEGEN--\":133:142   */\n              not\n                /* \"--CODEGEN--\":126:130   */\n              0x1f\n                /* \"--CODEGEN--\":121:124   */\n              dup3\n                /* \"--CODEGEN--\":117:131   */\n              add\n                /* \"--CODEGEN--\":113:143   */\n              and\n                /* \"--CODEGEN--\":106:143   */\n              swap1\n              pop\n                /* \"--CODEGEN--\":169:172   */\n              dup1\n                /* \"--CODEGEN--\":161:167   */\n              dup4\n                /* \"--CODEGEN--\":157:173   */\n              add\n                /* \"--CODEGEN--\":147:173   */\n              swap3\n              pop\n                /* \"DexSwap/DexPair.sol\":8219:8291  IPancakeCallee(to).pancakeCall(msg.sender, amount0Out, amount1Out, data) */\n              pop\n              pop\n              swap7\n              pop\n              pop\n              pop\n              pop\n              pop\n              pop\n              pop\n              0x00\n              mload(0x40)\n              dup1\n              dup4\n              sub\n              dup2\n              0x00\n              dup8\n              dup1\n              extcodesize\n              iszero\n                /* \"--CODEGEN--\":8:17   */\n              dup1\n                /* \"--CODEGEN--\":5:7   */\n              iszero\n              tag_129\n              jumpi\n                /* \"--CODEGEN--\":30:31   */\n              0x00\n                /* \"--CODEGEN--\":27:28   */\n              dup1\n                /* \"--CODEGEN--\":20:32   */\n              revert\n                /* \"--CODEGEN--\":5:7   */\n            tag_129:\n                /* \"DexSwap/DexPair.sol\":8219:8291  IPancakeCallee(to).pancakeCall(msg.sender, amount0Out, amount1Out, data) */\n              pop\n              gas\n              call\n              iszero\n                /* \"--CODEGEN--\":8:17   */\n              dup1\n                /* \"--CODEGEN--\":5:7   */\n              iszero\n              tag_130\n              jumpi\n                /* \"--CODEGEN--\":45:61   */\n              returndatasize\n                /* \"--CODEGEN--\":42:43   */\n              0x00\n                /* \"--CODEGEN--\":39:40   */\n              dup1\n                /* \"--CODEGEN--\":24:62   */\n              returndatacopy\n                /* \"--CODEGEN--\":77:93   */\n              returndatasize\n                /* \"--CODEGEN--\":74:75   */\n              0x00\n                /* \"--CODEGEN--\":67:94   */\n              revert\n                /* \"--CODEGEN--\":5:7   */\n            tag_130:\n                /* \"DexSwap/DexPair.sol\":8219:8291  IPancakeCallee(to).pancakeCall(msg.sender, amount0Out, amount1Out, data) */\n              pop\n              pop\n              pop\n              pop\n                /* \"DexSwap/DexPair.sol\":8198:8291  if (data.length > 0) IPancakeCallee(to).pancakeCall(msg.sender, amount0Out, amount1Out, data) */\n            tag_128:\n                /* \"DexSwap/DexPair.sol\":8312:8352  IERC20(_token0).balanceOf(address(this)) */\n              0x40\n              dup1\n              mload\n              shl(0xe0, 0x70a08231)\n              dup2\n              mstore\n                /* \"DexSwap/DexPair.sol\":8346:8350  this */\n              address\n                /* \"DexSwap/DexPair.sol\":8312:8352  IERC20(_token0).balanceOf(address(this)) */\n              0x04\n              dup3\n              add\n              mstore\n              swap1\n              mload\n              sub(shl(0xa0, 0x01), 0x01)\n                /* \"DexSwap/DexPair.sol\":8312:8337  IERC20(_token0).balanceOf */\n              dup5\n              and\n              swap2\n              0x70a08231\n              swap2\n                /* \"DexSwap/DexPair.sol\":8312:8352  IERC20(_token0).balanceOf(address(this)) */\n              0x24\n              dup1\n              dup4\n              add\n              swap3\n              0x20\n              swap3\n              swap2\n              swap1\n              dup3\n              swap1\n              sub\n              add\n              dup2\n                /* \"DexSwap/DexPair.sol\":8312:8337  IERC20(_token0).balanceOf */\n              dup7\n                /* \"DexSwap/DexPair.sol\":8312:8352  IERC20(_token0).balanceOf(address(this)) */\n              dup1\n              extcodesize\n              iszero\n                /* \"--CODEGEN--\":5:7   */\n              dup1\n              iszero\n              tag_131\n              jumpi\n                /* \"--CODEGEN--\":30:31   */\n              0x00\n                /* \"--CODEGEN--\":27:28   */\n              dup1\n                /* \"--CODEGEN--\":20:32   */\n              revert\n                /* \"--CODEGEN--\":5:7   */\n            tag_131:\n                /* \"DexSwap/DexPair.sol\":8312:8352  IERC20(_token0).balanceOf(address(this)) */\n              pop\n              gas\n              staticcall\n              iszero\n                /* \"--CODEGEN--\":8:17   */\n              dup1\n                /* \"--CODEGEN--\":5:7   */\n              iszero\n              tag_132\n              jumpi\n                /* \"--CODEGEN--\":45:61   */\n              returndatasize\n                /* \"--CODEGEN--\":42:43   */\n              0x00\n                /* \"--CODEGEN--\":39:40   */\n              dup1\n                /* \"--CODEGEN--\":24:62   */\n              returndatacopy\n                /* \"--CODEGEN--\":77:93   */\n              returndatasize\n                /* \"--CODEGEN--\":74:75   */\n              0x00\n                /* \"--CODEGEN--\":67:94   */\n              revert\n                /* \"--CODEGEN--\":5:7   */\n            tag_132:\n                /* \"DexSwap/DexPair.sol\":8312:8352  IERC20(_token0).balanceOf(address(this)) */\n              pop\n              pop\n              pop\n              pop\n              mload(0x40)\n              returndatasize\n                /* \"--CODEGEN--\":13:15   */\n              0x20\n                /* \"--CODEGEN--\":8:11   */\n              dup2\n                /* \"--CODEGEN--\":5:16   */\n              lt\n                /* \"--CODEGEN--\":2:4   */\n              iszero\n              tag_133\n              jumpi\n                /* \"--CODEGEN--\":29:30   */\n              0x00\n                /* \"--CODEGEN--\":26:27   */\n              dup1\n                /* \"--CODEGEN--\":19:31   */\n              revert\n                /* \"--CODEGEN--\":2:4   */\n            tag_133:\n              pop\n                /* \"DexSwap/DexPair.sol\":8312:8352  IERC20(_token0).balanceOf(address(this)) */\n              mload\n                /* \"DexSwap/DexPair.sol\":8373:8413  IERC20(_token1).balanceOf(address(this)) */\n              0x40\n              dup1\n              mload\n              shl(0xe0, 0x70a08231)\n              dup2\n              mstore\n                /* \"DexSwap/DexPair.sol\":8407:8411  this */\n              address\n                /* \"DexSwap/DexPair.sol\":8373:8413  IERC20(_token1).balanceOf(address(this)) */\n              0x04\n              dup3\n              add\n              mstore\n              swap1\n              mload\n                /* \"DexSwap/DexPair.sol\":8312:8352  IERC20(_token0).balanceOf(address(this)) */\n              swap2\n              swap6\n              pop\n              sub(shl(0xa0, 0x01), 0x01)\n                /* \"DexSwap/DexPair.sol\":8373:8398  IERC20(_token1).balanceOf */\n              dup4\n              and\n              swap2\n              0x70a08231\n              swap2\n                /* \"DexSwap/DexPair.sol\":8373:8413  IERC20(_token1).balanceOf(address(this)) */\n              0x24\n              dup1\n              dup3\n              add\n              swap3\n                /* \"DexSwap/DexPair.sol\":8312:8352  IERC20(_token0).balanceOf(address(this)) */\n              0x20\n              swap3\n                /* \"DexSwap/DexPair.sol\":8373:8413  IERC20(_token1).balanceOf(address(this)) */\n              swap1\n              swap2\n              swap1\n              dup3\n              swap1\n              sub\n              add\n              dup2\n                /* \"DexSwap/DexPair.sol\":8373:8398  IERC20(_token1).balanceOf */\n              dup7\n                /* \"DexSwap/DexPair.sol\":8373:8413  IERC20(_token1).balanceOf(address(this)) */\n              dup1\n              extcodesize\n              iszero\n                /* \"--CODEGEN--\":5:7   */\n              dup1\n              iszero\n              tag_134\n              jumpi\n                /* \"--CODEGEN--\":30:31   */\n              0x00\n                /* \"--CODEGEN--\":27:28   */\n              dup1\n                /* \"--CODEGEN--\":20:32   */\n              revert\n                /* \"--CODEGEN--\":5:7   */\n            tag_134:\n                /* \"DexSwap/DexPair.sol\":8373:8413  IERC20(_token1).balanceOf(address(this)) */\n              pop\n              gas\n              staticcall\n              iszero\n                /* \"--CODEGEN--\":8:17   */\n              dup1\n                /* \"--CODEGEN--\":5:7   */\n              iszero\n              tag_135\n              jumpi\n                /* \"--CODEGEN--\":45:61   */\n              returndatasize\n                /* \"--CODEGEN--\":42:43   */\n              0x00\n                /* \"--CODEGEN--\":39:40   */\n              dup1\n                /* \"--CODEGEN--\":24:62   */\n              returndatacopy\n                /* \"--CODEGEN--\":77:93   */\n              returndatasize\n                /* \"--CODEGEN--\":74:75   */\n              0x00\n                /* \"--CODEGEN--\":67:94   */\n              revert\n                /* \"--CODEGEN--\":5:7   */\n            tag_135:\n                /* \"DexSwap/DexPair.sol\":8373:8413  IERC20(_token1).balanceOf(address(this)) */\n              pop\n              pop\n              pop\n              pop\n              mload(0x40)\n              returndatasize\n                /* \"--CODEGEN--\":13:15   */\n              0x20\n                /* \"--CODEGEN--\":8:11   */\n              dup2\n                /* \"--CODEGEN--\":5:16   */\n              lt\n                /* \"--CODEGEN--\":2:4   */\n              iszero\n              tag_136\n              jumpi\n                /* \"--CODEGEN--\":29:30   */\n              0x00\n                /* \"--CODEGEN--\":26:27   */\n              dup1\n                /* \"--CODEGEN--\":19:31   */\n              revert\n                /* \"--CODEGEN--\":2:4   */\n            tag_136:\n              pop\n                /* \"DexSwap/DexPair.sol\":8373:8413  IERC20(_token1).balanceOf(address(this)) */\n              mload\n              swap3\n              pop\n                /* \"DexSwap/DexPair.sol\":8433:8447  uint amount0In */\n              0x00\n              swap2\n              pop\n              pop\n              sub(shl(0x70, 0x01), 0x01)\n                /* \"DexSwap/DexPair.sol\":8461:8483  _reserve0 - amount0Out */\n              dup6\n              and\n              dup11\n              swap1\n              sub\n                /* \"DexSwap/DexPair.sol\":8450:8483  balance0 > _reserve0 - amount0Out */\n              dup4\n              gt\n                /* \"DexSwap/DexPair.sol\":8450:8525  balance0 > _reserve0 - amount0Out ? balance0 - (_reserve0 - amount0Out) : 0 */\n              tag_137\n              jumpi\n                /* \"DexSwap/DexPair.sol\":8524:8525  0 */\n              0x00\n                /* \"DexSwap/DexPair.sol\":8450:8525  balance0 > _reserve0 - amount0Out ? balance0 - (_reserve0 - amount0Out) : 0 */\n              jump(tag_138)\n            tag_137:\n              sub(shl(0x70, 0x01), 0x01)\n                /* \"DexSwap/DexPair.sol\":8498:8520  _reserve0 - amount0Out */\n              dup6\n              and\n              dup11\n              swap1\n              sub\n                /* \"DexSwap/DexPair.sol\":8486:8521  balance0 - (_reserve0 - amount0Out) */\n              dup4\n              sub\n                /* \"DexSwap/DexPair.sol\":8450:8525  balance0 > _reserve0 - amount0Out ? balance0 - (_reserve0 - amount0Out) : 0 */\n            tag_138:\n                /* \"DexSwap/DexPair.sol\":8433:8525  uint amount0In = balance0 > _reserve0 - amount0Out ? balance0 - (_reserve0 - amount0Out) : 0 */\n              swap1\n              pop\n                /* \"DexSwap/DexPair.sol\":8535:8549  uint amount1In */\n              0x00\n              sub(shl(0x70, 0x01), 0x01)\n                /* \"DexSwap/DexPair.sol\":8563:8585  _reserve1 - amount1Out */\n              dup6\n              and\n              dup11\n              swap1\n              sub\n                /* \"DexSwap/DexPair.sol\":8552:8585  balance1 > _reserve1 - amount1Out */\n              dup4\n              gt\n                /* \"DexSwap/DexPair.sol\":8552:8627  balance1 > _reserve1 - amount1Out ? balance1 - (_reserve1 - amount1Out) : 0 */\n              tag_139\n              jumpi\n                /* \"DexSwap/DexPair.sol\":8626:8627  0 */\n              0x00\n                /* \"DexSwap/DexPair.sol\":8552:8627  balance1 > _reserve1 - amount1Out ? balance1 - (_reserve1 - amount1Out) : 0 */\n              jump(tag_140)\n            tag_139:\n              sub(shl(0x70, 0x01), 0x01)\n                /* \"DexSwap/DexPair.sol\":8600:8622  _reserve1 - amount1Out */\n              dup6\n              and\n              dup11\n              swap1\n              sub\n                /* \"DexSwap/DexPair.sol\":8588:8623  balance1 - (_reserve1 - amount1Out) */\n              dup4\n              sub\n                /* \"DexSwap/DexPair.sol\":8552:8627  balance1 > _reserve1 - amount1Out ? balance1 - (_reserve1 - amount1Out) : 0 */\n            tag_140:\n                /* \"DexSwap/DexPair.sol\":8535:8627  uint amount1In = balance1 > _reserve1 - amount1Out ? balance1 - (_reserve1 - amount1Out) : 0 */\n              swap1\n              pop\n                /* \"DexSwap/DexPair.sol\":8657:8658  0 */\n              0x00\n                /* \"DexSwap/DexPair.sol\":8645:8654  amount0In */\n              dup3\n                /* \"DexSwap/DexPair.sol\":8645:8658  amount0In > 0 */\n              gt\n                /* \"DexSwap/DexPair.sol\":8645:8675  amount0In > 0 || amount1In > 0 */\n              dup1\n              tag_141\n              jumpi\n              pop\n                /* \"DexSwap/DexPair.sol\":8674:8675  0 */\n              0x00\n                /* \"DexSwap/DexPair.sol\":8662:8671  amount1In */\n              dup2\n                /* \"DexSwap/DexPair.sol\":8662:8675  amount1In > 0 */\n              gt\n                /* \"DexSwap/DexPair.sol\":8645:8675  amount0In > 0 || amount1In > 0 */\n            tag_141:\n                /* \"DexSwap/DexPair.sol\":8637:8714  require(amount0In > 0 || amount1In > 0, 'Pancake: INSUFFICIENT_INPUT_AMOUNT') */\n              tag_142\n              jumpi\n              mload(0x40)\n              shl(0xe5, 0x461bcd)\n              dup2\n              mstore\n              0x04\n              add\n              dup1\n              dup1\n              0x20\n              add\n              dup3\n              dup2\n              sub\n              dup3\n              mstore\n              0x22\n              dup2\n              mstore\n              0x20\n              add\n              dup1\n              data_50b0a6dd250a09c1cd083ad4bf9f97424665d60e7bc0a208a1151c7d0051999c\n              0x22\n              swap2\n              codecopy\n              0x40\n              add\n              swap2\n              pop\n              pop\n              mload(0x40)\n              dup1\n              swap2\n              sub\n              swap1\n              revert\n            tag_142:\n                /* \"DexSwap/DexPair.sol\":8798:8819  uint balance0Adjusted */\n              0x00\n                /* \"DexSwap/DexPair.sol\":8823:8865  balance0.mul(10000).sub(amount0In.mul(25)) */\n              tag_143\n                /* \"DexSwap/DexPair.sol\":8847:8864  amount0In.mul(25) */\n              tag_144\n                /* \"DexSwap/DexPair.sol\":8847:8856  amount0In */\n              dup5\n                /* \"DexSwap/DexPair.sol\":8861:8863  25 */\n              0x19\n                /* \"DexSwap/DexPair.sol\":8847:8864  amount0In.mul(25) */\n              0xffffffff\n                /* \"DexSwap/DexPair.sol\":8847:8860  amount0In.mul */\n              tag_145\n                /* \"DexSwap/DexPair.sol\":8847:8864  amount0In.mul(25) */\n              and\n              jump\t// in\n            tag_144:\n                /* \"DexSwap/DexPair.sol\":8823:8842  balance0.mul(10000) */\n              tag_146\n                /* \"DexSwap/DexPair.sol\":8823:8831  balance0 */\n              dup8\n                /* \"DexSwap/DexPair.sol\":8836:8841  10000 */\n              0x2710\n                /* \"DexSwap/DexPair.sol\":8823:8842  balance0.mul(10000) */\n              0xffffffff\n                /* \"DexSwap/DexPair.sol\":8823:8835  balance0.mul */\n              tag_145\n                /* \"DexSwap/DexPair.sol\":8823:8842  balance0.mul(10000) */\n              and\n              jump\t// in\n            tag_146:\n                /* \"DexSwap/DexPair.sol\":8823:8846  balance0.mul(10000).sub */\n              swap1\n                /* \"DexSwap/DexPair.sol\":8823:8865  balance0.mul(10000).sub(amount0In.mul(25)) */\n              0xffffffff\n                /* \"DexSwap/DexPair.sol\":8823:8846  balance0.mul(10000).sub */\n              tag_147\n                /* \"DexSwap/DexPair.sol\":8823:8865  balance0.mul(10000).sub(amount0In.mul(25)) */\n              and\n              jump\t// in\n            tag_143:\n                /* \"DexSwap/DexPair.sol\":8798:8866  uint balance0Adjusted = (balance0.mul(10000).sub(amount0In.mul(25))) */\n              swap1\n              pop\n                /* \"DexSwap/DexPair.sol\":8876:8897  uint balance1Adjusted */\n              0x00\n                /* \"DexSwap/DexPair.sol\":8901:8943  balance1.mul(10000).sub(amount1In.mul(25)) */\n              tag_148\n                /* \"DexSwap/DexPair.sol\":8925:8942  amount1In.mul(25) */\n              tag_144\n                /* \"DexSwap/DexPair.sol\":8925:8934  amount1In */\n              dup5\n                /* \"DexSwap/DexPair.sol\":8939:8941  25 */\n              0x19\n                /* \"DexSwap/DexPair.sol\":8925:8942  amount1In.mul(25) */\n              0xffffffff\n                /* \"DexSwap/DexPair.sol\":8925:8938  amount1In.mul */\n              tag_145\n                /* \"DexSwap/DexPair.sol\":8925:8942  amount1In.mul(25) */\n              and\n              jump\t// in\n                /* \"DexSwap/DexPair.sol\":8901:8943  balance1.mul(10000).sub(amount1In.mul(25)) */\n            tag_148:\n                /* \"DexSwap/DexPair.sol\":8876:8944  uint balance1Adjusted = (balance1.mul(10000).sub(amount1In.mul(25))) */\n              swap1\n              pop\n                /* \"DexSwap/DexPair.sol\":9004:9048  uint(_reserve0).mul(_reserve1).mul(10000**2) */\n              tag_151\n                /* \"DexSwap/DexPair.sol\":9039:9047  10000**2 */\n              0x05f5e100\n                /* \"DexSwap/DexPair.sol\":9004:9034  uint(_reserve0).mul(_reserve1) */\n              tag_152\n              sub(shl(0x70, 0x01), 0x01)\n                /* \"DexSwap/DexPair.sol\":9004:9019  uint(_reserve0) */\n              dup12\n              dup2\n              and\n              swap1\n                /* \"DexSwap/DexPair.sol\":9004:9034  uint(_reserve0).mul(_reserve1) */\n              dup12\n              and\n                /* \"DexSwap/DexPair.sol\":9004:9023  uint(_reserve0).mul */\n              tag_145\n                /* \"DexSwap/DexPair.sol\":9004:9034  uint(_reserve0).mul(_reserve1) */\n              jump\t// in\n            tag_152:\n                /* \"DexSwap/DexPair.sol\":9004:9038  uint(_reserve0).mul(_reserve1).mul */\n              swap1\n                /* \"DexSwap/DexPair.sol\":9004:9048  uint(_reserve0).mul(_reserve1).mul(10000**2) */\n              0xffffffff\n                /* \"DexSwap/DexPair.sol\":9004:9038  uint(_reserve0).mul(_reserve1).mul */\n              tag_145\n                /* \"DexSwap/DexPair.sol\":9004:9048  uint(_reserve0).mul(_reserve1).mul(10000**2) */\n              and\n              jump\t// in\n            tag_151:\n                /* \"DexSwap/DexPair.sol\":8962:9000  balance0Adjusted.mul(balance1Adjusted) */\n              tag_153\n                /* \"DexSwap/DexPair.sol\":8962:8978  balance0Adjusted */\n              dup4\n                /* \"DexSwap/DexPair.sol\":8983:8999  balance1Adjusted */\n              dup4\n                /* \"DexSwap/DexPair.sol\":8962:9000  balance0Adjusted.mul(balance1Adjusted) */\n              0xffffffff\n                /* \"DexSwap/DexPair.sol\":8962:8982  balance0Adjusted.mul */\n              tag_145\n                /* \"DexSwap/DexPair.sol\":8962:9000  balance0Adjusted.mul(balance1Adjusted) */\n              and\n              jump\t// in\n            tag_153:\n                /* \"DexSwap/DexPair.sol\":8962:9048  balance0Adjusted.mul(balance1Adjusted) >= uint(_reserve0).mul(_reserve1).mul(10000**2) */\n              lt\n              iszero\n                /* \"DexSwap/DexPair.sol\":8954:9063  require(balance0Adjusted.mul(balance1Adjusted) >= uint(_reserve0).mul(_reserve1).mul(10000**2), 'Pancake: K') */\n              tag_154\n              jumpi\n              0x40\n              dup1\n              mload\n              shl(0xe5, 0x461bcd)\n              dup2\n              mstore\n              0x20\n              0x04\n              dup3\n              add\n              mstore\n              0x0a\n              0x24\n              dup3\n              add\n              mstore\n              shl(0xb0, 0x50616e63616b653a204b)\n              0x44\n              dup3\n              add\n              mstore\n              swap1\n              mload\n              swap1\n              dup2\n              swap1\n              sub\n              0x64\n              add\n              swap1\n              revert\n            tag_154:\n                /* \"DexSwap/DexPair.sol\":1264:1265  _ */\n              pop\n              pop\n                /* \"DexSwap/DexPair.sol\":9084:9133  _update(balance0, balance1, _reserve0, _reserve1) */\n              tag_155\n                /* \"DexSwap/DexPair.sol\":9092:9100  balance0 */\n              dup5\n                /* \"DexSwap/DexPair.sol\":9102:9110  balance1 */\n              dup5\n                /* \"DexSwap/DexPair.sol\":9112:9121  _reserve0 */\n              dup9\n                /* \"DexSwap/DexPair.sol\":9123:9132  _reserve1 */\n              dup9\n                /* \"DexSwap/DexPair.sol\":9084:9091  _update */\n              tag_156\n                /* \"DexSwap/DexPair.sol\":9084:9133  _update(balance0, balance1, _reserve0, _reserve1) */\n              jump\t// in\n            tag_155:\n                /* \"DexSwap/DexPair.sol\":9148:9214  Swap(msg.sender, amount0In, amount1In, amount0Out, amount1Out, to) */\n              0x40\n              dup1\n              mload\n              dup4\n              dup2\n              mstore\n              0x20\n              dup2\n              add\n              dup4\n              swap1\n              mstore\n              dup1\n              dup3\n              add\n              dup14\n              swap1\n              mstore\n              0x60\n              dup2\n              add\n              dup13\n              swap1\n              mstore\n              swap1\n              mload\n              sub(shl(0xa0, 0x01), 0x01)\n              dup12\n              and\n              swap2\n                /* \"DexSwap/DexPair.sol\":9153:9163  msg.sender */\n              caller\n              swap2\n                /* \"DexSwap/DexPair.sol\":9148:9214  Swap(msg.sender, amount0In, amount1In, amount0Out, amount1Out, to) */\n              0xd78ad95fa46c994b6551d0da85fc275fe613ce37657fb8d5e3d130840159d822\n              swap2\n              dup2\n              swap1\n              sub\n              0x80\n              add\n              swap1\n              log3\n              pop\n              pop\n                /* \"DexSwap/DexPair.sol\":1286:1287  1 */\n              0x01\n                /* \"DexSwap/DexPair.sol\":1275:1283  unlocked */\n              0x0c\n                /* \"DexSwap/DexPair.sol\":1275:1287  unlocked = 1 */\n              sstore\n              pop\n              pop\n              pop\n              pop\n              pop\n              pop\n              pop\n              pop\n              pop\n                /* \"DexSwap/DexPair.sol\":7365:9221  function swap(uint amount0Out, uint amount1Out, address to, bytes calldata data) external lock {... */\n              jump\t// out\n                /* \"DexSwap/PancakeERC20.sol\":217:260  string public constant name = \"DexSwap LPs\" */\n            tag_43:\n              0x40\n              dup1\n              mload\n              dup1\n              dup3\n              add\n              swap1\n              swap2\n              mstore\n              0x0b\n              dup2\n              mstore\n              shl(0xa8, 0x44657853776170204c5073)\n              0x20\n              dup3\n              add\n              mstore\n              dup2\n              jump\t// out\n                /* \"DexSwap/DexPair.sol\":1300:1527  function getReserves() public view returns (uint112 _reserve0, uint112 _reserve1, uint32 _blockTimestampLast) {... */\n            tag_49:\n                /* \"DexSwap/DexPair.sol\":1432:1440  reserve0 */\n              sload(0x08)\n              sub(shl(0x70, 0x01), 0x01)\n              dup1\n              dup3\n              and\n              swap3\n              shl(0x70, 0x01)\n                /* \"DexSwap/DexPair.sol\":1462:1470  reserve1 */\n              dup4\n              div\n              swap1\n              swap2\n              and\n              swap2\n              shl(0xe0, 0x01)\n                /* \"DexSwap/DexPair.sol\":1502:1520  blockTimestampLast */\n              swap1\n              div\n              0xffffffff\n              and\n              swap1\n                /* \"DexSwap/DexPair.sol\":1300:1527  function getReserves() public view returns (uint112 _reserve0, uint112 _reserve1, uint32 _blockTimestampLast) {... */\n              jump\t// out\n                /* \"DexSwap/PancakeERC20.sol\":2307:2454  function approve(address spender, uint256 value) external returns (bool) {... */\n            tag_52:\n                /* \"DexSwap/PancakeERC20.sol\":2374:2378  bool */\n              0x00\n                /* \"DexSwap/PancakeERC20.sol\":2390:2426  _approve(msg.sender, spender, value) */\n              tag_159\n                /* \"DexSwap/PancakeERC20.sol\":2399:2409  msg.sender */\n              caller\n                /* \"DexSwap/PancakeERC20.sol\":2411:2418  spender */\n              dup5\n                /* \"DexSwap/PancakeERC20.sol\":2420:2425  value */\n              dup5\n                /* \"DexSwap/PancakeERC20.sol\":2390:2398  _approve */\n              tag_160\n                /* \"DexSwap/PancakeERC20.sol\":2390:2426  _approve(msg.sender, spender, value) */\n              jump\t// in\n            tag_159:\n              pop\n                /* \"DexSwap/PancakeERC20.sol\":2443:2447  true */\n              0x01\n                /* \"DexSwap/PancakeERC20.sol\":2307:2454  function approve(address spender, uint256 value) external returns (bool) {... */\n            tag_158:\n              swap3\n              swap2\n              pop\n              pop\n              jump\t// out\n                /* \"DexSwap/DexPair.sol\":610:631  address public token0 */\n            tag_54:\n              and(sub(shl(0xa0, 0x01), 0x01), sload(0x06))\n              dup2\n              jump\t// out\n                /* \"DexSwap/PancakeERC20.sol\":357:383  uint256 public totalSupply */\n            tag_56:\n              sload(0x00)\n              dup2\n              jump\t// out\n                /* \"DexSwap/PancakeERC20.sol\":2605:2936  function transferFrom(... */\n            tag_59:\n              sub(shl(0xa0, 0x01), 0x01)\n                /* \"DexSwap/PancakeERC20.sol\":2736:2751  allowance[from] */\n              dup4\n              and\n                /* \"DexSwap/PancakeERC20.sol\":2716:2720  bool */\n              0x00\n                /* \"DexSwap/PancakeERC20.sol\":2736:2751  allowance[from] */\n              swap1\n              dup2\n              mstore\n                /* \"DexSwap/PancakeERC20.sol\":2736:2745  allowance */\n              0x02\n                /* \"DexSwap/PancakeERC20.sol\":2736:2751  allowance[from] */\n              0x20\n              swap1\n              dup2\n              mstore\n              0x40\n              dup1\n              dup4\n              keccak256\n                /* \"DexSwap/PancakeERC20.sol\":2752:2762  msg.sender */\n              caller\n                /* \"DexSwap/PancakeERC20.sol\":2736:2763  allowance[from][msg.sender] */\n              dup5\n              mstore\n              swap1\n              swap2\n              mstore\n              dup2\n              keccak256\n              sload\n              not(0x00)\n                /* \"DexSwap/PancakeERC20.sol\":2736:2778  allowance[from][msg.sender] != uint256(-1) */\n              eq\n                /* \"DexSwap/PancakeERC20.sol\":2732:2873  if (allowance[from][msg.sender] != uint256(-1)) {... */\n              tag_162\n              jumpi\n              sub(shl(0xa0, 0x01), 0x01)\n                /* \"DexSwap/PancakeERC20.sol\":2824:2839  allowance[from] */\n              dup5\n              and\n              0x00\n              swap1\n              dup2\n              mstore\n                /* \"DexSwap/PancakeERC20.sol\":2824:2833  allowance */\n              0x02\n                /* \"DexSwap/PancakeERC20.sol\":2824:2839  allowance[from] */\n              0x20\n              swap1\n              dup2\n              mstore\n              0x40\n              dup1\n              dup4\n              keccak256\n                /* \"DexSwap/PancakeERC20.sol\":2840:2850  msg.sender */\n              caller\n                /* \"DexSwap/PancakeERC20.sol\":2824:2851  allowance[from][msg.sender] */\n              dup5\n              mstore\n              swap1\n              swap2\n              mstore\n              swap1\n              keccak256\n              sload\n                /* \"DexSwap/PancakeERC20.sol\":2824:2862  allowance[from][msg.sender].sub(value) */\n              tag_163\n              swap1\n                /* \"DexSwap/PancakeERC20.sol\":2856:2861  value */\n              dup4\n                /* \"DexSwap/PancakeERC20.sol\":2824:2855  allowance[from][msg.sender].sub */\n              tag_147\n                /* \"DexSwap/PancakeERC20.sol\":2824:2862  allowance[from][msg.sender].sub(value) */\n              jump\t// in\n            tag_163:\n              sub(shl(0xa0, 0x01), 0x01)\n                /* \"DexSwap/PancakeERC20.sol\":2794:2809  allowance[from] */\n              dup6\n              and\n              0x00\n              swap1\n              dup2\n              mstore\n                /* \"DexSwap/PancakeERC20.sol\":2794:2803  allowance */\n              0x02\n                /* \"DexSwap/PancakeERC20.sol\":2794:2809  allowance[from] */\n              0x20\n              swap1\n              dup2\n              mstore\n              0x40\n              dup1\n              dup4\n              keccak256\n                /* \"DexSwap/PancakeERC20.sol\":2810:2820  msg.sender */\n              caller\n                /* \"DexSwap/PancakeERC20.sol\":2794:2821  allowance[from][msg.sender] */\n              dup5\n              mstore\n              swap1\n              swap2\n              mstore\n              swap1\n              keccak256\n                /* \"DexSwap/PancakeERC20.sol\":2794:2862  allowance[from][msg.sender] = allowance[from][msg.sender].sub(value) */\n              sstore\n                /* \"DexSwap/PancakeERC20.sol\":2732:2873  if (allowance[from][msg.sender] != uint256(-1)) {... */\n            tag_162:\n                /* \"DexSwap/PancakeERC20.sol\":2882:2908  _transfer(from, to, value) */\n              tag_164\n                /* \"DexSwap/PancakeERC20.sol\":2892:2896  from */\n              dup5\n                /* \"DexSwap/PancakeERC20.sol\":2898:2900  to */\n              dup5\n                /* \"DexSwap/PancakeERC20.sol\":2902:2907  value */\n              dup5\n                /* \"DexSwap/PancakeERC20.sol\":2882:2891  _transfer */\n              tag_165\n                /* \"DexSwap/PancakeERC20.sol\":2882:2908  _transfer(from, to, value) */\n              jump\t// in\n            tag_164:\n              pop\n                /* \"DexSwap/PancakeERC20.sol\":2925:2929  true */\n              0x01\n                /* \"DexSwap/PancakeERC20.sol\":2605:2936  function transferFrom(... */\n              swap4\n              swap3\n              pop\n              pop\n              pop\n              jump\t// out\n                /* \"DexSwap/PancakeERC20.sol\":651:759  bytes32 public constant PERMIT_TYPEHASH = 0x6e71edae12b1b97f4d1f60370fef10105fa2faae0126114a169c64845d6126c9 */\n            tag_61:\n                /* \"DexSwap/PancakeERC20.sol\":693:759  0x6e71edae12b1b97f4d1f60370fef10105fa2faae0126114a169c64845d6126c9 */\n              0x6e71edae12b1b97f4d1f60370fef10105fa2faae0126114a169c64845d6126c9\n                /* \"DexSwap/PancakeERC20.sol\":651:759  bytes32 public constant PERMIT_TYPEHASH = 0x6e71edae12b1b97f4d1f60370fef10105fa2faae0126114a169c64845d6126c9 */\n              dup2\n              jump\t// out\n                /* \"DexSwap/PancakeERC20.sol\":316:351  uint8 public constant decimals = 18 */\n            tag_63:\n                /* \"DexSwap/PancakeERC20.sol\":349:351  18 */\n              0x12\n                /* \"DexSwap/PancakeERC20.sol\":316:351  uint8 public constant decimals = 18 */\n              dup2\n              jump\t// out\n                /* \"DexSwap/PancakeERC20.sol\":510:541  bytes32 public DOMAIN_SEPARATOR */\n            tag_65:\n              sload(0x03)\n              dup2\n              jump\t// out\n                /* \"DexSwap/DexPair.sol\":2330:2534  function initialize(address _token0, address _token1) external {... */\n            tag_68:\n                /* \"DexSwap/DexPair.sol\":2425:2432  factory */\n              and(sub(shl(0xa0, 0x01), 0x01), sload(0x05))\n                /* \"DexSwap/DexPair.sol\":2411:2421  msg.sender */\n              caller\n                /* \"DexSwap/DexPair.sol\":2411:2432  msg.sender == factory */\n              eq\n                /* \"DexSwap/DexPair.sol\":2403:2455  require(msg.sender == factory, 'Pancake: FORBIDDEN') */\n              tag_167\n              jumpi\n              0x40\n              dup1\n              mload\n              shl(0xe5, 0x461bcd)\n              dup2\n              mstore\n              0x20\n              0x04\n              dup3\n              add\n              mstore\n              0x12\n              0x24\n              dup3\n              add\n              mstore\n              shl(0x71, 0x2830b731b0b5b29d102327a92124a22222a7)\n              0x44\n              dup3\n              add\n              mstore\n              swap1\n              mload\n              swap1\n              dup2\n              swap1\n              sub\n              0x64\n              add\n              swap1\n              revert\n            tag_167:\n                /* \"DexSwap/DexPair.sol\":2485:2491  token0 */\n              0x06\n                /* \"DexSwap/DexPair.sol\":2485:2501  token0 = _token0 */\n              dup1\n              sload\n              sub(shl(0xa0, 0x01), 0x01)\n              swap4\n              dup5\n              and\n              not(sub(shl(0xa0, 0x01), 0x01))\n              swap2\n              dup3\n              and\n              or\n              swap1\n              swap2\n              sstore\n                /* \"DexSwap/DexPair.sol\":2511:2517  token1 */\n              0x07\n                /* \"DexSwap/DexPair.sol\":2511:2527  token1 = _token1 */\n              dup1\n              sload\n              swap3\n              swap1\n              swap4\n              and\n              swap2\n              and\n              or\n              swap1\n              sstore\n                /* \"DexSwap/DexPair.sol\":2330:2534  function initialize(address _token0, address _token1) external {... */\n              jump\t// out\n                /* \"DexSwap/DexPair.sol\":954:986  uint public price0CumulativeLast */\n            tag_70:\n              sload(0x09)\n              dup2\n              jump\t// out\n                /* \"DexSwap/DexPair.sol\":992:1024  uint public price1CumulativeLast */\n            tag_72:\n              sload(0x0a)\n              dup2\n              jump\t// out\n                /* \"DexSwap/DexPair.sol\":4488:5705  function mint(address to) external lock returns (uint liquidity) {... */\n            tag_75:\n                /* \"DexSwap/DexPair.sol\":4537:4551  uint liquidity */\n              0x00\n                /* \"DexSwap/DexPair.sol\":1199:1207  unlocked */\n              sload(0x0c)\n                /* \"DexSwap/DexPair.sol\":1211:1212  1 */\n              0x01\n                /* \"DexSwap/DexPair.sol\":1199:1212  unlocked == 1 */\n              eq\n                /* \"DexSwap/DexPair.sol\":1191:1232  require(unlocked == 1, 'Pancake: LOCKED') */\n              tag_169\n              jumpi\n              0x40\n              dup1\n              mload\n              shl(0xe5, 0x461bcd)\n              dup2\n              mstore\n              0x20\n              0x04\n              dup3\n              add\n              mstore\n              0x0f\n              0x24\n              dup3\n              add\n              mstore\n              shl(0x8a, 0x14185b98d85ad94e881313d0d2d151)\n              0x44\n              dup3\n              add\n              mstore\n              swap1\n              mload\n              swap1\n              dup2\n              swap1\n              sub\n              0x64\n              add\n              swap1\n              revert\n            tag_169:\n                /* \"DexSwap/DexPair.sol\":1253:1254  0 */\n              0x00\n                /* \"DexSwap/DexPair.sol\":1242:1250  unlocked */\n              0x0c\n                /* \"DexSwap/DexPair.sol\":1242:1254  unlocked = 0 */\n              dup2\n              swap1\n              sstore\n                /* \"DexSwap/DexPair.sol\":1253:1254  0 */\n              dup1\n                /* \"DexSwap/DexPair.sol\":4605:4618  getReserves() */\n              tag_171\n                /* \"DexSwap/DexPair.sol\":4605:4616  getReserves */\n              tag_49\n                /* \"DexSwap/DexPair.sol\":4605:4618  getReserves() */\n              jump\t// in\n            tag_171:\n              pop\n                /* \"DexSwap/DexPair.sol\":4666:4672  token0 */\n              sload(0x06)\n                /* \"DexSwap/DexPair.sol\":4659:4698  IERC20(token0).balanceOf(address(this)) */\n              0x40\n              dup1\n              mload\n              shl(0xe0, 0x70a08231)\n              dup2\n              mstore\n                /* \"DexSwap/DexPair.sol\":4692:4696  this */\n              address\n                /* \"DexSwap/DexPair.sol\":4659:4698  IERC20(token0).balanceOf(address(this)) */\n              0x04\n              dup3\n              add\n              mstore\n              swap1\n              mload\n                /* \"DexSwap/DexPair.sol\":4563:4618  (uint112 _reserve0, uint112 _reserve1,) = getReserves() */\n              swap4\n              swap6\n              pop\n              swap2\n              swap4\n              pop\n              0x00\n              swap3\n              sub(shl(0xa0, 0x01), 0x01)\n                /* \"DexSwap/DexPair.sol\":4666:4672  token0 */\n              swap1\n              swap2\n              and\n              swap2\n              0x70a08231\n              swap2\n                /* \"DexSwap/DexPair.sol\":4659:4698  IERC20(token0).balanceOf(address(this)) */\n              0x24\n              dup1\n              dup4\n              add\n              swap3\n              0x20\n              swap3\n              swap2\n              swap1\n              dup3\n              swap1\n              sub\n              add\n              dup2\n                /* \"DexSwap/DexPair.sol\":4666:4672  token0 */\n              dup7\n                /* \"DexSwap/DexPair.sol\":4659:4698  IERC20(token0).balanceOf(address(this)) */\n              dup1\n              extcodesize\n              iszero\n                /* \"--CODEGEN--\":5:7   */\n              dup1\n              iszero\n              tag_172\n              jumpi\n                /* \"--CODEGEN--\":30:31   */\n              0x00\n                /* \"--CODEGEN--\":27:28   */\n              dup1\n                /* \"--CODEGEN--\":20:32   */\n              revert\n                /* \"--CODEGEN--\":5:7   */\n            tag_172:\n                /* \"DexSwap/DexPair.sol\":4659:4698  IERC20(token0).balanceOf(address(this)) */\n              pop\n              gas\n              staticcall\n              iszero\n                /* \"--CODEGEN--\":8:17   */\n              dup1\n                /* \"--CODEGEN--\":5:7   */\n              iszero\n              tag_173\n              jumpi\n                /* \"--CODEGEN--\":45:61   */\n              returndatasize\n                /* \"--CODEGEN--\":42:43   */\n              0x00\n                /* \"--CODEGEN--\":39:40   */\n              dup1\n                /* \"--CODEGEN--\":24:62   */\n              returndatacopy\n                /* \"--CODEGEN--\":77:93   */\n              returndatasize\n                /* \"--CODEGEN--\":74:75   */\n              0x00\n                /* \"--CODEGEN--\":67:94   */\n              revert\n                /* \"--CODEGEN--\":5:7   */\n            tag_173:\n                /* \"DexSwap/DexPair.sol\":4659:4698  IERC20(token0).balanceOf(address(this)) */\n              pop\n              pop\n              pop\n              pop\n              mload(0x40)\n              returndatasize\n                /* \"--CODEGEN--\":13:15   */\n              0x20\n                /* \"--CODEGEN--\":8:11   */\n              dup2\n                /* \"--CODEGEN--\":5:16   */\n              lt\n                /* \"--CODEGEN--\":2:4   */\n              iszero\n              tag_174\n              jumpi\n                /* \"--CODEGEN--\":29:30   */\n              0x00\n                /* \"--CODEGEN--\":26:27   */\n              dup1\n                /* \"--CODEGEN--\":19:31   */\n              revert\n                /* \"--CODEGEN--\":2:4   */\n            tag_174:\n              pop\n                /* \"DexSwap/DexPair.sol\":4659:4698  IERC20(token0).balanceOf(address(this)) */\n              mload\n                /* \"DexSwap/DexPair.sol\":4731:4737  token1 */\n              sload(0x07)\n                /* \"DexSwap/DexPair.sol\":4724:4763  IERC20(token1).balanceOf(address(this)) */\n              0x40\n              dup1\n              mload\n              shl(0xe0, 0x70a08231)\n              dup2\n              mstore\n                /* \"DexSwap/DexPair.sol\":4757:4761  this */\n              address\n                /* \"DexSwap/DexPair.sol\":4724:4763  IERC20(token1).balanceOf(address(this)) */\n              0x04\n              dup3\n              add\n              mstore\n              swap1\n              mload\n                /* \"DexSwap/DexPair.sol\":4659:4698  IERC20(token0).balanceOf(address(this)) */\n              swap3\n              swap4\n              pop\n              0x00\n              swap3\n              sub(shl(0xa0, 0x01), 0x01)\n                /* \"DexSwap/DexPair.sol\":4731:4737  token1 */\n              swap1\n              swap3\n              and\n              swap2\n              0x70a08231\n              swap2\n                /* \"DexSwap/DexPair.sol\":4724:4763  IERC20(token1).balanceOf(address(this)) */\n              0x24\n              dup1\n              dup3\n              add\n              swap3\n                /* \"DexSwap/DexPair.sol\":4659:4698  IERC20(token0).balanceOf(address(this)) */\n              0x20\n              swap3\n                /* \"DexSwap/DexPair.sol\":4724:4763  IERC20(token1).balanceOf(address(this)) */\n              swap1\n              swap2\n              swap1\n              dup3\n              swap1\n              sub\n              add\n              dup2\n                /* \"DexSwap/DexPair.sol\":4731:4737  token1 */\n              dup7\n                /* \"DexSwap/DexPair.sol\":4724:4763  IERC20(token1).balanceOf(address(this)) */\n              dup1\n              extcodesize\n              iszero\n                /* \"--CODEGEN--\":5:7   */\n              dup1\n              iszero\n              tag_175\n              jumpi\n                /* \"--CODEGEN--\":30:31   */\n              0x00\n                /* \"--CODEGEN--\":27:28   */\n              dup1\n                /* \"--CODEGEN--\":20:32   */\n              revert\n                /* \"--CODEGEN--\":5:7   */\n            tag_175:\n                /* \"DexSwap/DexPair.sol\":4724:4763  IERC20(token1).balanceOf(address(this)) */\n              pop\n              gas\n              staticcall\n              iszero\n                /* \"--CODEGEN--\":8:17   */\n              dup1\n                /* \"--CODEGEN--\":5:7   */\n              iszero\n              tag_176\n              jumpi\n                /* \"--CODEGEN--\":45:61   */\n              returndatasize\n                /* \"--CODEGEN--\":42:43   */\n              0x00\n                /* \"--CODEGEN--\":39:40   */\n              dup1\n                /* \"--CODEGEN--\":24:62   */\n              returndatacopy\n                /* \"--CODEGEN--\":77:93   */\n              returndatasize\n                /* \"--CODEGEN--\":74:75   */\n              0x00\n                /* \"--CODEGEN--\":67:94   */\n              revert\n                /* \"--CODEGEN--\":5:7   */\n            tag_176:\n                /* \"DexSwap/DexPair.sol\":4724:4763  IERC20(token1).balanceOf(address(this)) */\n              pop\n              pop\n              pop\n              pop\n              mload(0x40)\n              returndatasize\n                /* \"--CODEGEN--\":13:15   */\n              0x20\n                /* \"--CODEGEN--\":8:11   */\n              dup2\n                /* \"--CODEGEN--\":5:16   */\n              lt\n                /* \"--CODEGEN--\":2:4   */\n              iszero\n              tag_177\n              jumpi\n                /* \"--CODEGEN--\":29:30   */\n              0x00\n                /* \"--CODEGEN--\":26:27   */\n              dup1\n                /* \"--CODEGEN--\":19:31   */\n              revert\n                /* \"--CODEGEN--\":2:4   */\n            tag_177:\n              pop\n                /* \"DexSwap/DexPair.sol\":4724:4763  IERC20(token1).balanceOf(address(this)) */\n              mload\n              swap1\n              pop\n                /* \"DexSwap/DexPair.sol\":4773:4785  uint amount0 */\n              0x00\n                /* \"DexSwap/DexPair.sol\":4788:4811  balance0.sub(_reserve0) */\n              tag_178\n                /* \"DexSwap/DexPair.sol\":4788:4796  balance0 */\n              dup4\n              sub(shl(0x70, 0x01), 0x01)\n                /* \"DexSwap/DexPair.sol\":4788:4811  balance0.sub(_reserve0) */\n              dup8\n              and\n                /* \"DexSwap/DexPair.sol\":4788:4800  balance0.sub */\n              tag_147\n                /* \"DexSwap/DexPair.sol\":4788:4811  balance0.sub(_reserve0) */\n              jump\t// in\n            tag_178:\n                /* \"DexSwap/DexPair.sol\":4773:4811  uint amount0 = balance0.sub(_reserve0) */\n              swap1\n              pop\n                /* \"DexSwap/DexPair.sol\":4821:4833  uint amount1 */\n              0x00\n                /* \"DexSwap/DexPair.sol\":4836:4859  balance1.sub(_reserve1) */\n              tag_179\n                /* \"DexSwap/DexPair.sol\":4836:4844  balance1 */\n              dup4\n              sub(shl(0x70, 0x01), 0x01)\n                /* \"DexSwap/DexPair.sol\":4836:4859  balance1.sub(_reserve1) */\n              dup8\n              and\n                /* \"DexSwap/DexPair.sol\":4836:4848  balance1.sub */\n              tag_147\n                /* \"DexSwap/DexPair.sol\":4836:4859  balance1.sub(_reserve1) */\n              jump\t// in\n            tag_179:\n                /* \"DexSwap/DexPair.sol\":4821:4859  uint amount1 = balance1.sub(_reserve1) */\n              swap1\n              pop\n                /* \"DexSwap/DexPair.sol\":4870:4880  bool feeOn */\n              0x00\n                /* \"DexSwap/DexPair.sol\":4883:4913  _mintFee(_reserve0, _reserve1) */\n              tag_180\n                /* \"DexSwap/DexPair.sol\":4892:4901  _reserve0 */\n              dup8\n                /* \"DexSwap/DexPair.sol\":4903:4912  _reserve1 */\n              dup8\n                /* \"DexSwap/DexPair.sol\":4883:4891  _mintFee */\n              tag_181\n                /* \"DexSwap/DexPair.sol\":4883:4913  _mintFee(_reserve0, _reserve1) */\n              jump\t// in\n            tag_180:\n                /* \"DexSwap/DexPair.sol\":4923:4940  uint _totalSupply */\n              0x00\n                /* \"DexSwap/DexPair.sol\":4943:4954  totalSupply */\n              sload\n                /* \"DexSwap/DexPair.sol\":4870:4913  bool feeOn = _mintFee(_reserve0, _reserve1) */\n              swap1\n              swap2\n              pop\n                /* \"DexSwap/DexPair.sol\":5046:5063  _totalSupply == 0 */\n              dup1\n                /* \"DexSwap/DexPair.sol\":5042:5389  if (_totalSupply == 0) {... */\n              tag_182\n              jumpi\n                /* \"DexSwap/DexPair.sol\":5091:5145  Math.sqrt(amount0.mul(amount1)).sub(MINIMUM_LIQUIDITY) */\n              tag_183\n                /* \"DexSwap/DexPair.sol\":476:481  10**3 */\n              0x03e8\n                /* \"DexSwap/DexPair.sol\":5091:5122  Math.sqrt(amount0.mul(amount1)) */\n              tag_146\n                /* \"DexSwap/DexPair.sol\":5101:5121  amount0.mul(amount1) */\n              tag_185\n                /* \"DexSwap/DexPair.sol\":5101:5108  amount0 */\n              dup8\n                /* \"DexSwap/DexPair.sol\":5113:5120  amount1 */\n              dup8\n                /* \"DexSwap/DexPair.sol\":5101:5121  amount0.mul(amount1) */\n              0xffffffff\n                /* \"DexSwap/DexPair.sol\":5101:5112  amount0.mul */\n              tag_145\n                /* \"DexSwap/DexPair.sol\":5101:5121  amount0.mul(amount1) */\n              and\n              jump\t// in\n            tag_185:\n                /* \"DexSwap/DexPair.sol\":5091:5100  Math.sqrt */\n              tag_186\n                /* \"DexSwap/DexPair.sol\":5091:5122  Math.sqrt(amount0.mul(amount1)) */\n              jump\t// in\n                /* \"DexSwap/DexPair.sol\":5091:5145  Math.sqrt(amount0.mul(amount1)).sub(MINIMUM_LIQUIDITY) */\n            tag_183:\n                /* \"DexSwap/DexPair.sol\":5079:5145  liquidity = Math.sqrt(amount0.mul(amount1)).sub(MINIMUM_LIQUIDITY) */\n              swap9\n              pop\n                /* \"DexSwap/DexPair.sol\":5158:5194  _mint(address(0), MINIMUM_LIQUIDITY) */\n              tag_187\n                /* \"DexSwap/DexPair.sol\":5172:5173  0 */\n              0x00\n                /* \"DexSwap/DexPair.sol\":476:481  10**3 */\n              0x03e8\n                /* \"DexSwap/DexPair.sol\":5158:5163  _mint */\n              tag_188\n                /* \"DexSwap/DexPair.sol\":5158:5194  _mint(address(0), MINIMUM_LIQUIDITY) */\n              jump\t// in\n            tag_187:\n                /* \"DexSwap/DexPair.sol\":5042:5389  if (_totalSupply == 0) {... */\n              jump(tag_189)\n            tag_182:\n                /* \"DexSwap/DexPair.sol\":5292:5378  Math.min(amount0.mul(_totalSupply) / _reserve0, amount1.mul(_totalSupply) / _reserve1) */\n              tag_190\n              sub(shl(0x70, 0x01), 0x01)\n                /* \"DexSwap/DexPair.sol\":5301:5338  amount0.mul(_totalSupply) / _reserve0 */\n              dup10\n              and\n                /* \"DexSwap/DexPair.sol\":5301:5326  amount0.mul(_totalSupply) */\n              tag_191\n                /* \"DexSwap/DexPair.sol\":5301:5308  amount0 */\n              dup7\n                /* \"DexSwap/DexPair.sol\":5313:5325  _totalSupply */\n              dup5\n                /* \"DexSwap/DexPair.sol\":5301:5312  amount0.mul */\n              tag_145\n                /* \"DexSwap/DexPair.sol\":5301:5326  amount0.mul(_totalSupply) */\n              jump\t// in\n            tag_191:\n                /* \"DexSwap/DexPair.sol\":5301:5338  amount0.mul(_totalSupply) / _reserve0 */\n              dup2\n              tag_192\n              jumpi\n              invalid\n            tag_192:\n              div\n              sub(shl(0x70, 0x01), 0x01)\n                /* \"DexSwap/DexPair.sol\":5340:5377  amount1.mul(_totalSupply) / _reserve1 */\n              dup10\n              and\n                /* \"DexSwap/DexPair.sol\":5340:5365  amount1.mul(_totalSupply) */\n              tag_193\n                /* \"DexSwap/DexPair.sol\":5340:5347  amount1 */\n              dup7\n                /* \"DexSwap/DexPair.sol\":5352:5364  _totalSupply */\n              dup6\n                /* \"DexSwap/DexPair.sol\":5340:5351  amount1.mul */\n              tag_145\n                /* \"DexSwap/DexPair.sol\":5340:5365  amount1.mul(_totalSupply) */\n              jump\t// in\n            tag_193:\n                /* \"DexSwap/DexPair.sol\":5340:5377  amount1.mul(_totalSupply) / _reserve1 */\n              dup2\n              tag_194\n              jumpi\n              invalid\n            tag_194:\n              div\n                /* \"DexSwap/DexPair.sol\":5292:5300  Math.min */\n              tag_195\n                /* \"DexSwap/DexPair.sol\":5292:5378  Math.min(amount0.mul(_totalSupply) / _reserve0, amount1.mul(_totalSupply) / _reserve1) */\n              jump\t// in\n            tag_190:\n                /* \"DexSwap/DexPair.sol\":5280:5378  liquidity = Math.min(amount0.mul(_totalSupply) / _reserve0, amount1.mul(_totalSupply) / _reserve1) */\n              swap9\n              pop\n                /* \"DexSwap/DexPair.sol\":5042:5389  if (_totalSupply == 0) {... */\n            tag_189:\n                /* \"DexSwap/DexPair.sol\":5418:5419  0 */\n              0x00\n                /* \"DexSwap/DexPair.sol\":5406:5415  liquidity */\n              dup10\n                /* \"DexSwap/DexPair.sol\":5406:5419  liquidity > 0 */\n              gt\n                /* \"DexSwap/DexPair.sol\":5398:5462  require(liquidity > 0, 'Pancake: INSUFFICIENT_LIQUIDITY_MINTED') */\n              tag_196\n              jumpi\n              mload(0x40)\n              shl(0xe5, 0x461bcd)\n              dup2\n              mstore\n              0x04\n              add\n              dup1\n              dup1\n              0x20\n              add\n              dup3\n              dup2\n              sub\n              dup3\n              mstore\n              0x26\n              dup2\n              mstore\n              0x20\n              add\n              dup1\n              data_ef633320352a650c1d75752f13e6c73d8d8f7f26a5596a6d026c1bf50d2f7713\n              0x26\n              swap2\n              codecopy\n              0x40\n              add\n              swap2\n              pop\n              pop\n              mload(0x40)\n              dup1\n              swap2\n              sub\n              swap1\n              revert\n            tag_196:\n                /* \"DexSwap/DexPair.sol\":5472:5492  _mint(to, liquidity) */\n              tag_197\n                /* \"DexSwap/DexPair.sol\":5478:5480  to */\n              dup11\n                /* \"DexSwap/DexPair.sol\":5482:5491  liquidity */\n              dup11\n                /* \"DexSwap/DexPair.sol\":5472:5477  _mint */\n              tag_188\n                /* \"DexSwap/DexPair.sol\":5472:5492  _mint(to, liquidity) */\n              jump\t// in\n            tag_197:\n                /* \"DexSwap/DexPair.sol\":5503:5552  _update(balance0, balance1, _reserve0, _reserve1) */\n              tag_198\n                /* \"DexSwap/DexPair.sol\":5511:5519  balance0 */\n              dup7\n                /* \"DexSwap/DexPair.sol\":5521:5529  balance1 */\n              dup7\n                /* \"DexSwap/DexPair.sol\":5531:5540  _reserve0 */\n              dup11\n                /* \"DexSwap/DexPair.sol\":5542:5551  _reserve1 */\n              dup11\n                /* \"DexSwap/DexPair.sol\":5503:5510  _update */\n              tag_156\n                /* \"DexSwap/DexPair.sol\":5503:5552  _update(balance0, balance1, _reserve0, _reserve1) */\n              jump\t// in\n            tag_198:\n                /* \"DexSwap/DexPair.sol\":5566:5571  feeOn */\n              dup2\n                /* \"DexSwap/DexPair.sol\":5562:5609  if (feeOn) kLast = uint(reserve0).mul(reserve1) */\n              iszero\n              tag_199\n              jumpi\n                /* \"DexSwap/DexPair.sol\":5600:5608  reserve1 */\n              sload(0x08)\n                /* \"DexSwap/DexPair.sol\":5581:5609  uint(reserve0).mul(reserve1) */\n              tag_200\n              swap1\n              sub(shl(0x70, 0x01), 0x01)\n                /* \"DexSwap/DexPair.sol\":5586:5594  reserve0 */\n              dup1\n              dup3\n              and\n              swap2\n              shl(0x70, 0x01)\n                /* \"DexSwap/DexPair.sol\":5600:5608  reserve1 */\n              swap1\n              div\n              and\n                /* \"DexSwap/DexPair.sol\":5581:5599  uint(reserve0).mul */\n              tag_145\n                /* \"DexSwap/DexPair.sol\":5581:5609  uint(reserve0).mul(reserve1) */\n              jump\t// in\n            tag_200:\n                /* \"DexSwap/DexPair.sol\":5573:5578  kLast */\n              0x0b\n                /* \"DexSwap/DexPair.sol\":5573:5609  kLast = uint(reserve0).mul(reserve1) */\n              sstore\n                /* \"DexSwap/DexPair.sol\":5562:5609  if (feeOn) kLast = uint(reserve0).mul(reserve1) */\n            tag_199:\n                /* \"DexSwap/DexPair.sol\":5664:5698  Mint(msg.sender, amount0, amount1) */\n              0x40\n              dup1\n              mload\n              dup6\n              dup2\n              mstore\n              0x20\n              dup2\n              add\n              dup6\n              swap1\n              mstore\n              dup2\n              mload\n                /* \"DexSwap/DexPair.sol\":5669:5679  msg.sender */\n              caller\n              swap3\n                /* \"DexSwap/DexPair.sol\":5664:5698  Mint(msg.sender, amount0, amount1) */\n              0x4c209b5fc8ad50758f13e2e1088ba56a560dff690a1c6fef26394f4c03821c4f\n              swap3\n              dup3\n              swap1\n              sub\n              add\n              swap1\n              log2\n              pop\n              pop\n                /* \"DexSwap/DexPair.sol\":1286:1287  1 */\n              0x01\n                /* \"DexSwap/DexPair.sol\":1275:1283  unlocked */\n              0x0c\n                /* \"DexSwap/DexPair.sol\":1275:1287  unlocked = 1 */\n              sstore\n              pop\n                /* \"DexSwap/DexPair.sol\":4488:5705  function mint(address to) external lock returns (uint liquidity) {... */\n              swap5\n              swap7\n              swap6\n              pop\n              pop\n              pop\n              pop\n              pop\n              pop\n              jump\t// out\n                /* \"DexSwap/PancakeERC20.sol\":389:433  mapping(address => uint256) public balanceOf */\n            tag_78:\n              mstore(0x20, 0x01)\n              0x00\n              swap1\n              dup2\n              mstore\n              0x40\n              swap1\n              keccak256\n              sload\n              dup2\n              jump\t// out\n                /* \"DexSwap/DexPair.sol\":1030:1047  uint public kLast */\n            tag_80:\n              sload(0x0b)\n              dup2\n              jump\t// out\n                /* \"DexSwap/PancakeERC20.sol\":765:806  mapping(address => uint256) public nonces */\n            tag_83:\n              mstore(0x20, 0x04)\n              0x00\n              swap1\n              dup2\n              mstore\n              0x40\n              swap1\n              keccak256\n              sload\n              dup2\n              jump\t// out\n                /* \"DexSwap/DexPair.sol\":5814:7256  function burn(address to) external lock returns (uint amount0, uint amount1) {... */\n            tag_86:\n                /* \"DexSwap/DexPair.sol\":5863:5875  uint amount0 */\n              0x00\n                /* \"DexSwap/DexPair.sol\":5877:5889  uint amount1 */\n              dup1\n                /* \"DexSwap/DexPair.sol\":1199:1207  unlocked */\n              sload(0x0c)\n                /* \"DexSwap/DexPair.sol\":1211:1212  1 */\n              0x01\n                /* \"DexSwap/DexPair.sol\":1199:1212  unlocked == 1 */\n              eq\n                /* \"DexSwap/DexPair.sol\":1191:1232  require(unlocked == 1, 'Pancake: LOCKED') */\n              tag_202\n              jumpi\n              0x40\n              dup1\n              mload\n              shl(0xe5, 0x461bcd)\n              dup2\n              mstore\n              0x20\n              0x04\n              dup3\n              add\n              mstore\n              0x0f\n              0x24\n              dup3\n              add\n              mstore\n              shl(0x8a, 0x14185b98d85ad94e881313d0d2d151)\n              0x44\n              dup3\n              add\n              mstore\n              swap1\n              mload\n              swap1\n              dup2\n              swap1\n              sub\n              0x64\n              add\n              swap1\n              revert\n            tag_202:\n                /* \"DexSwap/DexPair.sol\":1253:1254  0 */\n              0x00\n                /* \"DexSwap/DexPair.sol\":1242:1250  unlocked */\n              0x0c\n                /* \"DexSwap/DexPair.sol\":1242:1254  unlocked = 0 */\n              dup2\n              swap1\n              sstore\n                /* \"DexSwap/DexPair.sol\":1253:1254  0 */\n              dup1\n                /* \"DexSwap/DexPair.sol\":5943:5956  getReserves() */\n              tag_204\n                /* \"DexSwap/DexPair.sol\":5943:5954  getReserves */\n              tag_49\n                /* \"DexSwap/DexPair.sol\":5943:5956  getReserves() */\n              jump\t// in\n            tag_204:\n              pop\n                /* \"DexSwap/DexPair.sol\":5999:6005  token0 */\n              sload(0x06)\n                /* \"DexSwap/DexPair.sol\":6079:6085  token1 */\n              sload(0x07)\n                /* \"DexSwap/DexPair.sol\":6157:6197  IERC20(_token0).balanceOf(address(this)) */\n              0x40\n              dup1\n              mload\n              shl(0xe0, 0x70a08231)\n              dup2\n              mstore\n                /* \"DexSwap/DexPair.sol\":6191:6195  this */\n              address\n                /* \"DexSwap/DexPair.sol\":6157:6197  IERC20(_token0).balanceOf(address(this)) */\n              0x04\n              dup3\n              add\n              mstore\n              swap1\n              mload\n                /* \"DexSwap/DexPair.sol\":5901:5956  (uint112 _reserve0, uint112 _reserve1,) = getReserves() */\n              swap5\n              swap7\n              pop\n              swap3\n              swap5\n              pop\n              sub(shl(0xa0, 0x01), 0x01)\n                /* \"DexSwap/DexPair.sol\":5999:6005  token0 */\n              swap2\n              dup3\n              and\n              swap4\n                /* \"DexSwap/DexPair.sol\":6079:6085  token1 */\n              swap2\n              and\n              swap2\n              0x00\n              swap2\n                /* \"DexSwap/DexPair.sol\":5999:6005  token0 */\n              dup5\n              swap2\n              0x70a08231\n              swap2\n                /* \"DexSwap/DexPair.sol\":6157:6197  IERC20(_token0).balanceOf(address(this)) */\n              0x24\n              dup1\n              dup4\n              add\n              swap3\n              0x20\n              swap3\n              swap2\n              swap1\n              dup3\n              swap1\n              sub\n              add\n              dup2\n                /* \"DexSwap/DexPair.sol\":5999:6005  token0 */\n              dup7\n                /* \"DexSwap/DexPair.sol\":6157:6197  IERC20(_token0).balanceOf(address(this)) */\n              dup1\n              extcodesize\n              iszero\n                /* \"--CODEGEN--\":5:7   */\n              dup1\n              iszero\n              tag_205\n              jumpi\n                /* \"--CODEGEN--\":30:31   */\n              0x00\n                /* \"--CODEGEN--\":27:28   */\n              dup1\n                /* \"--CODEGEN--\":20:32   */\n              revert\n                /* \"--CODEGEN--\":5:7   */\n            tag_205:\n                /* \"DexSwap/DexPair.sol\":6157:6197  IERC20(_token0).balanceOf(address(this)) */\n              pop\n              gas\n              staticcall\n              iszero\n                /* \"--CODEGEN--\":8:17   */\n              dup1\n                /* \"--CODEGEN--\":5:7   */\n              iszero\n              tag_206\n              jumpi\n                /* \"--CODEGEN--\":45:61   */\n              returndatasize\n                /* \"--CODEGEN--\":42:43   */\n              0x00\n                /* \"--CODEGEN--\":39:40   */\n              dup1\n                /* \"--CODEGEN--\":24:62   */\n              returndatacopy\n                /* \"--CODEGEN--\":77:93   */\n              returndatasize\n                /* \"--CODEGEN--\":74:75   */\n              0x00\n                /* \"--CODEGEN--\":67:94   */\n              revert\n                /* \"--CODEGEN--\":5:7   */\n            tag_206:\n                /* \"DexSwap/DexPair.sol\":6157:6197  IERC20(_token0).balanceOf(address(this)) */\n              pop\n              pop\n              pop\n              pop\n              mload(0x40)\n              returndatasize\n                /* \"--CODEGEN--\":13:15   */\n              0x20\n                /* \"--CODEGEN--\":8:11   */\n              dup2\n                /* \"--CODEGEN--\":5:16   */\n              lt\n                /* \"--CODEGEN--\":2:4   */\n              iszero\n              tag_207\n              jumpi\n                /* \"--CODEGEN--\":29:30   */\n              0x00\n                /* \"--CODEGEN--\":26:27   */\n              dup1\n                /* \"--CODEGEN--\":19:31   */\n              revert\n                /* \"--CODEGEN--\":2:4   */\n            tag_207:\n              pop\n                /* \"DexSwap/DexPair.sol\":6157:6197  IERC20(_token0).balanceOf(address(this)) */\n              mload\n                /* \"DexSwap/DexPair.sol\":6223:6263  IERC20(_token1).balanceOf(address(this)) */\n              0x40\n              dup1\n              mload\n              shl(0xe0, 0x70a08231)\n              dup2\n              mstore\n                /* \"DexSwap/DexPair.sol\":6257:6261  this */\n              address\n                /* \"DexSwap/DexPair.sol\":6223:6263  IERC20(_token1).balanceOf(address(this)) */\n              0x04\n              dup3\n              add\n              mstore\n              swap1\n              mload\n                /* \"DexSwap/DexPair.sol\":6157:6197  IERC20(_token0).balanceOf(address(this)) */\n              swap2\n              swap3\n              pop\n              0x00\n              swap2\n              sub(shl(0xa0, 0x01), 0x01)\n                /* \"DexSwap/DexPair.sol\":6223:6248  IERC20(_token1).balanceOf */\n              dup6\n              and\n              swap2\n              0x70a08231\n              swap2\n                /* \"DexSwap/DexPair.sol\":6223:6263  IERC20(_token1).balanceOf(address(this)) */\n              0x24\n              dup1\n              dup4\n              add\n              swap3\n                /* \"DexSwap/DexPair.sol\":6157:6197  IERC20(_token0).balanceOf(address(this)) */\n              0x20\n              swap3\n                /* \"DexSwap/DexPair.sol\":6223:6263  IERC20(_token1).balanceOf(address(this)) */\n              swap2\n              swap1\n              dup3\n              swap1\n              sub\n              add\n              dup2\n                /* \"DexSwap/DexPair.sol\":6223:6248  IERC20(_token1).balanceOf */\n              dup7\n                /* \"DexSwap/DexPair.sol\":6223:6263  IERC20(_token1).balanceOf(address(this)) */\n              dup1\n              extcodesize\n              iszero\n                /* \"--CODEGEN--\":5:7   */\n              dup1\n              iszero\n              tag_208\n              jumpi\n                /* \"--CODEGEN--\":30:31   */\n              0x00\n                /* \"--CODEGEN--\":27:28   */\n              dup1\n                /* \"--CODEGEN--\":20:32   */\n              revert\n                /* \"--CODEGEN--\":5:7   */\n            tag_208:\n                /* \"DexSwap/DexPair.sol\":6223:6263  IERC20(_token1).balanceOf(address(this)) */\n              pop\n              gas\n              staticcall\n              iszero\n                /* \"--CODEGEN--\":8:17   */\n              dup1\n                /* \"--CODEGEN--\":5:7   */\n              iszero\n              tag_209\n              jumpi\n                /* \"--CODEGEN--\":45:61   */\n              returndatasize\n                /* \"--CODEGEN--\":42:43   */\n              0x00\n                /* \"--CODEGEN--\":39:40   */\n              dup1\n                /* \"--CODEGEN--\":24:62   */\n              returndatacopy\n                /* \"--CODEGEN--\":77:93   */\n              returndatasize\n                /* \"--CODEGEN--\":74:75   */\n              0x00\n                /* \"--CODEGEN--\":67:94   */\n              revert\n                /* \"--CODEGEN--\":5:7   */\n            tag_209:\n                /* \"DexSwap/DexPair.sol\":6223:6263  IERC20(_token1).balanceOf(address(this)) */\n              pop\n              pop\n              pop\n              pop\n              mload(0x40)\n              returndatasize\n                /* \"--CODEGEN--\":13:15   */\n              0x20\n                /* \"--CODEGEN--\":8:11   */\n              dup2\n                /* \"--CODEGEN--\":5:16   */\n              lt\n                /* \"--CODEGEN--\":2:4   */\n              iszero\n              tag_210\n              jumpi\n                /* \"--CODEGEN--\":29:30   */\n              0x00\n                /* \"--CODEGEN--\":26:27   */\n              dup1\n                /* \"--CODEGEN--\":19:31   */\n              revert\n                /* \"--CODEGEN--\":2:4   */\n            tag_210:\n              pop\n                /* \"DexSwap/DexPair.sol\":6223:6263  IERC20(_token1).balanceOf(address(this)) */\n              mload\n                /* \"DexSwap/DexPair.sol\":6308:6312  this */\n              address\n                /* \"DexSwap/DexPair.sol\":6273:6287  uint liquidity */\n              0x00\n                /* \"DexSwap/DexPair.sol\":6290:6314  balanceOf[address(this)] */\n              swap1\n              dup2\n              mstore\n                /* \"DexSwap/DexPair.sol\":6290:6299  balanceOf */\n              0x01\n                /* \"DexSwap/DexPair.sol\":6223:6263  IERC20(_token1).balanceOf(address(this)) */\n              0x20\n                /* \"DexSwap/DexPair.sol\":6290:6314  balanceOf[address(this)] */\n              mstore\n              0x40\n              dup2\n              keccak256\n              sload\n                /* \"DexSwap/DexPair.sol\":6223:6263  IERC20(_token1).balanceOf(address(this)) */\n              swap2\n              swap3\n              pop\n                /* \"DexSwap/DexPair.sol\":6338:6368  _mintFee(_reserve0, _reserve1) */\n              tag_211\n                /* \"DexSwap/DexPair.sol\":6347:6356  _reserve0 */\n              dup9\n                /* \"DexSwap/DexPair.sol\":6358:6367  _reserve1 */\n              dup9\n                /* \"DexSwap/DexPair.sol\":6338:6346  _mintFee */\n              tag_181\n                /* \"DexSwap/DexPair.sol\":6338:6368  _mintFee(_reserve0, _reserve1) */\n              jump\t// in\n            tag_211:\n                /* \"DexSwap/DexPair.sol\":6378:6395  uint _totalSupply */\n              0x00\n                /* \"DexSwap/DexPair.sol\":6398:6409  totalSupply */\n              sload\n                /* \"DexSwap/DexPair.sol\":6325:6368  bool feeOn = _mintFee(_reserve0, _reserve1) */\n              swap1\n              swap2\n              pop\n                /* \"DexSwap/DexPair.sol\":6398:6409  totalSupply */\n              dup1\n                /* \"DexSwap/DexPair.sol\":6507:6530  liquidity.mul(balance0) */\n              tag_212\n                /* \"DexSwap/DexPair.sol\":6507:6516  liquidity */\n              dup5\n                /* \"DexSwap/DexPair.sol\":6521:6529  balance0 */\n              dup8\n                /* \"DexSwap/DexPair.sol\":6507:6530  liquidity.mul(balance0) */\n              0xffffffff\n                /* \"DexSwap/DexPair.sol\":6507:6520  liquidity.mul */\n              tag_145\n                /* \"DexSwap/DexPair.sol\":6507:6530  liquidity.mul(balance0) */\n              and\n              jump\t// in\n            tag_212:\n                /* \"DexSwap/DexPair.sol\":6507:6545  liquidity.mul(balance0) / _totalSupply */\n              dup2\n              tag_213\n              jumpi\n              invalid\n            tag_213:\n              div\n              swap11\n              pop\n                /* \"DexSwap/DexPair.sol\":6639:6651  _totalSupply */\n              dup1\n                /* \"DexSwap/DexPair.sol\":6613:6636  liquidity.mul(balance1) */\n              tag_214\n                /* \"DexSwap/DexPair.sol\":6613:6622  liquidity */\n              dup5\n                /* \"DexSwap/DexPair.sol\":6627:6635  balance1 */\n              dup7\n                /* \"DexSwap/DexPair.sol\":6613:6636  liquidity.mul(balance1) */\n              0xffffffff\n                /* \"DexSwap/DexPair.sol\":6613:6626  liquidity.mul */\n              tag_145\n                /* \"DexSwap/DexPair.sol\":6613:6636  liquidity.mul(balance1) */\n              and\n              jump\t// in\n            tag_214:\n                /* \"DexSwap/DexPair.sol\":6613:6651  liquidity.mul(balance1) / _totalSupply */\n              dup2\n              tag_215\n              jumpi\n              invalid\n            tag_215:\n              div\n                /* \"DexSwap/DexPair.sol\":6603:6651  amount1 = liquidity.mul(balance1) / _totalSupply */\n              swap10\n              pop\n                /* \"DexSwap/DexPair.sol\":6727:6728  0 */\n              0x00\n                /* \"DexSwap/DexPair.sol\":6717:6724  amount0 */\n              dup12\n                /* \"DexSwap/DexPair.sol\":6717:6728  amount0 > 0 */\n              gt\n                /* \"DexSwap/DexPair.sol\":6717:6743  amount0 > 0 && amount1 > 0 */\n              dup1\n              iszero\n              tag_216\n              jumpi\n              pop\n                /* \"DexSwap/DexPair.sol\":6742:6743  0 */\n              0x00\n                /* \"DexSwap/DexPair.sol\":6732:6739  amount1 */\n              dup11\n                /* \"DexSwap/DexPair.sol\":6732:6743  amount1 > 0 */\n              gt\n                /* \"DexSwap/DexPair.sol\":6717:6743  amount0 > 0 && amount1 > 0 */\n            tag_216:\n                /* \"DexSwap/DexPair.sol\":6709:6786  require(amount0 > 0 && amount1 > 0, 'Pancake: INSUFFICIENT_LIQUIDITY_BURNED') */\n              tag_217\n              jumpi\n              mload(0x40)\n              shl(0xe5, 0x461bcd)\n              dup2\n              mstore\n              0x04\n              add\n              dup1\n              dup1\n              0x20\n              add\n              dup3\n              dup2\n              sub\n              dup3\n              mstore\n              0x26\n              dup2\n              mstore\n              0x20\n              add\n              dup1\n              data_6c050b0a8d3f2d18d11271ee0a551b7748437b8fa9a6165c561190d34a2947d6\n              0x26\n              swap2\n              codecopy\n              0x40\n              add\n              swap2\n              pop\n              pop\n              mload(0x40)\n              dup1\n              swap2\n              sub\n              swap1\n              revert\n            tag_217:\n                /* \"DexSwap/DexPair.sol\":6796:6827  _burn(address(this), liquidity) */\n              tag_218\n                /* \"DexSwap/DexPair.sol\":6810:6814  this */\n              address\n                /* \"DexSwap/DexPair.sol\":6817:6826  liquidity */\n              dup5\n                /* \"DexSwap/DexPair.sol\":6796:6801  _burn */\n              tag_219\n                /* \"DexSwap/DexPair.sol\":6796:6827  _burn(address(this), liquidity) */\n              jump\t// in\n            tag_218:\n                /* \"DexSwap/DexPair.sol\":6837:6872  _safeTransfer(_token0, to, amount0) */\n              tag_220\n                /* \"DexSwap/DexPair.sol\":6851:6858  _token0 */\n              dup8\n                /* \"DexSwap/DexPair.sol\":6860:6862  to */\n              dup14\n                /* \"DexSwap/DexPair.sol\":6864:6871  amount0 */\n              dup14\n                /* \"DexSwap/DexPair.sol\":6837:6850  _safeTransfer */\n              tag_125\n                /* \"DexSwap/DexPair.sol\":6837:6872  _safeTransfer(_token0, to, amount0) */\n              jump\t// in\n            tag_220:\n                /* \"DexSwap/DexPair.sol\":6882:6917  _safeTransfer(_token1, to, amount1) */\n              tag_221\n                /* \"DexSwap/DexPair.sol\":6896:6903  _token1 */\n              dup7\n                /* \"DexSwap/DexPair.sol\":6905:6907  to */\n              dup14\n                /* \"DexSwap/DexPair.sol\":6909:6916  amount1 */\n              dup13\n                /* \"DexSwap/DexPair.sol\":6882:6895  _safeTransfer */\n              tag_125\n                /* \"DexSwap/DexPair.sol\":6882:6917  _safeTransfer(_token1, to, amount1) */\n              jump\t// in\n            tag_221:\n                /* \"DexSwap/DexPair.sol\":6938:6978  IERC20(_token0).balanceOf(address(this)) */\n              0x40\n              dup1\n              mload\n              shl(0xe0, 0x70a08231)\n              dup2\n              mstore\n                /* \"DexSwap/DexPair.sol\":6972:6976  this */\n              address\n                /* \"DexSwap/DexPair.sol\":6938:6978  IERC20(_token0).balanceOf(address(this)) */\n              0x04\n              dup3\n              add\n              mstore\n              swap1\n              mload\n              sub(shl(0xa0, 0x01), 0x01)\n                /* \"DexSwap/DexPair.sol\":6938:6963  IERC20(_token0).balanceOf */\n              dup10\n              and\n              swap2\n              0x70a08231\n              swap2\n                /* \"DexSwap/DexPair.sol\":6938:6978  IERC20(_token0).balanceOf(address(this)) */\n              0x24\n              dup1\n              dup4\n              add\n              swap3\n              0x20\n              swap3\n              swap2\n              swap1\n              dup3\n              swap1\n              sub\n              add\n              dup2\n                /* \"DexSwap/DexPair.sol\":6938:6963  IERC20(_token0).balanceOf */\n              dup7\n                /* \"DexSwap/DexPair.sol\":6938:6978  IERC20(_token0).balanceOf(address(this)) */\n              dup1\n              extcodesize\n              iszero\n                /* \"--CODEGEN--\":5:7   */\n              dup1\n              iszero\n              tag_222\n              jumpi\n                /* \"--CODEGEN--\":30:31   */\n              0x00\n                /* \"--CODEGEN--\":27:28   */\n              dup1\n                /* \"--CODEGEN--\":20:32   */\n              revert\n                /* \"--CODEGEN--\":5:7   */\n            tag_222:\n                /* \"DexSwap/DexPair.sol\":6938:6978  IERC20(_token0).balanceOf(address(this)) */\n              pop\n              gas\n              staticcall\n              iszero\n                /* \"--CODEGEN--\":8:17   */\n              dup1\n                /* \"--CODEGEN--\":5:7   */\n              iszero\n              tag_223\n              jumpi\n                /* \"--CODEGEN--\":45:61   */\n              returndatasize\n                /* \"--CODEGEN--\":42:43   */\n              0x00\n                /* \"--CODEGEN--\":39:40   */\n              dup1\n                /* \"--CODEGEN--\":24:62   */\n              returndatacopy\n                /* \"--CODEGEN--\":77:93   */\n              returndatasize\n                /* \"--CODEGEN--\":74:75   */\n              0x00\n                /* \"--CODEGEN--\":67:94   */\n              revert\n                /* \"--CODEGEN--\":5:7   */\n            tag_223:\n                /* \"DexSwap/DexPair.sol\":6938:6978  IERC20(_token0).balanceOf(address(this)) */\n              pop\n              pop\n              pop\n              pop\n              mload(0x40)\n              returndatasize\n                /* \"--CODEGEN--\":13:15   */\n              0x20\n                /* \"--CODEGEN--\":8:11   */\n              dup2\n                /* \"--CODEGEN--\":5:16   */\n              lt\n                /* \"--CODEGEN--\":2:4   */\n              iszero\n              tag_224\n              jumpi\n                /* \"--CODEGEN--\":29:30   */\n              0x00\n                /* \"--CODEGEN--\":26:27   */\n              dup1\n                /* \"--CODEGEN--\":19:31   */\n              revert\n                /* \"--CODEGEN--\":2:4   */\n            tag_224:\n              pop\n                /* \"DexSwap/DexPair.sol\":6938:6978  IERC20(_token0).balanceOf(address(this)) */\n              mload\n                /* \"DexSwap/DexPair.sol\":6999:7039  IERC20(_token1).balanceOf(address(this)) */\n              0x40\n              dup1\n              mload\n              shl(0xe0, 0x70a08231)\n              dup2\n              mstore\n                /* \"DexSwap/DexPair.sol\":7033:7037  this */\n              address\n                /* \"DexSwap/DexPair.sol\":6999:7039  IERC20(_token1).balanceOf(address(this)) */\n              0x04\n              dup3\n              add\n              mstore\n              swap1\n              mload\n                /* \"DexSwap/DexPair.sol\":6938:6978  IERC20(_token0).balanceOf(address(this)) */\n              swap2\n              swap7\n              pop\n              sub(shl(0xa0, 0x01), 0x01)\n                /* \"DexSwap/DexPair.sol\":6999:7024  IERC20(_token1).balanceOf */\n              dup9\n              and\n              swap2\n              0x70a08231\n              swap2\n                /* \"DexSwap/DexPair.sol\":6999:7039  IERC20(_token1).balanceOf(address(this)) */\n              0x24\n              dup1\n              dup3\n              add\n              swap3\n                /* \"DexSwap/DexPair.sol\":6938:6978  IERC20(_token0).balanceOf(address(this)) */\n              0x20\n              swap3\n                /* \"DexSwap/DexPair.sol\":6999:7039  IERC20(_token1).balanceOf(address(this)) */\n              swap1\n              swap2\n              swap1\n              dup3\n              swap1\n              sub\n              add\n              dup2\n                /* \"DexSwap/DexPair.sol\":6999:7024  IERC20(_token1).balanceOf */\n              dup7\n                /* \"DexSwap/DexPair.sol\":6999:7039  IERC20(_token1).balanceOf(address(this)) */\n              dup1\n              extcodesize\n              iszero\n                /* \"--CODEGEN--\":5:7   */\n              dup1\n              iszero\n              tag_225\n              jumpi\n                /* \"--CODEGEN--\":30:31   */\n              0x00\n                /* \"--CODEGEN--\":27:28   */\n              dup1\n                /* \"--CODEGEN--\":20:32   */\n              revert\n                /* \"--CODEGEN--\":5:7   */\n            tag_225:\n                /* \"DexSwap/DexPair.sol\":6999:7039  IERC20(_token1).balanceOf(address(this)) */\n              pop\n              gas\n              staticcall\n              iszero\n                /* \"--CODEGEN--\":8:17   */\n              dup1\n                /* \"--CODEGEN--\":5:7   */\n              iszero\n              tag_226\n              jumpi\n                /* \"--CODEGEN--\":45:61   */\n              returndatasize\n                /* \"--CODEGEN--\":42:43   */\n              0x00\n                /* \"--CODEGEN--\":39:40   */\n              dup1\n                /* \"--CODEGEN--\":24:62   */\n              returndatacopy\n                /* \"--CODEGEN--\":77:93   */\n              returndatasize\n                /* \"--CODEGEN--\":74:75   */\n              0x00\n                /* \"--CODEGEN--\":67:94   */\n              revert\n                /* \"--CODEGEN--\":5:7   */\n            tag_226:\n                /* \"DexSwap/DexPair.sol\":6999:7039  IERC20(_token1).balanceOf(address(this)) */\n              pop\n              pop\n              pop\n              pop\n              mload(0x40)\n              returndatasize\n                /* \"--CODEGEN--\":13:15   */\n              0x20\n                /* \"--CODEGEN--\":8:11   */\n              dup2\n                /* \"--CODEGEN--\":5:16   */\n              lt\n                /* \"--CODEGEN--\":2:4   */\n              iszero\n              tag_227\n              jumpi\n                /* \"--CODEGEN--\":29:30   */\n              0x00\n                /* \"--CODEGEN--\":26:27   */\n              dup1\n                /* \"--CODEGEN--\":19:31   */\n              revert\n                /* \"--CODEGEN--\":2:4   */\n            tag_227:\n              pop\n                /* \"DexSwap/DexPair.sol\":6999:7039  IERC20(_token1).balanceOf(address(this)) */\n              mload\n              swap4\n              pop\n                /* \"DexSwap/DexPair.sol\":7050:7099  _update(balance0, balance1, _reserve0, _reserve1) */\n              tag_228\n                /* \"DexSwap/DexPair.sol\":7058:7066  balance0 */\n              dup6\n                /* \"DexSwap/DexPair.sol\":6999:7039  IERC20(_token1).balanceOf(address(this)) */\n              dup6\n                /* \"DexSwap/DexPair.sol\":7078:7087  _reserve0 */\n              dup12\n                /* \"DexSwap/DexPair.sol\":7089:7098  _reserve1 */\n              dup12\n                /* \"DexSwap/DexPair.sol\":7050:7057  _update */\n              tag_156\n                /* \"DexSwap/DexPair.sol\":7050:7099  _update(balance0, balance1, _reserve0, _reserve1) */\n              jump\t// in\n            tag_228:\n                /* \"DexSwap/DexPair.sol\":7113:7118  feeOn */\n              dup2\n                /* \"DexSwap/DexPair.sol\":7109:7156  if (feeOn) kLast = uint(reserve0).mul(reserve1) */\n              iszero\n              tag_229\n              jumpi\n                /* \"DexSwap/DexPair.sol\":7147:7155  reserve1 */\n              sload(0x08)\n                /* \"DexSwap/DexPair.sol\":7128:7156  uint(reserve0).mul(reserve1) */\n              tag_230\n              swap1\n              sub(shl(0x70, 0x01), 0x01)\n                /* \"DexSwap/DexPair.sol\":7133:7141  reserve0 */\n              dup1\n              dup3\n              and\n              swap2\n              shl(0x70, 0x01)\n                /* \"DexSwap/DexPair.sol\":7147:7155  reserve1 */\n              swap1\n              div\n              and\n                /* \"DexSwap/DexPair.sol\":7128:7146  uint(reserve0).mul */\n              tag_145\n                /* \"DexSwap/DexPair.sol\":7128:7156  uint(reserve0).mul(reserve1) */\n              jump\t// in\n            tag_230:\n                /* \"DexSwap/DexPair.sol\":7120:7125  kLast */\n              0x0b\n                /* \"DexSwap/DexPair.sol\":7120:7156  kLast = uint(reserve0).mul(reserve1) */\n              sstore\n                /* \"DexSwap/DexPair.sol\":7109:7156  if (feeOn) kLast = uint(reserve0).mul(reserve1) */\n            tag_229:\n                /* \"DexSwap/DexPair.sol\":7211:7249  Burn(msg.sender, amount0, amount1, to) */\n              0x40\n              dup1\n              mload\n              dup13\n              dup2\n              mstore\n              0x20\n              dup2\n              add\n              dup13\n              swap1\n              mstore\n              dup2\n              mload\n              sub(shl(0xa0, 0x01), 0x01)\n              dup16\n              and\n              swap3\n                /* \"DexSwap/DexPair.sol\":7216:7226  msg.sender */\n              caller\n              swap3\n                /* \"DexSwap/DexPair.sol\":7211:7249  Burn(msg.sender, amount0, amount1, to) */\n              0xdccd412f0b1252819cb1fd330b93224ca42612892bb3f4f789976e6d81936496\n              swap3\n              swap1\n              dup2\n              swap1\n              sub\n              swap1\n              swap2\n              add\n              swap1\n              log3\n                /* \"DexSwap/DexPair.sol\":1264:1265  _ */\n              pop\n              pop\n              pop\n              pop\n              pop\n              pop\n              pop\n              pop\n              pop\n                /* \"DexSwap/DexPair.sol\":1286:1287  1 */\n              0x01\n                /* \"DexSwap/DexPair.sol\":1275:1283  unlocked */\n              0x0c\n                /* \"DexSwap/DexPair.sol\":1275:1287  unlocked = 1 */\n              dup2\n              swap1\n              sstore\n              pop\n                /* \"DexSwap/DexPair.sol\":5814:7256  function burn(address to) external lock returns (uint amount0, uint amount1) {... */\n              swap2\n              pop\n              swap2\n              jump\t// out\n                /* \"DexSwap/PancakeERC20.sol\":266:310  string public constant symbol = \"DexSwap-LP\" */\n            tag_88:\n              0x40\n              dup1\n              mload\n              dup1\n              dup3\n              add\n              swap1\n              swap2\n              mstore\n              0x0a\n              dup2\n              mstore\n              shl(0xb4, 0x0446578537761702d4c5)\n              0x20\n              dup3\n              add\n              mstore\n              dup2\n              jump\t// out\n                /* \"DexSwap/PancakeERC20.sol\":2460:2599  function transfer(address to, uint256 value) external returns (bool) {... */\n            tag_95:\n                /* \"DexSwap/PancakeERC20.sol\":2523:2527  bool */\n              0x00\n                /* \"DexSwap/PancakeERC20.sol\":2539:2571  _transfer(msg.sender, to, value) */\n              tag_159\n                /* \"DexSwap/PancakeERC20.sol\":2549:2559  msg.sender */\n              caller\n                /* \"DexSwap/PancakeERC20.sol\":2561:2563  to */\n              dup5\n                /* \"DexSwap/PancakeERC20.sol\":2565:2570  value */\n              dup5\n                /* \"DexSwap/PancakeERC20.sol\":2539:2548  _transfer */\n              tag_165\n                /* \"DexSwap/PancakeERC20.sol\":2539:2571  _transfer(msg.sender, to, value) */\n              jump\t// in\n                /* \"DexSwap/DexPair.sol\":435:481  uint public constant MINIMUM_LIQUIDITY = 10**3 */\n            tag_97:\n                /* \"DexSwap/DexPair.sol\":476:481  10**3 */\n              0x03e8\n                /* \"DexSwap/DexPair.sol\":435:481  uint public constant MINIMUM_LIQUIDITY = 10**3 */\n              dup2\n              jump\t// out\n                /* \"DexSwap/DexPair.sol\":9267:9596  function skim(address to) external lock {... */\n            tag_100:\n                /* \"DexSwap/DexPair.sol\":1199:1207  unlocked */\n              sload(0x0c)\n                /* \"DexSwap/DexPair.sol\":1211:1212  1 */\n              0x01\n                /* \"DexSwap/DexPair.sol\":1199:1212  unlocked == 1 */\n              eq\n                /* \"DexSwap/DexPair.sol\":1191:1232  require(unlocked == 1, 'Pancake: LOCKED') */\n              tag_234\n              jumpi\n              0x40\n              dup1\n              mload\n              shl(0xe5, 0x461bcd)\n              dup2\n              mstore\n              0x20\n              0x04\n              dup3\n              add\n              mstore\n              0x0f\n              0x24\n              dup3\n              add\n              mstore\n              shl(0x8a, 0x14185b98d85ad94e881313d0d2d151)\n              0x44\n              dup3\n              add\n              mstore\n              swap1\n              mload\n              swap1\n              dup2\n              swap1\n              sub\n              0x64\n              add\n              swap1\n              revert\n            tag_234:\n                /* \"DexSwap/DexPair.sol\":1253:1254  0 */\n              0x00\n                /* \"DexSwap/DexPair.sol\":1242:1250  unlocked */\n              0x0c\n                /* \"DexSwap/DexPair.sol\":1242:1254  unlocked = 0 */\n              sstore\n                /* \"DexSwap/DexPair.sol\":9335:9341  token0 */\n              sload(0x06)\n                /* \"DexSwap/DexPair.sol\":9384:9390  token1 */\n              sload(0x07)\n                /* \"DexSwap/DexPair.sol\":9487:9495  reserve0 */\n              sload(0x08)\n                /* \"DexSwap/DexPair.sol\":9442:9482  IERC20(_token0).balanceOf(address(this)) */\n              0x40\n              dup1\n              mload\n              shl(0xe0, 0x70a08231)\n              dup2\n              mstore\n                /* \"DexSwap/DexPair.sol\":9476:9480  this */\n              address\n                /* \"DexSwap/DexPair.sol\":9442:9482  IERC20(_token0).balanceOf(address(this)) */\n              0x04\n              dup3\n              add\n              mstore\n              swap1\n              mload\n              sub(shl(0xa0, 0x01), 0x01)\n                /* \"DexSwap/DexPair.sol\":9335:9341  token0 */\n              swap5\n              dup6\n              and\n              swap5\n                /* \"DexSwap/DexPair.sol\":9384:9390  token1 */\n              swap1\n              swap4\n              and\n              swap3\n                /* \"DexSwap/DexPair.sol\":9415:9497  _safeTransfer(_token0, to, IERC20(_token0).balanceOf(address(this)).sub(reserve0)) */\n              tag_236\n              swap3\n                /* \"DexSwap/DexPair.sol\":9335:9341  token0 */\n              dup6\n              swap3\n                /* \"DexSwap/DexPair.sol\":9438:9440  to */\n              dup8\n              swap3\n                /* \"DexSwap/DexPair.sol\":9442:9496  IERC20(_token0).balanceOf(address(this)).sub(reserve0) */\n              tag_237\n              swap3\n              sub(shl(0x70, 0x01), 0x01)\n                /* \"DexSwap/DexPair.sol\":9487:9495  reserve0 */\n              and\n              swap2\n                /* \"DexSwap/DexPair.sol\":9335:9341  token0 */\n              dup6\n              swap2\n              0x70a08231\n              swap2\n                /* \"DexSwap/DexPair.sol\":9442:9482  IERC20(_token0).balanceOf(address(this)) */\n              0x24\n              dup1\n              dup3\n              add\n              swap3\n              0x20\n              swap3\n              swap1\n              swap2\n              swap1\n              dup3\n              swap1\n              sub\n              add\n              dup2\n                /* \"DexSwap/DexPair.sol\":9335:9341  token0 */\n              dup7\n                /* \"DexSwap/DexPair.sol\":9442:9482  IERC20(_token0).balanceOf(address(this)) */\n              dup1\n              extcodesize\n              iszero\n                /* \"--CODEGEN--\":5:7   */\n              dup1\n              iszero\n              tag_238\n              jumpi\n                /* \"--CODEGEN--\":30:31   */\n              0x00\n                /* \"--CODEGEN--\":27:28   */\n              dup1\n                /* \"--CODEGEN--\":20:32   */\n              revert\n                /* \"--CODEGEN--\":5:7   */\n            tag_238:\n                /* \"DexSwap/DexPair.sol\":9442:9482  IERC20(_token0).balanceOf(address(this)) */\n              pop\n              gas\n              staticcall\n              iszero\n                /* \"--CODEGEN--\":8:17   */\n              dup1\n                /* \"--CODEGEN--\":5:7   */\n              iszero\n              tag_239\n              jumpi\n                /* \"--CODEGEN--\":45:61   */\n              returndatasize\n                /* \"--CODEGEN--\":42:43   */\n              0x00\n                /* \"--CODEGEN--\":39:40   */\n              dup1\n                /* \"--CODEGEN--\":24:62   */\n              returndatacopy\n                /* \"--CODEGEN--\":77:93   */\n              returndatasize\n                /* \"--CODEGEN--\":74:75   */\n              0x00\n                /* \"--CODEGEN--\":67:94   */\n              revert\n                /* \"--CODEGEN--\":5:7   */\n            tag_239:\n                /* \"DexSwap/DexPair.sol\":9442:9482  IERC20(_token0).balanceOf(address(this)) */\n              pop\n              pop\n              pop\n              pop\n              mload(0x40)\n              returndatasize\n                /* \"--CODEGEN--\":13:15   */\n              0x20\n                /* \"--CODEGEN--\":8:11   */\n              dup2\n                /* \"--CODEGEN--\":5:16   */\n              lt\n                /* \"--CODEGEN--\":2:4   */\n              iszero\n              tag_240\n              jumpi\n                /* \"--CODEGEN--\":29:30   */\n              0x00\n                /* \"--CODEGEN--\":26:27   */\n              dup1\n                /* \"--CODEGEN--\":19:31   */\n              revert\n                /* \"--CODEGEN--\":2:4   */\n            tag_240:\n              pop\n                /* \"DexSwap/DexPair.sol\":9442:9482  IERC20(_token0).balanceOf(address(this)) */\n              mload\n              swap1\n                /* \"DexSwap/DexPair.sol\":9442:9496  IERC20(_token0).balanceOf(address(this)).sub(reserve0) */\n              0xffffffff\n                /* \"DexSwap/DexPair.sol\":9442:9486  IERC20(_token0).balanceOf(address(this)).sub */\n              tag_147\n                /* \"DexSwap/DexPair.sol\":9442:9496  IERC20(_token0).balanceOf(address(this)).sub(reserve0) */\n              and\n              jump\t// in\n            tag_237:\n                /* \"DexSwap/DexPair.sol\":9415:9428  _safeTransfer */\n              tag_125\n                /* \"DexSwap/DexPair.sol\":9415:9497  _safeTransfer(_token0, to, IERC20(_token0).balanceOf(address(this)).sub(reserve0)) */\n              jump\t// in\n            tag_236:\n                /* \"DexSwap/DexPair.sol\":9579:9587  reserve1 */\n              sload(0x08)\n                /* \"DexSwap/DexPair.sol\":9534:9574  IERC20(_token1).balanceOf(address(this)) */\n              0x40\n              dup1\n              mload\n              shl(0xe0, 0x70a08231)\n              dup2\n              mstore\n                /* \"DexSwap/DexPair.sol\":9568:9572  this */\n              address\n                /* \"DexSwap/DexPair.sol\":9534:9574  IERC20(_token1).balanceOf(address(this)) */\n              0x04\n              dup3\n              add\n              mstore\n              swap1\n              mload\n                /* \"DexSwap/DexPair.sol\":9507:9589  _safeTransfer(_token1, to, IERC20(_token1).balanceOf(address(this)).sub(reserve1)) */\n              tag_241\n              swap3\n                /* \"DexSwap/DexPair.sol\":9521:9528  _token1 */\n              dup5\n              swap3\n                /* \"DexSwap/DexPair.sol\":9530:9532  to */\n              dup8\n              swap3\n                /* \"DexSwap/DexPair.sol\":9534:9588  IERC20(_token1).balanceOf(address(this)).sub(reserve1) */\n              tag_237\n              swap3\n              shl(0x70, 0x01)\n                /* \"DexSwap/DexPair.sol\":9579:9587  reserve1 */\n              swap1\n              div\n              sub(shl(0x70, 0x01), 0x01)\n              and\n              swap2\n              sub(shl(0xa0, 0x01), 0x01)\n                /* \"DexSwap/DexPair.sol\":9534:9559  IERC20(_token1).balanceOf */\n              dup7\n              and\n              swap2\n              0x70a08231\n              swap2\n                /* \"DexSwap/DexPair.sol\":9534:9574  IERC20(_token1).balanceOf(address(this)) */\n              0x24\n              dup1\n              dup3\n              add\n              swap3\n              0x20\n              swap3\n              swap1\n              swap2\n              swap1\n              dup3\n              swap1\n              sub\n              add\n              dup2\n                /* \"DexSwap/DexPair.sol\":9534:9559  IERC20(_token1).balanceOf */\n              dup7\n                /* \"DexSwap/DexPair.sol\":9534:9574  IERC20(_token1).balanceOf(address(this)) */\n              dup1\n              extcodesize\n              iszero\n                /* \"--CODEGEN--\":5:7   */\n              dup1\n              iszero\n              tag_238\n              jumpi\n                /* \"--CODEGEN--\":30:31   */\n              0x00\n                /* \"--CODEGEN--\":27:28   */\n              dup1\n                /* \"--CODEGEN--\":20:32   */\n              revert\n                /* \"DexSwap/DexPair.sol\":9507:9589  _safeTransfer(_token1, to, IERC20(_token1).balanceOf(address(this)).sub(reserve1)) */\n            tag_241:\n              pop\n              pop\n                /* \"DexSwap/DexPair.sol\":1286:1287  1 */\n              0x01\n                /* \"DexSwap/DexPair.sol\":1275:1283  unlocked */\n              0x0c\n                /* \"DexSwap/DexPair.sol\":1275:1287  unlocked = 1 */\n              sstore\n              pop\n                /* \"DexSwap/DexPair.sol\":9267:9596  function skim(address to) external lock {... */\n              jump\t// out\n                /* \"DexSwap/DexPair.sol\":582:604  address public factory */\n            tag_102:\n              and(sub(shl(0xa0, 0x01), 0x01), sload(0x05))\n              dup2\n              jump\t// out\n                /* \"DexSwap/DexPair.sol\":637:658  address public token1 */\n            tag_104:\n              and(sub(shl(0xa0, 0x01), 0x01), sload(0x07))\n              dup2\n              jump\t// out\n                /* \"DexSwap/PancakeERC20.sol\":2942:3668  function permit(... */\n            tag_107:\n                /* \"DexSwap/PancakeERC20.sol\":3155:3170  block.timestamp */\n              timestamp\n                /* \"DexSwap/PancakeERC20.sol\":3143:3151  deadline */\n              dup5\n                /* \"DexSwap/PancakeERC20.sol\":3143:3170  deadline >= block.timestamp */\n              lt\n              iszero\n                /* \"DexSwap/PancakeERC20.sol\":3135:3191  require(deadline >= block.timestamp, \"Pancake: EXPIRED\") */\n              tag_247\n              jumpi\n              0x40\n              dup1\n              mload\n              shl(0xe5, 0x461bcd)\n              dup2\n              mstore\n              0x20\n              0x04\n              dup3\n              add\n              mstore\n              0x10\n              0x24\n              dup3\n              add\n              mstore\n              shl(0x82, 0x14185b98d85ad94e8811561412549151)\n              0x44\n              dup3\n              add\n              mstore\n              swap1\n              mload\n              swap1\n              dup2\n              swap1\n              sub\n              0x64\n              add\n              swap1\n              revert\n            tag_247:\n                /* \"DexSwap/PancakeERC20.sol\":3303:3319  DOMAIN_SEPARATOR */\n              sload(0x03)\n              sub(shl(0xa0, 0x01), 0x01)\n                /* \"DexSwap/PancakeERC20.sol\":3398:3411  nonces[owner] */\n              dup9\n              dup2\n              and\n                /* \"DexSwap/PancakeERC20.sol\":3201:3215  bytes32 digest */\n              0x00\n                /* \"DexSwap/PancakeERC20.sol\":3398:3411  nonces[owner] */\n              dup2\n              dup2\n              mstore\n                /* \"DexSwap/PancakeERC20.sol\":3398:3404  nonces */\n              0x04\n                /* \"DexSwap/PancakeERC20.sol\":3398:3411  nonces[owner] */\n              0x20\n              swap1\n              dup2\n              mstore\n              0x40\n              dup1\n              dup4\n              keccak256\n                /* \"DexSwap/PancakeERC20.sol\":3398:3413  nonces[owner]++ */\n              dup1\n              sload\n              0x01\n              dup2\n              dup2\n              add\n              swap1\n              swap3\n              sstore\n                /* \"DexSwap/PancakeERC20.sol\":3347:3424  abi.encode(PERMIT_TYPEHASH, owner, spender, value, nonces[owner]++, deadline) */\n              dup3\n              mload\n                /* \"DexSwap/PancakeERC20.sol\":693:759  0x6e71edae12b1b97f4d1f60370fef10105fa2faae0126114a169c64845d6126c9 */\n              0x6e71edae12b1b97f4d1f60370fef10105fa2faae0126114a169c64845d6126c9\n                /* \"DexSwap/PancakeERC20.sol\":3347:3424  abi.encode(PERMIT_TYPEHASH, owner, spender, value, nonces[owner]++, deadline) */\n              dup2\n              dup7\n              add\n              mstore\n              dup1\n              dup5\n              add\n              swap7\n              swap1\n              swap7\n              mstore\n              swap6\n              dup14\n              and\n              0x60\n              dup7\n              add\n              mstore\n              0x80\n              dup6\n              add\n              dup13\n              swap1\n              mstore\n              0xa0\n              dup6\n              add\n              swap6\n              swap1\n              swap6\n              mstore\n              0xc0\n              dup1\n              dup6\n              add\n              dup12\n              swap1\n              mstore\n              dup2\n              mload\n                /* \"--CODEGEN--\":26:47   */\n              dup1\n              dup7\n              sub\n                /* \"--CODEGEN--\":22:54   */\n              swap1\n              swap2\n              add\n                /* \"--CODEGEN--\":6:55   */\n              dup2\n              mstore\n                /* \"DexSwap/PancakeERC20.sol\":3347:3424  abi.encode(PERMIT_TYPEHASH, owner, spender, value, nonces[owner]++, deadline) */\n              0xe0\n              dup6\n              add\n              dup3\n              mstore\n                /* \"DexSwap/PancakeERC20.sol\":3337:3425  keccak256(abi.encode(PERMIT_TYPEHASH, owner, spender, value, nonces[owner]++, deadline)) */\n              dup1\n              mload\n              swap1\n              dup4\n              add\n              keccak256\n              shl(0xf0, 0x1901)\n                /* \"DexSwap/PancakeERC20.sol\":3241:3439  abi.encodePacked(... */\n              0x0100\n              dup7\n              add\n              mstore\n              0x0102\n              dup6\n              add\n              swap7\n              swap1\n              swap7\n              mstore\n              0x0122\n              dup1\n              dup6\n              add\n              swap7\n              swap1\n              swap7\n              mstore\n              dup1\n              mload\n                /* \"--CODEGEN--\":26:47   */\n              dup1\n              dup6\n              sub\n                /* \"--CODEGEN--\":22:54   */\n              swap1\n              swap7\n              add\n                /* \"--CODEGEN--\":6:55   */\n              dup7\n              mstore\n                /* \"DexSwap/PancakeERC20.sol\":3241:3439  abi.encodePacked(... */\n              0x0142\n              dup5\n              add\n              dup1\n              dup3\n              mstore\n                /* \"DexSwap/PancakeERC20.sol\":3218:3449  keccak256(... */\n              dup7\n              mload\n              swap7\n              dup4\n              add\n              swap7\n              swap1\n              swap7\n              keccak256\n                /* \"DexSwap/PancakeERC20.sol\":3486:3512  ecrecover(digest, v, r, s) */\n              swap6\n              dup4\n              swap1\n              mstore\n              0x0162\n              dup5\n              add\n              dup1\n              dup3\n              mstore\n              dup7\n              swap1\n              mstore\n              0xff\n              dup10\n              and\n              0x0182\n              dup6\n              add\n              mstore\n              0x01a2\n              dup5\n              add\n              dup9\n              swap1\n              mstore\n              0x01c2\n              dup5\n              add\n              dup8\n              swap1\n              mstore\n              mload\n                /* \"DexSwap/PancakeERC20.sol\":3201:3215  bytes32 digest */\n              swap2\n              swap4\n              swap3\n                /* \"DexSwap/PancakeERC20.sol\":3486:3512  ecrecover(digest, v, r, s) */\n              0x01e2\n              dup1\n              dup3\n              add\n              swap4\n              not(0x1f)\n              dup2\n              add\n              swap3\n              dup2\n              swap1\n              sub\n              swap1\n              swap2\n              add\n              swap1\n              dup6\n              gas\n              staticcall\n              iszero\n                /* \"--CODEGEN--\":8:17   */\n              dup1\n                /* \"--CODEGEN--\":5:7   */\n              iszero\n              tag_248\n              jumpi\n                /* \"--CODEGEN--\":45:61   */\n              returndatasize\n                /* \"--CODEGEN--\":42:43   */\n              0x00\n                /* \"--CODEGEN--\":39:40   */\n              dup1\n                /* \"--CODEGEN--\":24:62   */\n              returndatacopy\n                /* \"--CODEGEN--\":77:93   */\n              returndatasize\n                /* \"--CODEGEN--\":74:75   */\n              0x00\n                /* \"--CODEGEN--\":67:94   */\n              revert\n                /* \"--CODEGEN--\":5:7   */\n            tag_248:\n              pop\n              pop\n                /* \"DexSwap/PancakeERC20.sol\":3486:3512  ecrecover(digest, v, r, s) */\n              mload(add(not(0x1f), mload(0x40)))\n              swap2\n              pop\n              pop\n              sub(shl(0xa0, 0x01), 0x01)\n                /* \"DexSwap/PancakeERC20.sol\":3530:3560  recoveredAddress != address(0) */\n              dup2\n              and\n              iszero\n              dup1\n              iszero\n              swap1\n                /* \"DexSwap/PancakeERC20.sol\":3530:3589  recoveredAddress != address(0) && recoveredAddress == owner */\n              tag_249\n              jumpi\n              pop\n              sub(shl(0xa0, 0x01), 0x01)\n                /* \"DexSwap/PancakeERC20.sol\":3564:3589  recoveredAddress == owner */\n              dup2\n              dup2\n              and\n              swap1\n              dup11\n              and\n              eq\n                /* \"DexSwap/PancakeERC20.sol\":3530:3589  recoveredAddress != address(0) && recoveredAddress == owner */\n            tag_249:\n                /* \"DexSwap/PancakeERC20.sol\":3522:3620  require(recoveredAddress != address(0) && recoveredAddress == owner, \"Pancake: INVALID_SIGNATURE\") */\n              tag_250\n              jumpi\n              0x40\n              dup1\n              mload\n              shl(0xe5, 0x461bcd)\n              dup2\n              mstore\n              0x20\n              0x04\n              dup3\n              add\n              mstore\n              0x1a\n              0x24\n              dup3\n              add\n              mstore\n              0x50616e63616b653a20494e56414c49445f5349474e4154555245000000000000\n              0x44\n              dup3\n              add\n              mstore\n              swap1\n              mload\n              swap1\n              dup2\n              swap1\n              sub\n              0x64\n              add\n              swap1\n              revert\n            tag_250:\n                /* \"DexSwap/PancakeERC20.sol\":3630:3661  _approve(owner, spender, value) */\n              tag_251\n                /* \"DexSwap/PancakeERC20.sol\":3639:3644  owner */\n              dup10\n                /* \"DexSwap/PancakeERC20.sol\":3646:3653  spender */\n              dup10\n                /* \"DexSwap/PancakeERC20.sol\":3655:3660  value */\n              dup10\n                /* \"DexSwap/PancakeERC20.sol\":3630:3638  _approve */\n              tag_160\n                /* \"DexSwap/PancakeERC20.sol\":3630:3661  _approve(owner, spender, value) */\n              jump\t// in\n            tag_251:\n                /* \"DexSwap/PancakeERC20.sol\":2942:3668  function permit(... */\n              pop\n              pop\n              pop\n              pop\n              pop\n              pop\n              pop\n              pop\n              pop\n              jump\t// out\n                /* \"DexSwap/PancakeERC20.sol\":439:503  mapping(address => mapping(address => uint256)) public allowance */\n            tag_110:\n              0x02\n              0x20\n              swap1\n              dup2\n              mstore\n              0x00\n              swap3\n              dup4\n              mstore\n              0x40\n              dup1\n              dup5\n              keccak256\n              swap1\n              swap2\n              mstore\n              swap1\n              dup3\n              mstore\n              swap1\n              keccak256\n              sload\n              dup2\n              jump\t// out\n                /* \"DexSwap/DexPair.sol\":9642:9798  function sync() external lock {... */\n            tag_112:\n                /* \"DexSwap/DexPair.sol\":1199:1207  unlocked */\n              sload(0x0c)\n                /* \"DexSwap/DexPair.sol\":1211:1212  1 */\n              0x01\n                /* \"DexSwap/DexPair.sol\":1199:1212  unlocked == 1 */\n              eq\n                /* \"DexSwap/DexPair.sol\":1191:1232  require(unlocked == 1, 'Pancake: LOCKED') */\n              tag_253\n              jumpi\n              0x40\n              dup1\n              mload\n              shl(0xe5, 0x461bcd)\n              dup2\n              mstore\n              0x20\n              0x04\n              dup3\n              add\n              mstore\n              0x0f\n              0x24\n              dup3\n              add\n              mstore\n              shl(0x8a, 0x14185b98d85ad94e881313d0d2d151)\n              0x44\n              dup3\n              add\n              mstore\n              swap1\n              mload\n              swap1\n              dup2\n              swap1\n              sub\n              0x64\n              add\n              swap1\n              revert\n            tag_253:\n                /* \"DexSwap/DexPair.sol\":1253:1254  0 */\n              0x00\n                /* \"DexSwap/DexPair.sol\":1242:1250  unlocked */\n              0x0c\n                /* \"DexSwap/DexPair.sol\":1242:1254  unlocked = 0 */\n              sstore\n                /* \"DexSwap/DexPair.sol\":9697:9703  token0 */\n              sload(0x06)\n                /* \"DexSwap/DexPair.sol\":9690:9729  IERC20(token0).balanceOf(address(this)) */\n              0x40\n              dup1\n              mload\n              shl(0xe0, 0x70a08231)\n              dup2\n              mstore\n                /* \"DexSwap/DexPair.sol\":9723:9727  this */\n              address\n                /* \"DexSwap/DexPair.sol\":9690:9729  IERC20(token0).balanceOf(address(this)) */\n              0x04\n              dup3\n              add\n              mstore\n              swap1\n              mload\n                /* \"DexSwap/DexPair.sol\":9682:9791  _update(IERC20(token0).balanceOf(address(this)), IERC20(token1).balanceOf(address(this)), reserve0, reserve1) */\n              tag_255\n              swap3\n              sub(shl(0xa0, 0x01), 0x01)\n                /* \"DexSwap/DexPair.sol\":9697:9703  token0 */\n              and\n              swap2\n              0x70a08231\n              swap2\n                /* \"DexSwap/DexPair.sol\":9690:9729  IERC20(token0).balanceOf(address(this)) */\n              0x24\n              dup1\n              dup4\n              add\n              swap3\n              0x20\n              swap3\n              swap2\n              swap1\n              dup3\n              swap1\n              sub\n              add\n              dup2\n                /* \"DexSwap/DexPair.sol\":9697:9703  token0 */\n              dup7\n                /* \"DexSwap/DexPair.sol\":9690:9729  IERC20(token0).balanceOf(address(this)) */\n              dup1\n              extcodesize\n              iszero\n                /* \"--CODEGEN--\":5:7   */\n              dup1\n              iszero\n              tag_256\n              jumpi\n                /* \"--CODEGEN--\":30:31   */\n              0x00\n                /* \"--CODEGEN--\":27:28   */\n              dup1\n                /* \"--CODEGEN--\":20:32   */\n              revert\n                /* \"--CODEGEN--\":5:7   */\n            tag_256:\n                /* \"DexSwap/DexPair.sol\":9690:9729  IERC20(token0).balanceOf(address(this)) */\n              pop\n              gas\n              staticcall\n              iszero\n                /* \"--CODEGEN--\":8:17   */\n              dup1\n                /* \"--CODEGEN--\":5:7   */\n              iszero\n              tag_257\n              jumpi\n                /* \"--CODEGEN--\":45:61   */\n              returndatasize\n                /* \"--CODEGEN--\":42:43   */\n              0x00\n                /* \"--CODEGEN--\":39:40   */\n              dup1\n                /* \"--CODEGEN--\":24:62   */\n              returndatacopy\n                /* \"--CODEGEN--\":77:93   */\n              returndatasize\n                /* \"--CODEGEN--\":74:75   */\n              0x00\n                /* \"--CODEGEN--\":67:94   */\n              revert\n                /* \"--CODEGEN--\":5:7   */\n            tag_257:\n                /* \"DexSwap/DexPair.sol\":9690:9729  IERC20(token0).balanceOf(address(this)) */\n              pop\n              pop\n              pop\n              pop\n              mload(0x40)\n              returndatasize\n                /* \"--CODEGEN--\":13:15   */\n              0x20\n                /* \"--CODEGEN--\":8:11   */\n              dup2\n                /* \"--CODEGEN--\":5:16   */\n              lt\n                /* \"--CODEGEN--\":2:4   */\n              iszero\n              tag_258\n              jumpi\n                /* \"--CODEGEN--\":29:30   */\n              0x00\n                /* \"--CODEGEN--\":26:27   */\n              dup1\n                /* \"--CODEGEN--\":19:31   */\n              revert\n                /* \"--CODEGEN--\":2:4   */\n            tag_258:\n              pop\n                /* \"DexSwap/DexPair.sol\":9690:9729  IERC20(token0).balanceOf(address(this)) */\n              mload\n                /* \"DexSwap/DexPair.sol\":9738:9744  token1 */\n              sload(0x07)\n                /* \"DexSwap/DexPair.sol\":9731:9770  IERC20(token1).balanceOf(address(this)) */\n              0x40\n              dup1\n              mload\n              shl(0xe0, 0x70a08231)\n              dup2\n              mstore\n                /* \"DexSwap/DexPair.sol\":9764:9768  this */\n              address\n                /* \"DexSwap/DexPair.sol\":9731:9770  IERC20(token1).balanceOf(address(this)) */\n              0x04\n              dup3\n              add\n              mstore\n              swap1\n              mload\n              sub(shl(0xa0, 0x01), 0x01)\n                /* \"DexSwap/DexPair.sol\":9738:9744  token1 */\n              swap1\n              swap3\n              and\n              swap2\n              0x70a08231\n              swap2\n                /* \"DexSwap/DexPair.sol\":9731:9770  IERC20(token1).balanceOf(address(this)) */\n              0x24\n              dup1\n              dup3\n              add\n              swap3\n                /* \"DexSwap/DexPair.sol\":9690:9729  IERC20(token0).balanceOf(address(this)) */\n              0x20\n              swap3\n                /* \"DexSwap/DexPair.sol\":9731:9770  IERC20(token1).balanceOf(address(this)) */\n              swap1\n              swap2\n              swap1\n              dup3\n              swap1\n              sub\n              add\n              dup2\n                /* \"DexSwap/DexPair.sol\":9738:9744  token1 */\n              dup7\n                /* \"DexSwap/DexPair.sol\":9731:9770  IERC20(token1).balanceOf(address(this)) */\n              dup1\n              extcodesize\n              iszero\n                /* \"--CODEGEN--\":5:7   */\n              dup1\n              iszero\n              tag_259\n              jumpi\n                /* \"--CODEGEN--\":30:31   */\n              0x00\n                /* \"--CODEGEN--\":27:28   */\n              dup1\n                /* \"--CODEGEN--\":20:32   */\n              revert\n                /* \"--CODEGEN--\":5:7   */\n            tag_259:\n                /* \"DexSwap/DexPair.sol\":9731:9770  IERC20(token1).balanceOf(address(this)) */\n              pop\n              gas\n              staticcall\n              iszero\n                /* \"--CODEGEN--\":8:17   */\n              dup1\n                /* \"--CODEGEN--\":5:7   */\n              iszero\n              tag_260\n              jumpi\n                /* \"--CODEGEN--\":45:61   */\n              returndatasize\n                /* \"--CODEGEN--\":42:43   */\n              0x00\n                /* \"--CODEGEN--\":39:40   */\n              dup1\n                /* \"--CODEGEN--\":24:62   */\n              returndatacopy\n                /* \"--CODEGEN--\":77:93   */\n              returndatasize\n                /* \"--CODEGEN--\":74:75   */\n              0x00\n                /* \"--CODEGEN--\":67:94   */\n              revert\n                /* \"--CODEGEN--\":5:7   */\n            tag_260:\n                /* \"DexSwap/DexPair.sol\":9731:9770  IERC20(token1).balanceOf(address(this)) */\n              pop\n              pop\n              pop\n              pop\n              mload(0x40)\n              returndatasize\n                /* \"--CODEGEN--\":13:15   */\n              0x20\n                /* \"--CODEGEN--\":8:11   */\n              dup2\n                /* \"--CODEGEN--\":5:16   */\n              lt\n                /* \"--CODEGEN--\":2:4   */\n              iszero\n              tag_261\n              jumpi\n                /* \"--CODEGEN--\":29:30   */\n              0x00\n                /* \"--CODEGEN--\":26:27   */\n              dup1\n                /* \"--CODEGEN--\":19:31   */\n              revert\n                /* \"--CODEGEN--\":2:4   */\n            tag_261:\n              pop\n                /* \"DexSwap/DexPair.sol\":9731:9770  IERC20(token1).balanceOf(address(this)) */\n              mload\n                /* \"DexSwap/DexPair.sol\":9772:9780  reserve0 */\n              sload(0x08)\n              sub(shl(0x70, 0x01), 0x01)\n              dup1\n              dup3\n              and\n              swap2\n              shl(0x70, 0x01)\n                /* \"DexSwap/DexPair.sol\":9782:9790  reserve1 */\n              swap1\n              div\n              and\n                /* \"DexSwap/DexPair.sol\":9682:9689  _update */\n              tag_156\n                /* \"DexSwap/DexPair.sol\":9682:9791  _update(IERC20(token0).balanceOf(address(this)), IERC20(token1).balanceOf(address(this)), reserve0, reserve1) */\n              jump\t// in\n            tag_255:\n                /* \"DexSwap/DexPair.sol\":1286:1287  1 */\n              0x01\n                /* \"DexSwap/DexPair.sol\":1275:1283  unlocked */\n              0x0c\n                /* \"DexSwap/DexPair.sol\":1275:1287  unlocked = 1 */\n              sstore\n                /* \"DexSwap/DexPair.sol\":9642:9798  function sync() external lock {... */\n              jump\t// out\n                /* \"DexSwap/DexPair.sol\":1533:1815  function _safeTransfer(address token, address to, uint value) private {... */\n            tag_125:\n                /* \"DexSwap/DexPair.sol\":539:573  bytes('transfer(address,uint256)') */\n              0x40\n              dup1\n              mload\n              dup1\n              dup3\n              add\n              dup3\n              mstore\n              0x19\n              dup2\n              mstore\n              0x7472616e7366657228616464726573732c75696e743235362900000000000000\n              0x20\n              swap2\n              dup3\n              add\n              mstore\n                /* \"DexSwap/DexPair.sol\":1660:1703  abi.encodeWithSelector(SELECTOR, to, value) */\n              dup2\n              mload\n              sub(shl(0xa0, 0x01), 0x01)\n              dup6\n              dup2\n              and\n              0x24\n              dup4\n              add\n              mstore\n              0x44\n              dup1\n              dup4\n              add\n              dup7\n              swap1\n              mstore\n              dup5\n              mload\n                /* \"--CODEGEN--\":26:47   */\n              dup1\n              dup5\n              sub\n                /* \"--CODEGEN--\":22:54   */\n              swap1\n              swap2\n              add\n                /* \"--CODEGEN--\":6:55   */\n              dup2\n              mstore\n                /* \"DexSwap/DexPair.sol\":1660:1703  abi.encodeWithSelector(SELECTOR, to, value) */\n              0x64\n              swap1\n              swap3\n              add\n              dup5\n              mstore\n                /* \"--CODEGEN--\":25:43   */\n              swap2\n              dup2\n              add\n                /* \"--CODEGEN--\":61:78   */\n              dup1\n              mload\n              sub(shl(0xe0, 0x01), 0x01)\n                /* \"--CODEGEN--\":182:197   */\n              and\n              shl(0xe0, 0xa9059cbb)\n                /* \"--CODEGEN--\":179:208   */\n              or\n                /* \"--CODEGEN--\":160:209   */\n              dup2\n              mstore\n                /* \"DexSwap/DexPair.sol\":1649:1704  token.call(abi.encodeWithSelector(SELECTOR, to, value)) */\n              swap3\n              mload\n              dup2\n              mload\n              0x00\n              swap5\n                /* \"DexSwap/DexPair.sol\":1628:1645  bytes memory data */\n              0x60\n              swap5\n                /* \"DexSwap/DexPair.sol\":1649:1659  token.call */\n              dup10\n              and\n              swap4\n                /* \"DexSwap/DexPair.sol\":1660:1703  abi.encodeWithSelector(SELECTOR, to, value) */\n              swap3\n                /* \"DexSwap/DexPair.sol\":1649:1704  token.call(abi.encodeWithSelector(SELECTOR, to, value)) */\n              swap2\n              dup3\n              swap2\n                /* \"--CODEGEN--\":25:43   */\n              swap1\n                /* \"DexSwap/DexPair.sol\":1649:1704  token.call(abi.encodeWithSelector(SELECTOR, to, value)) */\n              dup1\n              dup4\n                /* \"--CODEGEN--\":25:43   */\n              dup4\n                /* \"--CODEGEN--\":36:189   */\n            tag_263:\n                /* \"--CODEGEN--\":66:68   */\n              0x20\n                /* \"--CODEGEN--\":61:64   */\n              dup4\n                /* \"--CODEGEN--\":58:69   */\n              lt\n                /* \"--CODEGEN--\":36:189   */\n              tag_265\n              jumpi\n                /* \"--CODEGEN--\":176:186   */\n              dup1\n              mload\n                /* \"--CODEGEN--\":164:187   */\n              dup3\n              mstore\n              not(0x1f)\n                /* \"--CODEGEN--\":139:151   */\n              swap1\n              swap3\n              add\n              swap2\n                /* \"--CODEGEN--\":98:100   */\n              0x20\n                /* \"--CODEGEN--\":89:101   */\n              swap2\n              dup3\n              add\n              swap2\n                /* \"--CODEGEN--\":114:126   */\n              add\n                /* \"--CODEGEN--\":36:189   */\n              jump(tag_263)\n            tag_265:\n                /* \"--CODEGEN--\":274:275   */\n              0x01\n                /* \"--CODEGEN--\":267:270   */\n              dup4\n                /* \"--CODEGEN--\":263:265   */\n              0x20\n                /* \"--CODEGEN--\":259:271   */\n              sub\n                /* \"--CODEGEN--\":254:257   */\n              0x0100\n                /* \"--CODEGEN--\":250:272   */\n              exp\n                /* \"--CODEGEN--\":246:276   */\n              sub\n                /* \"--CODEGEN--\":315:319   */\n              dup1\n                /* \"--CODEGEN--\":311:320   */\n              not\n                /* \"--CODEGEN--\":305:308   */\n              dup3\n                /* \"--CODEGEN--\":299:309   */\n              mload\n                /* \"--CODEGEN--\":295:321   */\n              and\n                /* \"--CODEGEN--\":356:360   */\n              dup2\n                /* \"--CODEGEN--\":350:353   */\n              dup5\n                /* \"--CODEGEN--\":344:354   */\n              mload\n                /* \"--CODEGEN--\":340:361   */\n              and\n                /* \"--CODEGEN--\":389:396   */\n              dup1\n                /* \"--CODEGEN--\":380:387   */\n              dup3\n                /* \"--CODEGEN--\":377:397   */\n              or\n                /* \"--CODEGEN--\":372:375   */\n              dup6\n                /* \"--CODEGEN--\":365:398   */\n              mstore\n                /* \"--CODEGEN--\":3:402   */\n              pop\n              pop\n              pop\n                /* \"DexSwap/DexPair.sol\":1649:1704  token.call(abi.encodeWithSelector(SELECTOR, to, value)) */\n              pop\n              pop\n              pop\n              swap1\n              pop\n              add\n              swap2\n              pop\n              pop\n              0x00\n              mload(0x40)\n              dup1\n              dup4\n              sub\n              dup2\n              0x00\n              dup7\n              gas\n              call\n              swap2\n              pop\n              pop\n              returndatasize\n                /* \"--CODEGEN--\":14:15   */\n              dup1\n                /* \"--CODEGEN--\":21:22   */\n              0x00\n                /* \"--CODEGEN--\":16:47   */\n              dup2\n              eq\n              tag_267\n              jumpi\n                /* \"--CODEGEN--\":75:79   */\n              0x40\n                /* \"--CODEGEN--\":69:80   */\n              mload\n                /* \"--CODEGEN--\":64:80   */\n              swap2\n              pop\n                /* \"--CODEGEN--\":144:148   */\n              0x1f\n                /* \"--CODEGEN--\":140:149   */\n              not\n                /* \"--CODEGEN--\":133:137   */\n              0x3f\n                /* \"--CODEGEN--\":115:131   */\n              returndatasize\n                /* \"--CODEGEN--\":111:138   */\n              add\n                /* \"--CODEGEN--\":107:150   */\n              and\n                /* \"--CODEGEN--\":104:105   */\n              dup3\n                /* \"--CODEGEN--\":100:151   */\n              add\n                /* \"--CODEGEN--\":94:98   */\n              0x40\n                /* \"--CODEGEN--\":87:152   */\n              mstore\n                /* \"--CODEGEN--\":169:185   */\n              returndatasize\n                /* \"--CODEGEN--\":166:167   */\n              dup3\n                /* \"--CODEGEN--\":159:186   */\n              mstore\n                /* \"--CODEGEN--\":225:241   */\n              returndatasize\n                /* \"--CODEGEN--\":222:223   */\n              0x00\n                /* \"--CODEGEN--\":215:219   */\n              0x20\n                /* \"--CODEGEN--\":212:213   */\n              dup5\n                /* \"--CODEGEN--\":208:220   */\n              add\n                /* \"--CODEGEN--\":193:242   */\n              returndatacopy\n                /* \"--CODEGEN--\":7:249   */\n              jump(tag_266)\n                /* \"--CODEGEN--\":16:47   */\n            tag_267:\n                /* \"--CODEGEN--\":36:40   */\n              0x60\n                /* \"--CODEGEN--\":31:40   */\n              swap2\n              pop\n                /* \"--CODEGEN--\":7:249   */\n            tag_266:\n              pop\n                /* \"DexSwap/DexPair.sol\":1613:1704  (bool success, bytes memory data) = token.call(abi.encodeWithSelector(SELECTOR, to, value)) */\n              swap2\n              pop\n              swap2\n              pop\n                /* \"DexSwap/DexPair.sol\":1722:1729  success */\n              dup2\n                /* \"DexSwap/DexPair.sol\":1722:1779  success && (data.length == 0 || abi.decode(data, (bool))) */\n              dup1\n              iszero\n              tag_269\n              jumpi\n              pop\n                /* \"DexSwap/DexPair.sol\":1734:1745  data.length */\n              dup1\n              mload\n                /* \"DexSwap/DexPair.sol\":1734:1750  data.length == 0 */\n              iszero\n              dup1\n                /* \"DexSwap/DexPair.sol\":1734:1778  data.length == 0 || abi.decode(data, (bool)) */\n              tag_269\n              jumpi\n              pop\n                /* \"DexSwap/DexPair.sol\":1765:1769  data */\n              dup1\n                /* \"DexSwap/DexPair.sol\":1754:1778  abi.decode(data, (bool)) */\n              dup1\n              0x20\n              add\n              swap1\n              mload\n                /* \"--CODEGEN--\":13:15   */\n              0x20\n                /* \"--CODEGEN--\":8:11   */\n              dup2\n                /* \"--CODEGEN--\":5:16   */\n              lt\n                /* \"--CODEGEN--\":2:4   */\n              iszero\n              tag_270\n              jumpi\n                /* \"--CODEGEN--\":29:30   */\n              0x00\n                /* \"--CODEGEN--\":26:27   */\n              dup1\n                /* \"--CODEGEN--\":19:31   */\n              revert\n                /* \"--CODEGEN--\":2:4   */\n            tag_270:\n              pop\n                /* \"DexSwap/DexPair.sol\":1754:1778  abi.decode(data, (bool)) */\n              mload\n                /* \"DexSwap/DexPair.sol\":1734:1778  data.length == 0 || abi.decode(data, (bool)) */\n            tag_269:\n                /* \"DexSwap/DexPair.sol\":1714:1808  require(success && (data.length == 0 || abi.decode(data, (bool))), 'Pancake: TRANSFER_FAILED') */\n              tag_271\n              jumpi\n              0x40\n              dup1\n              mload\n              shl(0xe5, 0x461bcd)\n              dup2\n              mstore\n              0x20\n              0x04\n              dup3\n              add\n              mstore\n              0x18\n              0x24\n              dup3\n              add\n              mstore\n              0x50616e63616b653a205452414e534645525f4641494c45440000000000000000\n              0x44\n              dup3\n              add\n              mstore\n              swap1\n              mload\n              swap1\n              dup2\n              swap1\n              sub\n              0x64\n              add\n              swap1\n              revert\n            tag_271:\n                /* \"DexSwap/DexPair.sol\":1533:1815  function _safeTransfer(address token, address to, uint value) private {... */\n              pop\n              pop\n              pop\n              pop\n              pop\n              jump\t// out\n                /* \"DexSwap/libraries/SafeMath.sol\":481:630  function mul(uint256 x, uint256 y) internal pure returns (uint256 z) {... */\n            tag_145:\n                /* \"DexSwap/libraries/SafeMath.sol\":539:548  uint256 z */\n              0x00\n                /* \"DexSwap/libraries/SafeMath.sol\":568:574  y == 0 */\n              dup2\n              iszero\n              dup1\n                /* \"DexSwap/libraries/SafeMath.sol\":568:598  y == 0 || (z = x * y) / y == x */\n              tag_273\n              jumpi\n              pop\n              pop\n                /* \"DexSwap/libraries/SafeMath.sol\":583:588  x * y */\n              dup1\n              dup3\n              mul\n                /* \"DexSwap/libraries/SafeMath.sol\":597:598  x */\n              dup3\n                /* \"DexSwap/libraries/SafeMath.sol\":592:593  y */\n              dup3\n                /* \"DexSwap/libraries/SafeMath.sol\":583:588  x * y */\n              dup3\n                /* \"DexSwap/libraries/SafeMath.sol\":592:593  y */\n              dup2\n                /* \"DexSwap/libraries/SafeMath.sol\":578:593  (z = x * y) / y */\n              tag_274\n              jumpi\n              invalid\n            tag_274:\n              div\n                /* \"DexSwap/libraries/SafeMath.sol\":578:598  (z = x * y) / y == x */\n              eq\n                /* \"DexSwap/libraries/SafeMath.sol\":568:598  y == 0 || (z = x * y) / y == x */\n            tag_273:\n                /* \"DexSwap/libraries/SafeMath.sol\":560:623  require(y == 0 || (z = x * y) / y == x, \"ds-math-mul-overflow\") */\n              tag_158\n              jumpi\n              0x40\n              dup1\n              mload\n              shl(0xe5, 0x461bcd)\n              dup2\n              mstore\n              0x20\n              0x04\n              dup3\n              add\n              mstore\n              0x14\n              0x24\n              dup3\n              add\n              mstore\n              shl(0x60, 0x64732d6d6174682d6d756c2d6f766572666c6f77)\n              0x44\n              dup3\n              add\n              mstore\n              swap1\n              mload\n              swap1\n              dup2\n              swap1\n              sub\n              0x64\n              add\n              swap1\n              revert\n                /* \"DexSwap/libraries/SafeMath.sol\":339:475  function sub(uint256 x, uint256 y) internal pure returns (uint256 z) {... */\n            tag_147:\n                /* \"DexSwap/libraries/SafeMath.sol\":431:436  x - y */\n              dup1\n              dup3\n              sub\n                /* \"DexSwap/libraries/SafeMath.sol\":426:442  (z = x - y) <= x */\n              dup3\n              dup2\n              gt\n              iszero\n                /* \"DexSwap/libraries/SafeMath.sol\":418:468  require((z = x - y) <= x, \"ds-math-sub-underflow\") */\n              tag_158\n              jumpi\n              0x40\n              dup1\n              mload\n              shl(0xe5, 0x461bcd)\n              dup2\n              mstore\n              0x20\n              0x04\n              dup3\n              add\n              mstore\n              0x15\n              0x24\n              dup3\n              add\n              mstore\n              shl(0x58, 0x64732d6d6174682d7375622d756e646572666c6f77)\n              0x44\n              dup3\n              add\n              mstore\n              swap1\n              mload\n              swap1\n              dup2\n              swap1\n              sub\n              0x64\n              add\n              swap1\n              revert\n                /* \"DexSwap/DexPair.sol\":2616:3461  function _update(uint balance0, uint balance1, uint112 _reserve0, uint112 _reserve1) private {... */\n            tag_156:\n              sub(shl(0x70, 0x01), 0x01)\n                /* \"DexSwap/DexPair.sol\":2727:2750  balance0 <= uint112(-1) */\n              dup5\n              gt\n              dup1\n              iszero\n              swap1\n                /* \"DexSwap/DexPair.sol\":2727:2777  balance0 <= uint112(-1) && balance1 <= uint112(-1) */\n              tag_279\n              jumpi\n              pop\n              sub(shl(0x70, 0x01), 0x01)\n                /* \"DexSwap/DexPair.sol\":2754:2777  balance1 <= uint112(-1) */\n              dup4\n              gt\n              iszero\n                /* \"DexSwap/DexPair.sol\":2727:2777  balance0 <= uint112(-1) && balance1 <= uint112(-1) */\n            tag_279:\n                /* \"DexSwap/DexPair.sol\":2719:2799  require(balance0 <= uint112(-1) && balance1 <= uint112(-1), 'Pancake: OVERFLOW') */\n              tag_280\n              jumpi\n              0x40\n              dup1\n              mload\n              shl(0xe5, 0x461bcd)\n              dup2\n              mstore\n              0x20\n              0x04\n              dup3\n              add\n              mstore\n              0x11\n              0x24\n              dup3\n              add\n              mstore\n              shl(0x78, 0x50616e63616b653a204f564552464c4f57)\n              0x44\n              dup3\n              add\n              mstore\n              swap1\n              mload\n              swap1\n              dup2\n              swap1\n              sub\n              0x64\n              add\n              swap1\n              revert\n            tag_280:\n                /* \"DexSwap/DexPair.sol\":2912:2930  blockTimestampLast */\n              sload(0x08)\n                /* \"DexSwap/DexPair.sol\":2840:2863  block.timestamp % 2**32 */\n              0xffffffff\n                /* \"DexSwap/DexPair.sol\":2840:2855  block.timestamp */\n              timestamp\n                /* \"DexSwap/DexPair.sol\":2840:2863  block.timestamp % 2**32 */\n              dup2\n              and\n              swap2\n              shl(0xe0, 0x01)\n                /* \"DexSwap/DexPair.sol\":2912:2930  blockTimestampLast */\n              swap1\n              div\n              dup2\n              and\n                /* \"DexSwap/DexPair.sol\":2895:2930  blockTimestamp - blockTimestampLast */\n              dup3\n              sub\n              swap1\n                /* \"DexSwap/DexPair.sol\":2967:2982  timeElapsed > 0 */\n              dup2\n              and\n              iszero\n              dup1\n              iszero\n              swap1\n                /* \"DexSwap/DexPair.sol\":2967:3000  timeElapsed > 0 && _reserve0 != 0 */\n              tag_282\n              jumpi\n              pop\n              sub(shl(0x70, 0x01), 0x01)\n                /* \"DexSwap/DexPair.sol\":2986:3000  _reserve0 != 0 */\n              dup5\n              and\n              iszero\n              iszero\n                /* \"DexSwap/DexPair.sol\":2967:3000  timeElapsed > 0 && _reserve0 != 0 */\n            tag_282:\n                /* \"DexSwap/DexPair.sol\":2967:3018  timeElapsed > 0 && _reserve0 != 0 && _reserve1 != 0 */\n              dup1\n              iszero\n              tag_283\n              jumpi\n              pop\n              sub(shl(0x70, 0x01), 0x01)\n                /* \"DexSwap/DexPair.sol\":3004:3018  _reserve1 != 0 */\n              dup4\n              and\n              iszero\n              iszero\n                /* \"DexSwap/DexPair.sol\":2967:3018  timeElapsed > 0 && _reserve0 != 0 && _reserve1 != 0 */\n            tag_283:\n                /* \"DexSwap/DexPair.sol\":2963:3295  if (timeElapsed > 0 && _reserve0 != 0 && _reserve1 != 0) {... */\n              iszero\n              tag_284\n              jumpi\n                /* \"DexSwap/DexPair.sol\":3171:3182  timeElapsed */\n              dup1\n                /* \"DexSwap/DexPair.sol\":3118:3182  uint(UQ112x112.encode(_reserve1).uqdiv(_reserve0)) * timeElapsed */\n              0xffffffff\n              and\n                /* \"DexSwap/DexPair.sol\":3123:3167  UQ112x112.encode(_reserve1).uqdiv(_reserve0) */\n              tag_285\n                /* \"DexSwap/DexPair.sol\":3157:3166  _reserve0 */\n              dup6\n                /* \"DexSwap/DexPair.sol\":3123:3150  UQ112x112.encode(_reserve1) */\n              tag_286\n                /* \"DexSwap/DexPair.sol\":3140:3149  _reserve1 */\n              dup7\n                /* \"DexSwap/DexPair.sol\":3123:3139  UQ112x112.encode */\n              tag_287\n                /* \"DexSwap/DexPair.sol\":3123:3150  UQ112x112.encode(_reserve1) */\n              jump\t// in\n            tag_286:\n              sub(shl(0xe0, 0x01), 0x01)\n                /* \"DexSwap/DexPair.sol\":3123:3156  UQ112x112.encode(_reserve1).uqdiv */\n              and\n              swap1\n              tag_288\n                /* \"DexSwap/DexPair.sol\":3123:3167  UQ112x112.encode(_reserve1).uqdiv(_reserve0) */\n              jump\t// in\n            tag_285:\n                /* \"DexSwap/DexPair.sol\":3094:3114  price0CumulativeLast */\n              0x09\n                /* \"DexSwap/DexPair.sol\":3094:3182  price0CumulativeLast += uint(UQ112x112.encode(_reserve1).uqdiv(_reserve0)) * timeElapsed */\n              dup1\n              sload\n              sub(shl(0xe0, 0x01), 0x01)\n                /* \"DexSwap/DexPair.sol\":3118:3168  uint(UQ112x112.encode(_reserve1).uqdiv(_reserve0)) */\n              swap3\n              swap1\n              swap3\n              and\n                /* \"DexSwap/DexPair.sol\":3118:3182  uint(UQ112x112.encode(_reserve1).uqdiv(_reserve0)) * timeElapsed */\n              swap3\n              swap1\n              swap3\n              mul\n                /* \"DexSwap/DexPair.sol\":3094:3182  price0CumulativeLast += uint(UQ112x112.encode(_reserve1).uqdiv(_reserve0)) * timeElapsed */\n              add\n              swap1\n              sstore\n                /* \"DexSwap/DexPair.sol\":3220:3284  uint(UQ112x112.encode(_reserve0).uqdiv(_reserve1)) * timeElapsed */\n              0xffffffff\n              dup2\n              and\n                /* \"DexSwap/DexPair.sol\":3225:3269  UQ112x112.encode(_reserve0).uqdiv(_reserve1) */\n              tag_289\n                /* \"DexSwap/DexPair.sol\":3259:3268  _reserve1 */\n              dup5\n                /* \"DexSwap/DexPair.sol\":3225:3252  UQ112x112.encode(_reserve0) */\n              tag_286\n                /* \"DexSwap/DexPair.sol\":3242:3251  _reserve0 */\n              dup8\n                /* \"DexSwap/DexPair.sol\":3225:3241  UQ112x112.encode */\n              tag_287\n                /* \"DexSwap/DexPair.sol\":3225:3252  UQ112x112.encode(_reserve0) */\n              jump\t// in\n                /* \"DexSwap/DexPair.sol\":3225:3269  UQ112x112.encode(_reserve0).uqdiv(_reserve1) */\n            tag_289:\n                /* \"DexSwap/DexPair.sol\":3196:3216  price1CumulativeLast */\n              0x0a\n                /* \"DexSwap/DexPair.sol\":3196:3284  price1CumulativeLast += uint(UQ112x112.encode(_reserve0).uqdiv(_reserve1)) * timeElapsed */\n              dup1\n              sload\n              sub(shl(0xe0, 0x01), 0x01)\n                /* \"DexSwap/DexPair.sol\":3220:3270  uint(UQ112x112.encode(_reserve0).uqdiv(_reserve1)) */\n              swap3\n              swap1\n              swap3\n              and\n                /* \"DexSwap/DexPair.sol\":3220:3284  uint(UQ112x112.encode(_reserve0).uqdiv(_reserve1)) * timeElapsed */\n              swap3\n              swap1\n              swap3\n              mul\n                /* \"DexSwap/DexPair.sol\":3196:3284  price1CumulativeLast += uint(UQ112x112.encode(_reserve0).uqdiv(_reserve1)) * timeElapsed */\n              add\n              swap1\n              sstore\n                /* \"DexSwap/DexPair.sol\":2963:3295  if (timeElapsed > 0 && _reserve0 != 0 && _reserve1 != 0) {... */\n            tag_284:\n                /* \"DexSwap/DexPair.sol\":3304:3312  reserve0 */\n              0x08\n                /* \"DexSwap/DexPair.sol\":3304:3332  reserve0 = uint112(balance0) */\n              dup1\n              sload\n              not(0xffffffffffffffffffffffffffff)\n              and\n              sub(shl(0x70, 0x01), 0x01)\n              dup9\n              dup2\n              and\n              swap2\n              swap1\n              swap2\n              or\n              not(shl(0x70, 0xffffffffffffffffffffffffffff))\n                /* \"DexSwap/DexPair.sol\":3342:3370  reserve1 = uint112(balance1) */\n              and\n              shl(0x70, 0x01)\n              dup9\n              dup4\n              and\n              dup2\n              mul\n              swap2\n              swap1\n              swap2\n              or\n              sub(shl(0xe0, 0x01), 0x01)\n                /* \"DexSwap/DexPair.sol\":3380:3415  blockTimestampLast = blockTimestamp */\n              and\n              shl(0xe0, 0x01)\n              0xffffffff\n              dup8\n              and\n              mul\n              or\n              swap3\n              dup4\n              swap1\n              sstore\n                /* \"DexSwap/DexPair.sol\":3430:3454  Sync(reserve0, reserve1) */\n              0x40\n              dup1\n              mload\n                /* \"DexSwap/DexPair.sol\":3435:3443  reserve0 */\n              dup5\n              dup5\n              and\n                /* \"DexSwap/DexPair.sol\":3430:3454  Sync(reserve0, reserve1) */\n              dup2\n              mstore\n                /* \"DexSwap/DexPair.sol\":3445:3453  reserve1 */\n              swap2\n              swap1\n              swap4\n              div\n              swap1\n              swap2\n              and\n                /* \"DexSwap/DexPair.sol\":3430:3454  Sync(reserve0, reserve1) */\n              0x20\n              dup3\n              add\n              mstore\n              dup2\n              mload\n              0x1c411e9a96e071241c2f21f7726b17ae89e3cab4c78be50e062b03a9fffbbad1\n              swap3\n              swap2\n              dup2\n              swap1\n              sub\n              swap1\n              swap2\n              add\n              swap1\n              log1\n                /* \"DexSwap/DexPair.sol\":2616:3461  function _update(uint balance0, uint balance1, uint112 _reserve0, uint112 _reserve1) private {... */\n              pop\n              pop\n              pop\n              pop\n              pop\n              pop\n              jump\t// out\n                /* \"DexSwap/PancakeERC20.sol\":1847:2046  function _approve(... */\n            tag_160:\n              sub(shl(0xa0, 0x01), 0x01)\n                /* \"DexSwap/PancakeERC20.sol\":1960:1976  allowance[owner] */\n              dup4\n              dup2\n              and\n              0x00\n              dup2\n              dup2\n              mstore\n                /* \"DexSwap/PancakeERC20.sol\":1960:1969  allowance */\n              0x02\n                /* \"DexSwap/PancakeERC20.sol\":1960:1976  allowance[owner] */\n              0x20\n              swap1\n              dup2\n              mstore\n              0x40\n              dup1\n              dup4\n              keccak256\n                /* \"DexSwap/PancakeERC20.sol\":1960:1985  allowance[owner][spender] */\n              swap5\n              dup8\n              and\n              dup1\n              dup5\n              mstore\n              swap5\n              dup3\n              mstore\n              swap2\n              dup3\n              swap1\n              keccak256\n                /* \"DexSwap/PancakeERC20.sol\":1960:1993  allowance[owner][spender] = value */\n              dup6\n              swap1\n              sstore\n                /* \"DexSwap/PancakeERC20.sol\":2008:2039  Approval(owner, spender, value) */\n              dup2\n              mload\n              dup6\n              dup2\n              mstore\n              swap2\n              mload\n              0x8c5be1e5ebec7d5bd14f71427d1e84f3dd0314c0f7b2291e5b200ac8c7c3b925\n              swap3\n              dup2\n              swap1\n              sub\n              swap1\n              swap2\n              add\n              swap1\n              log3\n                /* \"DexSwap/PancakeERC20.sol\":1847:2046  function _approve(... */\n              pop\n              pop\n              pop\n              jump\t// out\n                /* \"DexSwap/PancakeERC20.sol\":2052:2301  function _transfer(... */\n            tag_165:\n              sub(shl(0xa0, 0x01), 0x01)\n                /* \"DexSwap/PancakeERC20.sol\":2178:2193  balanceOf[from] */\n              dup4\n              and\n              0x00\n              swap1\n              dup2\n              mstore\n              mstore(0x20, 0x01)\n              0x40\n              swap1\n              keccak256\n              sload\n                /* \"DexSwap/PancakeERC20.sol\":2178:2204  balanceOf[from].sub(value) */\n              tag_293\n              swap1\n                /* \"DexSwap/PancakeERC20.sol\":2198:2203  value */\n              dup3\n                /* \"DexSwap/PancakeERC20.sol\":2178:2197  balanceOf[from].sub */\n              tag_147\n                /* \"DexSwap/PancakeERC20.sol\":2178:2204  balanceOf[from].sub(value) */\n              jump\t// in\n            tag_293:\n              sub(shl(0xa0, 0x01), 0x01)\n                /* \"DexSwap/PancakeERC20.sol\":2160:2175  balanceOf[from] */\n              dup5\n              dup2\n              and\n              0x00\n              swap1\n              dup2\n              mstore\n              mstore(0x20, 0x01)\n              0x40\n              dup1\n              dup3\n              keccak256\n                /* \"DexSwap/PancakeERC20.sol\":2160:2204  balanceOf[from] = balanceOf[from].sub(value) */\n              swap4\n              swap1\n              swap4\n              sstore\n                /* \"DexSwap/PancakeERC20.sol\":2230:2243  balanceOf[to] */\n              swap1\n              dup5\n              and\n              dup2\n              mstore\n              keccak256\n              sload\n                /* \"DexSwap/PancakeERC20.sol\":2230:2254  balanceOf[to].add(value) */\n              tag_294\n              swap1\n                /* \"DexSwap/PancakeERC20.sol\":2248:2253  value */\n              dup3\n                /* \"DexSwap/PancakeERC20.sol\":2230:2247  balanceOf[to].add */\n              tag_295\n                /* \"DexSwap/PancakeERC20.sol\":2230:2254  balanceOf[to].add(value) */\n              jump\t// in\n            tag_294:\n              sub(shl(0xa0, 0x01), 0x01)\n                /* \"DexSwap/PancakeERC20.sol\":2214:2227  balanceOf[to] */\n              dup4\n              dup2\n              and\n              0x00\n              dup2\n              dup2\n              mstore\n              0x01\n              0x20\n              swap1\n              dup2\n              mstore\n              0x40\n              swap2\n              dup3\n              swap1\n              keccak256\n                /* \"DexSwap/PancakeERC20.sol\":2214:2254  balanceOf[to] = balanceOf[to].add(value) */\n              swap5\n              swap1\n              swap5\n              sstore\n                /* \"DexSwap/PancakeERC20.sol\":2269:2294  Transfer(from, to, value) */\n              dup1\n              mload\n              dup6\n              dup2\n              mstore\n              swap1\n              mload\n                /* \"DexSwap/PancakeERC20.sol\":2214:2227  balanceOf[to] */\n              swap2\n              swap4\n                /* \"DexSwap/PancakeERC20.sol\":2269:2294  Transfer(from, to, value) */\n              swap3\n              dup8\n              and\n              swap3\n              0xddf252ad1be2c89b69c2b068fc378daa952ba7f163c4a11628f55a4df523b3ef\n              swap3\n              swap2\n              dup3\n              swap1\n              sub\n              add\n              swap1\n              log3\n                /* \"DexSwap/PancakeERC20.sol\":2052:2301  function _transfer(... */\n              pop\n              pop\n              pop\n              jump\t// out\n                /* \"DexSwap/DexPair.sol\":3547:4379  function _mintFee(uint112 _reserve0, uint112 _reserve1) private returns (bool feeOn) {... */\n            tag_181:\n                /* \"DexSwap/DexPair.sol\":3674:3681  factory */\n              sload(0x05)\n                /* \"DexSwap/DexPair.sol\":3658:3690  IPancakeFactory(factory).feeTo() */\n              0x40\n              dup1\n              mload\n              shl(0xe3, 0x2fcfcb)\n              dup2\n              mstore\n              swap1\n              mload\n                /* \"DexSwap/DexPair.sol\":3620:3630  bool feeOn */\n              0x00\n              swap3\n              dup4\n              swap3\n              sub(shl(0xa0, 0x01), 0x01)\n                /* \"DexSwap/DexPair.sol\":3674:3681  factory */\n              swap1\n              swap2\n              and\n              swap2\n                /* \"DexSwap/DexPair.sol\":3658:3688  IPancakeFactory(factory).feeTo */\n              0x017e7e58\n              swap2\n                /* \"DexSwap/DexPair.sol\":3658:3690  IPancakeFactory(factory).feeTo() */\n              0x04\n              dup1\n              dup3\n              add\n              swap3\n              0x20\n              swap3\n              swap1\n              swap2\n              swap1\n              dup3\n              swap1\n              sub\n              add\n              dup2\n                /* \"DexSwap/DexPair.sol\":3674:3681  factory */\n              dup7\n                /* \"DexSwap/DexPair.sol\":3658:3690  IPancakeFactory(factory).feeTo() */\n              dup1\n              extcodesize\n              iszero\n                /* \"--CODEGEN--\":5:7   */\n              dup1\n              iszero\n              tag_297\n              jumpi\n                /* \"--CODEGEN--\":30:31   */\n              0x00\n                /* \"--CODEGEN--\":27:28   */\n              dup1\n                /* \"--CODEGEN--\":20:32   */\n              revert\n                /* \"--CODEGEN--\":5:7   */\n            tag_297:\n                /* \"DexSwap/DexPair.sol\":3658:3690  IPancakeFactory(factory).feeTo() */\n              pop\n              gas\n              staticcall\n              iszero\n                /* \"--CODEGEN--\":8:17   */\n              dup1\n                /* \"--CODEGEN--\":5:7   */\n              iszero\n              tag_298\n              jumpi\n                /* \"--CODEGEN--\":45:61   */\n              returndatasize\n                /* \"--CODEGEN--\":42:43   */\n              0x00\n                /* \"--CODEGEN--\":39:40   */\n              dup1\n                /* \"--CODEGEN--\":24:62   */\n              returndatacopy\n                /* \"--CODEGEN--\":77:93   */\n              returndatasize\n                /* \"--CODEGEN--\":74:75   */\n              0x00\n                /* \"--CODEGEN--\":67:94   */\n              revert\n                /* \"--CODEGEN--\":5:7   */\n            tag_298:\n                /* \"DexSwap/DexPair.sol\":3658:3690  IPancakeFactory(factory).feeTo() */\n              pop\n              pop\n              pop\n              pop\n              mload(0x40)\n              returndatasize\n                /* \"--CODEGEN--\":13:15   */\n              0x20\n                /* \"--CODEGEN--\":8:11   */\n              dup2\n                /* \"--CODEGEN--\":5:16   */\n              lt\n                /* \"--CODEGEN--\":2:4   */\n              iszero\n              tag_299\n              jumpi\n                /* \"--CODEGEN--\":29:30   */\n              0x00\n                /* \"--CODEGEN--\":26:27   */\n              dup1\n                /* \"--CODEGEN--\":19:31   */\n              revert\n                /* \"--CODEGEN--\":2:4   */\n            tag_299:\n              pop\n                /* \"DexSwap/DexPair.sol\":3658:3690  IPancakeFactory(factory).feeTo() */\n              mload\n                /* \"DexSwap/DexPair.sol\":3751:3756  kLast */\n              sload(0x0b)\n              sub(shl(0xa0, 0x01), 0x01)\n                /* \"DexSwap/DexPair.sol\":3708:3727  feeTo != address(0) */\n              dup3\n              and\n              iszero\n              dup1\n              iszero\n              swap5\n              pop\n                /* \"DexSwap/DexPair.sol\":3658:3690  IPancakeFactory(factory).feeTo() */\n              swap2\n              swap3\n              pop\n                /* \"DexSwap/DexPair.sol\":3751:3756  kLast */\n              swap1\n                /* \"DexSwap/DexPair.sol\":3781:4373  if (feeOn) {... */\n              tag_300\n              jumpi\n                /* \"DexSwap/DexPair.sol\":3810:3821  _kLast != 0 */\n              dup1\n              iszero\n                /* \"DexSwap/DexPair.sol\":3806:4306  if (_kLast != 0) {... */\n              tag_301\n              jumpi\n                /* \"DexSwap/DexPair.sol\":3841:3851  uint rootK */\n              0x00\n                /* \"DexSwap/DexPair.sol\":3854:3895  Math.sqrt(uint(_reserve0).mul(_reserve1)) */\n              tag_302\n                /* \"DexSwap/DexPair.sol\":3864:3894  uint(_reserve0).mul(_reserve1) */\n              tag_185\n              sub(shl(0x70, 0x01), 0x01)\n                /* \"DexSwap/DexPair.sol\":3864:3879  uint(_reserve0) */\n              dup9\n              dup2\n              and\n              swap1\n                /* \"DexSwap/DexPair.sol\":3864:3894  uint(_reserve0).mul(_reserve1) */\n              dup9\n              and\n                /* \"DexSwap/DexPair.sol\":3864:3883  uint(_reserve0).mul */\n              tag_145\n                /* \"DexSwap/DexPair.sol\":3864:3894  uint(_reserve0).mul(_reserve1) */\n              jump\t// in\n                /* \"DexSwap/DexPair.sol\":3854:3895  Math.sqrt(uint(_reserve0).mul(_reserve1)) */\n            tag_302:\n                /* \"DexSwap/DexPair.sol\":3841:3895  uint rootK = Math.sqrt(uint(_reserve0).mul(_reserve1)) */\n              swap1\n              pop\n                /* \"DexSwap/DexPair.sol\":3913:3927  uint rootKLast */\n              0x00\n                /* \"DexSwap/DexPair.sol\":3930:3947  Math.sqrt(_kLast) */\n              tag_304\n                /* \"DexSwap/DexPair.sol\":3940:3946  _kLast */\n              dup4\n                /* \"DexSwap/DexPair.sol\":3930:3939  Math.sqrt */\n              tag_186\n                /* \"DexSwap/DexPair.sol\":3930:3947  Math.sqrt(_kLast) */\n              jump\t// in\n            tag_304:\n                /* \"DexSwap/DexPair.sol\":3913:3947  uint rootKLast = Math.sqrt(_kLast) */\n              swap1\n              pop\n                /* \"DexSwap/DexPair.sol\":3977:3986  rootKLast */\n              dup1\n                /* \"DexSwap/DexPair.sol\":3969:3974  rootK */\n              dup3\n                /* \"DexSwap/DexPair.sol\":3969:3986  rootK > rootKLast */\n              gt\n                /* \"DexSwap/DexPair.sol\":3965:4292  if (rootK > rootKLast) {... */\n              iszero\n              tag_305\n              jumpi\n                /* \"DexSwap/DexPair.sol\":4010:4024  uint numerator */\n              0x00\n                /* \"DexSwap/DexPair.sol\":4027:4071  totalSupply.mul(rootK.sub(rootKLast)).mul(8) */\n              tag_306\n                /* \"DexSwap/DexPair.sol\":4069:4070  8 */\n              0x08\n                /* \"DexSwap/DexPair.sol\":4027:4064  totalSupply.mul(rootK.sub(rootKLast)) */\n              tag_152\n                /* \"DexSwap/DexPair.sol\":4043:4063  rootK.sub(rootKLast) */\n              tag_308\n                /* \"DexSwap/DexPair.sol\":4043:4048  rootK */\n              dup7\n                /* \"DexSwap/DexPair.sol\":4053:4062  rootKLast */\n              dup7\n                /* \"DexSwap/DexPair.sol\":4043:4063  rootK.sub(rootKLast) */\n              0xffffffff\n                /* \"DexSwap/DexPair.sol\":4043:4052  rootK.sub */\n              tag_147\n                /* \"DexSwap/DexPair.sol\":4043:4063  rootK.sub(rootKLast) */\n              and\n              jump\t// in\n            tag_308:\n                /* \"DexSwap/DexPair.sol\":4027:4038  totalSupply */\n              sload(0x00)\n              swap1\n                /* \"DexSwap/DexPair.sol\":4027:4064  totalSupply.mul(rootK.sub(rootKLast)) */\n              0xffffffff\n                /* \"DexSwap/DexPair.sol\":4027:4042  totalSupply.mul */\n              tag_145\n                /* \"DexSwap/DexPair.sol\":4027:4064  totalSupply.mul(rootK.sub(rootKLast)) */\n              and\n              jump\t// in\n                /* \"DexSwap/DexPair.sol\":4027:4071  totalSupply.mul(rootK.sub(rootKLast)).mul(8) */\n            tag_306:\n                /* \"DexSwap/DexPair.sol\":4010:4071  uint numerator = totalSupply.mul(rootK.sub(rootKLast)).mul(8) */\n              swap1\n              pop\n                /* \"DexSwap/DexPair.sol\":4093:4109  uint denominator */\n              0x00\n                /* \"DexSwap/DexPair.sol\":4112:4147  rootK.mul(17).add(rootKLast.mul(8)) */\n              tag_309\n                /* \"DexSwap/DexPair.sol\":4130:4146  rootKLast.mul(8) */\n              tag_310\n                /* \"DexSwap/DexPair.sol\":4130:4139  rootKLast */\n              dup5\n                /* \"DexSwap/DexPair.sol\":4144:4145  8 */\n              0x08\n                /* \"DexSwap/DexPair.sol\":4130:4146  rootKLast.mul(8) */\n              0xffffffff\n                /* \"DexSwap/DexPair.sol\":4130:4143  rootKLast.mul */\n              tag_145\n                /* \"DexSwap/DexPair.sol\":4130:4146  rootKLast.mul(8) */\n              and\n              jump\t// in\n            tag_310:\n                /* \"DexSwap/DexPair.sol\":4112:4125  rootK.mul(17) */\n              tag_311\n                /* \"DexSwap/DexPair.sol\":4112:4117  rootK */\n              dup7\n                /* \"DexSwap/DexPair.sol\":4122:4124  17 */\n              0x11\n                /* \"DexSwap/DexPair.sol\":4112:4125  rootK.mul(17) */\n              0xffffffff\n                /* \"DexSwap/DexPair.sol\":4112:4121  rootK.mul */\n              tag_145\n                /* \"DexSwap/DexPair.sol\":4112:4125  rootK.mul(17) */\n              and\n              jump\t// in\n            tag_311:\n                /* \"DexSwap/DexPair.sol\":4112:4129  rootK.mul(17).add */\n              swap1\n                /* \"DexSwap/DexPair.sol\":4112:4147  rootK.mul(17).add(rootKLast.mul(8)) */\n              0xffffffff\n                /* \"DexSwap/DexPair.sol\":4112:4129  rootK.mul(17).add */\n              tag_295\n                /* \"DexSwap/DexPair.sol\":4112:4147  rootK.mul(17).add(rootKLast.mul(8)) */\n              and\n              jump\t// in\n            tag_309:\n                /* \"DexSwap/DexPair.sol\":4093:4147  uint denominator = rootK.mul(17).add(rootKLast.mul(8)) */\n              swap1\n              pop\n                /* \"DexSwap/DexPair.sol\":4169:4183  uint liquidity */\n              0x00\n                /* \"DexSwap/DexPair.sol\":4198:4209  denominator */\n              dup2\n                /* \"DexSwap/DexPair.sol\":4186:4195  numerator */\n              dup4\n                /* \"DexSwap/DexPair.sol\":4186:4209  numerator / denominator */\n              dup2\n              tag_312\n              jumpi\n              invalid\n            tag_312:\n              div\n              swap1\n              pop\n                /* \"DexSwap/DexPair.sol\":4235:4248  liquidity > 0 */\n              dup1\n              iszero\n                /* \"DexSwap/DexPair.sol\":4231:4273  if (liquidity > 0) _mint(feeTo, liquidity) */\n              tag_314\n              jumpi\n                /* \"DexSwap/DexPair.sol\":4250:4273  _mint(feeTo, liquidity) */\n              tag_314\n                /* \"DexSwap/DexPair.sol\":4256:4261  feeTo */\n              dup8\n                /* \"DexSwap/DexPair.sol\":4263:4272  liquidity */\n              dup3\n                /* \"DexSwap/DexPair.sol\":4250:4255  _mint */\n              tag_188\n                /* \"DexSwap/DexPair.sol\":4250:4273  _mint(feeTo, liquidity) */\n              jump\t// in\n            tag_314:\n                /* \"DexSwap/DexPair.sol\":3965:4292  if (rootK > rootKLast) {... */\n              pop\n              pop\n              pop\n            tag_305:\n                /* \"DexSwap/DexPair.sol\":3806:4306  if (_kLast != 0) {... */\n              pop\n              pop\n            tag_301:\n                /* \"DexSwap/DexPair.sol\":3781:4373  if (feeOn) {... */\n              jump(tag_316)\n            tag_300:\n                /* \"DexSwap/DexPair.sol\":4326:4337  _kLast != 0 */\n              dup1\n              iszero\n                /* \"DexSwap/DexPair.sol\":4322:4373  if (_kLast != 0) {... */\n              tag_316\n              jumpi\n                /* \"DexSwap/DexPair.sol\":4361:4362  0 */\n              0x00\n                /* \"DexSwap/DexPair.sol\":4353:4358  kLast */\n              0x0b\n                /* \"DexSwap/DexPair.sol\":4353:4362  kLast = 0 */\n              sstore\n                /* \"DexSwap/DexPair.sol\":4322:4373  if (_kLast != 0) {... */\n            tag_316:\n                /* \"DexSwap/DexPair.sol\":3547:4379  function _mintFee(uint112 _reserve0, uint112 _reserve1) private returns (bool feeOn) {... */\n              pop\n              pop\n              swap3\n              swap2\n              pop\n              pop\n              jump\t// out\n                /* \"DexSwap/libraries/Math.sol\":352:653  function sqrt(uint256 y) internal pure returns (uint256 z) {... */\n            tag_186:\n                /* \"DexSwap/libraries/Math.sol\":400:409  uint256 z */\n              0x00\n                /* \"DexSwap/libraries/Math.sol\":429:430  3 */\n              0x03\n                /* \"DexSwap/libraries/Math.sol\":425:426  y */\n              dup3\n                /* \"DexSwap/libraries/Math.sol\":425:430  y > 3 */\n              gt\n                /* \"DexSwap/libraries/Math.sol\":421:647  if (y > 3) {... */\n              iszero\n              tag_318\n              jumpi\n              pop\n                /* \"DexSwap/libraries/Math.sol\":450:451  y */\n              dup1\n                /* \"DexSwap/libraries/Math.sol\":485:486  1 */\n              0x01\n                /* \"DexSwap/libraries/Math.sol\":481:482  2 */\n              0x02\n                /* \"DexSwap/libraries/Math.sol\":477:482  y / 2 */\n              dup3\n              div\n                /* \"DexSwap/libraries/Math.sol\":477:486  y / 2 + 1 */\n              add\n                /* \"DexSwap/libraries/Math.sol\":500:589  while (x < z) {... */\n            tag_320:\n                /* \"DexSwap/libraries/Math.sol\":511:512  z */\n              dup2\n                /* \"DexSwap/libraries/Math.sol\":507:508  x */\n              dup2\n                /* \"DexSwap/libraries/Math.sol\":507:512  x < z */\n              lt\n                /* \"DexSwap/libraries/Math.sol\":500:589  while (x < z) {... */\n              iszero\n              tag_321\n              jumpi\n                /* \"DexSwap/libraries/Math.sol\":536:537  x */\n              dup1\n                /* \"DexSwap/libraries/Math.sol\":532:537  z = x */\n              swap2\n              pop\n                /* \"DexSwap/libraries/Math.sol\":573:574  2 */\n              0x02\n                /* \"DexSwap/libraries/Math.sol\":568:569  x */\n              dup2\n                /* \"DexSwap/libraries/Math.sol\":564:565  x */\n              dup3\n                /* \"DexSwap/libraries/Math.sol\":560:561  y */\n              dup6\n                /* \"DexSwap/libraries/Math.sol\":560:565  y / x */\n              dup2\n              tag_322\n              jumpi\n              invalid\n            tag_322:\n              div\n                /* \"DexSwap/libraries/Math.sol\":560:569  y / x + x */\n              add\n                /* \"DexSwap/libraries/Math.sol\":559:574  (y / x + x) / 2 */\n              dup2\n              tag_323\n              jumpi\n              invalid\n            tag_323:\n              div\n                /* \"DexSwap/libraries/Math.sol\":555:574  x = (y / x + x) / 2 */\n              swap1\n              pop\n                /* \"DexSwap/libraries/Math.sol\":500:589  while (x < z) {... */\n              jump(tag_320)\n            tag_321:\n                /* \"DexSwap/libraries/Math.sol\":421:647  if (y > 3) {... */\n              pop\n              jump(tag_325)\n            tag_318:\n                /* \"DexSwap/libraries/Math.sol\":609:615  y != 0 */\n              dup2\n              iszero\n                /* \"DexSwap/libraries/Math.sol\":605:647  if (y != 0) {... */\n              tag_325\n              jumpi\n              pop\n                /* \"DexSwap/libraries/Math.sol\":635:636  1 */\n              0x01\n                /* \"DexSwap/libraries/Math.sol\":605:647  if (y != 0) {... */\n            tag_325:\n                /* \"DexSwap/libraries/Math.sol\":352:653  function sqrt(uint256 y) internal pure returns (uint256 z) {... */\n              swap2\n              swap1\n              pop\n              jump\t// out\n                /* \"DexSwap/PancakeERC20.sol\":1427:1627  function _mint(address to, uint256 value) internal {... */\n            tag_188:\n                /* \"DexSwap/PancakeERC20.sol\":1502:1513  totalSupply */\n              sload(0x00)\n                /* \"DexSwap/PancakeERC20.sol\":1502:1524  totalSupply.add(value) */\n              tag_327\n              swap1\n                /* \"DexSwap/PancakeERC20.sol\":1518:1523  value */\n              dup3\n                /* \"DexSwap/PancakeERC20.sol\":1502:1524  totalSupply.add(value) */\n              0xffffffff\n                /* \"DexSwap/PancakeERC20.sol\":1502:1517  totalSupply.add */\n              tag_295\n                /* \"DexSwap/PancakeERC20.sol\":1502:1524  totalSupply.add(value) */\n              and\n              jump\t// in\n            tag_327:\n                /* \"DexSwap/PancakeERC20.sol\":1488:1499  totalSupply */\n              0x00\n                /* \"DexSwap/PancakeERC20.sol\":1488:1524  totalSupply = totalSupply.add(value) */\n              swap1\n              dup2\n              sstore\n              sub(shl(0xa0, 0x01), 0x01)\n                /* \"DexSwap/PancakeERC20.sol\":1550:1563  balanceOf[to] */\n              dup4\n              and\n              dup2\n              mstore\n              mstore(0x20, 0x01)\n              0x40\n              swap1\n              keccak256\n              sload\n                /* \"DexSwap/PancakeERC20.sol\":1550:1574  balanceOf[to].add(value) */\n              tag_328\n              swap1\n                /* \"DexSwap/PancakeERC20.sol\":1568:1573  value */\n              dup3\n                /* \"DexSwap/PancakeERC20.sol\":1550:1567  balanceOf[to].add */\n              tag_295\n                /* \"DexSwap/PancakeERC20.sol\":1550:1574  balanceOf[to].add(value) */\n              jump\t// in\n            tag_328:\n              sub(shl(0xa0, 0x01), 0x01)\n                /* \"DexSwap/PancakeERC20.sol\":1534:1547  balanceOf[to] */\n              dup4\n              and\n              0x00\n              dup2\n              dup2\n              mstore\n              0x01\n              0x20\n              swap1\n              dup2\n              mstore\n              0x40\n              dup1\n              dup4\n              keccak256\n                /* \"DexSwap/PancakeERC20.sol\":1534:1574  balanceOf[to] = balanceOf[to].add(value) */\n              swap5\n              swap1\n              swap5\n              sstore\n                /* \"DexSwap/PancakeERC20.sol\":1589:1620  Transfer(address(0), to, value) */\n              dup4\n              mload\n              dup6\n              dup2\n              mstore\n              swap4\n              mload\n                /* \"DexSwap/PancakeERC20.sol\":1534:1547  balanceOf[to] */\n              swap3\n              swap4\n              swap2\n              swap3\n                /* \"DexSwap/PancakeERC20.sol\":1589:1620  Transfer(address(0), to, value) */\n              0xddf252ad1be2c89b69c2b068fc378daa952ba7f163c4a11628f55a4df523b3ef\n              swap3\n              dup2\n              swap1\n              sub\n              swap1\n              swap2\n              add\n              swap1\n              log3\n                /* \"DexSwap/PancakeERC20.sol\":1427:1627  function _mint(address to, uint256 value) internal {... */\n              pop\n              pop\n              jump\t// out\n                /* \"DexSwap/libraries/Math.sol\":134:237  function min(uint256 x, uint256 y) internal pure returns (uint256 z) {... */\n            tag_195:\n                /* \"DexSwap/libraries/Math.sol\":192:201  uint256 z */\n              0x00\n                /* \"DexSwap/libraries/Math.sol\":221:222  y */\n              dup2\n                /* \"DexSwap/libraries/Math.sol\":217:218  x */\n              dup4\n                /* \"DexSwap/libraries/Math.sol\":217:222  x < y */\n              lt\n                /* \"DexSwap/libraries/Math.sol\":217:230  x < y ? x : y */\n              tag_330\n              jumpi\n                /* \"DexSwap/libraries/Math.sol\":229:230  y */\n              dup2\n                /* \"DexSwap/libraries/Math.sol\":217:230  x < y ? x : y */\n              jump(tag_331)\n            tag_330:\n                /* \"DexSwap/libraries/Math.sol\":225:226  x */\n              dup3\n                /* \"DexSwap/libraries/Math.sol\":217:230  x < y ? x : y */\n            tag_331:\n                /* \"DexSwap/libraries/Math.sol\":213:230  z = x < y ? x : y */\n              swap4\n                /* \"DexSwap/libraries/Math.sol\":134:237  function min(uint256 x, uint256 y) internal pure returns (uint256 z) {... */\n              swap3\n              pop\n              pop\n              pop\n              jump\t// out\n                /* \"DexSwap/PancakeERC20.sol\":1633:1841  function _burn(address from, uint256 value) internal {... */\n            tag_219:\n              sub(shl(0xa0, 0x01), 0x01)\n                /* \"DexSwap/PancakeERC20.sol\":1714:1729  balanceOf[from] */\n              dup3\n              and\n              0x00\n              swap1\n              dup2\n              mstore\n              mstore(0x20, 0x01)\n              0x40\n              swap1\n              keccak256\n              sload\n                /* \"DexSwap/PancakeERC20.sol\":1714:1740  balanceOf[from].sub(value) */\n              tag_333\n              swap1\n                /* \"DexSwap/PancakeERC20.sol\":1734:1739  value */\n              dup3\n                /* \"DexSwap/PancakeERC20.sol\":1714:1733  balanceOf[from].sub */\n              tag_147\n                /* \"DexSwap/PancakeERC20.sol\":1714:1740  balanceOf[from].sub(value) */\n              jump\t// in\n            tag_333:\n              sub(shl(0xa0, 0x01), 0x01)\n                /* \"DexSwap/PancakeERC20.sol\":1696:1711  balanceOf[from] */\n              dup4\n              and\n              0x00\n              swap1\n              dup2\n              mstore\n              mstore(0x20, 0x01)\n              0x40\n              dup2\n              keccak256\n                /* \"DexSwap/PancakeERC20.sol\":1696:1740  balanceOf[from] = balanceOf[from].sub(value) */\n              swap2\n              swap1\n              swap2\n              sstore\n                /* \"DexSwap/PancakeERC20.sol\":1764:1775  totalSupply */\n              sload\n                /* \"DexSwap/PancakeERC20.sol\":1764:1786  totalSupply.sub(value) */\n              tag_334\n              swap1\n                /* \"DexSwap/PancakeERC20.sol\":1780:1785  value */\n              dup3\n                /* \"DexSwap/PancakeERC20.sol\":1764:1779  totalSupply.sub */\n              tag_147\n                /* \"DexSwap/PancakeERC20.sol\":1764:1786  totalSupply.sub(value) */\n              jump\t// in\n            tag_334:\n                /* \"DexSwap/PancakeERC20.sol\":1750:1761  totalSupply */\n              0x00\n                /* \"DexSwap/PancakeERC20.sol\":1750:1786  totalSupply = totalSupply.sub(value) */\n              swap1\n              dup2\n              sstore\n                /* \"DexSwap/PancakeERC20.sol\":1801:1834  Transfer(from, address(0), value) */\n              0x40\n              dup1\n              mload\n              dup4\n              dup2\n              mstore\n              swap1\n              mload\n              sub(shl(0xa0, 0x01), 0x01)\n              dup6\n              and\n              swap2\n              0xddf252ad1be2c89b69c2b068fc378daa952ba7f163c4a11628f55a4df523b3ef\n              swap2\n              swap1\n              dup2\n              swap1\n              sub\n              0x20\n              add\n              swap1\n              log3\n                /* \"DexSwap/PancakeERC20.sol\":1633:1841  function _burn(address from, uint256 value) internal {... */\n              pop\n              pop\n              jump\t// out\n                /* \"DexSwap/libraries/UQ112x112.sol\":319:437  function encode(uint112 y) internal pure returns (uint224 z) {... */\n            tag_287:\n              sub(shl(0x70, 0x01), 0x01)\n                /* \"DexSwap/libraries/UQ112x112.sol\":394:404  uint224(y) */\n              and\n              shl(0x70, 0x01)\n                /* \"DexSwap/libraries/UQ112x112.sol\":394:411  uint224(y) * Q112 */\n              mul\n              swap1\n                /* \"DexSwap/libraries/UQ112x112.sol\":319:437  function encode(uint112 y) internal pure returns (uint224 z) {... */\n              jump\t// out\n                /* \"DexSwap/libraries/UQ112x112.sol\":505:611  function uqdiv(uint224 x, uint112 y) internal pure returns (uint224 z) {... */\n            tag_288:\n                /* \"DexSwap/libraries/UQ112x112.sol\":565:574  uint224 z */\n              0x00\n              sub(shl(0x70, 0x01), 0x01)\n                /* \"DexSwap/libraries/UQ112x112.sol\":594:604  uint224(y) */\n              dup3\n              and\n              sub(shl(0xe0, 0x01), 0x01)\n                /* \"DexSwap/libraries/UQ112x112.sol\":590:604  x / uint224(y) */\n              dup5\n              and\n                /* \"DexSwap/libraries/UQ112x112.sol\":594:604  uint224(y) */\n              dup2\n                /* \"DexSwap/libraries/UQ112x112.sol\":590:604  x / uint224(y) */\n              tag_337\n              jumpi\n              invalid\n            tag_337:\n              div\n              swap4\n                /* \"DexSwap/libraries/UQ112x112.sol\":505:611  function uqdiv(uint224 x, uint112 y) internal pure returns (uint224 z) {... */\n              swap3\n              pop\n              pop\n              pop\n              jump\t// out\n                /* \"DexSwap/libraries/SafeMath.sol\":198:333  function add(uint256 x, uint256 y) internal pure returns (uint256 z) {... */\n            tag_295:\n                /* \"DexSwap/libraries/SafeMath.sol\":290:295  x + y */\n              dup1\n              dup3\n              add\n                /* \"DexSwap/libraries/SafeMath.sol\":285:301  (z = x + y) >= x */\n              dup3\n              dup2\n              lt\n              iszero\n                /* \"DexSwap/libraries/SafeMath.sol\":277:326  require((z = x + y) >= x, \"ds-math-add-overflow\") */\n              tag_158\n              jumpi\n              0x40\n              dup1\n              mload\n              shl(0xe5, 0x461bcd)\n              dup2\n              mstore\n              0x20\n              0x04\n              dup3\n              add\n              mstore\n              0x14\n              0x24\n              dup3\n              add\n              mstore\n              shl(0x60, 0x64732d6d6174682d6164642d6f766572666c6f77)\n              0x44\n              dup3\n              add\n              mstore\n              swap1\n              mload\n              swap1\n              dup2\n              swap1\n              sub\n              0x64\n              add\n              swap1\n              revert\n            stop\n            data_50b0a6dd250a09c1cd083ad4bf9f97424665d60e7bc0a208a1151c7d0051999c 50616e63616b653a20494e53554646494349454e545f494e5055545f414d4f554e54\n            data_6c050b0a8d3f2d18d11271ee0a551b7748437b8fa9a6165c561190d34a2947d6 50616e63616b653a20494e53554646494349454e545f4c49515549444954595f4255524e4544\n            data_c654718515b5f98052eb92744d97d32cccabf6e8b2bae886738591c9b906cfd8 50616e63616b653a20494e53554646494349454e545f4f55545055545f414d4f554e54\n            data_ef633320352a650c1d75752f13e6c73d8d8f7f26a5596a6d026c1bf50d2f7713 50616e63616b653a20494e53554646494349454e545f4c49515549444954595f4d494e544544\n\n            auxdata: 0xa265627a7a72315820e157113be56976b2b8ee829449e963dbf821bce139cd089296f7282ec86cac5464736f6c63430005100032\n        }\n    }\n\n    auxdata: 0xa265627a7a72315820feb468020ca985ed711422e9ea3e8c45911171f32bfe7d3fcc098f86ff94882b64736f6c63430005100032\n}\n",
				"bytecode": {
					"linkReferences": {},
					"object": "608060405234801561001057600080fd5b50604051612b36380380612b368339818101604052602081101561003357600080fd5b5051600180546001600160a01b0319166001600160a01b03909216919091179055612ad3806100636000396000f3fe608060405234801561001057600080fd5b50600436106100935760003560e01c80635855a25a116100665780635855a25a146100fb578063a2e74af614610103578063c9c653961461012b578063e6a4390514610159578063f46901ed1461018757610093565b8063017e7e5814610098578063094b7415146100bc5780631e3dd18b146100c4578063574f2ba3146100e1575b600080fd5b6100a06101ad565b604080516001600160a01b039092168252519081900360200190f35b6100a06101bc565b6100a0600480360360208110156100da57600080fd5b50356101cb565b6100e96101f2565b60408051918252519081900360200190f35b6100e96101f8565b6101296004803603602081101561011957600080fd5b50356001600160a01b031661028b565b005b6100a06004803603604081101561014157600080fd5b506001600160a01b0381358116916020013516610301565b6100a06004803603604081101561016f57600080fd5b506001600160a01b0381358116916020013516610628565b6101296004803603602081101561019d57600080fd5b50356001600160a01b031661064e565b6000546001600160a01b031681565b6001546001600160a01b031681565b600381815481106101d857fe5b6000918252602090912001546001600160a01b0316905081565b60035490565b604051610207602082016106c4565b6020820181038252601f19601f820116604052506040516020018082805190602001908083835b6020831061024d5780518252601f19909201916020918201910161022e565b6001836020036101000a0380198251168184511680821785525050505050509050019150506040516020818303038152906040528051906020012081565b6001546001600160a01b031633146102df576040805162461bcd60e51b81526020600482015260126024820152712830b731b0b5b29d102327a92124a22222a760711b604482015290519081900360640190fd5b600180546001600160a01b0319166001600160a01b0392909216919091179055565b6000816001600160a01b0316836001600160a01b0316141561036a576040805162461bcd60e51b815260206004820152601c60248201527f50616e63616b653a204944454e544943414c5f41444452455353455300000000604482015290519081900360640190fd5b600080836001600160a01b0316856001600160a01b03161061038d578385610390565b84845b90925090506001600160a01b0382166103e8576040805162461bcd60e51b815260206004820152601560248201527450616e63616b653a205a45524f5f4144445245535360581b604482015290519081900360640190fd5b6001600160a01b03828116600090815260026020908152604080832085851684529091529020541615610459576040805162461bcd60e51b815260206004820152601460248201527350616e63616b653a20504149525f45584953545360601b604482015290519081900360640190fd5b60606040518060200161046b906106c4565b6020820181038252601f19601f8201166040525090506000838360405160200180836001600160a01b03166001600160a01b031660601b8152601401826001600160a01b03166001600160a01b031660601b815260140192505050604051602081830303815290604052805190602001209050808251602084016000f56040805163485cc95560e01b81526001600160a01b038781166004830152868116602483015291519297509087169163485cc9559160448082019260009290919082900301818387803b15801561053e57600080fd5b505af1158015610552573d6000803e3d6000fd5b505050506001600160a01b0384811660008181526002602081815260408084208987168086529083528185208054978d166001600160a01b031998891681179091559383528185208686528352818520805488168517905560038054600181018255958190527fc2575a0e9e593c00f959f8c92f12db2869c3395a3b0502d05e2516446f71f85b90950180549097168417909655925483519283529082015281517f0d3648bd0f6ba80134a33ba9275ac585d9d315f0ad8355cddefde31afa28d0e9929181900390910190a35050505092915050565b60026020908152600092835260408084209091529082529020546001600160a01b031681565b6001546001600160a01b031633146106a2576040805162461bcd60e51b81526020600482015260126024820152712830b731b0b5b29d102327a92124a22222a760711b604482015290519081900360640190fd5b600080546001600160a01b0319166001600160a01b0392909216919091179055565b6123cd806106d28339019056fe60806040526001600c5534801561001557600080fd5b50604051469080605261237b8239604080519182900360520182208282018252600b83526a44657853776170204c507360a81b6020938401528151808301835260018152603160f81b908401528151808401919091527f2e1074c3d07633e155da54b471df7d2db05e930cf983650fa82ae075d6880ddc818301527fc89efdaa54c0f20c7adf612882df0950f5a951637e0307cdcb4c672f298b8bc6606082015260808101949094523060a0808601919091528151808603909101815260c09094019052825192019190912060035550600580546001600160a01b03191633179055612275806101066000396000f3fe608060405234801561001057600080fd5b50600436106101a95760003560e01c80636a627842116100f9578063ba9a7a5611610097578063d21220a711610071578063d21220a714610534578063d505accf1461053c578063dd62ed3e1461058d578063fff6cae9146105bb576101a9565b8063ba9a7a56146104fe578063bc25cf7714610506578063c45a01551461052c576101a9565b80637ecebe00116100d35780637ecebe001461046557806389afcb441461048b57806395d89b41146104ca578063a9059cbb146104d2576101a9565b80636a6278421461041157806370a08231146104375780637464fc3d1461045d576101a9565b806323b872dd116101665780633644e515116101405780633644e515146103cb578063485cc955146103d35780635909c0d5146104015780635a3d549314610409576101a9565b806323b872dd1461036f57806330adf81f146103a5578063313ce567146103ad576101a9565b8063022c0d9f146101ae57806306fdde031461023c5780630902f1ac146102b9578063095ea7b3146102f15780630dfe16811461033157806318160ddd14610355575b600080fd5b61023a600480360360808110156101c457600080fd5b8135916020810135916001600160a01b0360408301351691908101906080810160608201356401000000008111156101fb57600080fd5b82018360208201111561020d57600080fd5b8035906020019184600183028401116401000000008311171561022f57600080fd5b5090925090506105c3565b005b610244610b0f565b6040805160208082528351818301528351919283929083019185019080838360005b8381101561027e578181015183820152602001610266565b50505050905090810190601f1680156102ab5780820380516001836020036101000a031916815260200191505b509250505060405180910390f35b6102c1610b36565b604080516001600160701b03948516815292909316602083015263ffffffff168183015290519081900360600190f35b61031d6004803603604081101561030757600080fd5b506001600160a01b038135169060200135610b60565b604080519115158252519081900360200190f35b610339610b77565b604080516001600160a01b039092168252519081900360200190f35b61035d610b86565b60408051918252519081900360200190f35b61031d6004803603606081101561038557600080fd5b506001600160a01b03813581169160208101359091169060400135610b8c565b61035d610c26565b6103b5610c4a565b6040805160ff9092168252519081900360200190f35b61035d610c4f565b61023a600480360360408110156103e957600080fd5b506001600160a01b0381358116916020013516610c55565b61035d610cd7565b61035d610cdd565b61035d6004803603602081101561042757600080fd5b50356001600160a01b0316610ce3565b61035d6004803603602081101561044d57600080fd5b50356001600160a01b0316610fe1565b61035d610ff3565b61035d6004803603602081101561047b57600080fd5b50356001600160a01b0316610ff9565b6104b1600480360360208110156104a157600080fd5b50356001600160a01b031661100b565b6040805192835260208301919091528051918290030190f35b6102446113af565b61031d600480360360408110156104e857600080fd5b506001600160a01b0381351690602001356113d5565b61035d6113e2565b61023a6004803603602081101561051c57600080fd5b50356001600160a01b03166113e8565b610339611551565b610339611560565b61023a600480360360e081101561055257600080fd5b506001600160a01b03813581169160208101359091169060408101359060608101359060ff6080820135169060a08101359060c0013561156f565b61035d600480360360408110156105a357600080fd5b506001600160a01b038135811691602001351661176f565b61023a61178c565b600c5460011461060c576040805162461bcd60e51b815260206004820152600f60248201526e14185b98d85ad94e881313d0d2d151608a1b604482015290519081900360640190fd5b6000600c558415158061061f5750600084115b61065a5760405162461bcd60e51b81526004018080602001828103825260238152602001806121f86023913960400191505060405180910390fd5b600080610665610b36565b5091509150816001600160701b03168710801561068a5750806001600160701b031686105b6106db576040805162461bcd60e51b815260206004820152601f60248201527f50616e63616b653a20494e53554646494349454e545f4c495155494449545900604482015290519081900360640190fd5b60065460075460009182916001600160a01b039182169190811690891682148015906107195750806001600160a01b0316896001600160a01b031614155b610760576040805162461bcd60e51b815260206004820152601360248201527250616e63616b653a20494e56414c49445f544f60681b604482015290519081900360640190fd5b8a1561077157610771828a8d6118ec565b891561078257610782818a8c6118ec565b861561083d57886001600160a01b03166384800812338d8d8c8c6040518663ffffffff1660e01b815260040180866001600160a01b03166001600160a01b03168152602001858152602001848152602001806020018281038252848482818152602001925080828437600081840152601f19601f8201169050808301925050509650505050505050600060405180830381600087803b15801561082457600080fd5b505af1158015610838573d6000803e3d6000fd5b505050505b604080516370a0823160e01b815230600482015290516001600160a01b038416916370a08231916024808301926020929190829003018186803b15801561088357600080fd5b505afa158015610897573d6000803e3d6000fd5b505050506040513d60208110156108ad57600080fd5b5051604080516370a0823160e01b815230600482015290519195506001600160a01b038316916370a0823191602480820192602092909190829003018186803b1580156108f957600080fd5b505afa15801561090d573d6000803e3d6000fd5b505050506040513d602081101561092357600080fd5b5051925060009150506001600160701b0385168a90038311610946576000610955565b89856001600160701b03160383035b9050600089856001600160701b0316038311610972576000610981565b89856001600160701b03160383035b905060008211806109925750600081115b6109cd5760405162461bcd60e51b81526004018080602001828103825260228152602001806121b06022913960400191505060405180910390fd5b6000610a016109e384601963ffffffff611a8616565b6109f58761271063ffffffff611a8616565b9063ffffffff611ae916565b90506000610a196109e384601963ffffffff611a8616565b9050610a4b6305f5e100610a3f6001600160701b038b8116908b1663ffffffff611a8616565b9063ffffffff611a8616565b610a5b838363ffffffff611a8616565b1015610a9b576040805162461bcd60e51b815260206004820152600a60248201526950616e63616b653a204b60b01b604482015290519081900360640190fd5b5050610aa984848888611b39565b60408051838152602081018390528082018d9052606081018c905290516001600160a01b038b169133917fd78ad95fa46c994b6551d0da85fc275fe613ce37657fb8d5e3d130840159d8229181900360800190a350506001600c55505050505050505050565b6040518060400160405280600b81526020016a44657853776170204c507360a81b81525081565b6008546001600160701b0380821692600160701b830490911691600160e01b900463ffffffff1690565b6000610b6d338484611cfc565b5060015b92915050565b6006546001600160a01b031681565b60005481565b6001600160a01b038316600090815260026020908152604080832033845290915281205460001914610c11576001600160a01b0384166000908152600260209081526040808320338452909152902054610bec908363ffffffff611ae916565b6001600160a01b03851660009081526002602090815260408083203384529091529020555b610c1c848484611d5e565b5060019392505050565b7f6e71edae12b1b97f4d1f60370fef10105fa2faae0126114a169c64845d6126c981565b601281565b60035481565b6005546001600160a01b03163314610ca9576040805162461bcd60e51b81526020600482015260126024820152712830b731b0b5b29d102327a92124a22222a760711b604482015290519081900360640190fd5b600680546001600160a01b039384166001600160a01b03199182161790915560078054929093169116179055565b60095481565b600a5481565b6000600c54600114610d2e576040805162461bcd60e51b815260206004820152600f60248201526e14185b98d85ad94e881313d0d2d151608a1b604482015290519081900360640190fd5b6000600c81905580610d3e610b36565b50600654604080516370a0823160e01b815230600482015290519395509193506000926001600160a01b03909116916370a08231916024808301926020929190829003018186803b158015610d9257600080fd5b505afa158015610da6573d6000803e3d6000fd5b505050506040513d6020811015610dbc57600080fd5b5051600754604080516370a0823160e01b815230600482015290519293506000926001600160a01b03909216916370a0823191602480820192602092909190829003018186803b158015610e0f57600080fd5b505afa158015610e23573d6000803e3d6000fd5b505050506040513d6020811015610e3957600080fd5b505190506000610e58836001600160701b03871663ffffffff611ae916565b90506000610e75836001600160701b03871663ffffffff611ae916565b90506000610e838787611e18565b60005490915080610ec057610eac6103e86109f5610ea7878763ffffffff611a8616565b611f8b565b9850610ebb60006103e8611fdd565b610f0f565b610f0c6001600160701b038916610edd868463ffffffff611a8616565b81610ee457fe5b046001600160701b038916610eff868563ffffffff611a8616565b81610f0657fe5b04612073565b98505b60008911610f4e5760405162461bcd60e51b815260040180806020018281038252602681526020018061221b6026913960400191505060405180910390fd5b610f588a8a611fdd565b610f6486868a8a611b39565b8115610f9457600854610f90906001600160701b0380821691600160701b90041663ffffffff611a8616565b600b555b6040805185815260208101859052815133927f4c209b5fc8ad50758f13e2e1088ba56a560dff690a1c6fef26394f4c03821c4f928290030190a250506001600c5550949695505050505050565b60016020526000908152604090205481565b600b5481565b60046020526000908152604090205481565b600080600c54600114611057576040805162461bcd60e51b815260206004820152600f60248201526e14185b98d85ad94e881313d0d2d151608a1b604482015290519081900360640190fd5b6000600c81905580611067610b36565b50600654600754604080516370a0823160e01b815230600482015290519496509294506001600160a01b039182169391169160009184916370a08231916024808301926020929190829003018186803b1580156110c357600080fd5b505afa1580156110d7573d6000803e3d6000fd5b505050506040513d60208110156110ed57600080fd5b5051604080516370a0823160e01b815230600482015290519192506000916001600160a01b038516916370a08231916024808301926020929190829003018186803b15801561113b57600080fd5b505afa15801561114f573d6000803e3d6000fd5b505050506040513d602081101561116557600080fd5b5051306000908152600160205260408120549192506111848888611e18565b6000549091508061119b848763ffffffff611a8616565b816111a257fe5b049a50806111b6848663ffffffff611a8616565b816111bd57fe5b04995060008b1180156111d0575060008a115b61120b5760405162461bcd60e51b81526004018080602001828103825260268152602001806121d26026913960400191505060405180910390fd5b611215308461208b565b611220878d8d6118ec565b61122b868d8c6118ec565b604080516370a0823160e01b815230600482015290516001600160a01b038916916370a08231916024808301926020929190829003018186803b15801561127157600080fd5b505afa158015611285573d6000803e3d6000fd5b505050506040513d602081101561129b57600080fd5b5051604080516370a0823160e01b815230600482015290519196506001600160a01b038816916370a0823191602480820192602092909190829003018186803b1580156112e757600080fd5b505afa1580156112fb573d6000803e3d6000fd5b505050506040513d602081101561131157600080fd5b5051935061132185858b8b611b39565b81156113515760085461134d906001600160701b0380821691600160701b90041663ffffffff611a8616565b600b555b604080518c8152602081018c905281516001600160a01b038f169233927fdccd412f0b1252819cb1fd330b93224ca42612892bb3f4f789976e6d81936496929081900390910190a35050505050505050506001600c81905550915091565b6040518060400160405280600a8152602001690446578537761702d4c560b41b81525081565b6000610b6d338484611d5e565b6103e881565b600c54600114611431576040805162461bcd60e51b815260206004820152600f60248201526e14185b98d85ad94e881313d0d2d151608a1b604482015290519081900360640190fd5b6000600c55600654600754600854604080516370a0823160e01b815230600482015290516001600160a01b0394851694909316926114e092859287926114db926001600160701b03169185916370a0823191602480820192602092909190829003018186803b1580156114a357600080fd5b505afa1580156114b7573d6000803e3d6000fd5b505050506040513d60208110156114cd57600080fd5b50519063ffffffff611ae916565b6118ec565b600854604080516370a0823160e01b8152306004820152905161154792849287926114db92600160701b90046001600160701b0316916001600160a01b038616916370a0823191602480820192602092909190829003018186803b1580156114a357600080fd5b50506001600c5550565b6005546001600160a01b031681565b6007546001600160a01b031681565b428410156115b7576040805162461bcd60e51b815260206004820152601060248201526f14185b98d85ad94e881156141254915160821b604482015290519081900360640190fd5b6003546001600160a01b0380891660008181526004602090815260408083208054600180820190925582517f6e71edae12b1b97f4d1f60370fef10105fa2faae0126114a169c64845d6126c98186015280840196909652958d166060860152608085018c905260a085019590955260c08085018b90528151808603909101815260e08501825280519083012061190160f01b6101008601526101028501969096526101228085019690965280518085039096018652610142840180825286519683019690962095839052610162840180825286905260ff89166101828501526101a284018890526101c28401879052519193926101e280820193601f1981019281900390910190855afa1580156116d2573d6000803e3d6000fd5b5050604051601f1901519150506001600160a01b038116158015906117085750886001600160a01b0316816001600160a01b0316145b611759576040805162461bcd60e51b815260206004820152601a60248201527f50616e63616b653a20494e56414c49445f5349474e4154555245000000000000604482015290519081900360640190fd5b611764898989611cfc565b505050505050505050565b600260209081526000928352604080842090915290825290205481565b600c546001146117d5576040805162461bcd60e51b815260206004820152600f60248201526e14185b98d85ad94e881313d0d2d151608a1b604482015290519081900360640190fd5b6000600c55600654604080516370a0823160e01b815230600482015290516118e5926001600160a01b0316916370a08231916024808301926020929190829003018186803b15801561182657600080fd5b505afa15801561183a573d6000803e3d6000fd5b505050506040513d602081101561185057600080fd5b5051600754604080516370a0823160e01b815230600482015290516001600160a01b03909216916370a0823191602480820192602092909190829003018186803b15801561189d57600080fd5b505afa1580156118b1573d6000803e3d6000fd5b505050506040513d60208110156118c757600080fd5b50516008546001600160701b0380821691600160701b900416611b39565b6001600c55565b604080518082018252601981527f7472616e7366657228616464726573732c75696e74323536290000000000000060209182015281516001600160a01b0385811660248301526044808301869052845180840390910181526064909201845291810180516001600160e01b031663a9059cbb60e01b1781529251815160009460609489169392918291908083835b602083106119995780518252601f19909201916020918201910161197a565b6001836020036101000a0380198251168184511680821785525050505050509050019150506000604051808303816000865af19150503d80600081146119fb576040519150601f19603f3d011682016040523d82523d6000602084013e611a00565b606091505b5091509150818015611a2e575080511580611a2e5750808060200190516020811015611a2b57600080fd5b50515b611a7f576040805162461bcd60e51b815260206004820152601860248201527f50616e63616b653a205452414e534645525f4641494c45440000000000000000604482015290519081900360640190fd5b5050505050565b6000811580611aa157505080820282828281611a9e57fe5b04145b610b71576040805162461bcd60e51b815260206004820152601460248201527364732d6d6174682d6d756c2d6f766572666c6f7760601b604482015290519081900360640190fd5b80820382811115610b71576040805162461bcd60e51b815260206004820152601560248201527464732d6d6174682d7375622d756e646572666c6f7760581b604482015290519081900360640190fd5b6001600160701b038411801590611b5757506001600160701b038311155b611b9c576040805162461bcd60e51b815260206004820152601160248201527050616e63616b653a204f564552464c4f5760781b604482015290519081900360640190fd5b60085463ffffffff42811691600160e01b90048116820390811615801590611bcc57506001600160701b03841615155b8015611be057506001600160701b03831615155b15611c51578063ffffffff16611c0e85611bf986612129565b6001600160e01b03169063ffffffff61213b16565b600980546001600160e01b03929092169290920201905563ffffffff8116611c3984611bf987612129565b600a80546001600160e01b0392909216929092020190555b600880546dffffffffffffffffffffffffffff19166001600160701b03888116919091176dffffffffffffffffffffffffffff60701b1916600160701b8883168102919091176001600160e01b0316600160e01b63ffffffff871602179283905560408051848416815291909304909116602082015281517f1c411e9a96e071241c2f21f7726b17ae89e3cab4c78be50e062b03a9fffbbad1929181900390910190a1505050505050565b6001600160a01b03808416600081815260026020908152604080832094871680845294825291829020859055815185815291517f8c5be1e5ebec7d5bd14f71427d1e84f3dd0314c0f7b2291e5b200ac8c7c3b9259281900390910190a3505050565b6001600160a01b038316600090815260016020526040902054611d87908263ffffffff611ae916565b6001600160a01b038085166000908152600160205260408082209390935590841681522054611dbc908263ffffffff61216016565b6001600160a01b0380841660008181526001602090815260409182902094909455805185815290519193928716927fddf252ad1be2c89b69c2b068fc378daa952ba7f163c4a11628f55a4df523b3ef92918290030190a3505050565b600080600560009054906101000a90046001600160a01b03166001600160a01b031663017e7e586040518163ffffffff1660e01b815260040160206040518083038186803b158015611e6957600080fd5b505afa158015611e7d573d6000803e3d6000fd5b505050506040513d6020811015611e9357600080fd5b5051600b546001600160a01b038216158015945091925090611f77578015611f72576000611ed6610ea76001600160701b0388811690881663ffffffff611a8616565b90506000611ee383611f8b565b905080821115611f6f576000611f166008610a3f611f07868663ffffffff611ae916565b6000549063ffffffff611a8616565b90506000611f4b611f2e84600863ffffffff611a8616565b611f3f86601163ffffffff611a8616565b9063ffffffff61216016565b90506000818381611f5857fe5b0490508015611f6b57611f6b8782611fdd565b5050505b50505b611f83565b8015611f83576000600b555b505092915050565b60006003821115611fce575080600160028204015b81811015611fc857809150600281828581611fb757fe5b040181611fc057fe5b049050611fa0565b50611fd8565b8115611fd8575060015b919050565b600054611ff0908263ffffffff61216016565b60009081556001600160a01b03831681526001602052604090205461201b908263ffffffff61216016565b6001600160a01b03831660008181526001602090815260408083209490945583518581529351929391927fddf252ad1be2c89b69c2b068fc378daa952ba7f163c4a11628f55a4df523b3ef9281900390910190a35050565b60008183106120825781612084565b825b9392505050565b6001600160a01b0382166000908152600160205260409020546120b4908263ffffffff611ae916565b6001600160a01b038316600090815260016020526040812091909155546120e1908263ffffffff611ae916565b60009081556040805183815290516001600160a01b038516917fddf252ad1be2c89b69c2b068fc378daa952ba7f163c4a11628f55a4df523b3ef919081900360200190a35050565b6001600160701b0316600160701b0290565b60006001600160701b0382166001600160e01b0384168161215857fe5b049392505050565b80820182811015610b71576040805162461bcd60e51b815260206004820152601460248201527364732d6d6174682d6164642d6f766572666c6f7760601b604482015290519081900360640190fdfe50616e63616b653a20494e53554646494349454e545f494e5055545f414d4f554e5450616e63616b653a20494e53554646494349454e545f4c49515549444954595f4255524e454450616e63616b653a20494e53554646494349454e545f4f55545055545f414d4f554e5450616e63616b653a20494e53554646494349454e545f4c49515549444954595f4d494e544544a265627a7a72315820e157113be56976b2b8ee829449e963dbf821bce139cd089296f7282ec86cac5464736f6c63430005100032454950373132446f6d61696e28737472696e67206e616d652c737472696e672076657273696f6e2c75696e7432353620636861696e49642c6164647265737320766572696679696e67436f6e747261637429a265627a7a72315820feb468020ca985ed711422e9ea3e8c45911171f32bfe7d3fcc098f86ff94882b64736f6c63430005100032",
					"opcodes": "PUSH1 0x80 PUSH1 0x40 MSTORE CALLVALUE DUP1 ISZERO PUSH2 0x10 JUMPI PUSH1 0x0 DUP1 REVERT JUMPDEST POP PUSH1 0x40 MLOAD PUSH2 0x2B36 CODESIZE SUB DUP1 PUSH2 0x2B36 DUP4 CODECOPY DUP2 DUP2 ADD PUSH1 0x40 MSTORE PUSH1 0x20 DUP2 LT ISZERO PUSH2 0x33 JUMPI PUSH1 0x0 DUP1 REVERT JUMPDEST POP MLOAD PUSH1 0x1 DUP1 SLOAD PUSH1 0x1 PUSH1 0x1 PUSH1 0xA0 SHL SUB NOT AND PUSH1 0x1 PUSH1 0x1 PUSH1 0xA0 SHL SUB SWAP1 SWAP3 AND SWAP2 SWAP1 SWAP2 OR SWAP1 SSTORE PUSH2 0x2AD3 DUP1 PUSH2 0x63 PUSH1 0x0 CODECOPY PUSH1 0x0 RETURN INVALID PUSH1 0x80 PUSH1 0x40 MSTORE CALLVALUE DUP1 ISZERO PUSH2 0x10 JUMPI PUSH1 0x0 DUP1 REVERT JUMPDEST POP PUSH1 0x4 CALLDATASIZE LT PUSH2 0x93 JUMPI PUSH1 0x0 CALLDATALOAD PUSH1 0xE0 SHR DUP1 PUSH4 0x5855A25A GT PUSH2 0x66 JUMPI DUP1 PUSH4 0x5855A25A EQ PUSH2 0xFB JUMPI DUP1 PUSH4 0xA2E74AF6 EQ PUSH2 0x103 JUMPI DUP1 PUSH4 0xC9C65396 EQ PUSH2 0x12B JUMPI DUP1 PUSH4 0xE6A43905 EQ PUSH2 0x159 JUMPI DUP1 PUSH4 0xF46901ED EQ PUSH2 0x187 JUMPI PUSH2 0x93 JUMP JUMPDEST DUP1 PUSH4 0x17E7E58 EQ PUSH2 0x98 JUMPI DUP1 PUSH4 0x94B7415 EQ PUSH2 0xBC JUMPI DUP1 PUSH4 0x1E3DD18B EQ PUSH2 0xC4 JUMPI DUP1 PUSH4 0x574F2BA3 EQ PUSH2 0xE1 JUMPI JUMPDEST PUSH1 0x0 DUP1 REVERT JUMPDEST PUSH2 0xA0 PUSH2 0x1AD JUMP JUMPDEST PUSH1 0x40 DUP1 MLOAD PUSH1 0x1 PUSH1 0x1 PUSH1 0xA0 SHL SUB SWAP1 SWAP3 AND DUP3 MSTORE MLOAD SWAP1 DUP2 SWAP1 SUB PUSH1 0x20 ADD SWAP1 RETURN JUMPDEST PUSH2 0xA0 PUSH2 0x1BC JUMP JUMPDEST PUSH2 0xA0 PUSH1 0x4 DUP1 CALLDATASIZE SUB PUSH1 0x20 DUP2 LT ISZERO PUSH2 0xDA JUMPI PUSH1 0x0 DUP1 REVERT JUMPDEST POP CALLDATALOAD PUSH2 0x1CB JUMP JUMPDEST PUSH2 0xE9 PUSH2 0x1F2 JUMP JUMPDEST PUSH1 0x40 DUP1 MLOAD SWAP2 DUP3 MSTORE MLOAD SWAP1 DUP2 SWAP1 SUB PUSH1 0x20 ADD SWAP1 RETURN JUMPDEST PUSH2 0xE9 PUSH2 0x1F8 JUMP JUMPDEST PUSH2 0x129 PUSH1 0x4 DUP1 CALLDATASIZE SUB PUSH1 0x20 DUP2 LT ISZERO PUSH2 0x119 JUMPI PUSH1 0x0 DUP1 REVERT JUMPDEST POP CALLDATALOAD PUSH1 0x1 PUSH1 0x1 PUSH1 0xA0 SHL SUB AND PUSH2 0x28B JUMP JUMPDEST STOP JUMPDEST PUSH2 0xA0 PUSH1 0x4 DUP1 CALLDATASIZE SUB PUSH1 0x40 DUP2 LT ISZERO PUSH2 0x141 JUMPI PUSH1 0x0 DUP1 REVERT JUMPDEST POP PUSH1 0x1 PUSH1 0x1 PUSH1 0xA0 SHL SUB DUP2 CALLDATALOAD DUP2 AND SWAP2 PUSH1 0x20 ADD CALLDATALOAD AND PUSH2 0x301 JUMP JUMPDEST PUSH2 0xA0 PUSH1 0x4 DUP1 CALLDATASIZE SUB PUSH1 0x40 DUP2 LT ISZERO PUSH2 0x16F JUMPI PUSH1 0x0 DUP1 REVERT JUMPDEST POP PUSH1 0x1 PUSH1 0x1 PUSH1 0xA0 SHL SUB DUP2 CALLDATALOAD DUP2 AND SWAP2 PUSH1 0x20 ADD CALLDATALOAD AND PUSH2 0x628 JUMP JUMPDEST PUSH2 0x129 PUSH1 0x4 DUP1 CALLDATASIZE SUB PUSH1 0x20 DUP2 LT ISZERO PUSH2 0x19D JUMPI PUSH1 0x0 DUP1 REVERT JUMPDEST POP CALLDATALOAD PUSH1 0x1 PUSH1 0x1 PUSH1 0xA0 SHL SUB AND PUSH2 0x64E JUMP JUMPDEST PUSH1 0x0 SLOAD PUSH1 0x1 PUSH1 0x1 PUSH1 0xA0 SHL SUB AND DUP2 JUMP JUMPDEST PUSH1 0x1 SLOAD PUSH1 0x1 PUSH1 0x1 PUSH1 0xA0 SHL SUB AND DUP2 JUMP JUMPDEST PUSH1 0x3 DUP2 DUP2 SLOAD DUP2 LT PUSH2 0x1D8 JUMPI INVALID JUMPDEST PUSH1 0x0 SWAP2 DUP3 MSTORE PUSH1 0x20 SWAP1 SWAP2 KECCAK256 ADD SLOAD PUSH1 0x1 PUSH1 0x1 PUSH1 0xA0 SHL SUB AND SWAP1 POP DUP2 JUMP JUMPDEST PUSH1 0x3 SLOAD SWAP1 JUMP JUMPDEST PUSH1 0x40 MLOAD PUSH2 0x207 PUSH1 0x20 DUP3 ADD PUSH2 0x6C4 JUMP JUMPDEST PUSH1 0x20 DUP3 ADD DUP2 SUB DUP3 MSTORE PUSH1 0x1F NOT PUSH1 0x1F DUP3 ADD AND PUSH1 0x40 MSTORE POP PUSH1 0x40 MLOAD PUSH1 0x20 ADD DUP1 DUP3 DUP1 MLOAD SWAP1 PUSH1 0x20 ADD SWAP1 DUP1 DUP4 DUP4 JUMPDEST PUSH1 0x20 DUP4 LT PUSH2 0x24D JUMPI DUP1 MLOAD DUP3 MSTORE PUSH1 0x1F NOT SWAP1 SWAP3 ADD SWAP2 PUSH1 0x20 SWAP2 DUP3 ADD SWAP2 ADD PUSH2 0x22E JUMP JUMPDEST PUSH1 0x1 DUP4 PUSH1 0x20 SUB PUSH2 0x100 EXP SUB DUP1 NOT DUP3 MLOAD AND DUP2 DUP5 MLOAD AND DUP1 DUP3 OR DUP6 MSTORE POP POP POP POP POP POP SWAP1 POP ADD SWAP2 POP POP PUSH1 0x40 MLOAD PUSH1 0x20 DUP2 DUP4 SUB SUB DUP2 MSTORE SWAP1 PUSH1 0x40 MSTORE DUP1 MLOAD SWAP1 PUSH1 0x20 ADD KECCAK256 DUP2 JUMP JUMPDEST PUSH1 0x1 SLOAD PUSH1 0x1 PUSH1 0x1 PUSH1 0xA0 SHL SUB AND CALLER EQ PUSH2 0x2DF JUMPI PUSH1 0x40 DUP1 MLOAD PUSH3 0x461BCD PUSH1 0xE5 SHL DUP2 MSTORE PUSH1 0x20 PUSH1 0x4 DUP3 ADD MSTORE PUSH1 0x12 PUSH1 0x24 DUP3 ADD MSTORE PUSH18 0x2830B731B0B5B29D102327A92124A22222A7 PUSH1 0x71 SHL PUSH1 0x44 DUP3 ADD MSTORE SWAP1 MLOAD SWAP1 DUP2 SWAP1 SUB PUSH1 0x64 ADD SWAP1 REVERT JUMPDEST PUSH1 0x1 DUP1 SLOAD PUSH1 0x1 PUSH1 0x1 PUSH1 0xA0 SHL SUB NOT AND PUSH1 0x1 PUSH1 0x1 PUSH1 0xA0 SHL SUB SWAP3 SWAP1 SWAP3 AND SWAP2 SWAP1 SWAP2 OR SWAP1 SSTORE JUMP JUMPDEST PUSH1 0x0 DUP2 PUSH1 0x1 PUSH1 0x1 PUSH1 0xA0 SHL SUB AND DUP4 PUSH1 0x1 PUSH1 0x1 PUSH1 0xA0 SHL SUB AND EQ ISZERO PUSH2 0x36A JUMPI PUSH1 0x40 DUP1 MLOAD PUSH3 0x461BCD PUSH1 0xE5 SHL DUP2 MSTORE PUSH1 0x20 PUSH1 0x4 DUP3 ADD MSTORE PUSH1 0x1C PUSH1 0x24 DUP3 ADD MSTORE PUSH32 0x50616E63616B653A204944454E544943414C5F41444452455353455300000000 PUSH1 0x44 DUP3 ADD MSTORE SWAP1 MLOAD SWAP1 DUP2 SWAP1 SUB PUSH1 0x64 ADD SWAP1 REVERT JUMPDEST PUSH1 0x0 DUP1 DUP4 PUSH1 0x1 PUSH1 0x1 PUSH1 0xA0 SHL SUB AND DUP6 PUSH1 0x1 PUSH1 0x1 PUSH1 0xA0 SHL SUB AND LT PUSH2 0x38D JUMPI DUP4 DUP6 PUSH2 0x390 JUMP JUMPDEST DUP5 DUP5 JUMPDEST SWAP1 SWAP3 POP SWAP1 POP PUSH1 0x1 PUSH1 0x1 PUSH1 0xA0 SHL SUB DUP3 AND PUSH2 0x3E8 JUMPI PUSH1 0x40 DUP1 MLOAD PUSH3 0x461BCD PUSH1 0xE5 SHL DUP2 MSTORE PUSH1 0x20 PUSH1 0x4 DUP3 ADD MSTORE PUSH1 0x15 PUSH1 0x24 DUP3 ADD MSTORE PUSH21 0x50616E63616B653A205A45524F5F41444452455353 PUSH1 0x58 SHL PUSH1 0x44 DUP3 ADD MSTORE SWAP1 MLOAD SWAP1 DUP2 SWAP1 SUB PUSH1 0x64 ADD SWAP1 REVERT JUMPDEST PUSH1 0x1 PUSH1 0x1 PUSH1 0xA0 SHL SUB DUP3 DUP2 AND PUSH1 0x0 SWAP1 DUP2 MSTORE PUSH1 0x2 PUSH1 0x20 SWAP1 DUP2 MSTORE PUSH1 0x40 DUP1 DUP4 KECCAK256 DUP6 DUP6 AND DUP5 MSTORE SWAP1 SWAP2 MSTORE SWAP1 KECCAK256 SLOAD AND ISZERO PUSH2 0x459 JUMPI PUSH1 0x40 DUP1 MLOAD PUSH3 0x461BCD PUSH1 0xE5 SHL DUP2 MSTORE PUSH1 0x20 PUSH1 0x4 DUP3 ADD MSTORE PUSH1 0x14 PUSH1 0x24 DUP3 ADD MSTORE PUSH20 0x50616E63616B653A20504149525F455849535453 PUSH1 0x60 SHL PUSH1 0x44 DUP3 ADD MSTORE SWAP1 MLOAD SWAP1 DUP2 SWAP1 SUB PUSH1 0x64 ADD SWAP1 REVERT JUMPDEST PUSH1 0x60 PUSH1 0x40 MLOAD DUP1 PUSH1 0x20 ADD PUSH2 0x46B SWAP1 PUSH2 0x6C4 JUMP JUMPDEST PUSH1 0x20 DUP3 ADD DUP2 SUB DUP3 MSTORE PUSH1 0x1F NOT PUSH1 0x1F DUP3 ADD AND PUSH1 0x40 MSTORE POP SWAP1 POP PUSH1 0x0 DUP4 DUP4 PUSH1 0x40 MLOAD PUSH1 0x20 ADD DUP1 DUP4 PUSH1 0x1 PUSH1 0x1 PUSH1 0xA0 SHL SUB AND PUSH1 0x1 PUSH1 0x1 PUSH1 0xA0 SHL SUB AND PUSH1 0x60 SHL DUP2 MSTORE PUSH1 0x14 ADD DUP3 PUSH1 0x1 PUSH1 0x1 PUSH1 0xA0 SHL SUB AND PUSH1 0x1 PUSH1 0x1 PUSH1 0xA0 SHL SUB AND PUSH1 0x60 SHL DUP2 MSTORE PUSH1 0x14 ADD SWAP3 POP POP POP PUSH1 0x40 MLOAD PUSH1 0x20 DUP2 DUP4 SUB SUB DUP2 MSTORE SWAP1 PUSH1 0x40 MSTORE DUP1 MLOAD SWAP1 PUSH1 0x20 ADD KECCAK256 SWAP1 POP DUP1 DUP3 MLOAD PUSH1 0x20 DUP5 ADD PUSH1 0x0 CREATE2 PUSH1 0x40 DUP1 MLOAD PUSH4 0x485CC955 PUSH1 0xE0 SHL DUP2 MSTORE PUSH1 0x1 PUSH1 0x1 PUSH1 0xA0 SHL SUB DUP8 DUP2 AND PUSH1 0x4 DUP4 ADD MSTORE DUP7 DUP2 AND PUSH1 0x24 DUP4 ADD MSTORE SWAP2 MLOAD SWAP3 SWAP8 POP SWAP1 DUP8 AND SWAP2 PUSH4 0x485CC955 SWAP2 PUSH1 0x44 DUP1 DUP3 ADD SWAP3 PUSH1 0x0 SWAP3 SWAP1 SWAP2 SWAP1 DUP3 SWAP1 SUB ADD DUP2 DUP4 DUP8 DUP1 EXTCODESIZE ISZERO DUP1 ISZERO PUSH2 0x53E JUMPI PUSH1 0x0 DUP1 REVERT JUMPDEST POP GAS CALL ISZERO DUP1 ISZERO PUSH2 0x552 JUMPI RETURNDATASIZE PUSH1 0x0 DUP1 RETURNDATACOPY RETURNDATASIZE PUSH1 0x0 REVERT JUMPDEST POP POP POP POP PUSH1 0x1 PUSH1 0x1 PUSH1 0xA0 SHL SUB DUP5 DUP2 AND PUSH1 0x0 DUP2 DUP2 MSTORE PUSH1 0x2 PUSH1 0x20 DUP2 DUP2 MSTORE PUSH1 0x40 DUP1 DUP5 KECCAK256 DUP10 DUP8 AND DUP1 DUP7 MSTORE SWAP1 DUP4 MSTORE DUP2 DUP6 KECCAK256 DUP1 SLOAD SWAP8 DUP14 AND PUSH1 0x1 PUSH1 0x1 PUSH1 0xA0 SHL SUB NOT SWAP9 DUP10 AND DUP2 OR SWAP1 SWAP2 SSTORE SWAP4 DUP4 MSTORE DUP2 DUP6 KECCAK256 DUP7 DUP7 MSTORE DUP4 MSTORE DUP2 DUP6 KECCAK256 DUP1 SLOAD DUP9 AND DUP6 OR SWAP1 SSTORE PUSH1 0x3 DUP1 SLOAD PUSH1 0x1 DUP2 ADD DUP3 SSTORE SWAP6 DUP2 SWAP1 MSTORE PUSH32 0xC2575A0E9E593C00F959F8C92F12DB2869C3395A3B0502D05E2516446F71F85B SWAP1 SWAP6 ADD DUP1 SLOAD SWAP1 SWAP8 AND DUP5 OR SWAP1 SWAP7 SSTORE SWAP3 SLOAD DUP4 MLOAD SWAP3 DUP4 MSTORE SWAP1 DUP3 ADD MSTORE DUP2 MLOAD PUSH32 0xD3648BD0F6BA80134A33BA9275AC585D9D315F0AD8355CDDEFDE31AFA28D0E9 SWAP3 SWAP2 DUP2 SWAP1 SUB SWAP1 SWAP2 ADD SWAP1 LOG3 POP POP POP POP SWAP3 SWAP2 POP POP JUMP JUMPDEST PUSH1 0x2 PUSH1 0x20 SWAP1 DUP2 MSTORE PUSH1 0x0 SWAP3 DUP4 MSTORE PUSH1 0x40 DUP1 DUP5 KECCAK256 SWAP1 SWAP2 MSTORE SWAP1 DUP3 MSTORE SWAP1 KECCAK256 SLOAD PUSH1 0x1 PUSH1 0x1 PUSH1 0xA0 SHL SUB AND DUP2 JUMP JUMPDEST PUSH1 0x1 SLOAD PUSH1 0x1 PUSH1 0x1 PUSH1 0xA0 SHL SUB AND CALLER EQ PUSH2 0x6A2 JUMPI PUSH1 0x40 DUP1 MLOAD PUSH3 0x461BCD PUSH1 0xE5 SHL DUP2 MSTORE PUSH1 0x20 PUSH1 0x4 DUP3 ADD MSTORE PUSH1 0x12 PUSH1 0x24 DUP3 ADD MSTORE PUSH18 0x2830B731B0B5B29D102327A92124A22222A7 PUSH1 0x71 SHL PUSH1 0x44 DUP3 ADD MSTORE SWAP1 MLOAD SWAP1 DUP2 SWAP1 SUB PUSH1 0x64 ADD SWAP1 REVERT JUMPDEST PUSH1 0x0 DUP1 SLOAD PUSH1 0x1 PUSH1 0x1 PUSH1 0xA0 SHL SUB NOT AND PUSH1 0x1 PUSH1 0x1 PUSH1 0xA0 SHL SUB SWAP3 SWAP1 SWAP3 AND SWAP2 SWAP1 SWAP2 OR SWAP1 SSTORE JUMP JUMPDEST PUSH2 0x23CD DUP1 PUSH2 0x6D2 DUP4 CODECOPY ADD SWAP1 JUMP INVALID PUSH1 0x80 PUSH1 0x40 MSTORE PUSH1 0x1 PUSH1 0xC SSTORE CALLVALUE DUP1 ISZERO PUSH2 0x15 JUMPI PUSH1 0x0 DUP1 REVERT JUMPDEST POP PUSH1 0x40 MLOAD CHAINID SWAP1 DUP1 PUSH1 0x52 PUSH2 0x237B DUP3 CODECOPY PUSH1 0x40 DUP1 MLOAD SWAP2 DUP3 SWAP1 SUB PUSH1 0x52 ADD DUP3 KECCAK256 DUP3 DUP3 ADD DUP3 MSTORE PUSH1 0xB DUP4 MSTORE PUSH11 0x44657853776170204C5073 PUSH1 0xA8 SHL PUSH1 0x20 SWAP4 DUP5 ADD MSTORE DUP2 MLOAD DUP1 DUP4 ADD DUP4 MSTORE PUSH1 0x1 DUP2 MSTORE PUSH1 0x31 PUSH1 0xF8 SHL SWAP1 DUP5 ADD MSTORE DUP2 MLOAD DUP1 DUP5 ADD SWAP2 SWAP1 SWAP2 MSTORE PUSH32 0x2E1074C3D07633E155DA54B471DF7D2DB05E930CF983650FA82AE075D6880DDC DUP2 DUP4 ADD MSTORE PUSH32 0xC89EFDAA54C0F20C7ADF612882DF0950F5A951637E0307CDCB4C672F298B8BC6 PUSH1 0x60 DUP3 ADD MSTORE PUSH1 0x80 DUP2 ADD SWAP5 SWAP1 SWAP5 MSTORE ADDRESS PUSH1 0xA0 DUP1 DUP7 ADD SWAP2 SWAP1 SWAP2 MSTORE DUP2 MLOAD DUP1 DUP7 SUB SWAP1 SWAP2 ADD DUP2 MSTORE PUSH1 0xC0 SWAP1 SWAP5 ADD SWAP1 MSTORE DUP3 MLOAD SWAP3 ADD SWAP2 SWAP1 SWAP2 KECCAK256 PUSH1 0x3 SSTORE POP PUSH1 0x5 DUP1 SLOAD PUSH1 0x1 PUSH1 0x1 PUSH1 0xA0 SHL SUB NOT AND CALLER OR SWAP1 SSTORE PUSH2 0x2275 DUP1 PUSH2 0x106 PUSH1 0x0 CODECOPY PUSH1 0x0 RETURN INVALID PUSH1 0x80 PUSH1 0x40 MSTORE CALLVALUE DUP1 ISZERO PUSH2 0x10 JUMPI PUSH1 0x0 DUP1 REVERT JUMPDEST POP PUSH1 0x4 CALLDATASIZE LT PUSH2 0x1A9 JUMPI PUSH1 0x0 CALLDATALOAD PUSH1 0xE0 SHR DUP1 PUSH4 0x6A627842 GT PUSH2 0xF9 JUMPI DUP1 PUSH4 0xBA9A7A56 GT PUSH2 0x97 JUMPI DUP1 PUSH4 0xD21220A7 GT PUSH2 0x71 JUMPI DUP1 PUSH4 0xD21220A7 EQ PUSH2 0x534 JUMPI DUP1 PUSH4 0xD505ACCF EQ PUSH2 0x53C JUMPI DUP1 PUSH4 0xDD62ED3E EQ PUSH2 0x58D JUMPI DUP1 PUSH4 0xFFF6CAE9 EQ PUSH2 0x5BB JUMPI PUSH2 0x1A9 JUMP JUMPDEST DUP1 PUSH4 0xBA9A7A56 EQ PUSH2 0x4FE JUMPI DUP1 PUSH4 0xBC25CF77 EQ PUSH2 0x506 JUMPI DUP1 PUSH4 0xC45A0155 EQ PUSH2 0x52C JUMPI PUSH2 0x1A9 JUMP JUMPDEST DUP1 PUSH4 0x7ECEBE00 GT PUSH2 0xD3 JUMPI DUP1 PUSH4 0x7ECEBE00 EQ PUSH2 0x465 JUMPI DUP1 PUSH4 0x89AFCB44 EQ PUSH2 0x48B JUMPI DUP1 PUSH4 0x95D89B41 EQ PUSH2 0x4CA JUMPI DUP1 PUSH4 0xA9059CBB EQ PUSH2 0x4D2 JUMPI PUSH2 0x1A9 JUMP JUMPDEST DUP1 PUSH4 0x6A627842 EQ PUSH2 0x411 JUMPI DUP1 PUSH4 0x70A08231 EQ PUSH2 0x437 JUMPI DUP1 PUSH4 0x7464FC3D EQ PUSH2 0x45D JUMPI PUSH2 0x1A9 JUMP JUMPDEST DUP1 PUSH4 0x23B872DD GT PUSH2 0x166 JUMPI DUP1 PUSH4 0x3644E515 GT PUSH2 0x140 JUMPI DUP1 PUSH4 0x3644E515 EQ PUSH2 0x3CB JUMPI DUP1 PUSH4 0x485CC955 EQ PUSH2 0x3D3 JUMPI DUP1 PUSH4 0x5909C0D5 EQ PUSH2 0x401 JUMPI DUP1 PUSH4 0x5A3D5493 EQ PUSH2 0x409 JUMPI PUSH2 0x1A9 JUMP JUMPDEST DUP1 PUSH4 0x23B872DD EQ PUSH2 0x36F JUMPI DUP1 PUSH4 0x30ADF81F EQ PUSH2 0x3A5 JUMPI DUP1 PUSH4 0x313CE567 EQ PUSH2 0x3AD JUMPI PUSH2 0x1A9 JUMP JUMPDEST DUP1 PUSH4 0x22C0D9F EQ PUSH2 0x1AE JUMPI DUP1 PUSH4 0x6FDDE03 EQ PUSH2 0x23C JUMPI DUP1 PUSH4 0x902F1AC EQ PUSH2 0x2B9 JUMPI DUP1 PUSH4 0x95EA7B3 EQ PUSH2 0x2F1 JUMPI DUP1 PUSH4 0xDFE1681 EQ PUSH2 0x331 JUMPI DUP1 PUSH4 0x18160DDD EQ PUSH2 0x355 JUMPI JUMPDEST PUSH1 0x0 DUP1 REVERT JUMPDEST PUSH2 0x23A PUSH1 0x4 DUP1 CALLDATASIZE SUB PUSH1 0x80 DUP2 LT ISZERO PUSH2 0x1C4 JUMPI PUSH1 0x0 DUP1 REVERT JUMPDEST DUP2 CALLDATALOAD SWAP2 PUSH1 0x20 DUP2 ADD CALLDATALOAD SWAP2 PUSH1 0x1 PUSH1 0x1 PUSH1 0xA0 SHL SUB PUSH1 0x40 DUP4 ADD CALLDATALOAD AND SWAP2 SWAP1 DUP2 ADD SWAP1 PUSH1 0x80 DUP2 ADD PUSH1 0x60 DUP3 ADD CALLDATALOAD PUSH5 0x100000000 DUP2 GT ISZERO PUSH2 0x1FB JUMPI PUSH1 0x0 DUP1 REVERT JUMPDEST DUP3 ADD DUP4 PUSH1 0x20 DUP3 ADD GT ISZERO PUSH2 0x20D JUMPI PUSH1 0x0 DUP1 REVERT JUMPDEST DUP1 CALLDATALOAD SWAP1 PUSH1 0x20 ADD SWAP2 DUP5 PUSH1 0x1 DUP4 MUL DUP5 ADD GT PUSH5 0x100000000 DUP4 GT OR ISZERO PUSH2 0x22F JUMPI PUSH1 0x0 DUP1 REVERT JUMPDEST POP SWAP1 SWAP3 POP SWAP1 POP PUSH2 0x5C3 JUMP JUMPDEST STOP JUMPDEST PUSH2 0x244 PUSH2 0xB0F JUMP JUMPDEST PUSH1 0x40 DUP1 MLOAD PUSH1 0x20 DUP1 DUP3 MSTORE DUP4 MLOAD DUP2 DUP4 ADD MSTORE DUP4 MLOAD SWAP2 SWAP3 DUP4 SWAP3 SWAP1 DUP4 ADD SWAP2 DUP6 ADD SWAP1 DUP1 DUP4 DUP4 PUSH1 0x0 JUMPDEST DUP4 DUP2 LT ISZERO PUSH2 0x27E JUMPI DUP2 DUP2 ADD MLOAD DUP4 DUP3 ADD MSTORE PUSH1 0x20 ADD PUSH2 0x266 JUMP JUMPDEST POP POP POP POP SWAP1 POP SWAP1 DUP2 ADD SWAP1 PUSH1 0x1F AND DUP1 ISZERO PUSH2 0x2AB JUMPI DUP1 DUP3 SUB DUP1 MLOAD PUSH1 0x1 DUP4 PUSH1 0x20 SUB PUSH2 0x100 EXP SUB NOT AND DUP2 MSTORE PUSH1 0x20 ADD SWAP2 POP JUMPDEST POP SWAP3 POP POP POP PUSH1 0x40 MLOAD DUP1 SWAP2 SUB SWAP1 RETURN JUMPDEST PUSH2 0x2C1 PUSH2 0xB36 JUMP JUMPDEST PUSH1 0x40 DUP1 MLOAD PUSH1 0x1 PUSH1 0x1 PUSH1 0x70 SHL SUB SWAP5 DUP6 AND DUP2 MSTORE SWAP3 SWAP1 SWAP4 AND PUSH1 0x20 DUP4 ADD MSTORE PUSH4 0xFFFFFFFF AND DUP2 DUP4 ADD MSTORE SWAP1 MLOAD SWAP1 DUP2 SWAP1 SUB PUSH1 0x60 ADD SWAP1 RETURN JUMPDEST PUSH2 0x31D PUSH1 0x4 DUP1 CALLDATASIZE SUB PUSH1 0x40 DUP2 LT ISZERO PUSH2 0x307 JUMPI PUSH1 0x0 DUP1 REVERT JUMPDEST POP PUSH1 0x1 PUSH1 0x1 PUSH1 0xA0 SHL SUB DUP2 CALLDATALOAD AND SWAP1 PUSH1 0x20 ADD CALLDATALOAD PUSH2 0xB60 JUMP JUMPDEST PUSH1 0x40 DUP1 MLOAD SWAP2 ISZERO ISZERO DUP3 MSTORE MLOAD SWAP1 DUP2 SWAP1 SUB PUSH1 0x20 ADD SWAP1 RETURN JUMPDEST PUSH2 0x339 PUSH2 0xB77 JUMP JUMPDEST PUSH1 0x40 DUP1 MLOAD PUSH1 0x1 PUSH1 0x1 PUSH1 0xA0 SHL SUB SWAP1 SWAP3 AND DUP3 MSTORE MLOAD SWAP1 DUP2 SWAP1 SUB PUSH1 0x20 ADD SWAP1 RETURN JUMPDEST PUSH2 0x35D PUSH2 0xB86 JUMP JUMPDEST PUSH1 0x40 DUP1 MLOAD SWAP2 DUP3 MSTORE MLOAD SWAP1 DUP2 SWAP1 SUB PUSH1 0x20 ADD SWAP1 RETURN JUMPDEST PUSH2 0x31D PUSH1 0x4 DUP1 CALLDATASIZE SUB PUSH1 0x60 DUP2 LT ISZERO PUSH2 0x385 JUMPI PUSH1 0x0 DUP1 REVERT JUMPDEST POP PUSH1 0x1 PUSH1 0x1 PUSH1 0xA0 SHL SUB DUP2 CALLDATALOAD DUP2 AND SWAP2 PUSH1 0x20 DUP2 ADD CALLDATALOAD SWAP1 SWAP2 AND SWAP1 PUSH1 0x40 ADD CALLDATALOAD PUSH2 0xB8C JUMP JUMPDEST PUSH2 0x35D PUSH2 0xC26 JUMP JUMPDEST PUSH2 0x3B5 PUSH2 0xC4A JUMP JUMPDEST PUSH1 0x40 DUP1 MLOAD PUSH1 0xFF SWAP1 SWAP3 AND DUP3 MSTORE MLOAD SWAP1 DUP2 SWAP1 SUB PUSH1 0x20 ADD SWAP1 RETURN JUMPDEST PUSH2 0x35D PUSH2 0xC4F JUMP JUMPDEST PUSH2 0x23A PUSH1 0x4 DUP1 CALLDATASIZE SUB PUSH1 0x40 DUP2 LT ISZERO PUSH2 0x3E9 JUMPI PUSH1 0x0 DUP1 REVERT JUMPDEST POP PUSH1 0x1 PUSH1 0x1 PUSH1 0xA0 SHL SUB DUP2 CALLDATALOAD DUP2 AND SWAP2 PUSH1 0x20 ADD CALLDATALOAD AND PUSH2 0xC55 JUMP JUMPDEST PUSH2 0x35D PUSH2 0xCD7 JUMP JUMPDEST PUSH2 0x35D PUSH2 0xCDD JUMP JUMPDEST PUSH2 0x35D PUSH1 0x4 DUP1 CALLDATASIZE SUB PUSH1 0x20 DUP2 LT ISZERO PUSH2 0x427 JUMPI PUSH1 0x0 DUP1 REVERT JUMPDEST POP CALLDATALOAD PUSH1 0x1 PUSH1 0x1 PUSH1 0xA0 SHL SUB AND PUSH2 0xCE3 JUMP JUMPDEST PUSH2 0x35D PUSH1 0x4 DUP1 CALLDATASIZE SUB PUSH1 0x20 DUP2 LT ISZERO PUSH2 0x44D JUMPI PUSH1 0x0 DUP1 REVERT JUMPDEST POP CALLDATALOAD PUSH1 0x1 PUSH1 0x1 PUSH1 0xA0 SHL SUB AND PUSH2 0xFE1 JUMP JUMPDEST PUSH2 0x35D PUSH2 0xFF3 JUMP JUMPDEST PUSH2 0x35D PUSH1 0x4 DUP1 CALLDATASIZE SUB PUSH1 0x20 DUP2 LT ISZERO PUSH2 0x47B JUMPI PUSH1 0x0 DUP1 REVERT JUMPDEST POP CALLDATALOAD PUSH1 0x1 PUSH1 0x1 PUSH1 0xA0 SHL SUB AND PUSH2 0xFF9 JUMP JUMPDEST PUSH2 0x4B1 PUSH1 0x4 DUP1 CALLDATASIZE SUB PUSH1 0x20 DUP2 LT ISZERO PUSH2 0x4A1 JUMPI PUSH1 0x0 DUP1 REVERT JUMPDEST POP CALLDATALOAD PUSH1 0x1 PUSH1 0x1 PUSH1 0xA0 SHL SUB AND PUSH2 0x100B JUMP JUMPDEST PUSH1 0x40 DUP1 MLOAD SWAP3 DUP4 MSTORE PUSH1 0x20 DUP4 ADD SWAP2 SWAP1 SWAP2 MSTORE DUP1 MLOAD SWAP2 DUP3 SWAP1 SUB ADD SWAP1 RETURN JUMPDEST PUSH2 0x244 PUSH2 0x13AF JUMP JUMPDEST PUSH2 0x31D PUSH1 0x4 DUP1 CALLDATASIZE SUB PUSH1 0x40 DUP2 LT ISZERO PUSH2 0x4E8 JUMPI PUSH1 0x0 DUP1 REVERT JUMPDEST POP PUSH1 0x1 PUSH1 0x1 PUSH1 0xA0 SHL SUB DUP2 CALLDATALOAD AND SWAP1 PUSH1 0x20 ADD CALLDATALOAD PUSH2 0x13D5 JUMP JUMPDEST PUSH2 0x35D PUSH2 0x13E2 JUMP JUMPDEST PUSH2 0x23A PUSH1 0x4 DUP1 CALLDATASIZE SUB PUSH1 0x20 DUP2 LT ISZERO PUSH2 0x51C JUMPI PUSH1 0x0 DUP1 REVERT JUMPDEST POP CALLDATALOAD PUSH1 0x1 PUSH1 0x1 PUSH1 0xA0 SHL SUB AND PUSH2 0x13E8 JUMP JUMPDEST PUSH2 0x339 PUSH2 0x1551 JUMP JUMPDEST PUSH2 0x339 PUSH2 0x1560 JUMP JUMPDEST PUSH2 0x23A PUSH1 0x4 DUP1 CALLDATASIZE SUB PUSH1 0xE0 DUP2 LT ISZERO PUSH2 0x552 JUMPI PUSH1 0x0 DUP1 REVERT JUMPDEST POP PUSH1 0x1 PUSH1 0x1 PUSH1 0xA0 SHL SUB DUP2 CALLDATALOAD DUP2 AND SWAP2 PUSH1 0x20 DUP2 ADD CALLDATALOAD SWAP1 SWAP2 AND SWAP1 PUSH1 0x40 DUP2 ADD CALLDATALOAD SWAP1 PUSH1 0x60 DUP2 ADD CALLDATALOAD SWAP1 PUSH1 0xFF PUSH1 0x80 DUP3 ADD CALLDATALOAD AND SWAP1 PUSH1 0xA0 DUP2 ADD CALLDATALOAD SWAP1 PUSH1 0xC0 ADD CALLDATALOAD PUSH2 0x156F JUMP JUMPDEST PUSH2 0x35D PUSH1 0x4 DUP1 CALLDATASIZE SUB PUSH1 0x40 DUP2 LT ISZERO PUSH2 0x5A3 JUMPI PUSH1 0x0 DUP1 REVERT JUMPDEST POP PUSH1 0x1 PUSH1 0x1 PUSH1 0xA0 SHL SUB DUP2 CALLDATALOAD DUP2 AND SWAP2 PUSH1 0x20 ADD CALLDATALOAD AND PUSH2 0x176F JUMP JUMPDEST PUSH2 0x23A PUSH2 0x178C JUMP JUMPDEST PUSH1 0xC SLOAD PUSH1 0x1 EQ PUSH2 0x60C JUMPI PUSH1 0x40 DUP1 MLOAD PUSH3 0x461BCD PUSH1 0xE5 SHL DUP2 MSTORE PUSH1 0x20 PUSH1 0x4 DUP3 ADD MSTORE PUSH1 0xF PUSH1 0x24 DUP3 ADD MSTORE PUSH15 0x14185B98D85AD94E881313D0D2D151 PUSH1 0x8A SHL PUSH1 0x44 DUP3 ADD MSTORE SWAP1 MLOAD SWAP1 DUP2 SWAP1 SUB PUSH1 0x64 ADD SWAP1 REVERT JUMPDEST PUSH1 0x0 PUSH1 0xC SSTORE DUP5 ISZERO ISZERO DUP1 PUSH2 0x61F JUMPI POP PUSH1 0x0 DUP5 GT JUMPDEST PUSH2 0x65A JUMPI PUSH1 0x40 MLOAD PUSH3 0x461BCD PUSH1 0xE5 SHL DUP2 MSTORE PUSH1 0x4 ADD DUP1 DUP1 PUSH1 0x20 ADD DUP3 DUP2 SUB DUP3 MSTORE PUSH1 0x23 DUP2 MSTORE PUSH1 0x20 ADD DUP1 PUSH2 0x21F8 PUSH1 0x23 SWAP2 CODECOPY PUSH1 0x40 ADD SWAP2 POP POP PUSH1 0x40 MLOAD DUP1 SWAP2 SUB SWAP1 REVERT JUMPDEST PUSH1 0x0 DUP1 PUSH2 0x665 PUSH2 0xB36 JUMP JUMPDEST POP SWAP2 POP SWAP2 POP DUP2 PUSH1 0x1 PUSH1 0x1 PUSH1 0x70 SHL SUB AND DUP8 LT DUP1 ISZERO PUSH2 0x68A JUMPI POP DUP1 PUSH1 0x1 PUSH1 0x1 PUSH1 0x70 SHL SUB AND DUP7 LT JUMPDEST PUSH2 0x6DB JUMPI PUSH1 0x40 DUP1 MLOAD PUSH3 0x461BCD PUSH1 0xE5 SHL DUP2 MSTORE PUSH1 0x20 PUSH1 0x4 DUP3 ADD MSTORE PUSH1 0x1F PUSH1 0x24 DUP3 ADD MSTORE PUSH32 0x50616E63616B653A20494E53554646494349454E545F4C495155494449545900 PUSH1 0x44 DUP3 ADD MSTORE SWAP1 MLOAD SWAP1 DUP2 SWAP1 SUB PUSH1 0x64 ADD SWAP1 REVERT JUMPDEST PUSH1 0x6 SLOAD PUSH1 0x7 SLOAD PUSH1 0x0 SWAP2 DUP3 SWAP2 PUSH1 0x1 PUSH1 0x1 PUSH1 0xA0 SHL SUB SWAP2 DUP3 AND SWAP2 SWAP1 DUP2 AND SWAP1 DUP10 AND DUP3 EQ DUP1 ISZERO SWAP1 PUSH2 0x719 JUMPI POP DUP1 PUSH1 0x1 PUSH1 0x1 PUSH1 0xA0 SHL SUB AND DUP10 PUSH1 0x1 PUSH1 0x1 PUSH1 0xA0 SHL SUB AND EQ ISZERO JUMPDEST PUSH2 0x760 JUMPI PUSH1 0x40 DUP1 MLOAD PUSH3 0x461BCD PUSH1 0xE5 SHL DUP2 MSTORE PUSH1 0x20 PUSH1 0x4 DUP3 ADD MSTORE PUSH1 0x13 PUSH1 0x24 DUP3 ADD MSTORE PUSH19 0x50616E63616B653A20494E56414C49445F544F PUSH1 0x68 SHL PUSH1 0x44 DUP3 ADD MSTORE SWAP1 MLOAD SWAP1 DUP2 SWAP1 SUB PUSH1 0x64 ADD SWAP1 REVERT JUMPDEST DUP11 ISZERO PUSH2 0x771 JUMPI PUSH2 0x771 DUP3 DUP11 DUP14 PUSH2 0x18EC JUMP JUMPDEST DUP10 ISZERO PUSH2 0x782 JUMPI PUSH2 0x782 DUP2 DUP11 DUP13 PUSH2 0x18EC JUMP JUMPDEST DUP7 ISZERO PUSH2 0x83D JUMPI DUP9 PUSH1 0x1 PUSH1 0x1 PUSH1 0xA0 SHL SUB AND PUSH4 0x84800812 CALLER DUP14 DUP14 DUP13 DUP13 PUSH1 0x40 MLOAD DUP7 PUSH4 0xFFFFFFFF AND PUSH1 0xE0 SHL DUP2 MSTORE PUSH1 0x4 ADD DUP1 DUP7 PUSH1 0x1 PUSH1 0x1 PUSH1 0xA0 SHL SUB AND PUSH1 0x1 PUSH1 0x1 PUSH1 0xA0 SHL SUB AND DUP2 MSTORE PUSH1 0x20 ADD DUP6 DUP2 MSTORE PUSH1 0x20 ADD DUP5 DUP2 MSTORE PUSH1 0x20 ADD DUP1 PUSH1 0x20 ADD DUP3 DUP2 SUB DUP3 MSTORE DUP5 DUP5 DUP3 DUP2 DUP2 MSTORE PUSH1 0x20 ADD SWAP3 POP DUP1 DUP3 DUP5 CALLDATACOPY PUSH1 0x0 DUP2 DUP5 ADD MSTORE PUSH1 0x1F NOT PUSH1 0x1F DUP3 ADD AND SWAP1 POP DUP1 DUP4 ADD SWAP3 POP POP POP SWAP7 POP POP POP POP POP POP POP PUSH1 0x0 PUSH1 0x40 MLOAD DUP1 DUP4 SUB DUP2 PUSH1 0x0 DUP8 DUP1 EXTCODESIZE ISZERO DUP1 ISZERO PUSH2 0x824 JUMPI PUSH1 0x0 DUP1 REVERT JUMPDEST POP GAS CALL ISZERO DUP1 ISZERO PUSH2 0x838 JUMPI RETURNDATASIZE PUSH1 0x0 DUP1 RETURNDATACOPY RETURNDATASIZE PUSH1 0x0 REVERT JUMPDEST POP POP POP POP JUMPDEST PUSH1 0x40 DUP1 MLOAD PUSH4 0x70A08231 PUSH1 0xE0 SHL DUP2 MSTORE ADDRESS PUSH1 0x4 DUP3 ADD MSTORE SWAP1 MLOAD PUSH1 0x1 PUSH1 0x1 PUSH1 0xA0 SHL SUB DUP5 AND SWAP2 PUSH4 0x70A08231 SWAP2 PUSH1 0x24 DUP1 DUP4 ADD SWAP3 PUSH1 0x20 SWAP3 SWAP2 SWAP1 DUP3 SWAP1 SUB ADD DUP2 DUP7 DUP1 EXTCODESIZE ISZERO DUP1 ISZERO PUSH2 0x883 JUMPI PUSH1 0x0 DUP1 REVERT JUMPDEST POP GAS STATICCALL ISZERO DUP1 ISZERO PUSH2 0x897 JUMPI RETURNDATASIZE PUSH1 0x0 DUP1 RETURNDATACOPY RETURNDATASIZE PUSH1 0x0 REVERT JUMPDEST POP POP POP POP PUSH1 0x40 MLOAD RETURNDATASIZE PUSH1 0x20 DUP2 LT ISZERO PUSH2 0x8AD JUMPI PUSH1 0x0 DUP1 REVERT JUMPDEST POP MLOAD PUSH1 0x40 DUP1 MLOAD PUSH4 0x70A08231 PUSH1 0xE0 SHL DUP2 MSTORE ADDRESS PUSH1 0x4 DUP3 ADD MSTORE SWAP1 MLOAD SWAP2 SWAP6 POP PUSH1 0x1 PUSH1 0x1 PUSH1 0xA0 SHL SUB DUP4 AND SWAP2 PUSH4 0x70A08231 SWAP2 PUSH1 0x24 DUP1 DUP3 ADD SWAP3 PUSH1 0x20 SWAP3 SWAP1 SWAP2 SWAP1 DUP3 SWAP1 SUB ADD DUP2 DUP7 DUP1 EXTCODESIZE ISZERO DUP1 ISZERO PUSH2 0x8F9 JUMPI PUSH1 0x0 DUP1 REVERT JUMPDEST POP GAS STATICCALL ISZERO DUP1 ISZERO PUSH2 0x90D JUMPI RETURNDATASIZE PUSH1 0x0 DUP1 RETURNDATACOPY RETURNDATASIZE PUSH1 0x0 REVERT JUMPDEST POP POP POP POP PUSH1 0x40 MLOAD RETURNDATASIZE PUSH1 0x20 DUP2 LT ISZERO PUSH2 0x923 JUMPI PUSH1 0x0 DUP1 REVERT JUMPDEST POP MLOAD SWAP3 POP PUSH1 0x0 SWAP2 POP POP PUSH1 0x1 PUSH1 0x1 PUSH1 0x70 SHL SUB DUP6 AND DUP11 SWAP1 SUB DUP4 GT PUSH2 0x946 JUMPI PUSH1 0x0 PUSH2 0x955 JUMP JUMPDEST DUP10 DUP6 PUSH1 0x1 PUSH1 0x1 PUSH1 0x70 SHL SUB AND SUB DUP4 SUB JUMPDEST SWAP1 POP PUSH1 0x0 DUP10 DUP6 PUSH1 0x1 PUSH1 0x1 PUSH1 0x70 SHL SUB AND SUB DUP4 GT PUSH2 0x972 JUMPI PUSH1 0x0 PUSH2 0x981 JUMP JUMPDEST DUP10 DUP6 PUSH1 0x1 PUSH1 0x1 PUSH1 0x70 SHL SUB AND SUB DUP4 SUB JUMPDEST SWAP1 POP PUSH1 0x0 DUP3 GT DUP1 PUSH2 0x992 JUMPI POP PUSH1 0x0 DUP2 GT JUMPDEST PUSH2 0x9CD JUMPI PUSH1 0x40 MLOAD PUSH3 0x461BCD PUSH1 0xE5 SHL DUP2 MSTORE PUSH1 0x4 ADD DUP1 DUP1 PUSH1 0x20 ADD DUP3 DUP2 SUB DUP3 MSTORE PUSH1 0x22 DUP2 MSTORE PUSH1 0x20 ADD DUP1 PUSH2 0x21B0 PUSH1 0x22 SWAP2 CODECOPY PUSH1 0x40 ADD SWAP2 POP POP PUSH1 0x40 MLOAD DUP1 SWAP2 SUB SWAP1 REVERT JUMPDEST PUSH1 0x0 PUSH2 0xA01 PUSH2 0x9E3 DUP5 PUSH1 0x19 PUSH4 0xFFFFFFFF PUSH2 0x1A86 AND JUMP JUMPDEST PUSH2 0x9F5 DUP8 PUSH2 0x2710 PUSH4 0xFFFFFFFF PUSH2 0x1A86 AND JUMP JUMPDEST SWAP1 PUSH4 0xFFFFFFFF PUSH2 0x1AE9 AND JUMP JUMPDEST SWAP1 POP PUSH1 0x0 PUSH2 0xA19 PUSH2 0x9E3 DUP5 PUSH1 0x19 PUSH4 0xFFFFFFFF PUSH2 0x1A86 AND JUMP JUMPDEST SWAP1 POP PUSH2 0xA4B PUSH4 0x5F5E100 PUSH2 0xA3F PUSH1 0x1 PUSH1 0x1 PUSH1 0x70 SHL SUB DUP12 DUP2 AND SWAP1 DUP12 AND PUSH4 0xFFFFFFFF PUSH2 0x1A86 AND JUMP JUMPDEST SWAP1 PUSH4 0xFFFFFFFF PUSH2 0x1A86 AND JUMP JUMPDEST PUSH2 0xA5B DUP4 DUP4 PUSH4 0xFFFFFFFF PUSH2 0x1A86 AND JUMP JUMPDEST LT ISZERO PUSH2 0xA9B JUMPI PUSH1 0x40 DUP1 MLOAD PUSH3 0x461BCD PUSH1 0xE5 SHL DUP2 MSTORE PUSH1 0x20 PUSH1 0x4 DUP3 ADD MSTORE PUSH1 0xA PUSH1 0x24 DUP3 ADD MSTORE PUSH10 0x50616E63616B653A204B PUSH1 0xB0 SHL PUSH1 0x44 DUP3 ADD MSTORE SWAP1 MLOAD SWAP1 DUP2 SWAP1 SUB PUSH1 0x64 ADD SWAP1 REVERT JUMPDEST POP POP PUSH2 0xAA9 DUP5 DUP5 DUP9 DUP9 PUSH2 0x1B39 JUMP JUMPDEST PUSH1 0x40 DUP1 MLOAD DUP4 DUP2 MSTORE PUSH1 0x20 DUP2 ADD DUP4 SWAP1 MSTORE DUP1 DUP3 ADD DUP14 SWAP1 MSTORE PUSH1 0x60 DUP2 ADD DUP13 SWAP1 MSTORE SWAP1 MLOAD PUSH1 0x1 PUSH1 0x1 PUSH1 0xA0 SHL SUB DUP12 AND SWAP2 CALLER SWAP2 PUSH32 0xD78AD95FA46C994B6551D0DA85FC275FE613CE37657FB8D5E3D130840159D822 SWAP2 DUP2 SWAP1 SUB PUSH1 0x80 ADD SWAP1 LOG3 POP POP PUSH1 0x1 PUSH1 0xC SSTORE POP POP POP POP POP POP POP POP POP JUMP JUMPDEST PUSH1 0x40 MLOAD DUP1 PUSH1 0x40 ADD PUSH1 0x40 MSTORE DUP1 PUSH1 0xB DUP2 MSTORE PUSH1 0x20 ADD PUSH11 0x44657853776170204C5073 PUSH1 0xA8 SHL DUP2 MSTORE POP DUP2 JUMP JUMPDEST PUSH1 0x8 SLOAD PUSH1 0x1 PUSH1 0x1 PUSH1 0x70 SHL SUB DUP1 DUP3 AND SWAP3 PUSH1 0x1 PUSH1 0x70 SHL DUP4 DIV SWAP1 SWAP2 AND SWAP2 PUSH1 0x1 PUSH1 0xE0 SHL SWAP1 DIV PUSH4 0xFFFFFFFF AND SWAP1 JUMP JUMPDEST PUSH1 0x0 PUSH2 0xB6D CALLER DUP5 DUP5 PUSH2 0x1CFC JUMP JUMPDEST POP PUSH1 0x1 JUMPDEST SWAP3 SWAP2 POP POP JUMP JUMPDEST PUSH1 0x6 SLOAD PUSH1 0x1 PUSH1 0x1 PUSH1 0xA0 SHL SUB AND DUP2 JUMP JUMPDEST PUSH1 0x0 SLOAD DUP2 JUMP JUMPDEST PUSH1 0x1 PUSH1 0x1 PUSH1 0xA0 SHL SUB DUP4 AND PUSH1 0x0 SWAP1 DUP2 MSTORE PUSH1 0x2 PUSH1 0x20 SWAP1 DUP2 MSTORE PUSH1 0x40 DUP1 DUP4 KECCAK256 CALLER DUP5 MSTORE SWAP1 SWAP2 MSTORE DUP2 KECCAK256 SLOAD PUSH1 0x0 NOT EQ PUSH2 0xC11 JUMPI PUSH1 0x1 PUSH1 0x1 PUSH1 0xA0 SHL SUB DUP5 AND PUSH1 0x0 SWAP1 DUP2 MSTORE PUSH1 0x2 PUSH1 0x20 SWAP1 DUP2 MSTORE PUSH1 0x40 DUP1 DUP4 KECCAK256 CALLER DUP5 MSTORE SWAP1 SWAP2 MSTORE SWAP1 KECCAK256 SLOAD PUSH2 0xBEC SWAP1 DUP4 PUSH4 0xFFFFFFFF PUSH2 0x1AE9 AND JUMP JUMPDEST PUSH1 0x1 PUSH1 0x1 PUSH1 0xA0 SHL SUB DUP6 AND PUSH1 0x0 SWAP1 DUP2 MSTORE PUSH1 0x2 PUSH1 0x20 SWAP1 DUP2 MSTORE PUSH1 0x40 DUP1 DUP4 KECCAK256 CALLER DUP5 MSTORE SWAP1 SWAP2 MSTORE SWAP1 KECCAK256 SSTORE JUMPDEST PUSH2 0xC1C DUP5 DUP5 DUP5 PUSH2 0x1D5E JUMP JUMPDEST POP PUSH1 0x1 SWAP4 SWAP3 POP POP POP JUMP JUMPDEST PUSH32 0x6E71EDAE12B1B97F4D1F60370FEF10105FA2FAAE0126114A169C64845D6126C9 DUP2 JUMP JUMPDEST PUSH1 0x12 DUP2 JUMP JUMPDEST PUSH1 0x3 SLOAD DUP2 JUMP JUMPDEST PUSH1 0x5 SLOAD PUSH1 0x1 PUSH1 0x1 PUSH1 0xA0 SHL SUB AND CALLER EQ PUSH2 0xCA9 JUMPI PUSH1 0x40 DUP1 MLOAD PUSH3 0x461BCD PUSH1 0xE5 SHL DUP2 MSTORE PUSH1 0x20 PUSH1 0x4 DUP3 ADD MSTORE PUSH1 0x12 PUSH1 0x24 DUP3 ADD MSTORE PUSH18 0x2830B731B0B5B29D102327A92124A22222A7 PUSH1 0x71 SHL PUSH1 0x44 DUP3 ADD MSTORE SWAP1 MLOAD SWAP1 DUP2 SWAP1 SUB PUSH1 0x64 ADD SWAP1 REVERT JUMPDEST PUSH1 0x6 DUP1 SLOAD PUSH1 0x1 PUSH1 0x1 PUSH1 0xA0 SHL SUB SWAP4 DUP5 AND PUSH1 0x1 PUSH1 0x1 PUSH1 0xA0 SHL SUB NOT SWAP2 DUP3 AND OR SWAP1 SWAP2 SSTORE PUSH1 0x7 DUP1 SLOAD SWAP3 SWAP1 SWAP4 AND SWAP2 AND OR SWAP1 SSTORE JUMP JUMPDEST PUSH1 0x9 SLOAD DUP2 JUMP JUMPDEST PUSH1 0xA SLOAD DUP2 JUMP JUMPDEST PUSH1 0x0 PUSH1 0xC SLOAD PUSH1 0x1 EQ PUSH2 0xD2E JUMPI PUSH1 0x40 DUP1 MLOAD PUSH3 0x461BCD PUSH1 0xE5 SHL DUP2 MSTORE PUSH1 0x20 PUSH1 0x4 DUP3 ADD MSTORE PUSH1 0xF PUSH1 0x24 DUP3 ADD MSTORE PUSH15 0x14185B98D85AD94E881313D0D2D151 PUSH1 0x8A SHL PUSH1 0x44 DUP3 ADD MSTORE SWAP1 MLOAD SWAP1 DUP2 SWAP1 SUB PUSH1 0x64 ADD SWAP1 REVERT JUMPDEST PUSH1 0x0 PUSH1 0xC DUP2 SWAP1 SSTORE DUP1 PUSH2 0xD3E PUSH2 0xB36 JUMP JUMPDEST POP PUSH1 0x6 SLOAD PUSH1 0x40 DUP1 MLOAD PUSH4 0x70A08231 PUSH1 0xE0 SHL DUP2 MSTORE ADDRESS PUSH1 0x4 DUP3 ADD MSTORE SWAP1 MLOAD SWAP4 SWAP6 POP SWAP2 SWAP4 POP PUSH1 0x0 SWAP3 PUSH1 0x1 PUSH1 0x1 PUSH1 0xA0 SHL SUB SWAP1 SWAP2 AND SWAP2 PUSH4 0x70A08231 SWAP2 PUSH1 0x24 DUP1 DUP4 ADD SWAP3 PUSH1 0x20 SWAP3 SWAP2 SWAP1 DUP3 SWAP1 SUB ADD DUP2 DUP7 DUP1 EXTCODESIZE ISZERO DUP1 ISZERO PUSH2 0xD92 JUMPI PUSH1 0x0 DUP1 REVERT JUMPDEST POP GAS STATICCALL ISZERO DUP1 ISZERO PUSH2 0xDA6 JUMPI RETURNDATASIZE PUSH1 0x0 DUP1 RETURNDATACOPY RETURNDATASIZE PUSH1 0x0 REVERT JUMPDEST POP POP POP POP PUSH1 0x40 MLOAD RETURNDATASIZE PUSH1 0x20 DUP2 LT ISZERO PUSH2 0xDBC JUMPI PUSH1 0x0 DUP1 REVERT JUMPDEST POP MLOAD PUSH1 0x7 SLOAD PUSH1 0x40 DUP1 MLOAD PUSH4 0x70A08231 PUSH1 0xE0 SHL DUP2 MSTORE ADDRESS PUSH1 0x4 DUP3 ADD MSTORE SWAP1 MLOAD SWAP3 SWAP4 POP PUSH1 0x0 SWAP3 PUSH1 0x1 PUSH1 0x1 PUSH1 0xA0 SHL SUB SWAP1 SWAP3 AND SWAP2 PUSH4 0x70A08231 SWAP2 PUSH1 0x24 DUP1 DUP3 ADD SWAP3 PUSH1 0x20 SWAP3 SWAP1 SWAP2 SWAP1 DUP3 SWAP1 SUB ADD DUP2 DUP7 DUP1 EXTCODESIZE ISZERO DUP1 ISZERO PUSH2 0xE0F JUMPI PUSH1 0x0 DUP1 REVERT JUMPDEST POP GAS STATICCALL ISZERO DUP1 ISZERO PUSH2 0xE23 JUMPI RETURNDATASIZE PUSH1 0x0 DUP1 RETURNDATACOPY RETURNDATASIZE PUSH1 0x0 REVERT JUMPDEST POP POP POP POP PUSH1 0x40 MLOAD RETURNDATASIZE PUSH1 0x20 DUP2 LT ISZERO PUSH2 0xE39 JUMPI PUSH1 0x0 DUP1 REVERT JUMPDEST POP MLOAD SWAP1 POP PUSH1 0x0 PUSH2 0xE58 DUP4 PUSH1 0x1 PUSH1 0x1 PUSH1 0x70 SHL SUB DUP8 AND PUSH4 0xFFFFFFFF PUSH2 0x1AE9 AND JUMP JUMPDEST SWAP1 POP PUSH1 0x0 PUSH2 0xE75 DUP4 PUSH1 0x1 PUSH1 0x1 PUSH1 0x70 SHL SUB DUP8 AND PUSH4 0xFFFFFFFF PUSH2 0x1AE9 AND JUMP JUMPDEST SWAP1 POP PUSH1 0x0 PUSH2 0xE83 DUP8 DUP8 PUSH2 0x1E18 JUMP JUMPDEST PUSH1 0x0 SLOAD SWAP1 SWAP2 POP DUP1 PUSH2 0xEC0 JUMPI PUSH2 0xEAC PUSH2 0x3E8 PUSH2 0x9F5 PUSH2 0xEA7 DUP8 DUP8 PUSH4 0xFFFFFFFF PUSH2 0x1A86 AND JUMP JUMPDEST PUSH2 0x1F8B JUMP JUMPDEST SWAP9 POP PUSH2 0xEBB PUSH1 0x0 PUSH2 0x3E8 PUSH2 0x1FDD JUMP JUMPDEST PUSH2 0xF0F JUMP JUMPDEST PUSH2 0xF0C PUSH1 0x1 PUSH1 0x1 PUSH1 0x70 SHL SUB DUP10 AND PUSH2 0xEDD DUP7 DUP5 PUSH4 0xFFFFFFFF PUSH2 0x1A86 AND JUMP JUMPDEST DUP2 PUSH2 0xEE4 JUMPI INVALID JUMPDEST DIV PUSH1 0x1 PUSH1 0x1 PUSH1 0x70 SHL SUB DUP10 AND PUSH2 0xEFF DUP7 DUP6 PUSH4 0xFFFFFFFF PUSH2 0x1A86 AND JUMP JUMPDEST DUP2 PUSH2 0xF06 JUMPI INVALID JUMPDEST DIV PUSH2 0x2073 JUMP JUMPDEST SWAP9 POP JUMPDEST PUSH1 0x0 DUP10 GT PUSH2 0xF4E JUMPI PUSH1 0x40 MLOAD PUSH3 0x461BCD PUSH1 0xE5 SHL DUP2 MSTORE PUSH1 0x4 ADD DUP1 DUP1 PUSH1 0x20 ADD DUP3 DUP2 SUB DUP3 MSTORE PUSH1 0x26 DUP2 MSTORE PUSH1 0x20 ADD DUP1 PUSH2 0x221B PUSH1 0x26 SWAP2 CODECOPY PUSH1 0x40 ADD SWAP2 POP POP PUSH1 0x40 MLOAD DUP1 SWAP2 SUB SWAP1 REVERT JUMPDEST PUSH2 0xF58 DUP11 DUP11 PUSH2 0x1FDD JUMP JUMPDEST PUSH2 0xF64 DUP7 DUP7 DUP11 DUP11 PUSH2 0x1B39 JUMP JUMPDEST DUP2 ISZERO PUSH2 0xF94 JUMPI PUSH1 0x8 SLOAD PUSH2 0xF90 SWAP1 PUSH1 0x1 PUSH1 0x1 PUSH1 0x70 SHL SUB DUP1 DUP3 AND SWAP2 PUSH1 0x1 PUSH1 0x70 SHL SWAP1 DIV AND PUSH4 0xFFFFFFFF PUSH2 0x1A86 AND JUMP JUMPDEST PUSH1 0xB SSTORE JUMPDEST PUSH1 0x40 DUP1 MLOAD DUP6 DUP2 MSTORE PUSH1 0x20 DUP2 ADD DUP6 SWAP1 MSTORE DUP2 MLOAD CALLER SWAP3 PUSH32 0x4C209B5FC8AD50758F13E2E1088BA56A560DFF690A1C6FEF26394F4C03821C4F SWAP3 DUP3 SWAP1 SUB ADD SWAP1 LOG2 POP POP PUSH1 0x1 PUSH1 0xC SSTORE POP SWAP5 SWAP7 SWAP6 POP POP POP POP POP POP JUMP JUMPDEST PUSH1 0x1 PUSH1 0x20 MSTORE PUSH1 0x0 SWAP1 DUP2 MSTORE PUSH1 0x40 SWAP1 KECCAK256 SLOAD DUP2 JUMP JUMPDEST PUSH1 0xB SLOAD DUP2 JUMP JUMPDEST PUSH1 0x4 PUSH1 0x20 MSTORE PUSH1 0x0 SWAP1 DUP2 MSTORE PUSH1 0x40 SWAP1 KECCAK256 SLOAD DUP2 JUMP JUMPDEST PUSH1 0x0 DUP1 PUSH1 0xC SLOAD PUSH1 0x1 EQ PUSH2 0x1057 JUMPI PUSH1 0x40 DUP1 MLOAD PUSH3 0x461BCD PUSH1 0xE5 SHL DUP2 MSTORE PUSH1 0x20 PUSH1 0x4 DUP3 ADD MSTORE PUSH1 0xF PUSH1 0x24 DUP3 ADD MSTORE PUSH15 0x14185B98D85AD94E881313D0D2D151 PUSH1 0x8A SHL PUSH1 0x44 DUP3 ADD MSTORE SWAP1 MLOAD SWAP1 DUP2 SWAP1 SUB PUSH1 0x64 ADD SWAP1 REVERT JUMPDEST PUSH1 0x0 PUSH1 0xC DUP2 SWAP1 SSTORE DUP1 PUSH2 0x1067 PUSH2 0xB36 JUMP JUMPDEST POP PUSH1 0x6 SLOAD PUSH1 0x7 SLOAD PUSH1 0x40 DUP1 MLOAD PUSH4 0x70A08231 PUSH1 0xE0 SHL DUP2 MSTORE ADDRESS PUSH1 0x4 DUP3 ADD MSTORE SWAP1 MLOAD SWAP5 SWAP7 POP SWAP3 SWAP5 POP PUSH1 0x1 PUSH1 0x1 PUSH1 0xA0 SHL SUB SWAP2 DUP3 AND SWAP4 SWAP2 AND SWAP2 PUSH1 0x0 SWAP2 DUP5 SWAP2 PUSH4 0x70A08231 SWAP2 PUSH1 0x24 DUP1 DUP4 ADD SWAP3 PUSH1 0x20 SWAP3 SWAP2 SWAP1 DUP3 SWAP1 SUB ADD DUP2 DUP7 DUP1 EXTCODESIZE ISZERO DUP1 ISZERO PUSH2 0x10C3 JUMPI PUSH1 0x0 DUP1 REVERT JUMPDEST POP GAS STATICCALL ISZERO DUP1 ISZERO PUSH2 0x10D7 JUMPI RETURNDATASIZE PUSH1 0x0 DUP1 RETURNDATACOPY RETURNDATASIZE PUSH1 0x0 REVERT JUMPDEST POP POP POP POP PUSH1 0x40 MLOAD RETURNDATASIZE PUSH1 0x20 DUP2 LT ISZERO PUSH2 0x10ED JUMPI PUSH1 0x0 DUP1 REVERT JUMPDEST POP MLOAD PUSH1 0x40 DUP1 MLOAD PUSH4 0x70A08231 PUSH1 0xE0 SHL DUP2 MSTORE ADDRESS PUSH1 0x4 DUP3 ADD MSTORE SWAP1 MLOAD SWAP2 SWAP3 POP PUSH1 0x0 SWAP2 PUSH1 0x1 PUSH1 0x1 PUSH1 0xA0 SHL SUB DUP6 AND SWAP2 PUSH4 0x70A08231 SWAP2 PUSH1 0x24 DUP1 DUP4 ADD SWAP3 PUSH1 0x20 SWAP3 SWAP2 SWAP1 DUP3 SWAP1 SUB ADD DUP2 DUP7 DUP1 EXTCODESIZE ISZERO DUP1 ISZERO PUSH2 0x113B JUMPI PUSH1 0x0 DUP1 REVERT JUMPDEST POP GAS STATICCALL ISZERO DUP1 ISZERO PUSH2 0x114F JUMPI RETURNDATASIZE PUSH1 0x0 DUP1 RETURNDATACOPY RETURNDATASIZE PUSH1 0x0 REVERT JUMPDEST POP POP POP POP PUSH1 0x40 MLOAD RETURNDATASIZE PUSH1 0x20 DUP2 LT ISZERO PUSH2 0x1165 JUMPI PUSH1 0x0 DUP1 REVERT JUMPDEST POP MLOAD ADDRESS PUSH1 0x0 SWAP1 DUP2 MSTORE PUSH1 0x1 PUSH1 0x20 MSTORE PUSH1 0x40 DUP2 KECCAK256 SLOAD SWAP2 SWAP3 POP PUSH2 0x1184 DUP9 DUP9 PUSH2 0x1E18 JUMP JUMPDEST PUSH1 0x0 SLOAD SWAP1 SWAP2 POP DUP1 PUSH2 0x119B DUP5 DUP8 PUSH4 0xFFFFFFFF PUSH2 0x1A86 AND JUMP JUMPDEST DUP2 PUSH2 0x11A2 JUMPI INVALID JUMPDEST DIV SWAP11 POP DUP1 PUSH2 0x11B6 DUP5 DUP7 PUSH4 0xFFFFFFFF PUSH2 0x1A86 AND JUMP JUMPDEST DUP2 PUSH2 0x11BD JUMPI INVALID JUMPDEST DIV SWAP10 POP PUSH1 0x0 DUP12 GT DUP1 ISZERO PUSH2 0x11D0 JUMPI POP PUSH1 0x0 DUP11 GT JUMPDEST PUSH2 0x120B JUMPI PUSH1 0x40 MLOAD PUSH3 0x461BCD PUSH1 0xE5 SHL DUP2 MSTORE PUSH1 0x4 ADD DUP1 DUP1 PUSH1 0x20 ADD DUP3 DUP2 SUB DUP3 MSTORE PUSH1 0x26 DUP2 MSTORE PUSH1 0x20 ADD DUP1 PUSH2 0x21D2 PUSH1 0x26 SWAP2 CODECOPY PUSH1 0x40 ADD SWAP2 POP POP PUSH1 0x40 MLOAD DUP1 SWAP2 SUB SWAP1 REVERT JUMPDEST PUSH2 0x1215 ADDRESS DUP5 PUSH2 0x208B JUMP JUMPDEST PUSH2 0x1220 DUP8 DUP14 DUP14 PUSH2 0x18EC JUMP JUMPDEST PUSH2 0x122B DUP7 DUP14 DUP13 PUSH2 0x18EC JUMP JUMPDEST PUSH1 0x40 DUP1 MLOAD PUSH4 0x70A08231 PUSH1 0xE0 SHL DUP2 MSTORE ADDRESS PUSH1 0x4 DUP3 ADD MSTORE SWAP1 MLOAD PUSH1 0x1 PUSH1 0x1 PUSH1 0xA0 SHL SUB DUP10 AND SWAP2 PUSH4 0x70A08231 SWAP2 PUSH1 0x24 DUP1 DUP4 ADD SWAP3 PUSH1 0x20 SWAP3 SWAP2 SWAP1 DUP3 SWAP1 SUB ADD DUP2 DUP7 DUP1 EXTCODESIZE ISZERO DUP1 ISZERO PUSH2 0x1271 JUMPI PUSH1 0x0 DUP1 REVERT JUMPDEST POP GAS STATICCALL ISZERO DUP1 ISZERO PUSH2 0x1285 JUMPI RETURNDATASIZE PUSH1 0x0 DUP1 RETURNDATACOPY RETURNDATASIZE PUSH1 0x0 REVERT JUMPDEST POP POP POP POP PUSH1 0x40 MLOAD RETURNDATASIZE PUSH1 0x20 DUP2 LT ISZERO PUSH2 0x129B JUMPI PUSH1 0x0 DUP1 REVERT JUMPDEST POP MLOAD PUSH1 0x40 DUP1 MLOAD PUSH4 0x70A08231 PUSH1 0xE0 SHL DUP2 MSTORE ADDRESS PUSH1 0x4 DUP3 ADD MSTORE SWAP1 MLOAD SWAP2 SWAP7 POP PUSH1 0x1 PUSH1 0x1 PUSH1 0xA0 SHL SUB DUP9 AND SWAP2 PUSH4 0x70A08231 SWAP2 PUSH1 0x24 DUP1 DUP3 ADD SWAP3 PUSH1 0x20 SWAP3 SWAP1 SWAP2 SWAP1 DUP3 SWAP1 SUB ADD DUP2 DUP7 DUP1 EXTCODESIZE ISZERO DUP1 ISZERO PUSH2 0x12E7 JUMPI PUSH1 0x0 DUP1 REVERT JUMPDEST POP GAS STATICCALL ISZERO DUP1 ISZERO PUSH2 0x12FB JUMPI RETURNDATASIZE PUSH1 0x0 DUP1 RETURNDATACOPY RETURNDATASIZE PUSH1 0x0 REVERT JUMPDEST POP POP POP POP PUSH1 0x40 MLOAD RETURNDATASIZE PUSH1 0x20 DUP2 LT ISZERO PUSH2 0x1311 JUMPI PUSH1 0x0 DUP1 REVERT JUMPDEST POP MLOAD SWAP4 POP PUSH2 0x1321 DUP6 DUP6 DUP12 DUP12 PUSH2 0x1B39 JUMP JUMPDEST DUP2 ISZERO PUSH2 0x1351 JUMPI PUSH1 0x8 SLOAD PUSH2 0x134D SWAP1 PUSH1 0x1 PUSH1 0x1 PUSH1 0x70 SHL SUB DUP1 DUP3 AND SWAP2 PUSH1 0x1 PUSH1 0x70 SHL SWAP1 DIV AND PUSH4 0xFFFFFFFF PUSH2 0x1A86 AND JUMP JUMPDEST PUSH1 0xB SSTORE JUMPDEST PUSH1 0x40 DUP1 MLOAD DUP13 DUP2 MSTORE PUSH1 0x20 DUP2 ADD DUP13 SWAP1 MSTORE DUP2 MLOAD PUSH1 0x1 PUSH1 0x1 PUSH1 0xA0 SHL SUB DUP16 AND SWAP3 CALLER SWAP3 PUSH32 0xDCCD412F0B1252819CB1FD330B93224CA42612892BB3F4F789976E6D81936496 SWAP3 SWAP1 DUP2 SWAP1 SUB SWAP1 SWAP2 ADD SWAP1 LOG3 POP POP POP POP POP POP POP POP POP PUSH1 0x1 PUSH1 0xC DUP2 SWAP1 SSTORE POP SWAP2 POP SWAP2 JUMP JUMPDEST PUSH1 0x40 MLOAD DUP1 PUSH1 0x40 ADD PUSH1 0x40 MSTORE DUP1 PUSH1 0xA DUP2 MSTORE PUSH1 0x20 ADD PUSH10 0x446578537761702D4C5 PUSH1 0xB4 SHL DUP2 MSTORE POP DUP2 JUMP JUMPDEST PUSH1 0x0 PUSH2 0xB6D CALLER DUP5 DUP5 PUSH2 0x1D5E JUMP JUMPDEST PUSH2 0x3E8 DUP2 JUMP JUMPDEST PUSH1 0xC SLOAD PUSH1 0x1 EQ PUSH2 0x1431 JUMPI PUSH1 0x40 DUP1 MLOAD PUSH3 0x461BCD PUSH1 0xE5 SHL DUP2 MSTORE PUSH1 0x20 PUSH1 0x4 DUP3 ADD MSTORE PUSH1 0xF PUSH1 0x24 DUP3 ADD MSTORE PUSH15 0x14185B98D85AD94E881313D0D2D151 PUSH1 0x8A SHL PUSH1 0x44 DUP3 ADD MSTORE SWAP1 MLOAD SWAP1 DUP2 SWAP1 SUB PUSH1 0x64 ADD SWAP1 REVERT JUMPDEST PUSH1 0x0 PUSH1 0xC SSTORE PUSH1 0x6 SLOAD PUSH1 0x7 SLOAD PUSH1 0x8 SLOAD PUSH1 0x40 DUP1 MLOAD PUSH4 0x70A08231 PUSH1 0xE0 SHL DUP2 MSTORE ADDRESS PUSH1 0x4 DUP3 ADD MSTORE SWAP1 MLOAD PUSH1 0x1 PUSH1 0x1 PUSH1 0xA0 SHL SUB SWAP5 DUP6 AND SWAP5 SWAP1 SWAP4 AND SWAP3 PUSH2 0x14E0 SWAP3 DUP6 SWAP3 DUP8 SWAP3 PUSH2 0x14DB SWAP3 PUSH1 0x1 PUSH1 0x1 PUSH1 0x70 SHL SUB AND SWAP2 DUP6 SWAP2 PUSH4 0x70A08231 SWAP2 PUSH1 0x24 DUP1 DUP3 ADD SWAP3 PUSH1 0x20 SWAP3 SWAP1 SWAP2 SWAP1 DUP3 SWAP1 SUB ADD DUP2 DUP7 DUP1 EXTCODESIZE ISZERO DUP1 ISZERO PUSH2 0x14A3 JUMPI PUSH1 0x0 DUP1 REVERT JUMPDEST POP GAS STATICCALL ISZERO DUP1 ISZERO PUSH2 0x14B7 JUMPI RETURNDATASIZE PUSH1 0x0 DUP1 RETURNDATACOPY RETURNDATASIZE PUSH1 0x0 REVERT JUMPDEST POP POP POP POP PUSH1 0x40 MLOAD RETURNDATASIZE PUSH1 0x20 DUP2 LT ISZERO PUSH2 0x14CD JUMPI PUSH1 0x0 DUP1 REVERT JUMPDEST POP MLOAD SWAP1 PUSH4 0xFFFFFFFF PUSH2 0x1AE9 AND JUMP JUMPDEST PUSH2 0x18EC JUMP JUMPDEST PUSH1 0x8 SLOAD PUSH1 0x40 DUP1 MLOAD PUSH4 0x70A08231 PUSH1 0xE0 SHL DUP2 MSTORE ADDRESS PUSH1 0x4 DUP3 ADD MSTORE SWAP1 MLOAD PUSH2 0x1547 SWAP3 DUP5 SWAP3 DUP8 SWAP3 PUSH2 0x14DB SWAP3 PUSH1 0x1 PUSH1 0x70 SHL SWAP1 DIV PUSH1 0x1 PUSH1 0x1 PUSH1 0x70 SHL SUB AND SWAP2 PUSH1 0x1 PUSH1 0x1 PUSH1 0xA0 SHL SUB DUP7 AND SWAP2 PUSH4 0x70A08231 SWAP2 PUSH1 0x24 DUP1 DUP3 ADD SWAP3 PUSH1 0x20 SWAP3 SWAP1 SWAP2 SWAP1 DUP3 SWAP1 SUB ADD DUP2 DUP7 DUP1 EXTCODESIZE ISZERO DUP1 ISZERO PUSH2 0x14A3 JUMPI PUSH1 0x0 DUP1 REVERT JUMPDEST POP POP PUSH1 0x1 PUSH1 0xC SSTORE POP JUMP JUMPDEST PUSH1 0x5 SLOAD PUSH1 0x1 PUSH1 0x1 PUSH1 0xA0 SHL SUB AND DUP2 JUMP JUMPDEST PUSH1 0x7 SLOAD PUSH1 0x1 PUSH1 0x1 PUSH1 0xA0 SHL SUB AND DUP2 JUMP JUMPDEST TIMESTAMP DUP5 LT ISZERO PUSH2 0x15B7 JUMPI PUSH1 0x40 DUP1 MLOAD PUSH3 0x461BCD PUSH1 0xE5 SHL DUP2 MSTORE PUSH1 0x20 PUSH1 0x4 DUP3 ADD MSTORE PUSH1 0x10 PUSH1 0x24 DUP3 ADD MSTORE PUSH16 0x14185B98D85AD94E8811561412549151 PUSH1 0x82 SHL PUSH1 0x44 DUP3 ADD MSTORE SWAP1 MLOAD SWAP1 DUP2 SWAP1 SUB PUSH1 0x64 ADD SWAP1 REVERT JUMPDEST PUSH1 0x3 SLOAD PUSH1 0x1 PUSH1 0x1 PUSH1 0xA0 SHL SUB DUP1 DUP10 AND PUSH1 0x0 DUP2 DUP2 MSTORE PUSH1 0x4 PUSH1 0x20 SWAP1 DUP2 MSTORE PUSH1 0x40 DUP1 DUP4 KECCAK256 DUP1 SLOAD PUSH1 0x1 DUP1 DUP3 ADD SWAP1 SWAP3 SSTORE DUP3 MLOAD PUSH32 0x6E71EDAE12B1B97F4D1F60370FEF10105FA2FAAE0126114A169C64845D6126C9 DUP2 DUP7 ADD MSTORE DUP1 DUP5 ADD SWAP7 SWAP1 SWAP7 MSTORE SWAP6 DUP14 AND PUSH1 0x60 DUP7 ADD MSTORE PUSH1 0x80 DUP6 ADD DUP13 SWAP1 MSTORE PUSH1 0xA0 DUP6 ADD SWAP6 SWAP1 SWAP6 MSTORE PUSH1 0xC0 DUP1 DUP6 ADD DUP12 SWAP1 MSTORE DUP2 MLOAD DUP1 DUP7 SUB SWAP1 SWAP2 ADD DUP2 MSTORE PUSH1 0xE0 DUP6 ADD DUP3 MSTORE DUP1 MLOAD SWAP1 DUP4 ADD KECCAK256 PUSH2 0x1901 PUSH1 0xF0 SHL PUSH2 0x100 DUP7 ADD MSTORE PUSH2 0x102 DUP6 ADD SWAP7 SWAP1 SWAP7 MSTORE PUSH2 0x122 DUP1 DUP6 ADD SWAP7 SWAP1 SWAP7 MSTORE DUP1 MLOAD DUP1 DUP6 SUB SWAP1 SWAP7 ADD DUP7 MSTORE PUSH2 0x142 DUP5 ADD DUP1 DUP3 MSTORE DUP7 MLOAD SWAP7 DUP4 ADD SWAP7 SWAP1 SWAP7 KECCAK256 SWAP6 DUP4 SWAP1 MSTORE PUSH2 0x162 DUP5 ADD DUP1 DUP3 MSTORE DUP7 SWAP1 MSTORE PUSH1 0xFF DUP10 AND PUSH2 0x182 DUP6 ADD MSTORE PUSH2 0x1A2 DUP5 ADD DUP9 SWAP1 MSTORE PUSH2 0x1C2 DUP5 ADD DUP8 SWAP1 MSTORE MLOAD SWAP2 SWAP4 SWAP3 PUSH2 0x1E2 DUP1 DUP3 ADD SWAP4 PUSH1 0x1F NOT DUP2 ADD SWAP3 DUP2 SWAP1 SUB SWAP1 SWAP2 ADD SWAP1 DUP6 GAS STATICCALL ISZERO DUP1 ISZERO PUSH2 0x16D2 JUMPI RETURNDATASIZE PUSH1 0x0 DUP1 RETURNDATACOPY RETURNDATASIZE PUSH1 0x0 REVERT JUMPDEST POP POP PUSH1 0x40 MLOAD PUSH1 0x1F NOT ADD MLOAD SWAP2 POP POP PUSH1 0x1 PUSH1 0x1 PUSH1 0xA0 SHL SUB DUP2 AND ISZERO DUP1 ISZERO SWAP1 PUSH2 0x1708 JUMPI POP DUP9 PUSH1 0x1 PUSH1 0x1 PUSH1 0xA0 SHL SUB AND DUP2 PUSH1 0x1 PUSH1 0x1 PUSH1 0xA0 SHL SUB AND EQ JUMPDEST PUSH2 0x1759 JUMPI PUSH1 0x40 DUP1 MLOAD PUSH3 0x461BCD PUSH1 0xE5 SHL DUP2 MSTORE PUSH1 0x20 PUSH1 0x4 DUP3 ADD MSTORE PUSH1 0x1A PUSH1 0x24 DUP3 ADD MSTORE PUSH32 0x50616E63616B653A20494E56414C49445F5349474E4154555245000000000000 PUSH1 0x44 DUP3 ADD MSTORE SWAP1 MLOAD SWAP1 DUP2 SWAP1 SUB PUSH1 0x64 ADD SWAP1 REVERT JUMPDEST PUSH2 0x1764 DUP10 DUP10 DUP10 PUSH2 0x1CFC JUMP JUMPDEST POP POP POP POP POP POP POP POP POP JUMP JUMPDEST PUSH1 0x2 PUSH1 0x20 SWAP1 DUP2 MSTORE PUSH1 0x0 SWAP3 DUP4 MSTORE PUSH1 0x40 DUP1 DUP5 KECCAK256 SWAP1 SWAP2 MSTORE SWAP1 DUP3 MSTORE SWAP1 KECCAK256 SLOAD DUP2 JUMP JUMPDEST PUSH1 0xC SLOAD PUSH1 0x1 EQ PUSH2 0x17D5 JUMPI PUSH1 0x40 DUP1 MLOAD PUSH3 0x461BCD PUSH1 0xE5 SHL DUP2 MSTORE PUSH1 0x20 PUSH1 0x4 DUP3 ADD MSTORE PUSH1 0xF PUSH1 0x24 DUP3 ADD MSTORE PUSH15 0x14185B98D85AD94E881313D0D2D151 PUSH1 0x8A SHL PUSH1 0x44 DUP3 ADD MSTORE SWAP1 MLOAD SWAP1 DUP2 SWAP1 SUB PUSH1 0x64 ADD SWAP1 REVERT JUMPDEST PUSH1 0x0 PUSH1 0xC SSTORE PUSH1 0x6 SLOAD PUSH1 0x40 DUP1 MLOAD PUSH4 0x70A08231 PUSH1 0xE0 SHL DUP2 MSTORE ADDRESS PUSH1 0x4 DUP3 ADD MSTORE SWAP1 MLOAD PUSH2 0x18E5 SWAP3 PUSH1 0x1 PUSH1 0x1 PUSH1 0xA0 SHL SUB AND SWAP2 PUSH4 0x70A08231 SWAP2 PUSH1 0x24 DUP1 DUP4 ADD SWAP3 PUSH1 0x20 SWAP3 SWAP2 SWAP1 DUP3 SWAP1 SUB ADD DUP2 DUP7 DUP1 EXTCODESIZE ISZERO DUP1 ISZERO PUSH2 0x1826 JUMPI PUSH1 0x0 DUP1 REVERT JUMPDEST POP GAS STATICCALL ISZERO DUP1 ISZERO PUSH2 0x183A JUMPI RETURNDATASIZE PUSH1 0x0 DUP1 RETURNDATACOPY RETURNDATASIZE PUSH1 0x0 REVERT JUMPDEST POP POP POP POP PUSH1 0x40 MLOAD RETURNDATASIZE PUSH1 0x20 DUP2 LT ISZERO PUSH2 0x1850 JUMPI PUSH1 0x0 DUP1 REVERT JUMPDEST POP MLOAD PUSH1 0x7 SLOAD PUSH1 0x40 DUP1 MLOAD PUSH4 0x70A08231 PUSH1 0xE0 SHL DUP2 MSTORE ADDRESS PUSH1 0x4 DUP3 ADD MSTORE SWAP1 MLOAD PUSH1 0x1 PUSH1 0x1 PUSH1 0xA0 SHL SUB SWAP1 SWAP3 AND SWAP2 PUSH4 0x70A08231 SWAP2 PUSH1 0x24 DUP1 DUP3 ADD SWAP3 PUSH1 0x20 SWAP3 SWAP1 SWAP2 SWAP1 DUP3 SWAP1 SUB ADD DUP2 DUP7 DUP1 EXTCODESIZE ISZERO DUP1 ISZERO PUSH2 0x189D JUMPI PUSH1 0x0 DUP1 REVERT JUMPDEST POP GAS STATICCALL ISZERO DUP1 ISZERO PUSH2 0x18B1 JUMPI RETURNDATASIZE PUSH1 0x0 DUP1 RETURNDATACOPY RETURNDATASIZE PUSH1 0x0 REVERT JUMPDEST POP POP POP POP PUSH1 0x40 MLOAD RETURNDATASIZE PUSH1 0x20 DUP2 LT ISZERO PUSH2 0x18C7 JUMPI PUSH1 0x0 DUP1 REVERT JUMPDEST POP MLOAD PUSH1 0x8 SLOAD PUSH1 0x1 PUSH1 0x1 PUSH1 0x70 SHL SUB DUP1 DUP3 AND SWAP2 PUSH1 0x1 PUSH1 0x70 SHL SWAP1 DIV AND PUSH2 0x1B39 JUMP JUMPDEST PUSH1 0x1 PUSH1 0xC SSTORE JUMP JUMPDEST PUSH1 0x40 DUP1 MLOAD DUP1 DUP3 ADD DUP3 MSTORE PUSH1 0x19 DUP2 MSTORE PUSH32 0x7472616E7366657228616464726573732C75696E743235362900000000000000 PUSH1 0x20 SWAP2 DUP3 ADD MSTORE DUP2 MLOAD PUSH1 0x1 PUSH1 0x1 PUSH1 0xA0 SHL SUB DUP6 DUP2 AND PUSH1 0x24 DUP4 ADD MSTORE PUSH1 0x44 DUP1 DUP4 ADD DUP7 SWAP1 MSTORE DUP5 MLOAD DUP1 DUP5 SUB SWAP1 SWAP2 ADD DUP2 MSTORE PUSH1 0x64 SWAP1 SWAP3 ADD DUP5 MSTORE SWAP2 DUP2 ADD DUP1 MLOAD PUSH1 0x1 PUSH1 0x1 PUSH1 0xE0 SHL SUB AND PUSH4 0xA9059CBB PUSH1 0xE0 SHL OR DUP2 MSTORE SWAP3 MLOAD DUP2 MLOAD PUSH1 0x0 SWAP5 PUSH1 0x60 SWAP5 DUP10 AND SWAP4 SWAP3 SWAP2 DUP3 SWAP2 SWAP1 DUP1 DUP4 DUP4 JUMPDEST PUSH1 0x20 DUP4 LT PUSH2 0x1999 JUMPI DUP1 MLOAD DUP3 MSTORE PUSH1 0x1F NOT SWAP1 SWAP3 ADD SWAP2 PUSH1 0x20 SWAP2 DUP3 ADD SWAP2 ADD PUSH2 0x197A JUMP JUMPDEST PUSH1 0x1 DUP4 PUSH1 0x20 SUB PUSH2 0x100 EXP SUB DUP1 NOT DUP3 MLOAD AND DUP2 DUP5 MLOAD AND DUP1 DUP3 OR DUP6 MSTORE POP POP POP POP POP POP SWAP1 POP ADD SWAP2 POP POP PUSH1 0x0 PUSH1 0x40 MLOAD DUP1 DUP4 SUB DUP2 PUSH1 0x0 DUP7 GAS CALL SWAP2 POP POP RETURNDATASIZE DUP1 PUSH1 0x0 DUP2 EQ PUSH2 0x19FB JUMPI PUSH1 0x40 MLOAD SWAP2 POP PUSH1 0x1F NOT PUSH1 0x3F RETURNDATASIZE ADD AND DUP3 ADD PUSH1 0x40 MSTORE RETURNDATASIZE DUP3 MSTORE RETURNDATASIZE PUSH1 0x0 PUSH1 0x20 DUP5 ADD RETURNDATACOPY PUSH2 0x1A00 JUMP JUMPDEST PUSH1 0x60 SWAP2 POP JUMPDEST POP SWAP2 POP SWAP2 POP DUP2 DUP1 ISZERO PUSH2 0x1A2E JUMPI POP DUP1 MLOAD ISZERO DUP1 PUSH2 0x1A2E JUMPI POP DUP1 DUP1 PUSH1 0x20 ADD SWAP1 MLOAD PUSH1 0x20 DUP2 LT ISZERO PUSH2 0x1A2B JUMPI PUSH1 0x0 DUP1 REVERT JUMPDEST POP MLOAD JUMPDEST PUSH2 0x1A7F JUMPI PUSH1 0x40 DUP1 MLOAD PUSH3 0x461BCD PUSH1 0xE5 SHL DUP2 MSTORE PUSH1 0x20 PUSH1 0x4 DUP3 ADD MSTORE PUSH1 0x18 PUSH1 0x24 DUP3 ADD MSTORE PUSH32 0x50616E63616B653A205452414E534645525F4641494C45440000000000000000 PUSH1 0x44 DUP3 ADD MSTORE SWAP1 MLOAD SWAP1 DUP2 SWAP1 SUB PUSH1 0x64 ADD SWAP1 REVERT JUMPDEST POP POP POP POP POP JUMP JUMPDEST PUSH1 0x0 DUP2 ISZERO DUP1 PUSH2 0x1AA1 JUMPI POP POP DUP1 DUP3 MUL DUP3 DUP3 DUP3 DUP2 PUSH2 0x1A9E JUMPI INVALID JUMPDEST DIV EQ JUMPDEST PUSH2 0xB71 JUMPI PUSH1 0x40 DUP1 MLOAD PUSH3 0x461BCD PUSH1 0xE5 SHL DUP2 MSTORE PUSH1 0x20 PUSH1 0x4 DUP3 ADD MSTORE PUSH1 0x14 PUSH1 0x24 DUP3 ADD MSTORE PUSH20 0x64732D6D6174682D6D756C2D6F766572666C6F77 PUSH1 0x60 SHL PUSH1 0x44 DUP3 ADD MSTORE SWAP1 MLOAD SWAP1 DUP2 SWAP1 SUB PUSH1 0x64 ADD SWAP1 REVERT JUMPDEST DUP1 DUP3 SUB DUP3 DUP2 GT ISZERO PUSH2 0xB71 JUMPI PUSH1 0x40 DUP1 MLOAD PUSH3 0x461BCD PUSH1 0xE5 SHL DUP2 MSTORE PUSH1 0x20 PUSH1 0x4 DUP3 ADD MSTORE PUSH1 0x15 PUSH1 0x24 DUP3 ADD MSTORE PUSH21 0x64732D6D6174682D7375622D756E646572666C6F77 PUSH1 0x58 SHL PUSH1 0x44 DUP3 ADD MSTORE SWAP1 MLOAD SWAP1 DUP2 SWAP1 SUB PUSH1 0x64 ADD SWAP1 REVERT JUMPDEST PUSH1 0x1 PUSH1 0x1 PUSH1 0x70 SHL SUB DUP5 GT DUP1 ISZERO SWAP1 PUSH2 0x1B57 JUMPI POP PUSH1 0x1 PUSH1 0x1 PUSH1 0x70 SHL SUB DUP4 GT ISZERO JUMPDEST PUSH2 0x1B9C JUMPI PUSH1 0x40 DUP1 MLOAD PUSH3 0x461BCD PUSH1 0xE5 SHL DUP2 MSTORE PUSH1 0x20 PUSH1 0x4 DUP3 ADD MSTORE PUSH1 0x11 PUSH1 0x24 DUP3 ADD MSTORE PUSH17 0x50616E63616B653A204F564552464C4F57 PUSH1 0x78 SHL PUSH1 0x44 DUP3 ADD MSTORE SWAP1 MLOAD SWAP1 DUP2 SWAP1 SUB PUSH1 0x64 ADD SWAP1 REVERT JUMPDEST PUSH1 0x8 SLOAD PUSH4 0xFFFFFFFF TIMESTAMP DUP2 AND SWAP2 PUSH1 0x1 PUSH1 0xE0 SHL SWAP1 DIV DUP2 AND DUP3 SUB SWAP1 DUP2 AND ISZERO DUP1 ISZERO SWAP1 PUSH2 0x1BCC JUMPI POP PUSH1 0x1 PUSH1 0x1 PUSH1 0x70 SHL SUB DUP5 AND ISZERO ISZERO JUMPDEST DUP1 ISZERO PUSH2 0x1BE0 JUMPI POP PUSH1 0x1 PUSH1 0x1 PUSH1 0x70 SHL SUB DUP4 AND ISZERO ISZERO JUMPDEST ISZERO PUSH2 0x1C51 JUMPI DUP1 PUSH4 0xFFFFFFFF AND PUSH2 0x1C0E DUP6 PUSH2 0x1BF9 DUP7 PUSH2 0x2129 JUMP JUMPDEST PUSH1 0x1 PUSH1 0x1 PUSH1 0xE0 SHL SUB AND SWAP1 PUSH4 0xFFFFFFFF PUSH2 0x213B AND JUMP JUMPDEST PUSH1 0x9 DUP1 SLOAD PUSH1 0x1 PUSH1 0x1 PUSH1 0xE0 SHL SUB SWAP3 SWAP1 SWAP3 AND SWAP3 SWAP1 SWAP3 MUL ADD SWAP1 SSTORE PUSH4 0xFFFFFFFF DUP2 AND PUSH2 0x1C39 DUP5 PUSH2 0x1BF9 DUP8 PUSH2 0x2129 JUMP JUMPDEST PUSH1 0xA DUP1 SLOAD PUSH1 0x1 PUSH1 0x1 PUSH1 0xE0 SHL SUB SWAP3 SWAP1 SWAP3 AND SWAP3 SWAP1 SWAP3 MUL ADD SWAP1 SSTORE JUMPDEST PUSH1 0x8 DUP1 SLOAD PUSH14 0xFFFFFFFFFFFFFFFFFFFFFFFFFFFF NOT AND PUSH1 0x1 PUSH1 0x1 PUSH1 0x70 SHL SUB DUP9 DUP2 AND SWAP2 SWAP1 SWAP2 OR PUSH14 0xFFFFFFFFFFFFFFFFFFFFFFFFFFFF PUSH1 0x70 SHL NOT AND PUSH1 0x1 PUSH1 0x70 SHL DUP9 DUP4 AND DUP2 MUL SWAP2 SWAP1 SWAP2 OR PUSH1 0x1 PUSH1 0x1 PUSH1 0xE0 SHL SUB AND PUSH1 0x1 PUSH1 0xE0 SHL PUSH4 0xFFFFFFFF DUP8 AND MUL OR SWAP3 DUP4 SWAP1 SSTORE PUSH1 0x40 DUP1 MLOAD DUP5 DUP5 AND DUP2 MSTORE SWAP2 SWAP1 SWAP4 DIV SWAP1 SWAP2 AND PUSH1 0x20 DUP3 ADD MSTORE DUP2 MLOAD PUSH32 0x1C411E9A96E071241C2F21F7726B17AE89E3CAB4C78BE50E062B03A9FFFBBAD1 SWAP3 SWAP2 DUP2 SWAP1 SUB SWAP1 SWAP2 ADD SWAP1 LOG1 POP POP POP POP POP POP JUMP JUMPDEST PUSH1 0x1 PUSH1 0x1 PUSH1 0xA0 SHL SUB DUP1 DUP5 AND PUSH1 0x0 DUP2 DUP2 MSTORE PUSH1 0x2 PUSH1 0x20 SWAP1 DUP2 MSTORE PUSH1 0x40 DUP1 DUP4 KECCAK256 SWAP5 DUP8 AND DUP1 DUP5 MSTORE SWAP5 DUP3 MSTORE SWAP2 DUP3 SWAP1 KECCAK256 DUP6 SWAP1 SSTORE DUP2 MLOAD DUP6 DUP2 MSTORE SWAP2 MLOAD PUSH32 0x8C5BE1E5EBEC7D5BD14F71427D1E84F3DD0314C0F7B2291E5B200AC8C7C3B925 SWAP3 DUP2 SWAP1 SUB SWAP1 SWAP2 ADD SWAP1 LOG3 POP POP POP JUMP JUMPDEST PUSH1 0x1 PUSH1 0x1 PUSH1 0xA0 SHL SUB DUP4 AND PUSH1 0x0 SWAP1 DUP2 MSTORE PUSH1 0x1 PUSH1 0x20 MSTORE PUSH1 0x40 SWAP1 KECCAK256 SLOAD PUSH2 0x1D87 SWAP1 DUP3 PUSH4 0xFFFFFFFF PUSH2 0x1AE9 AND JUMP JUMPDEST PUSH1 0x1 PUSH1 0x1 PUSH1 0xA0 SHL SUB DUP1 DUP6 AND PUSH1 0x0 SWAP1 DUP2 MSTORE PUSH1 0x1 PUSH1 0x20 MSTORE PUSH1 0x40 DUP1 DUP3 KECCAK256 SWAP4 SWAP1 SWAP4 SSTORE SWAP1 DUP5 AND DUP2 MSTORE KECCAK256 SLOAD PUSH2 0x1DBC SWAP1 DUP3 PUSH4 0xFFFFFFFF PUSH2 0x2160 AND JUMP JUMPDEST PUSH1 0x1 PUSH1 0x1 PUSH1 0xA0 SHL SUB DUP1 DUP5 AND PUSH1 0x0 DUP2 DUP2 MSTORE PUSH1 0x1 PUSH1 0x20 SWAP1 DUP2 MSTORE PUSH1 0x40 SWAP2 DUP3 SWAP1 KECCAK256 SWAP5 SWAP1 SWAP5 SSTORE DUP1 MLOAD DUP6 DUP2 MSTORE SWAP1 MLOAD SWAP2 SWAP4 SWAP3 DUP8 AND SWAP3 PUSH32 0xDDF252AD1BE2C89B69C2B068FC378DAA952BA7F163C4A11628F55A4DF523B3EF SWAP3 SWAP2 DUP3 SWAP1 SUB ADD SWAP1 LOG3 POP POP POP JUMP JUMPDEST PUSH1 0x0 DUP1 PUSH1 0x5 PUSH1 0x0 SWAP1 SLOAD SWAP1 PUSH2 0x100 EXP SWAP1 DIV PUSH1 0x1 PUSH1 0x1 PUSH1 0xA0 SHL SUB AND PUSH1 0x1 PUSH1 0x1 PUSH1 0xA0 SHL SUB AND PUSH4 0x17E7E58 PUSH1 0x40 MLOAD DUP2 PUSH4 0xFFFFFFFF AND PUSH1 0xE0 SHL DUP2 MSTORE PUSH1 0x4 ADD PUSH1 0x20 PUSH1 0x40 MLOAD DUP1 DUP4 SUB DUP2 DUP7 DUP1 EXTCODESIZE ISZERO DUP1 ISZERO PUSH2 0x1E69 JUMPI PUSH1 0x0 DUP1 REVERT JUMPDEST POP GAS STATICCALL ISZERO DUP1 ISZERO PUSH2 0x1E7D JUMPI RETURNDATASIZE PUSH1 0x0 DUP1 RETURNDATACOPY RETURNDATASIZE PUSH1 0x0 REVERT JUMPDEST POP POP POP POP PUSH1 0x40 MLOAD RETURNDATASIZE PUSH1 0x20 DUP2 LT ISZERO PUSH2 0x1E93 JUMPI PUSH1 0x0 DUP1 REVERT JUMPDEST POP MLOAD PUSH1 0xB SLOAD PUSH1 0x1 PUSH1 0x1 PUSH1 0xA0 SHL SUB DUP3 AND ISZERO DUP1 ISZERO SWAP5 POP SWAP2 SWAP3 POP SWAP1 PUSH2 0x1F77 JUMPI DUP1 ISZERO PUSH2 0x1F72 JUMPI PUSH1 0x0 PUSH2 0x1ED6 PUSH2 0xEA7 PUSH1 0x1 PUSH1 0x1 PUSH1 0x70 SHL SUB DUP9 DUP2 AND SWAP1 DUP9 AND PUSH4 0xFFFFFFFF PUSH2 0x1A86 AND JUMP JUMPDEST SWAP1 POP PUSH1 0x0 PUSH2 0x1EE3 DUP4 PUSH2 0x1F8B JUMP JUMPDEST SWAP1 POP DUP1 DUP3 GT ISZERO PUSH2 0x1F6F JUMPI PUSH1 0x0 PUSH2 0x1F16 PUSH1 0x8 PUSH2 0xA3F PUSH2 0x1F07 DUP7 DUP7 PUSH4 0xFFFFFFFF PUSH2 0x1AE9 AND JUMP JUMPDEST PUSH1 0x0 SLOAD SWAP1 PUSH4 0xFFFFFFFF PUSH2 0x1A86 AND JUMP JUMPDEST SWAP1 POP PUSH1 0x0 PUSH2 0x1F4B PUSH2 0x1F2E DUP5 PUSH1 0x8 PUSH4 0xFFFFFFFF PUSH2 0x1A86 AND JUMP JUMPDEST PUSH2 0x1F3F DUP7 PUSH1 0x11 PUSH4 0xFFFFFFFF PUSH2 0x1A86 AND JUMP JUMPDEST SWAP1 PUSH4 0xFFFFFFFF PUSH2 0x2160 AND JUMP JUMPDEST SWAP1 POP PUSH1 0x0 DUP2 DUP4 DUP2 PUSH2 0x1F58 JUMPI INVALID JUMPDEST DIV SWAP1 POP DUP1 ISZERO PUSH2 0x1F6B JUMPI PUSH2 0x1F6B DUP8 DUP3 PUSH2 0x1FDD JUMP JUMPDEST POP POP POP JUMPDEST POP POP JUMPDEST PUSH2 0x1F83 JUMP JUMPDEST DUP1 ISZERO PUSH2 0x1F83 JUMPI PUSH1 0x0 PUSH1 0xB SSTORE JUMPDEST POP POP SWAP3 SWAP2 POP POP JUMP JUMPDEST PUSH1 0x0 PUSH1 0x3 DUP3 GT ISZERO PUSH2 0x1FCE JUMPI POP DUP1 PUSH1 0x1 PUSH1 0x2 DUP3 DIV ADD JUMPDEST DUP2 DUP2 LT ISZERO PUSH2 0x1FC8 JUMPI DUP1 SWAP2 POP PUSH1 0x2 DUP2 DUP3 DUP6 DUP2 PUSH2 0x1FB7 JUMPI INVALID JUMPDEST DIV ADD DUP2 PUSH2 0x1FC0 JUMPI INVALID JUMPDEST DIV SWAP1 POP PUSH2 0x1FA0 JUMP JUMPDEST POP PUSH2 0x1FD8 JUMP JUMPDEST DUP2 ISZERO PUSH2 0x1FD8 JUMPI POP PUSH1 0x1 JUMPDEST SWAP2 SWAP1 POP JUMP JUMPDEST PUSH1 0x0 SLOAD PUSH2 0x1FF0 SWAP1 DUP3 PUSH4 0xFFFFFFFF PUSH2 0x2160 AND JUMP JUMPDEST PUSH1 0x0 SWAP1 DUP2 SSTORE PUSH1 0x1 PUSH1 0x1 PUSH1 0xA0 SHL SUB DUP4 AND DUP2 MSTORE PUSH1 0x1 PUSH1 0x20 MSTORE PUSH1 0x40 SWAP1 KECCAK256 SLOAD PUSH2 0x201B SWAP1 DUP3 PUSH4 0xFFFFFFFF PUSH2 0x2160 AND JUMP JUMPDEST PUSH1 0x1 PUSH1 0x1 PUSH1 0xA0 SHL SUB DUP4 AND PUSH1 0x0 DUP2 DUP2 MSTORE PUSH1 0x1 PUSH1 0x20 SWAP1 DUP2 MSTORE PUSH1 0x40 DUP1 DUP4 KECCAK256 SWAP5 SWAP1 SWAP5 SSTORE DUP4 MLOAD DUP6 DUP2 MSTORE SWAP4 MLOAD SWAP3 SWAP4 SWAP2 SWAP3 PUSH32 0xDDF252AD1BE2C89B69C2B068FC378DAA952BA7F163C4A11628F55A4DF523B3EF SWAP3 DUP2 SWAP1 SUB SWAP1 SWAP2 ADD SWAP1 LOG3 POP POP JUMP JUMPDEST PUSH1 0x0 DUP2 DUP4 LT PUSH2 0x2082 JUMPI DUP2 PUSH2 0x2084 JUMP JUMPDEST DUP3 JUMPDEST SWAP4 SWAP3 POP POP POP JUMP JUMPDEST PUSH1 0x1 PUSH1 0x1 PUSH1 0xA0 SHL SUB DUP3 AND PUSH1 0x0 SWAP1 DUP2 MSTORE PUSH1 0x1 PUSH1 0x20 MSTORE PUSH1 0x40 SWAP1 KECCAK256 SLOAD PUSH2 0x20B4 SWAP1 DUP3 PUSH4 0xFFFFFFFF PUSH2 0x1AE9 AND JUMP JUMPDEST PUSH1 0x1 PUSH1 0x1 PUSH1 0xA0 SHL SUB DUP4 AND PUSH1 0x0 SWAP1 DUP2 MSTORE PUSH1 0x1 PUSH1 0x20 MSTORE PUSH1 0x40 DUP2 KECCAK256 SWAP2 SWAP1 SWAP2 SSTORE SLOAD PUSH2 0x20E1 SWAP1 DUP3 PUSH4 0xFFFFFFFF PUSH2 0x1AE9 AND JUMP JUMPDEST PUSH1 0x0 SWAP1 DUP2 SSTORE PUSH1 0x40 DUP1 MLOAD DUP4 DUP2 MSTORE SWAP1 MLOAD PUSH1 0x1 PUSH1 0x1 PUSH1 0xA0 SHL SUB DUP6 AND SWAP2 PUSH32 0xDDF252AD1BE2C89B69C2B068FC378DAA952BA7F163C4A11628F55A4DF523B3EF SWAP2 SWAP1 DUP2 SWAP1 SUB PUSH1 0x20 ADD SWAP1 LOG3 POP POP JUMP JUMPDEST PUSH1 0x1 PUSH1 0x1 PUSH1 0x70 SHL SUB AND PUSH1 0x1 PUSH1 0x70 SHL MUL SWAP1 JUMP JUMPDEST PUSH1 0x0 PUSH1 0x1 PUSH1 0x1 PUSH1 0x70 SHL SUB DUP3 AND PUSH1 0x1 PUSH1 0x1 PUSH1 0xE0 SHL SUB DUP5 AND DUP2 PUSH2 0x2158 JUMPI INVALID JUMPDEST DIV SWAP4 SWAP3 POP POP POP JUMP JUMPDEST DUP1 DUP3 ADD DUP3 DUP2 LT ISZERO PUSH2 0xB71 JUMPI PUSH1 0x40 DUP1 MLOAD PUSH3 0x461BCD PUSH1 0xE5 SHL DUP2 MSTORE PUSH1 0x20 PUSH1 0x4 DUP3 ADD MSTORE PUSH1 0x14 PUSH1 0x24 DUP3 ADD MSTORE PUSH20 0x64732D6D6174682D6164642D6F766572666C6F77 PUSH1 0x60 SHL PUSH1 0x44 DUP3 ADD MSTORE SWAP1 MLOAD SWAP1 DUP2 SWAP1 SUB PUSH1 0x64 ADD SWAP1 REVERT INVALID POP PUSH2 0x6E63 PUSH2 0x6B65 GASPRICE KECCAK256 0x49 0x4E MSTORE8 SSTORE CHAINID CHAINID 0x49 NUMBER 0x49 GASLIMIT 0x4E SLOAD 0x5F 0x49 0x4E POP SSTORE SLOAD 0x5F COINBASE 0x4D 0x4F SSTORE 0x4E SLOAD POP PUSH2 0x6E63 PUSH2 0x6B65 GASPRICE KECCAK256 0x49 0x4E MSTORE8 SSTORE CHAINID CHAINID 0x49 NUMBER 0x49 GASLIMIT 0x4E SLOAD 0x5F 0x4C 0x49 MLOAD SSTORE 0x49 DIFFICULTY 0x49 SLOAD MSIZE 0x5F TIMESTAMP SSTORE MSTORE 0x4E GASLIMIT DIFFICULTY POP PUSH2 0x6E63 PUSH2 0x6B65 GASPRICE KECCAK256 0x49 0x4E MSTORE8 SSTORE CHAINID CHAINID 0x49 NUMBER 0x49 GASLIMIT 0x4E SLOAD 0x5F 0x4F SSTORE SLOAD POP SSTORE SLOAD 0x5F COINBASE 0x4D 0x4F SSTORE 0x4E SLOAD POP PUSH2 0x6E63 PUSH2 0x6B65 GASPRICE KECCAK256 0x49 0x4E MSTORE8 SSTORE CHAINID CHAINID 0x49 NUMBER 0x49 GASLIMIT 0x4E SLOAD 0x5F 0x4C 0x49 MLOAD SSTORE 0x49 DIFFICULTY 0x49 SLOAD MSIZE 0x5F 0x4D 0x49 0x4E SLOAD GASLIMIT DIFFICULTY LOG2 PUSH6 0x627A7A723158 KECCAK256 0xE1 JUMPI GT EXTCODESIZE 0xE5 PUSH10 0x76B2B8EE829449E963DB 0xF8 0x21 0xBC 0xE1 CODECOPY 0xCD ADDMOD SWAP3 SWAP7 0xF7 0x28 0x2E 0xC8 PUSH13 0xAC5464736F6C63430005100032 GASLIMIT 0x49 POP CALLDATACOPY BALANCE ORIGIN DIFFICULTY PUSH16 0x6D61696E28737472696E67206E616D65 0x2C PUSH20 0x7472696E672076657273696F6E2C75696E743235 CALLDATASIZE KECCAK256 PUSH4 0x6861696E 0x49 PUSH5 0x2C61646472 PUSH6 0x737320766572 PUSH10 0x6679696E67436F6E7472 PUSH2 0x6374 0x29 LOG2 PUSH6 0x627A7A723158 KECCAK256 INVALID 0xB4 PUSH9 0x20CA985ED711422E9 0xEA RETURNDATACOPY DUP13 GASLIMIT SWAP2 GT PUSH18 0xF32BFE7D3FCC098F86FF94882B64736F6C63 NUMBER STOP SDIV LT STOP ORIGIN "
				},
				"gasEstimates": {
					"creation": {
						"codeDepositCost": "2192600",
						"executionCost": "infinite",
						"totalCost": "infinite"
					},
					"external": {
						"INIT_CODE_PAIR_HASH()": "infinite",
						"allPairs(uint256)": "2015",
						"allPairsLength()": "1065",
						"createPair(address,address)": "infinite",
						"feeTo()": "1038",
						"feeToSetter()": "1060",
						"getPair(address,address)": "1322",
						"setFeeTo(address)": "22001",
						"setFeeToSetter(address)": "21935"
					}
				},
				"methodIdentifiers": {
					"INIT_CODE_PAIR_HASH()": "5855a25a",
					"allPairs(uint256)": "1e3dd18b",
					"allPairsLength()": "574f2ba3",
					"createPair(address,address)": "c9c65396",
					"feeTo()": "017e7e58",
					"feeToSetter()": "094b7415",
					"getPair(address,address)": "e6a43905",
					"setFeeTo(address)": "f46901ed",
					"setFeeToSetter(address)": "a2e74af6"
				}
			},
			"storageLayout": {
				"storage": [
					{
						"astId": 18,
						"contract": "DexSwap/DexFactory.sol:DexFactory",
						"label": "feeTo",
						"offset": 0,
						"slot": "0",
						"type": "t_address"
					},
					{
						"astId": 20,
						"contract": "DexSwap/DexFactory.sol:DexFactory",
						"label": "feeToSetter",
						"offset": 0,
						"slot": "1",
						"type": "t_address"
					},
					{
						"astId": 26,
						"contract": "DexSwap/DexFactory.sol:DexFactory",
						"label": "getPair",
						"offset": 0,
						"slot": "2",
						"type": "t_mapping(t_address,t_mapping(t_address,t_address))"
					},
					{
						"astId": 29,
						"contract": "DexSwap/DexFactory.sol:DexFactory",
						"label": "allPairs",
						"offset": 0,
						"slot": "3",
						"type": "t_array(t_address)dyn_storage"
					}
				],
				"types": {
					"t_address": {
						"encoding": "inplace",
						"label": "address",
						"numberOfBytes": "20"
					},
					"t_array(t_address)dyn_storage": {
						"base": "t_address",
						"encoding": "dynamic_array",
						"label": "address[]",
						"numberOfBytes": "32"
					},
					"t_mapping(t_address,t_address)": {
						"encoding": "mapping",
						"key": "t_address",
						"label": "mapping(address => address)",
						"numberOfBytes": "32",
						"value": "t_address"
					},
					"t_mapping(t_address,t_mapping(t_address,t_address))": {
						"encoding": "mapping",
						"key": "t_address",
						"label": "mapping(address => mapping(address => address))",
						"numberOfBytes": "32",
						"value": "t_mapping(t_address,t_address)"
					}
				}
			},
			"userdoc": {
				"methods": {}
			}
		}
	}
}