{
	"DexSwap/MultiCall.sol": {
		"Multicall3": {
			"abi": [
				{
					"inputs": [
						{
							"components": [
								{
									"internalType": "address",
									"name": "target",
									"type": "address"
								},
								{
									"internalType": "bytes",
									"name": "callData",
									"type": "bytes"
								}
							],
							"internalType": "struct Multicall3.Call[]",
							"name": "calls",
							"type": "tuple[]"
						}
					],
					"name": "aggregate",
					"outputs": [
						{
							"internalType": "uint256",
							"name": "blockNumber",
							"type": "uint256"
						},
						{
							"internalType": "bytes[]",
							"name": "returnData",
							"type": "bytes[]"
						}
					],
					"stateMutability": "payable",
					"type": "function"
				},
				{
					"inputs": [
						{
							"components": [
								{
									"internalType": "address",
									"name": "target",
									"type": "address"
								},
								{
									"internalType": "bool",
									"name": "allowFailure",
									"type": "bool"
								},
								{
									"internalType": "bytes",
									"name": "callData",
									"type": "bytes"
								}
							],
							"internalType": "struct Multicall3.Call3[]",
							"name": "calls",
							"type": "tuple[]"
						}
					],
					"name": "aggregate3",
					"outputs": [
						{
							"components": [
								{
									"internalType": "bool",
									"name": "success",
									"type": "bool"
								},
								{
									"internalType": "bytes",
									"name": "returnData",
									"type": "bytes"
								}
							],
							"internalType": "struct Multicall3.Result[]",
							"name": "returnData",
							"type": "tuple[]"
						}
					],
					"stateMutability": "payable",
					"type": "function"
				},
				{
					"inputs": [
						{
							"components": [
								{
									"internalType": "address",
									"name": "target",
									"type": "address"
								},
								{
									"internalType": "bool",
									"name": "allowFailure",
									"type": "bool"
								},
								{
									"internalType": "uint256",
									"name": "value",
									"type": "uint256"
								},
								{
									"internalType": "bytes",
									"name": "callData",
									"type": "bytes"
								}
							],
							"internalType": "struct Multicall3.Call3Value[]",
							"name": "calls",
							"type": "tuple[]"
						}
					],
					"name": "aggregate3Value",
					"outputs": [
						{
							"components": [
								{
									"internalType": "bool",
									"name": "success",
									"type": "bool"
								},
								{
									"internalType": "bytes",
									"name": "returnData",
									"type": "bytes"
								}
							],
							"internalType": "struct Multicall3.Result[]",
							"name": "returnData",
							"type": "tuple[]"
						}
					],
					"stateMutability": "payable",
					"type": "function"
				},
				{
					"inputs": [
						{
							"components": [
								{
									"internalType": "address",
									"name": "target",
									"type": "address"
								},
								{
									"internalType": "bytes",
									"name": "callData",
									"type": "bytes"
								}
							],
							"internalType": "struct Multicall3.Call[]",
							"name": "calls",
							"type": "tuple[]"
						}
					],
					"name": "blockAndAggregate",
					"outputs": [
						{
							"internalType": "uint256",
							"name": "blockNumber",
							"type": "uint256"
						},
						{
							"internalType": "bytes32",
							"name": "blockHash",
							"type": "bytes32"
						},
						{
							"components": [
								{
									"internalType": "bool",
									"name": "success",
									"type": "bool"
								},
								{
									"internalType": "bytes",
									"name": "returnData",
									"type": "bytes"
								}
							],
							"internalType": "struct Multicall3.Result[]",
							"name": "returnData",
							"type": "tuple[]"
						}
					],
					"stateMutability": "payable",
					"type": "function"
				},
				{
					"inputs": [],
					"name": "getBasefee",
					"outputs": [
						{
							"internalType": "uint256",
							"name": "basefee",
							"type": "uint256"
						}
					],
					"stateMutability": "view",
					"type": "function"
				},
				{
					"inputs": [
						{
							"internalType": "uint256",
							"name": "blockNumber",
							"type": "uint256"
						}
					],
					"name": "getBlockHash",
					"outputs": [
						{
							"internalType": "bytes32",
							"name": "blockHash",
							"type": "bytes32"
						}
					],
					"stateMutability": "view",
					"type": "function"
				},
				{
					"inputs": [],
					"name": "getBlockNumber",
					"outputs": [
						{
							"internalType": "uint256",
							"name": "blockNumber",
							"type": "uint256"
						}
					],
					"stateMutability": "view",
					"type": "function"
				},
				{
					"inputs": [],
					"name": "getChainId",
					"outputs": [
						{
							"internalType": "uint256",
							"name": "chainid",
							"type": "uint256"
						}
					],
					"stateMutability": "view",
					"type": "function"
				},
				{
					"inputs": [],
					"name": "getCurrentBlockCoinbase",
					"outputs": [
						{
							"internalType": "address",
							"name": "coinbase",
							"type": "address"
						}
					],
					"stateMutability": "view",
					"type": "function"
				},
				{
					"inputs": [],
					"name": "getCurrentBlockDifficulty",
					"outputs": [
						{
							"internalType": "uint256",
							"name": "difficulty",
							"type": "uint256"
						}
					],
					"stateMutability": "view",
					"type": "function"
				},
				{
					"inputs": [],
					"name": "getCurrentBlockGasLimit",
					"outputs": [
						{
							"internalType": "uint256",
							"name": "gaslimit",
							"type": "uint256"
						}
					],
					"stateMutability": "view",
					"type": "function"
				},
				{
					"inputs": [],
					"name": "getCurrentBlockTimestamp",
					"outputs": [
						{
							"internalType": "uint256",
							"name": "timestamp",
							"type": "uint256"
						}
					],
					"stateMutability": "view",
					"type": "function"
				},
				{
					"inputs": [
						{
							"internalType": "address",
							"name": "addr",
							"type": "address"
						}
					],
					"name": "getEthBalance",
					"outputs": [
						{
							"internalType": "uint256",
							"name": "balance",
							"type": "uint256"
						}
					],
					"stateMutability": "view",
					"type": "function"
				},
				{
					"inputs": [],
					"name": "getLastBlockHash",
					"outputs": [
						{
							"internalType": "bytes32",
							"name": "blockHash",
							"type": "bytes32"
						}
					],
					"stateMutability": "view",
					"type": "function"
				},
				{
					"inputs": [
						{
							"internalType": "bool",
							"name": "requireSuccess",
							"type": "bool"
						},
						{
							"components": [
								{
									"internalType": "address",
									"name": "target",
									"type": "address"
								},
								{
									"internalType": "bytes",
									"name": "callData",
									"type": "bytes"
								}
							],
							"internalType": "struct Multicall3.Call[]",
							"name": "calls",
							"type": "tuple[]"
						}
					],
					"name": "tryAggregate",
					"outputs": [
						{
							"components": [
								{
									"internalType": "bool",
									"name": "success",
									"type": "bool"
								},
								{
									"internalType": "bytes",
									"name": "returnData",
									"type": "bytes"
								}
							],
							"internalType": "struct Multicall3.Result[]",
							"name": "returnData",
							"type": "tuple[]"
						}
					],
					"stateMutability": "payable",
					"type": "function"
				},
				{
					"inputs": [
						{
							"internalType": "bool",
							"name": "requireSuccess",
							"type": "bool"
						},
						{
							"components": [
								{
									"internalType": "address",
									"name": "target",
									"type": "address"
								},
								{
									"internalType": "bytes",
									"name": "callData",
									"type": "bytes"
								}
							],
							"internalType": "struct Multicall3.Call[]",
							"name": "calls",
							"type": "tuple[]"
						}
					],
					"name": "tryBlockAndAggregate",
					"outputs": [
						{
							"internalType": "uint256",
							"name": "blockNumber",
							"type": "uint256"
						},
						{
							"internalType": "bytes32",
							"name": "blockHash",
							"type": "bytes32"
						},
						{
							"components": [
								{
									"internalType": "bool",
									"name": "success",
									"type": "bool"
								},
								{
									"internalType": "bytes",
									"name": "returnData",
									"type": "bytes"
								}
							],
							"internalType": "struct Multicall3.Result[]",
							"name": "returnData",
							"type": "tuple[]"
						}
					],
					"stateMutability": "payable",
					"type": "function"
				}
			],
			"devdoc": {
				"author": "Michael Elliot <mike@makerdao.com>Joshua Levine <joshua@makerdao.com>Nick Johnson <arachnid@notdot.net>Andreas Bigger <andreas@nascent.xyz>Matt Solomon <matt@mattsolomon.dev>",
				"details": "Multicall & Multicall2 backwards-compatibleAggregate methods are marked `payable` to save 24 gas per call",
				"kind": "dev",
				"methods": {
					"aggregate((address,bytes)[])": {
						"params": {
							"calls": "An array of Call structs"
						},
						"returns": {
							"blockNumber": "The block number where the calls were executed",
							"returnData": "An array of bytes containing the responses"
						}
					},
					"aggregate3((address,bool,bytes)[])": {
						"params": {
							"calls": "An array of Call3 structs"
						},
						"returns": {
							"returnData": "An array of Result structs"
						}
					},
					"aggregate3Value((address,bool,uint256,bytes)[])": {
						"params": {
							"calls": "An array of Call3Value structs"
						},
						"returns": {
							"returnData": "An array of Result structs"
						}
					},
					"blockAndAggregate((address,bytes)[])": {
						"params": {
							"calls": "An array of Call structs"
						},
						"returns": {
							"blockHash": "The hash of the block where the calls were executed",
							"blockNumber": "The block number where the calls were executed",
							"returnData": "An array of Result structs"
						}
					},
					"getBlockHash(uint256)": {
						"params": {
							"blockNumber": "The block number"
						}
					},
					"tryAggregate(bool,(address,bytes)[])": {
						"params": {
							"calls": "An array of Call structs",
							"requireSuccess": "If true, require all calls to succeed"
						},
						"returns": {
							"returnData": "An array of Result structs"
						}
					},
					"tryBlockAndAggregate(bool,(address,bytes)[])": {
						"params": {
							"calls": "An array of Call structs"
						},
						"returns": {
							"blockHash": "The hash of the block where the calls were executed",
							"blockNumber": "The block number where the calls were executed",
							"returnData": "An array of Result structs"
						}
					}
				},
				"title": "Multicall3",
				"version": 1
			},
			"evm": {
				"assembly": "    /* \"DexSwap/MultiCall.sol\":576:9683  contract Multicall3 {... */\n  mstore(0x40, 0x80)\n  callvalue\n  dup1\n  iszero\n  tag_1\n  jumpi\n  0x00\n  dup1\n  revert\ntag_1:\n  pop\n  dataSize(sub_0)\n  dup1\n  dataOffset(sub_0)\n  0x00\n  codecopy\n  0x00\n  return\nstop\n\nsub_0: assembly {\n        /* \"DexSwap/MultiCall.sol\":576:9683  contract Multicall3 {... */\n      mstore(0x40, 0x80)\n      jumpi(tag_1, lt(calldatasize, 0x04))\n      shr(0xe0, calldataload(0x00))\n      dup1\n      0x4d2301cc\n      gt\n      tag_18\n      jumpi\n      dup1\n      0xa8b0574e\n      gt\n      tag_19\n      jumpi\n      dup1\n      0xa8b0574e\n      eq\n      tag_14\n      jumpi\n      dup1\n      0xbce38bd7\n      eq\n      tag_15\n      jumpi\n      dup1\n      0xc3077fa9\n      eq\n      tag_16\n      jumpi\n      dup1\n      0xee82ac5e\n      eq\n      tag_17\n      jumpi\n      0x00\n      dup1\n      revert\n    tag_19:\n      dup1\n      0x4d2301cc\n      eq\n      tag_10\n      jumpi\n      dup1\n      0x72425d9d\n      eq\n      tag_11\n      jumpi\n      dup1\n      0x82ad56cb\n      eq\n      tag_12\n      jumpi\n      dup1\n      0x86d516e8\n      eq\n      tag_13\n      jumpi\n      0x00\n      dup1\n      revert\n    tag_18:\n      dup1\n      0x3408e470\n      gt\n      tag_20\n      jumpi\n      dup1\n      0x3408e470\n      eq\n      tag_6\n      jumpi\n      dup1\n      0x399542e9\n      eq\n      tag_7\n      jumpi\n      dup1\n      0x3e64a696\n      eq\n      tag_8\n      jumpi\n      dup1\n      0x42cbb15c\n      eq\n      tag_9\n      jumpi\n      0x00\n      dup1\n      revert\n    tag_20:\n      dup1\n      0x0f28c97d\n      eq\n      tag_2\n      jumpi\n      dup1\n      0x174dea71\n      eq\n      tag_3\n      jumpi\n      dup1\n      0x252dba42\n      eq\n      tag_4\n      jumpi\n      dup1\n      0x27e86d6e\n      eq\n      tag_5\n      jumpi\n    tag_1:\n      0x00\n      dup1\n      revert\n        /* \"DexSwap/MultiCall.sol\":8770:8890  function getCurrentBlockTimestamp() public view returns (uint256 timestamp) {... */\n    tag_2:\n      callvalue\n      dup1\n      iszero\n      tag_21\n      jumpi\n      0x00\n      dup1\n      revert\n    tag_21:\n      pop\n        /* \"DexSwap/MultiCall.sol\":8868:8883  block.timestamp */\n      timestamp\n        /* \"DexSwap/MultiCall.sol\":8770:8890  function getCurrentBlockTimestamp() public view returns (uint256 timestamp) {... */\n    tag_22:\n      mload(0x40)\n        /* \"#utility.yul\":160:185   */\n      swap1\n      dup2\n      mstore\n        /* \"#utility.yul\":148:150   */\n      0x20\n        /* \"#utility.yul\":133:151   */\n      add\n        /* \"DexSwap/MultiCall.sol\":8770:8890  function getCurrentBlockTimestamp() public view returns (uint256 timestamp) {... */\n    tag_24:\n      mload(0x40)\n      dup1\n      swap2\n      sub\n      swap1\n      return\n        /* \"DexSwap/MultiCall.sol\":5845:7806  function aggregate3Value(Call3Value[] calldata calls) public payable returns (Result[] memory returnData) {... */\n    tag_3:\n      tag_26\n      tag_27\n      calldatasize\n      0x04\n      tag_28\n      jump\t// in\n    tag_27:\n      tag_29\n      jump\t// in\n    tag_26:\n      mload(0x40)\n      tag_24\n      swap2\n      swap1\n      tag_31\n      jump\t// in\n        /* \"DexSwap/MultiCall.sol\":1240:1774  function aggregate(Call[] calldata calls) public payable returns (uint256 blockNumber, bytes[] memory returnData) {... */\n    tag_4:\n      tag_32\n      tag_33\n      calldatasize\n      0x04\n      tag_28\n      jump\t// in\n    tag_33:\n      tag_35\n      jump\t// in\n    tag_32:\n      mload(0x40)\n      tag_24\n      swap3\n      swap2\n      swap1\n      tag_37\n      jump\t// in\n        /* \"DexSwap/MultiCall.sol\":9134:9292  function getLastBlockHash() public view returns (bytes32 blockHash) {... */\n    tag_5:\n      callvalue\n      dup1\n      iszero\n      tag_38\n      jumpi\n      0x00\n      dup1\n      revert\n    tag_38:\n      pop\n        /* \"DexSwap/MultiCall.sol\":9258:9270  block.number */\n      number\n      not(0x00)\n        /* \"DexSwap/MultiCall.sol\":9258:9274  block.number - 1 */\n      add\n        /* \"DexSwap/MultiCall.sol\":9248:9275  blockhash(block.number - 1) */\n      blockhash\n        /* \"DexSwap/MultiCall.sol\":9134:9292  function getLastBlockHash() public view returns (bytes32 blockHash) {... */\n      jump(tag_22)\n        /* \"DexSwap/MultiCall.sol\":9581:9681  function getChainId() public view returns (uint256 chainid) {... */\n    tag_6:\n      callvalue\n      dup1\n      iszero\n      tag_43\n      jumpi\n      0x00\n      dup1\n      revert\n    tag_43:\n      pop\n        /* \"DexSwap/MultiCall.sol\":9661:9674  block.chainid */\n      chainid\n        /* \"DexSwap/MultiCall.sol\":9581:9681  function getChainId() public view returns (uint256 chainid) {... */\n      jump(tag_22)\n        /* \"DexSwap/MultiCall.sol\":3006:3318  function tryBlockAndAggregate(bool requireSuccess, Call[] calldata calls) public payable returns (uint256 blockNumber, bytes32 blockHash, Result[] memory returnData) {... */\n    tag_7:\n      tag_47\n      tag_48\n      calldatasize\n      0x04\n      tag_49\n      jump\t// in\n    tag_48:\n      tag_50\n      jump\t// in\n    tag_47:\n      mload(0x40)\n      tag_24\n      swap4\n      swap3\n      swap2\n      swap1\n      tag_52\n      jump\t// in\n        /* \"DexSwap/MultiCall.sol\":9438:9538  function getBasefee() public view returns (uint256 basefee) {... */\n    tag_8:\n      callvalue\n      dup1\n      iszero\n      tag_53\n      jumpi\n      0x00\n      dup1\n      revert\n    tag_53:\n      pop\n        /* \"DexSwap/MultiCall.sol\":9518:9531  block.basefee */\n      basefee\n        /* \"DexSwap/MultiCall.sol\":9438:9538  function getBasefee() public view returns (uint256 basefee) {... */\n      jump(tag_22)\n        /* \"DexSwap/MultiCall.sol\":8103:8214  function getBlockNumber() public view returns (uint256 blockNumber) {... */\n    tag_9:\n      callvalue\n      dup1\n      iszero\n      tag_57\n      jumpi\n      0x00\n      dup1\n      revert\n    tag_57:\n      pop\n        /* \"DexSwap/MultiCall.sol\":8195:8207  block.number */\n      number\n        /* \"DexSwap/MultiCall.sol\":8103:8214  function getBlockNumber() public view returns (uint256 blockNumber) {... */\n      jump(tag_22)\n        /* \"DexSwap/MultiCall.sol\":8957:9071  function getEthBalance(address addr) public view returns (uint256 balance) {... */\n    tag_10:\n      callvalue\n      dup1\n      iszero\n      tag_61\n      jumpi\n      0x00\n      dup1\n      revert\n    tag_61:\n      pop\n      tag_22\n      tag_63\n      calldatasize\n      0x04\n      tag_64\n      jump\t// in\n    tag_63:\n      sub(shl(0xa0, 0x01), 0x01)\n        /* \"DexSwap/MultiCall.sol\":9052:9064  addr.balance */\n      and\n      balance\n      swap1\n        /* \"DexSwap/MultiCall.sol\":8957:9071  function getEthBalance(address addr) public view returns (uint256 balance) {... */\n      jump\n        /* \"DexSwap/MultiCall.sol\":8430:8554  function getCurrentBlockDifficulty() public view returns (uint256 difficulty) {... */\n    tag_11:\n      callvalue\n      dup1\n      iszero\n      tag_67\n      jumpi\n      0x00\n      dup1\n      revert\n    tag_67:\n      pop\n        /* \"DexSwap/MultiCall.sol\":8531:8547  block.difficulty */\n      difficulty\n        /* \"DexSwap/MultiCall.sol\":8430:8554  function getCurrentBlockDifficulty() public view returns (uint256 difficulty) {... */\n      jump(tag_22)\n        /* \"DexSwap/MultiCall.sol\":4113:5607  function aggregate3(Call3[] calldata calls) public payable returns (Result[] memory returnData) {... */\n    tag_12:\n      tag_26\n      tag_72\n      calldatasize\n      0x04\n      tag_28\n      jump\t// in\n    tag_72:\n      tag_74\n      jump\t// in\n        /* \"DexSwap/MultiCall.sol\":8604:8720  function getCurrentBlockGasLimit() public view returns (uint256 gaslimit) {... */\n    tag_13:\n      callvalue\n      dup1\n      iszero\n      tag_76\n      jumpi\n      0x00\n      dup1\n      revert\n    tag_76:\n      pop\n        /* \"DexSwap/MultiCall.sol\":8699:8713  block.gaslimit */\n      gaslimit\n        /* \"DexSwap/MultiCall.sol\":8604:8720  function getCurrentBlockGasLimit() public view returns (uint256 gaslimit) {... */\n      jump(tag_22)\n        /* \"DexSwap/MultiCall.sol\":8263:8379  function getCurrentBlockCoinbase() public view returns (address coinbase) {... */\n    tag_14:\n      callvalue\n      dup1\n      iszero\n      tag_80\n      jumpi\n      0x00\n      dup1\n      revert\n    tag_80:\n      pop\n      mload(0x40)\n        /* \"DexSwap/MultiCall.sol\":8358:8372  block.coinbase */\n      coinbase\n        /* \"#utility.yul\":6245:6296   */\n      dup2\n      mstore\n        /* \"#utility.yul\":6233:6235   */\n      0x20\n        /* \"#utility.yul\":6218:6236   */\n      add\n        /* \"DexSwap/MultiCall.sol\":8263:8379  function getCurrentBlockCoinbase() public view returns (address coinbase) {... */\n      tag_24\n        /* \"#utility.yul\":6099:6302   */\n      jump\n        /* \"DexSwap/MultiCall.sol\":2059:2624  function tryAggregate(bool requireSuccess, Call[] calldata calls) public payable returns (Result[] memory returnData) {... */\n    tag_15:\n      tag_26\n      tag_86\n      calldatasize\n      0x04\n      tag_49\n      jump\t// in\n    tag_86:\n      tag_87\n      jump\t// in\n        /* \"DexSwap/MultiCall.sol\":3700:3931  function blockAndAggregate(Call[] calldata calls) public payable returns (uint256 blockNumber, bytes32 blockHash, Result[] memory returnData) {... */\n    tag_16:\n      tag_47\n      tag_90\n      calldatasize\n      0x04\n      tag_28\n      jump\t// in\n    tag_90:\n      tag_91\n      jump\t// in\n        /* \"DexSwap/MultiCall.sol\":7922:8056  function getBlockHash(uint256 blockNumber) public view returns (bytes32 blockHash) {... */\n    tag_17:\n      callvalue\n      dup1\n      iszero\n      tag_93\n      jumpi\n      0x00\n      dup1\n      revert\n    tag_93:\n      pop\n      tag_22\n      tag_95\n      calldatasize\n      0x04\n      tag_96\n      jump\t// in\n    tag_95:\n        /* \"DexSwap/MultiCall.sol\":8027:8049  blockhash(blockNumber) */\n      blockhash\n      swap1\n        /* \"DexSwap/MultiCall.sol\":7922:8056  function getBlockHash(uint256 blockNumber) public view returns (bytes32 blockHash) {... */\n      jump\n        /* \"DexSwap/MultiCall.sol\":5845:7806  function aggregate3Value(Call3Value[] calldata calls) public payable returns (Result[] memory returnData) {... */\n    tag_29:\n        /* \"DexSwap/MultiCall.sol\":5923:5949  Result[] memory returnData */\n      0x60\n        /* \"DexSwap/MultiCall.sol\":5961:5983  uint256 valAccumulator */\n      0x00\n        /* \"DexSwap/MultiCall.sol\":6010:6015  calls */\n      dup3\n      dup1\n        /* \"DexSwap/MultiCall.sol\":6045:6065  new Result[](length) */\n      0xffffffffffffffff\n      dup2\n      gt\n      iszero\n      tag_102\n      jumpi\n      tag_102\n      tag_103\n      jump\t// in\n    tag_102:\n      mload(0x40)\n      swap1\n      dup1\n      dup3\n      mstore\n      dup1\n      0x20\n      mul\n      0x20\n      add\n      dup3\n      add\n      0x40\n      mstore\n      dup1\n      iszero\n      tag_104\n      jumpi\n      dup2\n      0x20\n      add\n    tag_105:\n      0x40\n      dup1\n      mload\n      dup1\n      dup3\n      add\n      swap1\n      swap2\n      mstore\n      0x00\n      dup2\n      mstore\n      0x60\n      0x20\n      dup3\n      add\n      mstore\n      dup2\n      mstore\n      0x20\n      add\n      swap1\n      0x01\n      swap1\n      sub\n      swap1\n      dup2\n      tag_105\n      jumpi\n      swap1\n      pop\n    tag_104:\n      pop\n        /* \"DexSwap/MultiCall.sol\":6032:6065  returnData = new Result[](length) */\n      swap3\n      pop\n        /* \"DexSwap/MultiCall.sol\":6075:6100  Call3Value calldata calli */\n      calldatasize\n        /* \"DexSwap/MultiCall.sol\":6115:6124  uint256 i */\n      0x00\n        /* \"DexSwap/MultiCall.sol\":6110:7655  for (uint256 i = 0; i < length;) {... */\n    tag_108:\n        /* \"DexSwap/MultiCall.sol\":6134:6140  length */\n      dup3\n        /* \"DexSwap/MultiCall.sol\":6130:6131  i */\n      dup2\n        /* \"DexSwap/MultiCall.sol\":6130:6140  i < length */\n      lt\n        /* \"DexSwap/MultiCall.sol\":6110:7655  for (uint256 i = 0; i < length;) {... */\n      iszero\n      tag_109\n      jumpi\n        /* \"DexSwap/MultiCall.sol\":6157:6177  Result memory result */\n      0x00\n        /* \"DexSwap/MultiCall.sol\":6180:6190  returnData */\n      dup6\n        /* \"DexSwap/MultiCall.sol\":6191:6192  i */\n      dup3\n        /* \"DexSwap/MultiCall.sol\":6180:6193  returnData[i] */\n      dup2\n      mload\n      dup2\n      lt\n      tag_112\n      jumpi\n      tag_112\n      tag_113\n      jump\t// in\n    tag_112:\n      0x20\n      mul\n      0x20\n      add\n      add\n      mload\n        /* \"DexSwap/MultiCall.sol\":6157:6193  Result memory result = returnData[i] */\n      swap1\n      pop\n        /* \"DexSwap/MultiCall.sol\":6215:6220  calls */\n      dup8\n      dup8\n        /* \"DexSwap/MultiCall.sol\":6221:6222  i */\n      dup4\n        /* \"DexSwap/MultiCall.sol\":6215:6223  calls[i] */\n      dup2\n      dup2\n      lt\n      tag_115\n      jumpi\n      tag_115\n      tag_113\n      jump\t// in\n    tag_115:\n      swap1\n      pop\n      0x20\n      mul\n      dup2\n      add\n      swap1\n      tag_116\n      swap2\n      swap1\n      tag_117\n      jump\t// in\n    tag_116:\n        /* \"DexSwap/MultiCall.sol\":6251:6262  calli.value */\n      0x40\n      dup2\n      add\n      calldataload\n        /* \"DexSwap/MultiCall.sol\":6463:6484  valAccumulator += val */\n      swap6\n      dup7\n      add\n      swap6\n        /* \"DexSwap/MultiCall.sol\":6207:6223  calli = calls[i] */\n      swap1\n      swap4\n      pop\n        /* \"DexSwap/MultiCall.sol\":6538:6550  calli.target */\n      tag_118\n      0x20\n      dup6\n      add\n        /* \"DexSwap/MultiCall.sol\":6207:6223  calli = calls[i] */\n      dup6\n        /* \"DexSwap/MultiCall.sol\":6538:6550  calli.target */\n      tag_64\n      jump\t// in\n    tag_118:\n      sub(shl(0xa0, 0x01), 0x01)\n        /* \"DexSwap/MultiCall.sol\":6538:6555  calli.target.call */\n      and\n        /* \"DexSwap/MultiCall.sol\":6563:6566  val */\n      dup2\n        /* \"DexSwap/MultiCall.sol\":6568:6582  calli.callData */\n      tag_119\n      0x60\n      dup8\n      add\n        /* \"DexSwap/MultiCall.sol\":6568:6573  calli */\n      dup8\n        /* \"DexSwap/MultiCall.sol\":6568:6582  calli.callData */\n      tag_120\n      jump\t// in\n    tag_119:\n        /* \"DexSwap/MultiCall.sol\":6538:6583  calli.target.call{value: val}(calli.callData) */\n      mload(0x40)\n      tag_121\n      swap3\n      swap2\n      swap1\n      tag_122\n      jump\t// in\n    tag_121:\n      0x00\n      mload(0x40)\n      dup1\n      dup4\n      sub\n      dup2\n      dup6\n      dup8\n      gas\n      call\n      swap3\n      pop\n      pop\n      pop\n      returndatasize\n      dup1\n      0x00\n      dup2\n      eq\n      tag_125\n      jumpi\n      mload(0x40)\n      swap2\n      pop\n      and(add(returndatasize, 0x3f), not(0x1f))\n      dup3\n      add\n      0x40\n      mstore\n      returndatasize\n      dup3\n      mstore\n      returndatasize\n      0x00\n      0x20\n      dup5\n      add\n      returndatacopy\n      jump(tag_124)\n    tag_125:\n      0x60\n      swap2\n      pop\n    tag_124:\n      pop\n        /* \"DexSwap/MultiCall.sol\":6517:6534  result.returnData */\n      0x20\n      dup1\n      dup6\n      add\n        /* \"DexSwap/MultiCall.sol\":6500:6583  (result.success, result.returnData) = calli.target.call{value: val}(calli.callData) */\n      swap2\n      swap1\n      swap2\n      mstore\n      swap1\n      iszero\n      iszero\n      dup1\n      dup5\n      mstore\n        /* \"DexSwap/MultiCall.sol\":6820:6836  add(calli, 0x20) */\n      swap1\n      dup6\n      add\n        /* \"DexSwap/MultiCall.sol\":6807:6837  calldataload(add(calli, 0x20)) */\n      calldataload\n        /* \"DexSwap/MultiCall.sol\":6804:6853  or(calldataload(add(calli, 0x20)), mload(result)) */\n      or\n        /* \"DexSwap/MultiCall.sol\":6794:7600  if iszero(or(calldataload(add(calli, 0x20)), mload(result))) {... */\n      tag_126\n      jumpi\n      shl(0xe5, 0x461bcd)\n        /* \"DexSwap/MultiCall.sol\":6982:6986  0x00 */\n      0x00\n        /* \"DexSwap/MultiCall.sol\":6975:7055  mstore(0x00, 0x08c379a000000000000000000000000000000000000000000000000000000000) */\n      mstore\n        /* \"DexSwap/MultiCall.sol\":7128:7194  0x0000000000000000000000000000000000000000000000000000000000000020 */\n      0x20\n        /* \"DexSwap/MultiCall.sol\":7122:7126  0x04 */\n      0x04\n        /* \"DexSwap/MultiCall.sol\":7115:7195  mstore(0x04, 0x0000000000000000000000000000000000000000000000000000000000000020) */\n      mstore\n        /* \"DexSwap/MultiCall.sol\":7280:7346  0x0000000000000000000000000000000000000000000000000000000000000017 */\n      0x17\n        /* \"DexSwap/MultiCall.sol\":7274:7278  0x24 */\n      0x24\n        /* \"DexSwap/MultiCall.sol\":7267:7347  mstore(0x24, 0x0000000000000000000000000000000000000000000000000000000000000017) */\n      mstore\n      shl(0x4a, 0x135d5b1d1a58d85b1b0cce8818d85b1b0819985a5b1959)\n        /* \"DexSwap/MultiCall.sol\":7470:7474  0x44 */\n      0x44\n        /* \"DexSwap/MultiCall.sol\":7463:7543  mstore(0x44, 0x4d756c746963616c6c333a2063616c6c206661696c6564000000000000000000) */\n      mstore\n        /* \"DexSwap/MultiCall.sol\":7577:7581  0x84 */\n      0x84\n        /* \"DexSwap/MultiCall.sol\":7571:7575  0x00 */\n      0x00\n        /* \"DexSwap/MultiCall.sol\":7564:7582  revert(0x00, 0x84) */\n      revert\n        /* \"DexSwap/MultiCall.sol\":6794:7600  if iszero(or(calldataload(add(calli, 0x20)), mload(result))) {... */\n    tag_126:\n      pop\n      pop\n        /* \"DexSwap/MultiCall.sol\":7639:7642  ++i */\n      0x01\n      add\n        /* \"DexSwap/MultiCall.sol\":6110:7655  for (uint256 i = 0; i < length;) {... */\n      jump(tag_108)\n    tag_109:\n      pop\n        /* \"DexSwap/MultiCall.sol\":7754:7768  valAccumulator */\n      dup3\n        /* \"DexSwap/MultiCall.sol\":7741:7750  msg.value */\n      callvalue\n        /* \"DexSwap/MultiCall.sol\":7741:7768  msg.value == valAccumulator */\n      eq\n        /* \"DexSwap/MultiCall.sol\":7733:7799  require(msg.value == valAccumulator, \"Multicall3: value mismatch\") */\n      tag_127\n      jumpi\n      mload(0x40)\n      shl(0xe5, 0x461bcd)\n      dup2\n      mstore\n        /* \"#utility.yul\":8091:8093   */\n      0x20\n        /* \"DexSwap/MultiCall.sol\":7733:7799  require(msg.value == valAccumulator, \"Multicall3: value mismatch\") */\n      0x04\n      dup3\n      add\n        /* \"#utility.yul\":8073:8094   */\n      mstore\n        /* \"#utility.yul\":8130:8132   */\n      0x1a\n        /* \"#utility.yul\":8110:8128   */\n      0x24\n      dup3\n      add\n        /* \"#utility.yul\":8103:8133   */\n      mstore\n        /* \"#utility.yul\":8169:8197   */\n      0x4d756c746963616c6c333a2076616c7565206d69736d61746368000000000000\n        /* \"#utility.yul\":8149:8167   */\n      0x44\n      dup3\n      add\n        /* \"#utility.yul\":8142:8198   */\n      mstore\n        /* \"#utility.yul\":8215:8233   */\n      0x64\n      add\n        /* \"DexSwap/MultiCall.sol\":7733:7799  require(msg.value == valAccumulator, \"Multicall3: value mismatch\") */\n    tag_128:\n      mload(0x40)\n      dup1\n      swap2\n      sub\n      swap1\n      revert\n    tag_127:\n        /* \"DexSwap/MultiCall.sol\":5951:7806  {... */\n      pop\n      pop\n      pop\n        /* \"DexSwap/MultiCall.sol\":5845:7806  function aggregate3Value(Call3Value[] calldata calls) public payable returns (Result[] memory returnData) {... */\n      swap3\n      swap2\n      pop\n      pop\n      jump\t// out\n        /* \"DexSwap/MultiCall.sol\":1240:1774  function aggregate(Call[] calldata calls) public payable returns (uint256 blockNumber, bytes[] memory returnData) {... */\n    tag_35:\n        /* \"DexSwap/MultiCall.sol\":1378:1390  block.number */\n      number\n        /* \"DexSwap/MultiCall.sol\":1327:1352  bytes[] memory returnData */\n      0x60\n        /* \"DexSwap/MultiCall.sol\":1417:1422  calls */\n      dup3\n      dup1\n        /* \"DexSwap/MultiCall.sol\":1452:1471  new bytes[](length) */\n      0xffffffffffffffff\n      dup2\n      gt\n      iszero\n      tag_132\n      jumpi\n      tag_132\n      tag_103\n      jump\t// in\n    tag_132:\n      mload(0x40)\n      swap1\n      dup1\n      dup3\n      mstore\n      dup1\n      0x20\n      mul\n      0x20\n      add\n      dup3\n      add\n      0x40\n      mstore\n      dup1\n      iszero\n      tag_133\n      jumpi\n      dup2\n      0x20\n      add\n    tag_134:\n      0x60\n      dup2\n      mstore\n      0x20\n      add\n      swap1\n      0x01\n      swap1\n      sub\n      swap1\n      dup2\n      tag_134\n      jumpi\n      swap1\n      pop\n    tag_133:\n      pop\n        /* \"DexSwap/MultiCall.sol\":1439:1471  returnData = new bytes[](length) */\n      swap2\n      pop\n        /* \"DexSwap/MultiCall.sol\":1481:1499  Call calldata call */\n      calldatasize\n        /* \"DexSwap/MultiCall.sol\":1514:1523  uint256 i */\n      0x00\n        /* \"DexSwap/MultiCall.sol\":1509:1768  for (uint256 i = 0; i < length;) {... */\n    tag_135:\n        /* \"DexSwap/MultiCall.sol\":1533:1539  length */\n      dup3\n        /* \"DexSwap/MultiCall.sol\":1529:1530  i */\n      dup2\n        /* \"DexSwap/MultiCall.sol\":1529:1539  i < length */\n      lt\n        /* \"DexSwap/MultiCall.sol\":1509:1768  for (uint256 i = 0; i < length;) {... */\n      iszero\n      tag_136\n      jumpi\n        /* \"DexSwap/MultiCall.sol\":1556:1568  bool success */\n      0x00\n        /* \"DexSwap/MultiCall.sol\":1589:1594  calls */\n      dup8\n      dup8\n        /* \"DexSwap/MultiCall.sol\":1595:1596  i */\n      dup4\n        /* \"DexSwap/MultiCall.sol\":1589:1597  calls[i] */\n      dup2\n      dup2\n      lt\n      tag_139\n      jumpi\n      tag_139\n      tag_113\n      jump\t// in\n    tag_139:\n      swap1\n      pop\n      0x20\n      mul\n      dup2\n      add\n      swap1\n      tag_140\n      swap2\n      swap1\n      tag_141\n      jump\t// in\n    tag_140:\n        /* \"DexSwap/MultiCall.sol\":1582:1597  call = calls[i] */\n      swap3\n      pop\n        /* \"DexSwap/MultiCall.sol\":1638:1649  call.target */\n      tag_142\n      0x20\n      dup5\n      add\n        /* \"DexSwap/MultiCall.sol\":1582:1597  call = calls[i] */\n      dup5\n        /* \"DexSwap/MultiCall.sol\":1638:1649  call.target */\n      tag_64\n      jump\t// in\n    tag_142:\n      sub(shl(0xa0, 0x01), 0x01)\n        /* \"DexSwap/MultiCall.sol\":1638:1654  call.target.call */\n      and\n        /* \"DexSwap/MultiCall.sol\":1655:1668  call.callData */\n      tag_143\n      0x20\n      dup6\n      add\n        /* \"DexSwap/MultiCall.sol\":1655:1659  call */\n      dup6\n        /* \"DexSwap/MultiCall.sol\":1655:1668  call.callData */\n      tag_120\n      jump\t// in\n    tag_143:\n        /* \"DexSwap/MultiCall.sol\":1638:1669  call.target.call(call.callData) */\n      mload(0x40)\n      tag_144\n      swap3\n      swap2\n      swap1\n      tag_122\n      jump\t// in\n    tag_144:\n      0x00\n      mload(0x40)\n      dup1\n      dup4\n      sub\n      dup2\n      0x00\n      dup7\n      gas\n      call\n      swap2\n      pop\n      pop\n      returndatasize\n      dup1\n      0x00\n      dup2\n      eq\n      tag_147\n      jumpi\n      mload(0x40)\n      swap2\n      pop\n      and(add(returndatasize, 0x3f), not(0x1f))\n      dup3\n      add\n      0x40\n      mstore\n      returndatasize\n      dup3\n      mstore\n      returndatasize\n      0x00\n      0x20\n      dup5\n      add\n      returndatacopy\n      jump(tag_146)\n    tag_147:\n      0x60\n      swap2\n      pop\n    tag_146:\n      pop\n        /* \"DexSwap/MultiCall.sol\":1621:1631  returnData */\n      dup7\n        /* \"DexSwap/MultiCall.sol\":1632:1633  i */\n      dup5\n        /* \"DexSwap/MultiCall.sol\":1621:1634  returnData[i] */\n      dup2\n      mload\n      dup2\n      lt\n      tag_149\n      jumpi\n      tag_149\n      tag_113\n      jump\t// in\n    tag_149:\n      0x20\n      swap1\n      dup2\n      mul\n      swap2\n      swap1\n      swap2\n      add\n      add\n        /* \"DexSwap/MultiCall.sol\":1611:1669  (success, returnData[i]) = call.target.call(call.callData) */\n      mstore\n      swap1\n      pop\n      dup1\n        /* \"DexSwap/MultiCall.sol\":1683:1726  require(success, \"Multicall3: call failed\") */\n      tag_150\n      jumpi\n      mload(0x40)\n      shl(0xe5, 0x461bcd)\n      dup2\n      mstore\n        /* \"#utility.yul\":8769:8771   */\n      0x20\n        /* \"DexSwap/MultiCall.sol\":1683:1726  require(success, \"Multicall3: call failed\") */\n      0x04\n      dup3\n      add\n        /* \"#utility.yul\":8751:8772   */\n      mstore\n        /* \"#utility.yul\":8808:8810   */\n      0x17\n        /* \"#utility.yul\":8788:8806   */\n      0x24\n      dup3\n      add\n        /* \"#utility.yul\":8781:8811   */\n      mstore\n      shl(0x4a, 0x135d5b1d1a58d85b1b0cce8818d85b1b0819985a5b1959)\n        /* \"#utility.yul\":8827:8845   */\n      0x44\n      dup3\n      add\n        /* \"#utility.yul\":8820:8873   */\n      mstore\n        /* \"#utility.yul\":8890:8908   */\n      0x64\n      add\n        /* \"DexSwap/MultiCall.sol\":1683:1726  require(success, \"Multicall3: call failed\") */\n      tag_128\n        /* \"#utility.yul\":8567:8914   */\n      jump\n        /* \"DexSwap/MultiCall.sol\":1683:1726  require(success, \"Multicall3: call failed\") */\n    tag_150:\n      pop\n        /* \"DexSwap/MultiCall.sol\":1752:1755  ++i */\n      0x01\n      add\n        /* \"DexSwap/MultiCall.sol\":1509:1768  for (uint256 i = 0; i < length;) {... */\n      jump(tag_135)\n    tag_136:\n      pop\n        /* \"DexSwap/MultiCall.sol\":1354:1774  {... */\n      pop\n      pop\n        /* \"DexSwap/MultiCall.sol\":1240:1774  function aggregate(Call[] calldata calls) public payable returns (uint256 blockNumber, bytes[] memory returnData) {... */\n      swap3\n      pop\n      swap3\n      swap1\n      pop\n      jump\t// out\n        /* \"DexSwap/MultiCall.sol\":3006:3318  function tryBlockAndAggregate(bool requireSuccess, Call[] calldata calls) public payable returns (uint256 blockNumber, bytes32 blockHash, Result[] memory returnData) {... */\n    tag_50:\n        /* \"DexSwap/MultiCall.sol\":3196:3208  block.number */\n      number\n        /* \"DexSwap/MultiCall.sol\":3230:3253  blockhash(block.number) */\n      dup1\n      blockhash\n        /* \"DexSwap/MultiCall.sol\":3144:3170  Result[] memory returnData */\n      0x60\n        /* \"DexSwap/MultiCall.sol\":3276:3311  tryAggregate(requireSuccess, calls) */\n      tag_156\n        /* \"DexSwap/MultiCall.sol\":3289:3303  requireSuccess */\n      dup7\n        /* \"DexSwap/MultiCall.sol\":3305:3310  calls */\n      dup7\n      dup7\n        /* \"DexSwap/MultiCall.sol\":3276:3288  tryAggregate */\n      tag_87\n        /* \"DexSwap/MultiCall.sol\":3276:3311  tryAggregate(requireSuccess, calls) */\n      jump\t// in\n    tag_156:\n        /* \"DexSwap/MultiCall.sol\":3263:3311  returnData = tryAggregate(requireSuccess, calls) */\n      swap1\n      pop\n        /* \"DexSwap/MultiCall.sol\":3006:3318  function tryBlockAndAggregate(bool requireSuccess, Call[] calldata calls) public payable returns (uint256 blockNumber, bytes32 blockHash, Result[] memory returnData) {... */\n      swap4\n      pop\n      swap4\n      pop\n      swap4\n      swap1\n      pop\n      jump\t// out\n        /* \"DexSwap/MultiCall.sol\":4113:5607  function aggregate3(Call3[] calldata calls) public payable returns (Result[] memory returnData) {... */\n    tag_74:\n        /* \"DexSwap/MultiCall.sol\":4181:4207  Result[] memory returnData */\n      0x60\n        /* \"DexSwap/MultiCall.sol\":4236:4241  calls */\n      dup2\n      dup1\n        /* \"DexSwap/MultiCall.sol\":4271:4291  new Result[](length) */\n      0xffffffffffffffff\n      dup2\n      gt\n      iszero\n      tag_163\n      jumpi\n      tag_163\n      tag_103\n      jump\t// in\n    tag_163:\n      mload(0x40)\n      swap1\n      dup1\n      dup3\n      mstore\n      dup1\n      0x20\n      mul\n      0x20\n      add\n      dup3\n      add\n      0x40\n      mstore\n      dup1\n      iszero\n      tag_164\n      jumpi\n      dup2\n      0x20\n      add\n    tag_165:\n      0x40\n      dup1\n      mload\n      dup1\n      dup3\n      add\n      swap1\n      swap2\n      mstore\n      0x00\n      dup2\n      mstore\n      0x60\n      0x20\n      dup3\n      add\n      mstore\n      dup2\n      mstore\n      0x20\n      add\n      swap1\n      0x01\n      swap1\n      sub\n      swap1\n      dup2\n      tag_165\n      jumpi\n      swap1\n      pop\n    tag_164:\n      pop\n        /* \"DexSwap/MultiCall.sol\":4258:4291  returnData = new Result[](length) */\n      swap2\n      pop\n        /* \"DexSwap/MultiCall.sol\":4301:4321  Call3 calldata calli */\n      calldatasize\n        /* \"DexSwap/MultiCall.sol\":4336:4345  uint256 i */\n      0x00\n        /* \"DexSwap/MultiCall.sol\":4331:5601  for (uint256 i = 0; i < length;) {... */\n    tag_167:\n        /* \"DexSwap/MultiCall.sol\":4355:4361  length */\n      dup3\n        /* \"DexSwap/MultiCall.sol\":4351:4352  i */\n      dup2\n        /* \"DexSwap/MultiCall.sol\":4351:4361  i < length */\n      lt\n        /* \"DexSwap/MultiCall.sol\":4331:5601  for (uint256 i = 0; i < length;) {... */\n      iszero\n      tag_127\n      jumpi\n        /* \"DexSwap/MultiCall.sol\":4378:4398  Result memory result */\n      0x00\n        /* \"DexSwap/MultiCall.sol\":4401:4411  returnData */\n      dup5\n        /* \"DexSwap/MultiCall.sol\":4412:4413  i */\n      dup3\n        /* \"DexSwap/MultiCall.sol\":4401:4414  returnData[i] */\n      dup2\n      mload\n      dup2\n      lt\n      tag_171\n      jumpi\n      tag_171\n      tag_113\n      jump\t// in\n    tag_171:\n      0x20\n      mul\n      0x20\n      add\n      add\n      mload\n        /* \"DexSwap/MultiCall.sol\":4378:4414  Result memory result = returnData[i] */\n      swap1\n      pop\n        /* \"DexSwap/MultiCall.sol\":4436:4441  calls */\n      dup7\n      dup7\n        /* \"DexSwap/MultiCall.sol\":4442:4443  i */\n      dup4\n        /* \"DexSwap/MultiCall.sol\":4436:4444  calls[i] */\n      dup2\n      dup2\n      lt\n      tag_173\n      jumpi\n      tag_173\n      tag_113\n      jump\t// in\n    tag_173:\n      swap1\n      pop\n      0x20\n      mul\n      dup2\n      add\n      swap1\n      tag_174\n      swap2\n      swap1\n      tag_175\n      jump\t// in\n    tag_174:\n        /* \"DexSwap/MultiCall.sol\":4428:4444  calli = calls[i] */\n      swap3\n      pop\n        /* \"DexSwap/MultiCall.sol\":4496:4508  calli.target */\n      tag_176\n      0x20\n      dup5\n      add\n        /* \"DexSwap/MultiCall.sol\":4428:4444  calli = calls[i] */\n      dup5\n        /* \"DexSwap/MultiCall.sol\":4496:4508  calli.target */\n      tag_64\n      jump\t// in\n    tag_176:\n      sub(shl(0xa0, 0x01), 0x01)\n        /* \"DexSwap/MultiCall.sol\":4496:4513  calli.target.call */\n      and\n        /* \"DexSwap/MultiCall.sol\":4514:4528  calli.callData */\n      tag_177\n      0x40\n      dup6\n      add\n        /* \"DexSwap/MultiCall.sol\":4514:4519  calli */\n      dup6\n        /* \"DexSwap/MultiCall.sol\":4514:4528  calli.callData */\n      tag_120\n      jump\t// in\n    tag_177:\n        /* \"DexSwap/MultiCall.sol\":4496:4529  calli.target.call(calli.callData) */\n      mload(0x40)\n      tag_178\n      swap3\n      swap2\n      swap1\n      tag_122\n      jump\t// in\n    tag_178:\n      0x00\n      mload(0x40)\n      dup1\n      dup4\n      sub\n      dup2\n      0x00\n      dup7\n      gas\n      call\n      swap2\n      pop\n      pop\n      returndatasize\n      dup1\n      0x00\n      dup2\n      eq\n      tag_181\n      jumpi\n      mload(0x40)\n      swap2\n      pop\n      and(add(returndatasize, 0x3f), not(0x1f))\n      dup3\n      add\n      0x40\n      mstore\n      returndatasize\n      dup3\n      mstore\n      returndatasize\n      0x00\n      0x20\n      dup5\n      add\n      returndatacopy\n      jump(tag_180)\n    tag_181:\n      0x60\n      swap2\n      pop\n    tag_180:\n      pop\n        /* \"DexSwap/MultiCall.sol\":4475:4492  result.returnData */\n      0x20\n      dup1\n      dup5\n      add\n        /* \"DexSwap/MultiCall.sol\":4458:4529  (result.success, result.returnData) = calli.target.call(calli.callData) */\n      swap2\n      swap1\n      swap2\n      mstore\n      swap1\n      iszero\n      iszero\n      dup1\n      dup4\n      mstore\n        /* \"DexSwap/MultiCall.sol\":4766:4782  add(calli, 0x20) */\n      swap1\n      dup5\n      add\n        /* \"DexSwap/MultiCall.sol\":4753:4783  calldataload(add(calli, 0x20)) */\n      calldataload\n        /* \"DexSwap/MultiCall.sol\":4750:4799  or(calldataload(add(calli, 0x20)), mload(result)) */\n      or\n        /* \"DexSwap/MultiCall.sol\":4740:5546  if iszero(or(calldataload(add(calli, 0x20)), mload(result))) {... */\n      tag_182\n      jumpi\n      shl(0xe5, 0x461bcd)\n        /* \"DexSwap/MultiCall.sol\":4928:4932  0x00 */\n      0x00\n        /* \"DexSwap/MultiCall.sol\":4921:5001  mstore(0x00, 0x08c379a000000000000000000000000000000000000000000000000000000000) */\n      mstore\n        /* \"DexSwap/MultiCall.sol\":5074:5140  0x0000000000000000000000000000000000000000000000000000000000000020 */\n      0x20\n        /* \"DexSwap/MultiCall.sol\":5068:5072  0x04 */\n      0x04\n        /* \"DexSwap/MultiCall.sol\":5061:5141  mstore(0x04, 0x0000000000000000000000000000000000000000000000000000000000000020) */\n      mstore\n        /* \"DexSwap/MultiCall.sol\":5226:5292  0x0000000000000000000000000000000000000000000000000000000000000017 */\n      0x17\n        /* \"DexSwap/MultiCall.sol\":5220:5224  0x24 */\n      0x24\n        /* \"DexSwap/MultiCall.sol\":5213:5293  mstore(0x24, 0x0000000000000000000000000000000000000000000000000000000000000017) */\n      mstore\n      shl(0x4a, 0x135d5b1d1a58d85b1b0cce8818d85b1b0819985a5b1959)\n        /* \"DexSwap/MultiCall.sol\":5416:5420  0x44 */\n      0x44\n        /* \"DexSwap/MultiCall.sol\":5409:5489  mstore(0x44, 0x4d756c746963616c6c333a2063616c6c206661696c6564000000000000000000) */\n      mstore\n        /* \"DexSwap/MultiCall.sol\":5523:5527  0x64 */\n      0x64\n        /* \"DexSwap/MultiCall.sol\":5517:5521  0x00 */\n      0x00\n        /* \"DexSwap/MultiCall.sol\":5510:5528  revert(0x00, 0x64) */\n      revert\n        /* \"DexSwap/MultiCall.sol\":4740:5546  if iszero(or(calldataload(add(calli, 0x20)), mload(result))) {... */\n    tag_182:\n      pop\n        /* \"DexSwap/MultiCall.sol\":5585:5588  ++i */\n      0x01\n      add\n        /* \"DexSwap/MultiCall.sol\":4331:5601  for (uint256 i = 0; i < length;) {... */\n      jump(tag_167)\n        /* \"DexSwap/MultiCall.sol\":2059:2624  function tryAggregate(bool requireSuccess, Call[] calldata calls) public payable returns (Result[] memory returnData) {... */\n    tag_87:\n        /* \"DexSwap/MultiCall.sol\":2149:2175  Result[] memory returnData */\n      0x60\n        /* \"DexSwap/MultiCall.sol\":2204:2209  calls */\n      dup2\n      dup1\n        /* \"DexSwap/MultiCall.sol\":2239:2259  new Result[](length) */\n      0xffffffffffffffff\n      dup2\n      gt\n      iszero\n      tag_187\n      jumpi\n      tag_187\n      tag_103\n      jump\t// in\n    tag_187:\n      mload(0x40)\n      swap1\n      dup1\n      dup3\n      mstore\n      dup1\n      0x20\n      mul\n      0x20\n      add\n      dup3\n      add\n      0x40\n      mstore\n      dup1\n      iszero\n      tag_188\n      jumpi\n      dup2\n      0x20\n      add\n    tag_189:\n      0x40\n      dup1\n      mload\n      dup1\n      dup3\n      add\n      swap1\n      swap2\n      mstore\n      0x00\n      dup2\n      mstore\n      0x60\n      0x20\n      dup3\n      add\n      mstore\n      dup2\n      mstore\n      0x20\n      add\n      swap1\n      0x01\n      swap1\n      sub\n      swap1\n      dup2\n      tag_189\n      jumpi\n      swap1\n      pop\n    tag_188:\n      pop\n        /* \"DexSwap/MultiCall.sol\":2226:2259  returnData = new Result[](length) */\n      swap2\n      pop\n        /* \"DexSwap/MultiCall.sol\":2269:2287  Call calldata call */\n      calldatasize\n        /* \"DexSwap/MultiCall.sol\":2302:2311  uint256 i */\n      0x00\n        /* \"DexSwap/MultiCall.sol\":2297:2618  for (uint256 i = 0; i < length;) {... */\n    tag_191:\n        /* \"DexSwap/MultiCall.sol\":2321:2327  length */\n      dup3\n        /* \"DexSwap/MultiCall.sol\":2317:2318  i */\n      dup2\n        /* \"DexSwap/MultiCall.sol\":2317:2327  i < length */\n      lt\n        /* \"DexSwap/MultiCall.sol\":2297:2618  for (uint256 i = 0; i < length;) {... */\n      iszero\n      tag_192\n      jumpi\n        /* \"DexSwap/MultiCall.sol\":2344:2364  Result memory result */\n      0x00\n        /* \"DexSwap/MultiCall.sol\":2367:2377  returnData */\n      dup5\n        /* \"DexSwap/MultiCall.sol\":2378:2379  i */\n      dup3\n        /* \"DexSwap/MultiCall.sol\":2367:2380  returnData[i] */\n      dup2\n      mload\n      dup2\n      lt\n      tag_195\n      jumpi\n      tag_195\n      tag_113\n      jump\t// in\n    tag_195:\n      0x20\n      mul\n      0x20\n      add\n      add\n      mload\n        /* \"DexSwap/MultiCall.sol\":2344:2380  Result memory result = returnData[i] */\n      swap1\n      pop\n        /* \"DexSwap/MultiCall.sol\":2401:2406  calls */\n      dup7\n      dup7\n        /* \"DexSwap/MultiCall.sol\":2407:2408  i */\n      dup4\n        /* \"DexSwap/MultiCall.sol\":2401:2409  calls[i] */\n      dup2\n      dup2\n      lt\n      tag_197\n      jumpi\n      tag_197\n      tag_113\n      jump\t// in\n    tag_197:\n      swap1\n      pop\n      0x20\n      mul\n      dup2\n      add\n      swap1\n      tag_198\n      swap2\n      swap1\n      tag_141\n      jump\t// in\n    tag_198:\n        /* \"DexSwap/MultiCall.sol\":2394:2409  call = calls[i] */\n      swap3\n      pop\n        /* \"DexSwap/MultiCall.sol\":2461:2472  call.target */\n      tag_199\n      0x20\n      dup5\n      add\n        /* \"DexSwap/MultiCall.sol\":2394:2409  call = calls[i] */\n      dup5\n        /* \"DexSwap/MultiCall.sol\":2461:2472  call.target */\n      tag_64\n      jump\t// in\n    tag_199:\n      sub(shl(0xa0, 0x01), 0x01)\n        /* \"DexSwap/MultiCall.sol\":2461:2477  call.target.call */\n      and\n        /* \"DexSwap/MultiCall.sol\":2478:2491  call.callData */\n      tag_200\n      0x20\n      dup6\n      add\n        /* \"DexSwap/MultiCall.sol\":2478:2482  call */\n      dup6\n        /* \"DexSwap/MultiCall.sol\":2478:2491  call.callData */\n      tag_120\n      jump\t// in\n    tag_200:\n        /* \"DexSwap/MultiCall.sol\":2461:2492  call.target.call(call.callData) */\n      mload(0x40)\n      tag_201\n      swap3\n      swap2\n      swap1\n      tag_122\n      jump\t// in\n    tag_201:\n      0x00\n      mload(0x40)\n      dup1\n      dup4\n      sub\n      dup2\n      0x00\n      dup7\n      gas\n      call\n      swap2\n      pop\n      pop\n      returndatasize\n      dup1\n      0x00\n      dup2\n      eq\n      tag_204\n      jumpi\n      mload(0x40)\n      swap2\n      pop\n      and(add(returndatasize, 0x3f), not(0x1f))\n      dup3\n      add\n      0x40\n      mstore\n      returndatasize\n      dup3\n      mstore\n      returndatasize\n      0x00\n      0x20\n      dup5\n      add\n      returndatacopy\n      jump(tag_203)\n    tag_204:\n      0x60\n      swap2\n      pop\n    tag_203:\n      pop\n        /* \"DexSwap/MultiCall.sol\":2440:2457  result.returnData */\n      0x20\n      dup4\n      add\n        /* \"DexSwap/MultiCall.sol\":2423:2492  (result.success, result.returnData) = call.target.call(call.callData) */\n      mstore\n      iszero\n      iszero\n      dup2\n      mstore\n        /* \"DexSwap/MultiCall.sol\":2506:2576  if (requireSuccess) require(result.success, \"Multicall3: call failed\") */\n      dup8\n      iszero\n      tag_206\n      jumpi\n        /* \"DexSwap/MultiCall.sol\":2534:2548  result.success */\n      dup1\n      mload\n        /* \"DexSwap/MultiCall.sol\":2526:2576  require(result.success, \"Multicall3: call failed\") */\n      tag_206\n      jumpi\n      mload(0x40)\n      shl(0xe5, 0x461bcd)\n      dup2\n      mstore\n        /* \"#utility.yul\":8769:8771   */\n      0x20\n        /* \"DexSwap/MultiCall.sol\":2526:2576  require(result.success, \"Multicall3: call failed\") */\n      0x04\n      dup3\n      add\n        /* \"#utility.yul\":8751:8772   */\n      mstore\n        /* \"#utility.yul\":8808:8810   */\n      0x17\n        /* \"#utility.yul\":8788:8806   */\n      0x24\n      dup3\n      add\n        /* \"#utility.yul\":8781:8811   */\n      mstore\n      shl(0x4a, 0x135d5b1d1a58d85b1b0cce8818d85b1b0819985a5b1959)\n        /* \"#utility.yul\":8827:8845   */\n      0x44\n      dup3\n      add\n        /* \"#utility.yul\":8820:8873   */\n      mstore\n        /* \"#utility.yul\":8890:8908   */\n      0x64\n      add\n        /* \"DexSwap/MultiCall.sol\":2526:2576  require(result.success, \"Multicall3: call failed\") */\n      tag_128\n        /* \"#utility.yul\":8567:8914   */\n      jump\n        /* \"DexSwap/MultiCall.sol\":2526:2576  require(result.success, \"Multicall3: call failed\") */\n    tag_206:\n      pop\n        /* \"DexSwap/MultiCall.sol\":2602:2605  ++i */\n      0x01\n      add\n        /* \"DexSwap/MultiCall.sol\":2297:2618  for (uint256 i = 0; i < length;) {... */\n      jump(tag_191)\n    tag_192:\n      pop\n        /* \"DexSwap/MultiCall.sol\":2177:2624  {... */\n      pop\n      pop\n        /* \"DexSwap/MultiCall.sol\":2059:2624  function tryAggregate(bool requireSuccess, Call[] calldata calls) public payable returns (Result[] memory returnData) {... */\n      swap4\n      swap3\n      pop\n      pop\n      pop\n      jump\t// out\n        /* \"DexSwap/MultiCall.sol\":3700:3931  function blockAndAggregate(Call[] calldata calls) public payable returns (uint256 blockNumber, bytes32 blockHash, Result[] memory returnData) {... */\n    tag_91:\n        /* \"DexSwap/MultiCall.sol\":3774:3793  uint256 blockNumber */\n      0x00\n        /* \"DexSwap/MultiCall.sol\":3795:3812  bytes32 blockHash */\n      dup1\n        /* \"DexSwap/MultiCall.sol\":3814:3840  Result[] memory returnData */\n      0x60\n        /* \"DexSwap/MultiCall.sol\":3891:3924  tryBlockAndAggregate(true, calls) */\n      tag_209\n        /* \"DexSwap/MultiCall.sol\":3912:3916  true */\n      0x01\n        /* \"DexSwap/MultiCall.sol\":3918:3923  calls */\n      dup7\n      dup7\n        /* \"DexSwap/MultiCall.sol\":3891:3911  tryBlockAndAggregate */\n      tag_50\n        /* \"DexSwap/MultiCall.sol\":3891:3924  tryBlockAndAggregate(true, calls) */\n      jump\t// in\n    tag_209:\n        /* \"DexSwap/MultiCall.sol\":3852:3924  (blockNumber, blockHash, returnData) = tryBlockAndAggregate(true, calls) */\n      swap2\n      swap8\n      swap1\n      swap7\n      pop\n      swap1\n      swap5\n      pop\n        /* \"DexSwap/MultiCall.sol\":3700:3931  function blockAndAggregate(Call[] calldata calls) public payable returns (uint256 blockNumber, bytes32 blockHash, Result[] memory returnData) {... */\n      swap3\n      pop\n      pop\n      pop\n      jump\t// out\n        /* \"#utility.yul\":196:582   */\n    tag_211:\n        /* \"#utility.yul\":278:286   */\n      0x00\n        /* \"#utility.yul\":288:294   */\n      dup1\n        /* \"#utility.yul\":342:345   */\n      dup4\n        /* \"#utility.yul\":335:339   */\n      0x1f\n        /* \"#utility.yul\":327:333   */\n      dup5\n        /* \"#utility.yul\":323:340   */\n      add\n        /* \"#utility.yul\":319:346   */\n      slt\n        /* \"#utility.yul\":309:364   */\n      tag_217\n      jumpi\n        /* \"#utility.yul\":360:361   */\n      0x00\n        /* \"#utility.yul\":357:358   */\n      dup1\n        /* \"#utility.yul\":350:362   */\n      revert\n        /* \"#utility.yul\":309:364   */\n    tag_217:\n      pop\n        /* \"#utility.yul\":383:403   */\n      dup2\n      calldataload\n        /* \"#utility.yul\":426:444   */\n      0xffffffffffffffff\n        /* \"#utility.yul\":415:445   */\n      dup2\n      gt\n        /* \"#utility.yul\":412:462   */\n      iszero\n      tag_218\n      jumpi\n        /* \"#utility.yul\":458:459   */\n      0x00\n        /* \"#utility.yul\":455:456   */\n      dup1\n        /* \"#utility.yul\":448:460   */\n      revert\n        /* \"#utility.yul\":412:462   */\n    tag_218:\n        /* \"#utility.yul\":495:499   */\n      0x20\n        /* \"#utility.yul\":487:493   */\n      dup4\n        /* \"#utility.yul\":483:500   */\n      add\n        /* \"#utility.yul\":471:500   */\n      swap2\n      pop\n        /* \"#utility.yul\":555:558   */\n      dup4\n        /* \"#utility.yul\":548:552   */\n      0x20\n        /* \"#utility.yul\":538:544   */\n      dup3\n        /* \"#utility.yul\":535:536   */\n      0x05\n        /* \"#utility.yul\":531:545   */\n      shl\n        /* \"#utility.yul\":523:529   */\n      dup6\n        /* \"#utility.yul\":519:546   */\n      add\n        /* \"#utility.yul\":515:553   */\n      add\n        /* \"#utility.yul\":512:559   */\n      gt\n        /* \"#utility.yul\":509:576   */\n      iszero\n      tag_219\n      jumpi\n        /* \"#utility.yul\":572:573   */\n      0x00\n        /* \"#utility.yul\":569:570   */\n      dup1\n        /* \"#utility.yul\":562:574   */\n      revert\n        /* \"#utility.yul\":509:576   */\n    tag_219:\n        /* \"#utility.yul\":196:582   */\n      swap3\n      pop\n      swap3\n      swap1\n      pop\n      jump\t// out\n        /* \"#utility.yul\":587:1071   */\n    tag_28:\n        /* \"#utility.yul\":701:707   */\n      0x00\n        /* \"#utility.yul\":709:715   */\n      dup1\n        /* \"#utility.yul\":762:764   */\n      0x20\n        /* \"#utility.yul\":750:759   */\n      dup4\n        /* \"#utility.yul\":741:748   */\n      dup6\n        /* \"#utility.yul\":737:760   */\n      sub\n        /* \"#utility.yul\":733:765   */\n      slt\n        /* \"#utility.yul\":730:782   */\n      iszero\n      tag_221\n      jumpi\n        /* \"#utility.yul\":778:779   */\n      0x00\n        /* \"#utility.yul\":775:776   */\n      dup1\n        /* \"#utility.yul\":768:780   */\n      revert\n        /* \"#utility.yul\":730:782   */\n    tag_221:\n        /* \"#utility.yul\":818:827   */\n      dup3\n        /* \"#utility.yul\":805:828   */\n      calldataload\n        /* \"#utility.yul\":851:869   */\n      0xffffffffffffffff\n        /* \"#utility.yul\":843:849   */\n      dup2\n        /* \"#utility.yul\":840:870   */\n      gt\n        /* \"#utility.yul\":837:887   */\n      iszero\n      tag_222\n      jumpi\n        /* \"#utility.yul\":883:884   */\n      0x00\n        /* \"#utility.yul\":880:881   */\n      dup1\n        /* \"#utility.yul\":873:885   */\n      revert\n        /* \"#utility.yul\":837:887   */\n    tag_222:\n        /* \"#utility.yul\":922:1011   */\n      tag_223\n        /* \"#utility.yul\":1003:1010   */\n      dup6\n        /* \"#utility.yul\":994:1000   */\n      dup3\n        /* \"#utility.yul\":983:992   */\n      dup7\n        /* \"#utility.yul\":979:1001   */\n      add\n        /* \"#utility.yul\":922:1011   */\n      tag_211\n      jump\t// in\n    tag_223:\n        /* \"#utility.yul\":1030:1038   */\n      swap1\n      swap7\n        /* \"#utility.yul\":896:1011   */\n      swap1\n      swap6\n      pop\n        /* \"#utility.yul\":587:1071   */\n      swap4\n      pop\n      pop\n      pop\n      pop\n      jump\t// out\n        /* \"#utility.yul\":1076:1547   */\n    tag_212:\n        /* \"#utility.yul\":1117:1120   */\n      0x00\n        /* \"#utility.yul\":1155:1160   */\n      dup2\n        /* \"#utility.yul\":1149:1161   */\n      mload\n        /* \"#utility.yul\":1182:1188   */\n      dup1\n        /* \"#utility.yul\":1177:1180   */\n      dup5\n        /* \"#utility.yul\":1170:1189   */\n      mstore\n        /* \"#utility.yul\":1207:1208   */\n      0x00\n        /* \"#utility.yul\":1217:1379   */\n    tag_225:\n        /* \"#utility.yul\":1231:1237   */\n      dup2\n        /* \"#utility.yul\":1228:1229   */\n      dup2\n        /* \"#utility.yul\":1225:1238   */\n      lt\n        /* \"#utility.yul\":1217:1379   */\n      iszero\n      tag_227\n      jumpi\n        /* \"#utility.yul\":1293:1297   */\n      0x20\n        /* \"#utility.yul\":1349:1362   */\n      dup2\n      dup6\n      add\n        /* \"#utility.yul\":1345:1367   */\n      dup2\n      add\n        /* \"#utility.yul\":1339:1368   */\n      mload\n        /* \"#utility.yul\":1321:1332   */\n      dup7\n      dup4\n      add\n        /* \"#utility.yul\":1317:1337   */\n      dup3\n      add\n        /* \"#utility.yul\":1310:1369   */\n      mstore\n        /* \"#utility.yul\":1246:1258   */\n      add\n        /* \"#utility.yul\":1217:1379   */\n      jump(tag_225)\n    tag_227:\n        /* \"#utility.yul\":1397:1403   */\n      dup2\n        /* \"#utility.yul\":1394:1395   */\n      dup2\n        /* \"#utility.yul\":1391:1404   */\n      gt\n        /* \"#utility.yul\":1388:1475   */\n      iszero\n      tag_228\n      jumpi\n        /* \"#utility.yul\":1463:1464   */\n      0x00\n        /* \"#utility.yul\":1456:1460   */\n      0x20\n        /* \"#utility.yul\":1447:1453   */\n      dup4\n        /* \"#utility.yul\":1442:1445   */\n      dup8\n        /* \"#utility.yul\":1438:1454   */\n      add\n        /* \"#utility.yul\":1434:1461   */\n      add\n        /* \"#utility.yul\":1427:1465   */\n      mstore\n        /* \"#utility.yul\":1388:1475   */\n    tag_228:\n      pop\n        /* \"#utility.yul\":1529:1531   */\n      0x1f\n        /* \"#utility.yul\":1508:1523   */\n      add\n      not(0x1f)\n        /* \"#utility.yul\":1504:1533   */\n      and\n        /* \"#utility.yul\":1495:1534   */\n      swap3\n      swap1\n      swap3\n      add\n        /* \"#utility.yul\":1536:1540   */\n      0x20\n        /* \"#utility.yul\":1491:1541   */\n      add\n      swap3\n        /* \"#utility.yul\":1076:1547   */\n      swap2\n      pop\n      pop\n      jump\t// out\n        /* \"#utility.yul\":1552:2362   */\n    tag_213:\n        /* \"#utility.yul\":1611:1614   */\n      0x00\n        /* \"#utility.yul\":1642:1645   */\n      dup3\n        /* \"#utility.yul\":1674:1679   */\n      dup3\n        /* \"#utility.yul\":1668:1680   */\n      mload\n        /* \"#utility.yul\":1701:1707   */\n      dup1\n        /* \"#utility.yul\":1696:1699   */\n      dup6\n        /* \"#utility.yul\":1689:1708   */\n      mstore\n        /* \"#utility.yul\":1727:1731   */\n      0x20\n        /* \"#utility.yul\":1756:1758   */\n      dup1\n        /* \"#utility.yul\":1751:1754   */\n      dup7\n        /* \"#utility.yul\":1747:1759   */\n      add\n        /* \"#utility.yul\":1740:1759   */\n      swap6\n      pop\n        /* \"#utility.yul\":1812:1814   */\n      dup1\n        /* \"#utility.yul\":1802:1808   */\n      dup3\n        /* \"#utility.yul\":1799:1800   */\n      0x05\n        /* \"#utility.yul\":1795:1809   */\n      shl\n        /* \"#utility.yul\":1788:1793   */\n      dup5\n        /* \"#utility.yul\":1784:1810   */\n      add\n        /* \"#utility.yul\":1780:1815   */\n      add\n        /* \"#utility.yul\":1849:1851   */\n      dup2\n        /* \"#utility.yul\":1842:1847   */\n      dup7\n        /* \"#utility.yul\":1838:1852   */\n      add\n        /* \"#utility.yul\":1870:1871   */\n      0x00\n        /* \"#utility.yul\":1880:2336   */\n    tag_230:\n        /* \"#utility.yul\":1894:1900   */\n      dup5\n        /* \"#utility.yul\":1891:1892   */\n      dup2\n        /* \"#utility.yul\":1888:1901   */\n      lt\n        /* \"#utility.yul\":1880:2336   */\n      iszero\n      tag_232\n      jumpi\n        /* \"#utility.yul\":1959:1975   */\n      dup6\n      dup4\n      sub\n      not(0x1f)\n        /* \"#utility.yul\":1955:1985   */\n      add\n        /* \"#utility.yul\":1943:1986   */\n      dup10\n      mstore\n        /* \"#utility.yul\":2009:2022   */\n      dup2\n      mload\n        /* \"#utility.yul\":2089:2098   */\n      dup1\n      mload\n        /* \"#utility.yul\":2082:2099   */\n      iszero\n        /* \"#utility.yul\":2075:2100   */\n      iszero\n        /* \"#utility.yul\":2062:2101   */\n      dup5\n      mstore\n        /* \"#utility.yul\":2140:2151   */\n      dup5\n      add\n        /* \"#utility.yul\":2134:2152   */\n      mload\n        /* \"#utility.yul\":2045:2049   */\n      0x40\n        /* \"#utility.yul\":2172:2185   */\n      dup6\n      dup6\n      add\n        /* \"#utility.yul\":2165:2190   */\n      dup2\n      swap1\n      mstore\n        /* \"#utility.yul\":2211:2256   */\n      tag_233\n        /* \"#utility.yul\":2242:2255   */\n      dup2\n      dup7\n      add\n        /* \"#utility.yul\":2134:2152   */\n      dup4\n        /* \"#utility.yul\":2211:2256   */\n      tag_212\n      jump\t// in\n    tag_233:\n        /* \"#utility.yul\":2314:2326   */\n      swap11\n      dup7\n      add\n      swap11\n        /* \"#utility.yul\":2203:2256   */\n      swap5\n      pop\n      pop\n      pop\n        /* \"#utility.yul\":2279:2294   */\n      swap1\n      dup4\n      add\n      swap1\n        /* \"#utility.yul\":1916:1917   */\n      0x01\n        /* \"#utility.yul\":1909:1918   */\n      add\n        /* \"#utility.yul\":1880:2336   */\n      jump(tag_230)\n    tag_232:\n      pop\n        /* \"#utility.yul\":2352:2356   */\n      swap1\n      swap8\n        /* \"#utility.yul\":1552:2362   */\n      swap7\n      pop\n      pop\n      pop\n      pop\n      pop\n      pop\n      pop\n      jump\t// out\n        /* \"#utility.yul\":2367:2678   */\n    tag_31:\n        /* \"#utility.yul\":2590:2592   */\n      0x20\n        /* \"#utility.yul\":2579:2588   */\n      dup2\n        /* \"#utility.yul\":2572:2593   */\n      mstore\n        /* \"#utility.yul\":2553:2557   */\n      0x00\n        /* \"#utility.yul\":2610:2672   */\n      tag_235\n        /* \"#utility.yul\":2668:2670   */\n      0x20\n        /* \"#utility.yul\":2657:2666   */\n      dup4\n        /* \"#utility.yul\":2653:2671   */\n      add\n        /* \"#utility.yul\":2645:2651   */\n      dup5\n        /* \"#utility.yul\":2610:2672   */\n      tag_213\n      jump\t// in\n    tag_235:\n        /* \"#utility.yul\":2602:2672   */\n      swap4\n        /* \"#utility.yul\":2367:2678   */\n      swap3\n      pop\n      pop\n      pop\n      jump\t// out\n        /* \"#utility.yul\":3165:4036   */\n    tag_37:\n        /* \"#utility.yul\":3353:3357   */\n      0x00\n        /* \"#utility.yul\":3401:3403   */\n      0x40\n        /* \"#utility.yul\":3390:3399   */\n      dup3\n        /* \"#utility.yul\":3386:3404   */\n      add\n        /* \"#utility.yul\":3431:3437   */\n      dup5\n        /* \"#utility.yul\":3420:3429   */\n      dup4\n        /* \"#utility.yul\":3413:3438   */\n      mstore\n        /* \"#utility.yul\":3457:3459   */\n      0x20\n        /* \"#utility.yul\":3495:3497   */\n      0x40\n        /* \"#utility.yul\":3490:3492   */\n      dup2\n        /* \"#utility.yul\":3479:3488   */\n      dup6\n        /* \"#utility.yul\":3475:3493   */\n      add\n        /* \"#utility.yul\":3468:3498   */\n      mstore\n        /* \"#utility.yul\":3518:3524   */\n      dup2\n        /* \"#utility.yul\":3553:3559   */\n      dup6\n        /* \"#utility.yul\":3547:3560   */\n      mload\n        /* \"#utility.yul\":3584:3590   */\n      dup1\n        /* \"#utility.yul\":3576:3582   */\n      dup5\n        /* \"#utility.yul\":3569:3591   */\n      mstore\n        /* \"#utility.yul\":3622:3624   */\n      0x60\n        /* \"#utility.yul\":3611:3620   */\n      dup7\n        /* \"#utility.yul\":3607:3625   */\n      add\n        /* \"#utility.yul\":3600:3625   */\n      swap2\n      pop\n        /* \"#utility.yul\":3684:3686   */\n      0x60\n        /* \"#utility.yul\":3674:3680   */\n      dup2\n        /* \"#utility.yul\":3671:3672   */\n      0x05\n        /* \"#utility.yul\":3667:3681   */\n      shl\n        /* \"#utility.yul\":3656:3665   */\n      dup8\n        /* \"#utility.yul\":3652:3682   */\n      add\n        /* \"#utility.yul\":3648:3687   */\n      add\n        /* \"#utility.yul\":3634:3687   */\n      swap4\n      pop\n        /* \"#utility.yul\":3722:3724   */\n      dup3\n        /* \"#utility.yul\":3714:3720   */\n      dup8\n        /* \"#utility.yul\":3710:3725   */\n      add\n        /* \"#utility.yul\":3743:3744   */\n      0x00\n        /* \"#utility.yul\":3753:4007   */\n    tag_241:\n        /* \"#utility.yul\":3767:3773   */\n      dup3\n        /* \"#utility.yul\":3764:3765   */\n      dup2\n        /* \"#utility.yul\":3761:3774   */\n      lt\n        /* \"#utility.yul\":3753:4007   */\n      iszero\n      tag_243\n      jumpi\n        /* \"#utility.yul\":3860:3862   */\n      0x5f\n        /* \"#utility.yul\":3856:3863   */\n      not\n        /* \"#utility.yul\":3844:3853   */\n      dup9\n        /* \"#utility.yul\":3836:3842   */\n      dup8\n        /* \"#utility.yul\":3832:3854   */\n      sub\n        /* \"#utility.yul\":3828:3864   */\n      add\n        /* \"#utility.yul\":3823:3826   */\n      dup5\n        /* \"#utility.yul\":3816:3865   */\n      mstore\n        /* \"#utility.yul\":3888:3927   */\n      tag_244\n        /* \"#utility.yul\":3920:3926   */\n      dup7\n        /* \"#utility.yul\":3911:3917   */\n      dup4\n        /* \"#utility.yul\":3905:3918   */\n      mload\n        /* \"#utility.yul\":3888:3927   */\n      tag_212\n      jump\t// in\n    tag_244:\n        /* \"#utility.yul\":3878:3927   */\n      swap6\n      pop\n        /* \"#utility.yul\":3985:3997   */\n      swap3\n      dup5\n      add\n      swap3\n        /* \"#utility.yul\":3950:3965   */\n      swap1\n      dup5\n      add\n      swap1\n        /* \"#utility.yul\":3789:3790   */\n      0x01\n        /* \"#utility.yul\":3782:3791   */\n      add\n        /* \"#utility.yul\":3753:4007   */\n      jump(tag_241)\n    tag_243:\n      pop\n        /* \"#utility.yul\":4024:4030   */\n      swap4\n      swap9\n        /* \"#utility.yul\":3165:4036   */\n      swap8\n      pop\n      pop\n      pop\n      pop\n      pop\n      pop\n      pop\n      pop\n      jump\t// out\n        /* \"#utility.yul\":4223:4861   */\n    tag_49:\n        /* \"#utility.yul\":4336:4342   */\n      0x00\n        /* \"#utility.yul\":4344:4350   */\n      dup1\n        /* \"#utility.yul\":4352:4358   */\n      0x00\n        /* \"#utility.yul\":4405:4407   */\n      0x40\n        /* \"#utility.yul\":4393:4402   */\n      dup5\n        /* \"#utility.yul\":4384:4391   */\n      dup7\n        /* \"#utility.yul\":4380:4403   */\n      sub\n        /* \"#utility.yul\":4376:4408   */\n      slt\n        /* \"#utility.yul\":4373:4425   */\n      iszero\n      tag_247\n      jumpi\n        /* \"#utility.yul\":4421:4422   */\n      0x00\n        /* \"#utility.yul\":4418:4419   */\n      dup1\n        /* \"#utility.yul\":4411:4423   */\n      revert\n        /* \"#utility.yul\":4373:4425   */\n    tag_247:\n        /* \"#utility.yul\":4460:4469   */\n      dup4\n        /* \"#utility.yul\":4447:4470   */\n      calldataload\n        /* \"#utility.yul\":4513:4518   */\n      dup1\n        /* \"#utility.yul\":4506:4519   */\n      iszero\n        /* \"#utility.yul\":4499:4520   */\n      iszero\n        /* \"#utility.yul\":4492:4497   */\n      dup2\n        /* \"#utility.yul\":4489:4521   */\n      eq\n        /* \"#utility.yul\":4479:4539   */\n      tag_248\n      jumpi\n        /* \"#utility.yul\":4535:4536   */\n      0x00\n        /* \"#utility.yul\":4532:4533   */\n      dup1\n        /* \"#utility.yul\":4525:4537   */\n      revert\n        /* \"#utility.yul\":4479:4539   */\n    tag_248:\n        /* \"#utility.yul\":4558:4563   */\n      swap3\n      pop\n        /* \"#utility.yul\":4614:4616   */\n      0x20\n        /* \"#utility.yul\":4599:4617   */\n      dup5\n      add\n        /* \"#utility.yul\":4586:4618   */\n      calldataload\n        /* \"#utility.yul\":4641:4659   */\n      0xffffffffffffffff\n        /* \"#utility.yul\":4630:4660   */\n      dup2\n      gt\n        /* \"#utility.yul\":4627:4677   */\n      iszero\n      tag_249\n      jumpi\n        /* \"#utility.yul\":4673:4674   */\n      0x00\n        /* \"#utility.yul\":4670:4671   */\n      dup1\n        /* \"#utility.yul\":4663:4675   */\n      revert\n        /* \"#utility.yul\":4627:4677   */\n    tag_249:\n        /* \"#utility.yul\":4712:4801   */\n      tag_250\n        /* \"#utility.yul\":4793:4800   */\n      dup7\n        /* \"#utility.yul\":4784:4790   */\n      dup3\n        /* \"#utility.yul\":4773:4782   */\n      dup8\n        /* \"#utility.yul\":4769:4791   */\n      add\n        /* \"#utility.yul\":4712:4801   */\n      tag_211\n      jump\t// in\n    tag_250:\n        /* \"#utility.yul\":4223:4861   */\n      swap5\n      swap8\n        /* \"#utility.yul\":4820:4828   */\n      swap1\n      swap7\n      pop\n        /* \"#utility.yul\":4686:4801   */\n      swap4\n      swap5\n      pop\n      pop\n      pop\n      pop\n        /* \"#utility.yul\":4223:4861   */\n      jump\t// out\n        /* \"#utility.yul\":4866:5319   */\n    tag_52:\n        /* \"#utility.yul\":5145:5151   */\n      dup4\n        /* \"#utility.yul\":5134:5143   */\n      dup2\n        /* \"#utility.yul\":5127:5152   */\n      mstore\n        /* \"#utility.yul\":5188:5194   */\n      dup3\n        /* \"#utility.yul\":5183:5185   */\n      0x20\n        /* \"#utility.yul\":5172:5181   */\n      dup3\n        /* \"#utility.yul\":5168:5186   */\n      add\n        /* \"#utility.yul\":5161:5195   */\n      mstore\n        /* \"#utility.yul\":5231:5233   */\n      0x60\n        /* \"#utility.yul\":5226:5228   */\n      0x40\n        /* \"#utility.yul\":5215:5224   */\n      dup3\n        /* \"#utility.yul\":5211:5229   */\n      add\n        /* \"#utility.yul\":5204:5234   */\n      mstore\n        /* \"#utility.yul\":5108:5112   */\n      0x00\n        /* \"#utility.yul\":5251:5313   */\n      tag_252\n        /* \"#utility.yul\":5309:5311   */\n      0x60\n        /* \"#utility.yul\":5298:5307   */\n      dup4\n        /* \"#utility.yul\":5294:5312   */\n      add\n        /* \"#utility.yul\":5286:5292   */\n      dup5\n        /* \"#utility.yul\":5251:5313   */\n      tag_213\n      jump\t// in\n    tag_252:\n        /* \"#utility.yul\":5243:5313   */\n      swap6\n        /* \"#utility.yul\":4866:5319   */\n      swap5\n      pop\n      pop\n      pop\n      pop\n      pop\n      jump\t// out\n        /* \"#utility.yul\":5324:5610   */\n    tag_64:\n        /* \"#utility.yul\":5383:5389   */\n      0x00\n        /* \"#utility.yul\":5436:5438   */\n      0x20\n        /* \"#utility.yul\":5424:5433   */\n      dup3\n        /* \"#utility.yul\":5415:5422   */\n      dup5\n        /* \"#utility.yul\":5411:5434   */\n      sub\n        /* \"#utility.yul\":5407:5439   */\n      slt\n        /* \"#utility.yul\":5404:5456   */\n      iszero\n      tag_254\n      jumpi\n        /* \"#utility.yul\":5452:5453   */\n      0x00\n        /* \"#utility.yul\":5449:5450   */\n      dup1\n        /* \"#utility.yul\":5442:5454   */\n      revert\n        /* \"#utility.yul\":5404:5456   */\n    tag_254:\n        /* \"#utility.yul\":5478:5501   */\n      dup2\n      calldataload\n      sub(shl(0xa0, 0x01), 0x01)\n        /* \"#utility.yul\":5530:5561   */\n      dup2\n      and\n        /* \"#utility.yul\":5520:5562   */\n      dup2\n      eq\n        /* \"#utility.yul\":5510:5580   */\n      tag_235\n      jumpi\n        /* \"#utility.yul\":5576:5577   */\n      0x00\n        /* \"#utility.yul\":5573:5574   */\n      dup1\n        /* \"#utility.yul\":5566:5578   */\n      revert\n        /* \"#utility.yul\":6307:6487   */\n    tag_96:\n        /* \"#utility.yul\":6366:6372   */\n      0x00\n        /* \"#utility.yul\":6419:6421   */\n      0x20\n        /* \"#utility.yul\":6407:6416   */\n      dup3\n        /* \"#utility.yul\":6398:6405   */\n      dup5\n        /* \"#utility.yul\":6394:6417   */\n      sub\n        /* \"#utility.yul\":6390:6422   */\n      slt\n        /* \"#utility.yul\":6387:6439   */\n      iszero\n      tag_262\n      jumpi\n        /* \"#utility.yul\":6435:6436   */\n      0x00\n        /* \"#utility.yul\":6432:6433   */\n      dup1\n        /* \"#utility.yul\":6425:6437   */\n      revert\n        /* \"#utility.yul\":6387:6439   */\n    tag_262:\n      pop\n        /* \"#utility.yul\":6458:6481   */\n      calldataload\n      swap2\n        /* \"#utility.yul\":6307:6487   */\n      swap1\n      pop\n      jump\t// out\n        /* \"#utility.yul\":6492:6619   */\n    tag_103:\n        /* \"#utility.yul\":6553:6563   */\n      0x4e487b71\n        /* \"#utility.yul\":6548:6551   */\n      0xe0\n        /* \"#utility.yul\":6544:6564   */\n      shl\n        /* \"#utility.yul\":6541:6542   */\n      0x00\n        /* \"#utility.yul\":6534:6565   */\n      mstore\n        /* \"#utility.yul\":6584:6588   */\n      0x41\n        /* \"#utility.yul\":6581:6582   */\n      0x04\n        /* \"#utility.yul\":6574:6589   */\n      mstore\n        /* \"#utility.yul\":6608:6612   */\n      0x24\n        /* \"#utility.yul\":6605:6606   */\n      0x00\n        /* \"#utility.yul\":6598:6613   */\n      revert\n        /* \"#utility.yul\":6624:6751   */\n    tag_113:\n        /* \"#utility.yul\":6685:6695   */\n      0x4e487b71\n        /* \"#utility.yul\":6680:6683   */\n      0xe0\n        /* \"#utility.yul\":6676:6696   */\n      shl\n        /* \"#utility.yul\":6673:6674   */\n      0x00\n        /* \"#utility.yul\":6666:6697   */\n      mstore\n        /* \"#utility.yul\":6716:6720   */\n      0x32\n        /* \"#utility.yul\":6713:6714   */\n      0x04\n        /* \"#utility.yul\":6706:6721   */\n      mstore\n        /* \"#utility.yul\":6740:6744   */\n      0x24\n        /* \"#utility.yul\":6737:6738   */\n      0x00\n        /* \"#utility.yul\":6730:6745   */\n      revert\n        /* \"#utility.yul\":6756:7082   */\n    tag_117:\n        /* \"#utility.yul\":6850:6854   */\n      0x00\n        /* \"#utility.yul\":6908:6919   */\n      dup3\n        /* \"#utility.yul\":6895:6920   */\n      calldataload\n        /* \"#utility.yul\":7002:7005   */\n      0x7e\n        /* \"#utility.yul\":6998:7006   */\n      not\n        /* \"#utility.yul\":6987:6995   */\n      dup4\n        /* \"#utility.yul\":6971:6985   */\n      calldatasize\n        /* \"#utility.yul\":6967:6996   */\n      sub\n        /* \"#utility.yul\":6963:7007   */\n      add\n        /* \"#utility.yul\":6943:6961   */\n      dup2\n        /* \"#utility.yul\":6939:7008   */\n      slt\n        /* \"#utility.yul\":6929:7026   */\n      tag_266\n      jumpi\n        /* \"#utility.yul\":7022:7023   */\n      0x00\n        /* \"#utility.yul\":7019:7020   */\n      dup1\n        /* \"#utility.yul\":7012:7024   */\n      revert\n        /* \"#utility.yul\":6929:7026   */\n    tag_266:\n        /* \"#utility.yul\":7043:7076   */\n      swap2\n      swap1\n      swap2\n      add\n      swap3\n        /* \"#utility.yul\":6756:7082   */\n      swap2\n      pop\n      pop\n      jump\t// out\n        /* \"#utility.yul\":7087:7608   */\n    tag_120:\n        /* \"#utility.yul\":7164:7168   */\n      0x00\n        /* \"#utility.yul\":7170:7176   */\n      dup1\n        /* \"#utility.yul\":7230:7241   */\n      dup4\n        /* \"#utility.yul\":7217:7242   */\n      calldataload\n        /* \"#utility.yul\":7324:7326   */\n      0x1e\n        /* \"#utility.yul\":7320:7327   */\n      not\n        /* \"#utility.yul\":7309:7317   */\n      dup5\n        /* \"#utility.yul\":7293:7307   */\n      calldatasize\n        /* \"#utility.yul\":7289:7318   */\n      sub\n        /* \"#utility.yul\":7285:7328   */\n      add\n        /* \"#utility.yul\":7265:7283   */\n      dup2\n        /* \"#utility.yul\":7261:7329   */\n      slt\n        /* \"#utility.yul\":7251:7347   */\n      tag_268\n      jumpi\n        /* \"#utility.yul\":7343:7344   */\n      0x00\n        /* \"#utility.yul\":7340:7341   */\n      dup1\n        /* \"#utility.yul\":7333:7345   */\n      revert\n        /* \"#utility.yul\":7251:7347   */\n    tag_268:\n        /* \"#utility.yul\":7370:7403   */\n      dup4\n      add\n        /* \"#utility.yul\":7422:7442   */\n      dup1\n      calldataload\n      swap2\n      pop\n        /* \"#utility.yul\":7465:7483   */\n      0xffffffffffffffff\n        /* \"#utility.yul\":7454:7484   */\n      dup3\n      gt\n        /* \"#utility.yul\":7451:7501   */\n      iszero\n      tag_269\n      jumpi\n        /* \"#utility.yul\":7497:7498   */\n      0x00\n        /* \"#utility.yul\":7494:7495   */\n      dup1\n        /* \"#utility.yul\":7487:7499   */\n      revert\n        /* \"#utility.yul\":7451:7501   */\n    tag_269:\n        /* \"#utility.yul\":7530:7534   */\n      0x20\n        /* \"#utility.yul\":7518:7535   */\n      add\n      swap2\n      pop\n        /* \"#utility.yul\":7561:7575   */\n      calldatasize\n        /* \"#utility.yul\":7557:7584   */\n      dup2\n      swap1\n      sub\n        /* \"#utility.yul\":7547:7585   */\n      dup3\n      sgt\n        /* \"#utility.yul\":7544:7602   */\n      iszero\n      tag_219\n      jumpi\n        /* \"#utility.yul\":7598:7599   */\n      0x00\n        /* \"#utility.yul\":7595:7596   */\n      dup1\n        /* \"#utility.yul\":7588:7600   */\n      revert\n        /* \"#utility.yul\":7613:7884   */\n    tag_122:\n        /* \"#utility.yul\":7796:7802   */\n      dup2\n        /* \"#utility.yul\":7788:7794   */\n      dup4\n        /* \"#utility.yul\":7783:7786   */\n      dup3\n        /* \"#utility.yul\":7770:7803   */\n      calldatacopy\n        /* \"#utility.yul\":7752:7755   */\n      0x00\n        /* \"#utility.yul\":7822:7838   */\n      swap2\n      add\n        /* \"#utility.yul\":7847:7860   */\n      swap1\n      dup2\n      mstore\n        /* \"#utility.yul\":7822:7838   */\n      swap2\n        /* \"#utility.yul\":7613:7884   */\n      swap1\n      pop\n      jump\t// out\n        /* \"#utility.yul\":8244:8562   */\n    tag_141:\n        /* \"#utility.yul\":8331:8335   */\n      0x00\n        /* \"#utility.yul\":8389:8400   */\n      dup3\n        /* \"#utility.yul\":8376:8401   */\n      calldataload\n        /* \"#utility.yul\":8483:8485   */\n      0x3e\n        /* \"#utility.yul\":8479:8486   */\n      not\n        /* \"#utility.yul\":8468:8476   */\n      dup4\n        /* \"#utility.yul\":8452:8466   */\n      calldatasize\n        /* \"#utility.yul\":8448:8477   */\n      sub\n        /* \"#utility.yul\":8444:8487   */\n      add\n        /* \"#utility.yul\":8424:8442   */\n      dup2\n        /* \"#utility.yul\":8420:8488   */\n      slt\n        /* \"#utility.yul\":8410:8506   */\n      tag_266\n      jumpi\n        /* \"#utility.yul\":8502:8503   */\n      0x00\n        /* \"#utility.yul\":8499:8500   */\n      dup1\n        /* \"#utility.yul\":8492:8504   */\n      revert\n        /* \"#utility.yul\":8919:9239   */\n    tag_175:\n        /* \"#utility.yul\":9008:9012   */\n      0x00\n        /* \"#utility.yul\":9066:9077   */\n      dup3\n        /* \"#utility.yul\":9053:9078   */\n      calldataload\n        /* \"#utility.yul\":9160:9162   */\n      0x5e\n        /* \"#utility.yul\":9156:9163   */\n      not\n        /* \"#utility.yul\":9145:9153   */\n      dup4\n        /* \"#utility.yul\":9129:9143   */\n      calldatasize\n        /* \"#utility.yul\":9125:9154   */\n      sub\n        /* \"#utility.yul\":9121:9164   */\n      add\n        /* \"#utility.yul\":9101:9119   */\n      dup2\n        /* \"#utility.yul\":9097:9165   */\n      slt\n        /* \"#utility.yul\":9087:9183   */\n      tag_266\n      jumpi\n        /* \"#utility.yul\":9179:9180   */\n      0x00\n        /* \"#utility.yul\":9176:9177   */\n      dup1\n        /* \"#utility.yul\":9169:9181   */\n      revert\n\n    auxdata: 0xa2646970667358221220bfb196f5836305d8ad305fe21868cecab478369ed980fe84db418e6dcd1adf0764736f6c634300080c0033\n}\n",
				"bytecode": {
					"linkReferences": {},
					"object": "608060405234801561001057600080fd5b50610cd6806100206000396000f3fe6080604052600436106100f35760003560e01c80634d2301cc1161008a578063a8b0574e11610059578063a8b0574e1461022f578063bce38bd71461024a578063c3077fa91461025d578063ee82ac5e1461027057600080fd5b80634d2301cc146101ce57806372425d9d146101f657806382ad56cb1461020957806386d516e81461021c57600080fd5b80633408e470116100c65780633408e47014610173578063399542e9146101865780633e64a696146101a857806342cbb15c146101bb57600080fd5b80630f28c97d146100f8578063174dea711461011a578063252dba421461013a57806327e86d6e1461015b575b600080fd5b34801561010457600080fd5b50425b6040519081526020015b60405180910390f35b61012d61012836600461098c565b61028f565b6040516101119190610a89565b61014d61014836600461098c565b61047d565b604051610111929190610aa3565b34801561016757600080fd5b50436000190140610107565b34801561017f57600080fd5b5046610107565b610199610194366004610b0d565b6105f1565b60405161011193929190610b67565b3480156101b457600080fd5b5048610107565b3480156101c757600080fd5b5043610107565b3480156101da57600080fd5b506101076101e9366004610b8f565b6001600160a01b03163190565b34801561020257600080fd5b5044610107565b61012d61021736600461098c565b61060c565b34801561022857600080fd5b5045610107565b34801561023b57600080fd5b50604051418152602001610111565b61012d610258366004610b0d565b61078e565b61019961026b36600461098c565b610921565b34801561027c57600080fd5b5061010761028b366004610bb8565b4090565b60606000828067ffffffffffffffff8111156102ad576102ad610bd1565b6040519080825280602002602001820160405280156102f357816020015b6040805180820190915260008152606060208201528152602001906001900390816102cb5790505b5092503660005b8281101561041f57600085828151811061031657610316610be7565b6020026020010151905087878381811061033257610332610be7565b90506020028101906103449190610bfd565b60408101359586019590935061035d6020850185610b8f565b6001600160a01b0316816103746060870187610c1d565b604051610382929190610c64565b60006040518083038185875af1925050503d80600081146103bf576040519150601f19603f3d011682016040523d82523d6000602084013e6103c4565b606091505b5060208085019190915290151580845290850135176104155762461bcd60e51b6000526020600452601760245276135d5b1d1a58d85b1b0cce8818d85b1b0819985a5b1959604a1b60445260846000fd5b50506001016102fa565b508234146104745760405162461bcd60e51b815260206004820152601a60248201527f4d756c746963616c6c333a2076616c7565206d69736d6174636800000000000060448201526064015b60405180910390fd5b50505092915050565b436060828067ffffffffffffffff81111561049a5761049a610bd1565b6040519080825280602002602001820160405280156104cd57816020015b60608152602001906001900390816104b85790505b5091503660005b828110156105e75760008787838181106104f0576104f0610be7565b90506020028101906105029190610c74565b92506105116020840184610b8f565b6001600160a01b03166105276020850185610c1d565b604051610535929190610c64565b6000604051808303816000865af19150503d8060008114610572576040519150601f19603f3d011682016040523d82523d6000602084013e610577565b606091505b5086848151811061058a5761058a610be7565b60209081029190910101529050806105de5760405162461bcd60e51b8152602060048201526017602482015276135d5b1d1a58d85b1b0cce8818d85b1b0819985a5b1959604a1b604482015260640161046b565b506001016104d4565b5050509250929050565b438040606061060186868661078e565b905093509350939050565b6060818067ffffffffffffffff81111561062857610628610bd1565b60405190808252806020026020018201604052801561066e57816020015b6040805180820190915260008152606060208201528152602001906001900390816106465790505b5091503660005b8281101561047457600084828151811061069157610691610be7565b602002602001015190508686838181106106ad576106ad610be7565b90506020028101906106bf9190610c8a565b92506106ce6020840184610b8f565b6001600160a01b03166106e46040850185610c1d565b6040516106f2929190610c64565b6000604051808303816000865af19150503d806000811461072f576040519150601f19603f3d011682016040523d82523d6000602084013e610734565b606091505b5060208084019190915290151580835290840135176107855762461bcd60e51b6000526020600452601760245276135d5b1d1a58d85b1b0cce8818d85b1b0819985a5b1959604a1b60445260646000fd5b50600101610675565b6060818067ffffffffffffffff8111156107aa576107aa610bd1565b6040519080825280602002602001820160405280156107f057816020015b6040805180820190915260008152606060208201528152602001906001900390816107c85790505b5091503660005b8281101561091757600084828151811061081357610813610be7565b6020026020010151905086868381811061082f5761082f610be7565b90506020028101906108419190610c74565b92506108506020840184610b8f565b6001600160a01b03166108666020850185610c1d565b604051610874929190610c64565b6000604051808303816000865af19150503d80600081146108b1576040519150601f19603f3d011682016040523d82523d6000602084013e6108b6565b606091505b50602083015215158152871561090e57805161090e5760405162461bcd60e51b8152602060048201526017602482015276135d5b1d1a58d85b1b0cce8818d85b1b0819985a5b1959604a1b604482015260640161046b565b506001016107f7565b5050509392505050565b6000806060610932600186866105f1565b919790965090945092505050565b60008083601f84011261095257600080fd5b50813567ffffffffffffffff81111561096a57600080fd5b6020830191508360208260051b850101111561098557600080fd5b9250929050565b6000806020838503121561099f57600080fd5b823567ffffffffffffffff8111156109b657600080fd5b6109c285828601610940565b90969095509350505050565b6000815180845260005b818110156109f4576020818501810151868301820152016109d8565b81811115610a06576000602083870101525b50601f01601f19169290920160200192915050565b600082825180855260208086019550808260051b84010181860160005b84811015610a7c57858303601f1901895281518051151584528401516040858501819052610a68818601836109ce565b9a86019a9450505090830190600101610a38565b5090979650505050505050565b602081526000610a9c6020830184610a1b565b9392505050565b600060408201848352602060408185015281855180845260608601915060608160051b870101935082870160005b82811015610aff57605f19888703018452610aed8683516109ce565b95509284019290840190600101610ad1565b509398975050505050505050565b600080600060408486031215610b2257600080fd5b83358015158114610b3257600080fd5b9250602084013567ffffffffffffffff811115610b4e57600080fd5b610b5a86828701610940565b9497909650939450505050565b838152826020820152606060408201526000610b866060830184610a1b565b95945050505050565b600060208284031215610ba157600080fd5b81356001600160a01b0381168114610a9c57600080fd5b600060208284031215610bca57600080fd5b5035919050565b634e487b7160e01b600052604160045260246000fd5b634e487b7160e01b600052603260045260246000fd5b60008235607e19833603018112610c1357600080fd5b9190910192915050565b6000808335601e19843603018112610c3457600080fd5b83018035915067ffffffffffffffff821115610c4f57600080fd5b60200191503681900382131561098557600080fd5b8183823760009101908152919050565b60008235603e19833603018112610c1357600080fd5b60008235605e19833603018112610c1357600080fdfea2646970667358221220bfb196f5836305d8ad305fe21868cecab478369ed980fe84db418e6dcd1adf0764736f6c634300080c0033",
					"opcodes": "PUSH1 0x80 PUSH1 0x40 MSTORE CALLVALUE DUP1 ISZERO PUSH2 0x10 JUMPI PUSH1 0x0 DUP1 REVERT JUMPDEST POP PUSH2 0xCD6 DUP1 PUSH2 0x20 PUSH1 0x0 CODECOPY PUSH1 0x0 RETURN INVALID PUSH1 0x80 PUSH1 0x40 MSTORE PUSH1 0x4 CALLDATASIZE LT PUSH2 0xF3 JUMPI PUSH1 0x0 CALLDATALOAD PUSH1 0xE0 SHR DUP1 PUSH4 0x4D2301CC GT PUSH2 0x8A JUMPI DUP1 PUSH4 0xA8B0574E GT PUSH2 0x59 JUMPI DUP1 PUSH4 0xA8B0574E EQ PUSH2 0x22F JUMPI DUP1 PUSH4 0xBCE38BD7 EQ PUSH2 0x24A JUMPI DUP1 PUSH4 0xC3077FA9 EQ PUSH2 0x25D JUMPI DUP1 PUSH4 0xEE82AC5E EQ PUSH2 0x270 JUMPI PUSH1 0x0 DUP1 REVERT JUMPDEST DUP1 PUSH4 0x4D2301CC EQ PUSH2 0x1CE JUMPI DUP1 PUSH4 0x72425D9D EQ PUSH2 0x1F6 JUMPI DUP1 PUSH4 0x82AD56CB EQ PUSH2 0x209 JUMPI DUP1 PUSH4 0x86D516E8 EQ PUSH2 0x21C JUMPI PUSH1 0x0 DUP1 REVERT JUMPDEST DUP1 PUSH4 0x3408E470 GT PUSH2 0xC6 JUMPI DUP1 PUSH4 0x3408E470 EQ PUSH2 0x173 JUMPI DUP1 PUSH4 0x399542E9 EQ PUSH2 0x186 JUMPI DUP1 PUSH4 0x3E64A696 EQ PUSH2 0x1A8 JUMPI DUP1 PUSH4 0x42CBB15C EQ PUSH2 0x1BB JUMPI PUSH1 0x0 DUP1 REVERT JUMPDEST DUP1 PUSH4 0xF28C97D EQ PUSH2 0xF8 JUMPI DUP1 PUSH4 0x174DEA71 EQ PUSH2 0x11A JUMPI DUP1 PUSH4 0x252DBA42 EQ PUSH2 0x13A JUMPI DUP1 PUSH4 0x27E86D6E EQ PUSH2 0x15B JUMPI JUMPDEST PUSH1 0x0 DUP1 REVERT JUMPDEST CALLVALUE DUP1 ISZERO PUSH2 0x104 JUMPI PUSH1 0x0 DUP1 REVERT JUMPDEST POP TIMESTAMP JUMPDEST PUSH1 0x40 MLOAD SWAP1 DUP2 MSTORE PUSH1 0x20 ADD JUMPDEST PUSH1 0x40 MLOAD DUP1 SWAP2 SUB SWAP1 RETURN JUMPDEST PUSH2 0x12D PUSH2 0x128 CALLDATASIZE PUSH1 0x4 PUSH2 0x98C JUMP JUMPDEST PUSH2 0x28F JUMP JUMPDEST PUSH1 0x40 MLOAD PUSH2 0x111 SWAP2 SWAP1 PUSH2 0xA89 JUMP JUMPDEST PUSH2 0x14D PUSH2 0x148 CALLDATASIZE PUSH1 0x4 PUSH2 0x98C JUMP JUMPDEST PUSH2 0x47D JUMP JUMPDEST PUSH1 0x40 MLOAD PUSH2 0x111 SWAP3 SWAP2 SWAP1 PUSH2 0xAA3 JUMP JUMPDEST CALLVALUE DUP1 ISZERO PUSH2 0x167 JUMPI PUSH1 0x0 DUP1 REVERT JUMPDEST POP NUMBER PUSH1 0x0 NOT ADD BLOCKHASH PUSH2 0x107 JUMP JUMPDEST CALLVALUE DUP1 ISZERO PUSH2 0x17F JUMPI PUSH1 0x0 DUP1 REVERT JUMPDEST POP CHAINID PUSH2 0x107 JUMP JUMPDEST PUSH2 0x199 PUSH2 0x194 CALLDATASIZE PUSH1 0x4 PUSH2 0xB0D JUMP JUMPDEST PUSH2 0x5F1 JUMP JUMPDEST PUSH1 0x40 MLOAD PUSH2 0x111 SWAP4 SWAP3 SWAP2 SWAP1 PUSH2 0xB67 JUMP JUMPDEST CALLVALUE DUP1 ISZERO PUSH2 0x1B4 JUMPI PUSH1 0x0 DUP1 REVERT JUMPDEST POP BASEFEE PUSH2 0x107 JUMP JUMPDEST CALLVALUE DUP1 ISZERO PUSH2 0x1C7 JUMPI PUSH1 0x0 DUP1 REVERT JUMPDEST POP NUMBER PUSH2 0x107 JUMP JUMPDEST CALLVALUE DUP1 ISZERO PUSH2 0x1DA JUMPI PUSH1 0x0 DUP1 REVERT JUMPDEST POP PUSH2 0x107 PUSH2 0x1E9 CALLDATASIZE PUSH1 0x4 PUSH2 0xB8F JUMP JUMPDEST PUSH1 0x1 PUSH1 0x1 PUSH1 0xA0 SHL SUB AND BALANCE SWAP1 JUMP JUMPDEST CALLVALUE DUP1 ISZERO PUSH2 0x202 JUMPI PUSH1 0x0 DUP1 REVERT JUMPDEST POP DIFFICULTY PUSH2 0x107 JUMP JUMPDEST PUSH2 0x12D PUSH2 0x217 CALLDATASIZE PUSH1 0x4 PUSH2 0x98C JUMP JUMPDEST PUSH2 0x60C JUMP JUMPDEST CALLVALUE DUP1 ISZERO PUSH2 0x228 JUMPI PUSH1 0x0 DUP1 REVERT JUMPDEST POP GASLIMIT PUSH2 0x107 JUMP JUMPDEST CALLVALUE DUP1 ISZERO PUSH2 0x23B JUMPI PUSH1 0x0 DUP1 REVERT JUMPDEST POP PUSH1 0x40 MLOAD COINBASE DUP2 MSTORE PUSH1 0x20 ADD PUSH2 0x111 JUMP JUMPDEST PUSH2 0x12D PUSH2 0x258 CALLDATASIZE PUSH1 0x4 PUSH2 0xB0D JUMP JUMPDEST PUSH2 0x78E JUMP JUMPDEST PUSH2 0x199 PUSH2 0x26B CALLDATASIZE PUSH1 0x4 PUSH2 0x98C JUMP JUMPDEST PUSH2 0x921 JUMP JUMPDEST CALLVALUE DUP1 ISZERO PUSH2 0x27C JUMPI PUSH1 0x0 DUP1 REVERT JUMPDEST POP PUSH2 0x107 PUSH2 0x28B CALLDATASIZE PUSH1 0x4 PUSH2 0xBB8 JUMP JUMPDEST BLOCKHASH SWAP1 JUMP JUMPDEST PUSH1 0x60 PUSH1 0x0 DUP3 DUP1 PUSH8 0xFFFFFFFFFFFFFFFF DUP2 GT ISZERO PUSH2 0x2AD JUMPI PUSH2 0x2AD PUSH2 0xBD1 JUMP JUMPDEST PUSH1 0x40 MLOAD SWAP1 DUP1 DUP3 MSTORE DUP1 PUSH1 0x20 MUL PUSH1 0x20 ADD DUP3 ADD PUSH1 0x40 MSTORE DUP1 ISZERO PUSH2 0x2F3 JUMPI DUP2 PUSH1 0x20 ADD JUMPDEST PUSH1 0x40 DUP1 MLOAD DUP1 DUP3 ADD SWAP1 SWAP2 MSTORE PUSH1 0x0 DUP2 MSTORE PUSH1 0x60 PUSH1 0x20 DUP3 ADD MSTORE DUP2 MSTORE PUSH1 0x20 ADD SWAP1 PUSH1 0x1 SWAP1 SUB SWAP1 DUP2 PUSH2 0x2CB JUMPI SWAP1 POP JUMPDEST POP SWAP3 POP CALLDATASIZE PUSH1 0x0 JUMPDEST DUP3 DUP2 LT ISZERO PUSH2 0x41F JUMPI PUSH1 0x0 DUP6 DUP3 DUP2 MLOAD DUP2 LT PUSH2 0x316 JUMPI PUSH2 0x316 PUSH2 0xBE7 JUMP JUMPDEST PUSH1 0x20 MUL PUSH1 0x20 ADD ADD MLOAD SWAP1 POP DUP8 DUP8 DUP4 DUP2 DUP2 LT PUSH2 0x332 JUMPI PUSH2 0x332 PUSH2 0xBE7 JUMP JUMPDEST SWAP1 POP PUSH1 0x20 MUL DUP2 ADD SWAP1 PUSH2 0x344 SWAP2 SWAP1 PUSH2 0xBFD JUMP JUMPDEST PUSH1 0x40 DUP2 ADD CALLDATALOAD SWAP6 DUP7 ADD SWAP6 SWAP1 SWAP4 POP PUSH2 0x35D PUSH1 0x20 DUP6 ADD DUP6 PUSH2 0xB8F JUMP JUMPDEST PUSH1 0x1 PUSH1 0x1 PUSH1 0xA0 SHL SUB AND DUP2 PUSH2 0x374 PUSH1 0x60 DUP8 ADD DUP8 PUSH2 0xC1D JUMP JUMPDEST PUSH1 0x40 MLOAD PUSH2 0x382 SWAP3 SWAP2 SWAP1 PUSH2 0xC64 JUMP JUMPDEST PUSH1 0x0 PUSH1 0x40 MLOAD DUP1 DUP4 SUB DUP2 DUP6 DUP8 GAS CALL SWAP3 POP POP POP RETURNDATASIZE DUP1 PUSH1 0x0 DUP2 EQ PUSH2 0x3BF JUMPI PUSH1 0x40 MLOAD SWAP2 POP PUSH1 0x1F NOT PUSH1 0x3F RETURNDATASIZE ADD AND DUP3 ADD PUSH1 0x40 MSTORE RETURNDATASIZE DUP3 MSTORE RETURNDATASIZE PUSH1 0x0 PUSH1 0x20 DUP5 ADD RETURNDATACOPY PUSH2 0x3C4 JUMP JUMPDEST PUSH1 0x60 SWAP2 POP JUMPDEST POP PUSH1 0x20 DUP1 DUP6 ADD SWAP2 SWAP1 SWAP2 MSTORE SWAP1 ISZERO ISZERO DUP1 DUP5 MSTORE SWAP1 DUP6 ADD CALLDATALOAD OR PUSH2 0x415 JUMPI PUSH3 0x461BCD PUSH1 0xE5 SHL PUSH1 0x0 MSTORE PUSH1 0x20 PUSH1 0x4 MSTORE PUSH1 0x17 PUSH1 0x24 MSTORE PUSH23 0x135D5B1D1A58D85B1B0CCE8818D85B1B0819985A5B1959 PUSH1 0x4A SHL PUSH1 0x44 MSTORE PUSH1 0x84 PUSH1 0x0 REVERT JUMPDEST POP POP PUSH1 0x1 ADD PUSH2 0x2FA JUMP JUMPDEST POP DUP3 CALLVALUE EQ PUSH2 0x474 JUMPI PUSH1 0x40 MLOAD PUSH3 0x461BCD PUSH1 0xE5 SHL DUP2 MSTORE PUSH1 0x20 PUSH1 0x4 DUP3 ADD MSTORE PUSH1 0x1A PUSH1 0x24 DUP3 ADD MSTORE PUSH32 0x4D756C746963616C6C333A2076616C7565206D69736D61746368000000000000 PUSH1 0x44 DUP3 ADD MSTORE PUSH1 0x64 ADD JUMPDEST PUSH1 0x40 MLOAD DUP1 SWAP2 SUB SWAP1 REVERT JUMPDEST POP POP POP SWAP3 SWAP2 POP POP JUMP JUMPDEST NUMBER PUSH1 0x60 DUP3 DUP1 PUSH8 0xFFFFFFFFFFFFFFFF DUP2 GT ISZERO PUSH2 0x49A JUMPI PUSH2 0x49A PUSH2 0xBD1 JUMP JUMPDEST PUSH1 0x40 MLOAD SWAP1 DUP1 DUP3 MSTORE DUP1 PUSH1 0x20 MUL PUSH1 0x20 ADD DUP3 ADD PUSH1 0x40 MSTORE DUP1 ISZERO PUSH2 0x4CD JUMPI DUP2 PUSH1 0x20 ADD JUMPDEST PUSH1 0x60 DUP2 MSTORE PUSH1 0x20 ADD SWAP1 PUSH1 0x1 SWAP1 SUB SWAP1 DUP2 PUSH2 0x4B8 JUMPI SWAP1 POP JUMPDEST POP SWAP2 POP CALLDATASIZE PUSH1 0x0 JUMPDEST DUP3 DUP2 LT ISZERO PUSH2 0x5E7 JUMPI PUSH1 0x0 DUP8 DUP8 DUP4 DUP2 DUP2 LT PUSH2 0x4F0 JUMPI PUSH2 0x4F0 PUSH2 0xBE7 JUMP JUMPDEST SWAP1 POP PUSH1 0x20 MUL DUP2 ADD SWAP1 PUSH2 0x502 SWAP2 SWAP1 PUSH2 0xC74 JUMP JUMPDEST SWAP3 POP PUSH2 0x511 PUSH1 0x20 DUP5 ADD DUP5 PUSH2 0xB8F JUMP JUMPDEST PUSH1 0x1 PUSH1 0x1 PUSH1 0xA0 SHL SUB AND PUSH2 0x527 PUSH1 0x20 DUP6 ADD DUP6 PUSH2 0xC1D JUMP JUMPDEST PUSH1 0x40 MLOAD PUSH2 0x535 SWAP3 SWAP2 SWAP1 PUSH2 0xC64 JUMP JUMPDEST PUSH1 0x0 PUSH1 0x40 MLOAD DUP1 DUP4 SUB DUP2 PUSH1 0x0 DUP7 GAS CALL SWAP2 POP POP RETURNDATASIZE DUP1 PUSH1 0x0 DUP2 EQ PUSH2 0x572 JUMPI PUSH1 0x40 MLOAD SWAP2 POP PUSH1 0x1F NOT PUSH1 0x3F RETURNDATASIZE ADD AND DUP3 ADD PUSH1 0x40 MSTORE RETURNDATASIZE DUP3 MSTORE RETURNDATASIZE PUSH1 0x0 PUSH1 0x20 DUP5 ADD RETURNDATACOPY PUSH2 0x577 JUMP JUMPDEST PUSH1 0x60 SWAP2 POP JUMPDEST POP DUP7 DUP5 DUP2 MLOAD DUP2 LT PUSH2 0x58A JUMPI PUSH2 0x58A PUSH2 0xBE7 JUMP JUMPDEST PUSH1 0x20 SWAP1 DUP2 MUL SWAP2 SWAP1 SWAP2 ADD ADD MSTORE SWAP1 POP DUP1 PUSH2 0x5DE JUMPI PUSH1 0x40 MLOAD PUSH3 0x461BCD PUSH1 0xE5 SHL DUP2 MSTORE PUSH1 0x20 PUSH1 0x4 DUP3 ADD MSTORE PUSH1 0x17 PUSH1 0x24 DUP3 ADD MSTORE PUSH23 0x135D5B1D1A58D85B1B0CCE8818D85B1B0819985A5B1959 PUSH1 0x4A SHL PUSH1 0x44 DUP3 ADD MSTORE PUSH1 0x64 ADD PUSH2 0x46B JUMP JUMPDEST POP PUSH1 0x1 ADD PUSH2 0x4D4 JUMP JUMPDEST POP POP POP SWAP3 POP SWAP3 SWAP1 POP JUMP JUMPDEST NUMBER DUP1 BLOCKHASH PUSH1 0x60 PUSH2 0x601 DUP7 DUP7 DUP7 PUSH2 0x78E JUMP JUMPDEST SWAP1 POP SWAP4 POP SWAP4 POP SWAP4 SWAP1 POP JUMP JUMPDEST PUSH1 0x60 DUP2 DUP1 PUSH8 0xFFFFFFFFFFFFFFFF DUP2 GT ISZERO PUSH2 0x628 JUMPI PUSH2 0x628 PUSH2 0xBD1 JUMP JUMPDEST PUSH1 0x40 MLOAD SWAP1 DUP1 DUP3 MSTORE DUP1 PUSH1 0x20 MUL PUSH1 0x20 ADD DUP3 ADD PUSH1 0x40 MSTORE DUP1 ISZERO PUSH2 0x66E JUMPI DUP2 PUSH1 0x20 ADD JUMPDEST PUSH1 0x40 DUP1 MLOAD DUP1 DUP3 ADD SWAP1 SWAP2 MSTORE PUSH1 0x0 DUP2 MSTORE PUSH1 0x60 PUSH1 0x20 DUP3 ADD MSTORE DUP2 MSTORE PUSH1 0x20 ADD SWAP1 PUSH1 0x1 SWAP1 SUB SWAP1 DUP2 PUSH2 0x646 JUMPI SWAP1 POP JUMPDEST POP SWAP2 POP CALLDATASIZE PUSH1 0x0 JUMPDEST DUP3 DUP2 LT ISZERO PUSH2 0x474 JUMPI PUSH1 0x0 DUP5 DUP3 DUP2 MLOAD DUP2 LT PUSH2 0x691 JUMPI PUSH2 0x691 PUSH2 0xBE7 JUMP JUMPDEST PUSH1 0x20 MUL PUSH1 0x20 ADD ADD MLOAD SWAP1 POP DUP7 DUP7 DUP4 DUP2 DUP2 LT PUSH2 0x6AD JUMPI PUSH2 0x6AD PUSH2 0xBE7 JUMP JUMPDEST SWAP1 POP PUSH1 0x20 MUL DUP2 ADD SWAP1 PUSH2 0x6BF SWAP2 SWAP1 PUSH2 0xC8A JUMP JUMPDEST SWAP3 POP PUSH2 0x6CE PUSH1 0x20 DUP5 ADD DUP5 PUSH2 0xB8F JUMP JUMPDEST PUSH1 0x1 PUSH1 0x1 PUSH1 0xA0 SHL SUB AND PUSH2 0x6E4 PUSH1 0x40 DUP6 ADD DUP6 PUSH2 0xC1D JUMP JUMPDEST PUSH1 0x40 MLOAD PUSH2 0x6F2 SWAP3 SWAP2 SWAP1 PUSH2 0xC64 JUMP JUMPDEST PUSH1 0x0 PUSH1 0x40 MLOAD DUP1 DUP4 SUB DUP2 PUSH1 0x0 DUP7 GAS CALL SWAP2 POP POP RETURNDATASIZE DUP1 PUSH1 0x0 DUP2 EQ PUSH2 0x72F JUMPI PUSH1 0x40 MLOAD SWAP2 POP PUSH1 0x1F NOT PUSH1 0x3F RETURNDATASIZE ADD AND DUP3 ADD PUSH1 0x40 MSTORE RETURNDATASIZE DUP3 MSTORE RETURNDATASIZE PUSH1 0x0 PUSH1 0x20 DUP5 ADD RETURNDATACOPY PUSH2 0x734 JUMP JUMPDEST PUSH1 0x60 SWAP2 POP JUMPDEST POP PUSH1 0x20 DUP1 DUP5 ADD SWAP2 SWAP1 SWAP2 MSTORE SWAP1 ISZERO ISZERO DUP1 DUP4 MSTORE SWAP1 DUP5 ADD CALLDATALOAD OR PUSH2 0x785 JUMPI PUSH3 0x461BCD PUSH1 0xE5 SHL PUSH1 0x0 MSTORE PUSH1 0x20 PUSH1 0x4 MSTORE PUSH1 0x17 PUSH1 0x24 MSTORE PUSH23 0x135D5B1D1A58D85B1B0CCE8818D85B1B0819985A5B1959 PUSH1 0x4A SHL PUSH1 0x44 MSTORE PUSH1 0x64 PUSH1 0x0 REVERT JUMPDEST POP PUSH1 0x1 ADD PUSH2 0x675 JUMP JUMPDEST PUSH1 0x60 DUP2 DUP1 PUSH8 0xFFFFFFFFFFFFFFFF DUP2 GT ISZERO PUSH2 0x7AA JUMPI PUSH2 0x7AA PUSH2 0xBD1 JUMP JUMPDEST PUSH1 0x40 MLOAD SWAP1 DUP1 DUP3 MSTORE DUP1 PUSH1 0x20 MUL PUSH1 0x20 ADD DUP3 ADD PUSH1 0x40 MSTORE DUP1 ISZERO PUSH2 0x7F0 JUMPI DUP2 PUSH1 0x20 ADD JUMPDEST PUSH1 0x40 DUP1 MLOAD DUP1 DUP3 ADD SWAP1 SWAP2 MSTORE PUSH1 0x0 DUP2 MSTORE PUSH1 0x60 PUSH1 0x20 DUP3 ADD MSTORE DUP2 MSTORE PUSH1 0x20 ADD SWAP1 PUSH1 0x1 SWAP1 SUB SWAP1 DUP2 PUSH2 0x7C8 JUMPI SWAP1 POP JUMPDEST POP SWAP2 POP CALLDATASIZE PUSH1 0x0 JUMPDEST DUP3 DUP2 LT ISZERO PUSH2 0x917 JUMPI PUSH1 0x0 DUP5 DUP3 DUP2 MLOAD DUP2 LT PUSH2 0x813 JUMPI PUSH2 0x813 PUSH2 0xBE7 JUMP JUMPDEST PUSH1 0x20 MUL PUSH1 0x20 ADD ADD MLOAD SWAP1 POP DUP7 DUP7 DUP4 DUP2 DUP2 LT PUSH2 0x82F JUMPI PUSH2 0x82F PUSH2 0xBE7 JUMP JUMPDEST SWAP1 POP PUSH1 0x20 MUL DUP2 ADD SWAP1 PUSH2 0x841 SWAP2 SWAP1 PUSH2 0xC74 JUMP JUMPDEST SWAP3 POP PUSH2 0x850 PUSH1 0x20 DUP5 ADD DUP5 PUSH2 0xB8F JUMP JUMPDEST PUSH1 0x1 PUSH1 0x1 PUSH1 0xA0 SHL SUB AND PUSH2 0x866 PUSH1 0x20 DUP6 ADD DUP6 PUSH2 0xC1D JUMP JUMPDEST PUSH1 0x40 MLOAD PUSH2 0x874 SWAP3 SWAP2 SWAP1 PUSH2 0xC64 JUMP JUMPDEST PUSH1 0x0 PUSH1 0x40 MLOAD DUP1 DUP4 SUB DUP2 PUSH1 0x0 DUP7 GAS CALL SWAP2 POP POP RETURNDATASIZE DUP1 PUSH1 0x0 DUP2 EQ PUSH2 0x8B1 JUMPI PUSH1 0x40 MLOAD SWAP2 POP PUSH1 0x1F NOT PUSH1 0x3F RETURNDATASIZE ADD AND DUP3 ADD PUSH1 0x40 MSTORE RETURNDATASIZE DUP3 MSTORE RETURNDATASIZE PUSH1 0x0 PUSH1 0x20 DUP5 ADD RETURNDATACOPY PUSH2 0x8B6 JUMP JUMPDEST PUSH1 0x60 SWAP2 POP JUMPDEST POP PUSH1 0x20 DUP4 ADD MSTORE ISZERO ISZERO DUP2 MSTORE DUP8 ISZERO PUSH2 0x90E JUMPI DUP1 MLOAD PUSH2 0x90E JUMPI PUSH1 0x40 MLOAD PUSH3 0x461BCD PUSH1 0xE5 SHL DUP2 MSTORE PUSH1 0x20 PUSH1 0x4 DUP3 ADD MSTORE PUSH1 0x17 PUSH1 0x24 DUP3 ADD MSTORE PUSH23 0x135D5B1D1A58D85B1B0CCE8818D85B1B0819985A5B1959 PUSH1 0x4A SHL PUSH1 0x44 DUP3 ADD MSTORE PUSH1 0x64 ADD PUSH2 0x46B JUMP JUMPDEST POP PUSH1 0x1 ADD PUSH2 0x7F7 JUMP JUMPDEST POP POP POP SWAP4 SWAP3 POP POP POP JUMP JUMPDEST PUSH1 0x0 DUP1 PUSH1 0x60 PUSH2 0x932 PUSH1 0x1 DUP7 DUP7 PUSH2 0x5F1 JUMP JUMPDEST SWAP2 SWAP8 SWAP1 SWAP7 POP SWAP1 SWAP5 POP SWAP3 POP POP POP JUMP JUMPDEST PUSH1 0x0 DUP1 DUP4 PUSH1 0x1F DUP5 ADD SLT PUSH2 0x952 JUMPI PUSH1 0x0 DUP1 REVERT JUMPDEST POP DUP2 CALLDATALOAD PUSH8 0xFFFFFFFFFFFFFFFF DUP2 GT ISZERO PUSH2 0x96A JUMPI PUSH1 0x0 DUP1 REVERT JUMPDEST PUSH1 0x20 DUP4 ADD SWAP2 POP DUP4 PUSH1 0x20 DUP3 PUSH1 0x5 SHL DUP6 ADD ADD GT ISZERO PUSH2 0x985 JUMPI PUSH1 0x0 DUP1 REVERT JUMPDEST SWAP3 POP SWAP3 SWAP1 POP JUMP JUMPDEST PUSH1 0x0 DUP1 PUSH1 0x20 DUP4 DUP6 SUB SLT ISZERO PUSH2 0x99F JUMPI PUSH1 0x0 DUP1 REVERT JUMPDEST DUP3 CALLDATALOAD PUSH8 0xFFFFFFFFFFFFFFFF DUP2 GT ISZERO PUSH2 0x9B6 JUMPI PUSH1 0x0 DUP1 REVERT JUMPDEST PUSH2 0x9C2 DUP6 DUP3 DUP7 ADD PUSH2 0x940 JUMP JUMPDEST SWAP1 SWAP7 SWAP1 SWAP6 POP SWAP4 POP POP POP POP JUMP JUMPDEST PUSH1 0x0 DUP2 MLOAD DUP1 DUP5 MSTORE PUSH1 0x0 JUMPDEST DUP2 DUP2 LT ISZERO PUSH2 0x9F4 JUMPI PUSH1 0x20 DUP2 DUP6 ADD DUP2 ADD MLOAD DUP7 DUP4 ADD DUP3 ADD MSTORE ADD PUSH2 0x9D8 JUMP JUMPDEST DUP2 DUP2 GT ISZERO PUSH2 0xA06 JUMPI PUSH1 0x0 PUSH1 0x20 DUP4 DUP8 ADD ADD MSTORE JUMPDEST POP PUSH1 0x1F ADD PUSH1 0x1F NOT AND SWAP3 SWAP1 SWAP3 ADD PUSH1 0x20 ADD SWAP3 SWAP2 POP POP JUMP JUMPDEST PUSH1 0x0 DUP3 DUP3 MLOAD DUP1 DUP6 MSTORE PUSH1 0x20 DUP1 DUP7 ADD SWAP6 POP DUP1 DUP3 PUSH1 0x5 SHL DUP5 ADD ADD DUP2 DUP7 ADD PUSH1 0x0 JUMPDEST DUP5 DUP2 LT ISZERO PUSH2 0xA7C JUMPI DUP6 DUP4 SUB PUSH1 0x1F NOT ADD DUP10 MSTORE DUP2 MLOAD DUP1 MLOAD ISZERO ISZERO DUP5 MSTORE DUP5 ADD MLOAD PUSH1 0x40 DUP6 DUP6 ADD DUP2 SWAP1 MSTORE PUSH2 0xA68 DUP2 DUP7 ADD DUP4 PUSH2 0x9CE JUMP JUMPDEST SWAP11 DUP7 ADD SWAP11 SWAP5 POP POP POP SWAP1 DUP4 ADD SWAP1 PUSH1 0x1 ADD PUSH2 0xA38 JUMP JUMPDEST POP SWAP1 SWAP8 SWAP7 POP POP POP POP POP POP POP JUMP JUMPDEST PUSH1 0x20 DUP2 MSTORE PUSH1 0x0 PUSH2 0xA9C PUSH1 0x20 DUP4 ADD DUP5 PUSH2 0xA1B JUMP JUMPDEST SWAP4 SWAP3 POP POP POP JUMP JUMPDEST PUSH1 0x0 PUSH1 0x40 DUP3 ADD DUP5 DUP4 MSTORE PUSH1 0x20 PUSH1 0x40 DUP2 DUP6 ADD MSTORE DUP2 DUP6 MLOAD DUP1 DUP5 MSTORE PUSH1 0x60 DUP7 ADD SWAP2 POP PUSH1 0x60 DUP2 PUSH1 0x5 SHL DUP8 ADD ADD SWAP4 POP DUP3 DUP8 ADD PUSH1 0x0 JUMPDEST DUP3 DUP2 LT ISZERO PUSH2 0xAFF JUMPI PUSH1 0x5F NOT DUP9 DUP8 SUB ADD DUP5 MSTORE PUSH2 0xAED DUP7 DUP4 MLOAD PUSH2 0x9CE JUMP JUMPDEST SWAP6 POP SWAP3 DUP5 ADD SWAP3 SWAP1 DUP5 ADD SWAP1 PUSH1 0x1 ADD PUSH2 0xAD1 JUMP JUMPDEST POP SWAP4 SWAP9 SWAP8 POP POP POP POP POP POP POP POP JUMP JUMPDEST PUSH1 0x0 DUP1 PUSH1 0x0 PUSH1 0x40 DUP5 DUP7 SUB SLT ISZERO PUSH2 0xB22 JUMPI PUSH1 0x0 DUP1 REVERT JUMPDEST DUP4 CALLDATALOAD DUP1 ISZERO ISZERO DUP2 EQ PUSH2 0xB32 JUMPI PUSH1 0x0 DUP1 REVERT JUMPDEST SWAP3 POP PUSH1 0x20 DUP5 ADD CALLDATALOAD PUSH8 0xFFFFFFFFFFFFFFFF DUP2 GT ISZERO PUSH2 0xB4E JUMPI PUSH1 0x0 DUP1 REVERT JUMPDEST PUSH2 0xB5A DUP7 DUP3 DUP8 ADD PUSH2 0x940 JUMP JUMPDEST SWAP5 SWAP8 SWAP1 SWAP7 POP SWAP4 SWAP5 POP POP POP POP JUMP JUMPDEST DUP4 DUP2 MSTORE DUP3 PUSH1 0x20 DUP3 ADD MSTORE PUSH1 0x60 PUSH1 0x40 DUP3 ADD MSTORE PUSH1 0x0 PUSH2 0xB86 PUSH1 0x60 DUP4 ADD DUP5 PUSH2 0xA1B JUMP JUMPDEST SWAP6 SWAP5 POP POP POP POP POP JUMP JUMPDEST PUSH1 0x0 PUSH1 0x20 DUP3 DUP5 SUB SLT ISZERO PUSH2 0xBA1 JUMPI PUSH1 0x0 DUP1 REVERT JUMPDEST DUP2 CALLDATALOAD PUSH1 0x1 PUSH1 0x1 PUSH1 0xA0 SHL SUB DUP2 AND DUP2 EQ PUSH2 0xA9C JUMPI PUSH1 0x0 DUP1 REVERT JUMPDEST PUSH1 0x0 PUSH1 0x20 DUP3 DUP5 SUB SLT ISZERO PUSH2 0xBCA JUMPI PUSH1 0x0 DUP1 REVERT JUMPDEST POP CALLDATALOAD SWAP2 SWAP1 POP JUMP JUMPDEST PUSH4 0x4E487B71 PUSH1 0xE0 SHL PUSH1 0x0 MSTORE PUSH1 0x41 PUSH1 0x4 MSTORE PUSH1 0x24 PUSH1 0x0 REVERT JUMPDEST PUSH4 0x4E487B71 PUSH1 0xE0 SHL PUSH1 0x0 MSTORE PUSH1 0x32 PUSH1 0x4 MSTORE PUSH1 0x24 PUSH1 0x0 REVERT JUMPDEST PUSH1 0x0 DUP3 CALLDATALOAD PUSH1 0x7E NOT DUP4 CALLDATASIZE SUB ADD DUP2 SLT PUSH2 0xC13 JUMPI PUSH1 0x0 DUP1 REVERT JUMPDEST SWAP2 SWAP1 SWAP2 ADD SWAP3 SWAP2 POP POP JUMP JUMPDEST PUSH1 0x0 DUP1 DUP4 CALLDATALOAD PUSH1 0x1E NOT DUP5 CALLDATASIZE SUB ADD DUP2 SLT PUSH2 0xC34 JUMPI PUSH1 0x0 DUP1 REVERT JUMPDEST DUP4 ADD DUP1 CALLDATALOAD SWAP2 POP PUSH8 0xFFFFFFFFFFFFFFFF DUP3 GT ISZERO PUSH2 0xC4F JUMPI PUSH1 0x0 DUP1 REVERT JUMPDEST PUSH1 0x20 ADD SWAP2 POP CALLDATASIZE DUP2 SWAP1 SUB DUP3 SGT ISZERO PUSH2 0x985 JUMPI PUSH1 0x0 DUP1 REVERT JUMPDEST DUP2 DUP4 DUP3 CALLDATACOPY PUSH1 0x0 SWAP2 ADD SWAP1 DUP2 MSTORE SWAP2 SWAP1 POP JUMP JUMPDEST PUSH1 0x0 DUP3 CALLDATALOAD PUSH1 0x3E NOT DUP4 CALLDATASIZE SUB ADD DUP2 SLT PUSH2 0xC13 JUMPI PUSH1 0x0 DUP1 REVERT JUMPDEST PUSH1 0x0 DUP3 CALLDATALOAD PUSH1 0x5E NOT DUP4 CALLDATASIZE SUB ADD DUP2 SLT PUSH2 0xC13 JUMPI PUSH1 0x0 DUP1 REVERT INVALID LOG2 PUSH5 0x6970667358 0x22 SLT KECCAK256 0xBF 0xB1 SWAP7 CREATE2 DUP4 PUSH4 0x5D8AD30 0x5F 0xE2 XOR PUSH9 0xCECAB478369ED980FE DUP5 0xDB COINBASE DUP15 PUSH14 0xCD1ADF0764736F6C634300080C00 CALLER "
				},
				"gasEstimates": {
					"creation": {
						"codeDepositCost": "657200",
						"executionCost": "689",
						"totalCost": "657889"
					},
					"external": {
						"aggregate((address,bytes)[])": "infinite",
						"aggregate3((address,bool,bytes)[])": "infinite",
						"aggregate3Value((address,bool,uint256,bytes)[])": "infinite",
						"blockAndAggregate((address,bytes)[])": "infinite",
						"getBasefee()": "247",
						"getBlockHash(uint256)": "366",
						"getBlockNumber()": "269",
						"getChainId()": "203",
						"getCurrentBlockCoinbase()": "198",
						"getCurrentBlockDifficulty()": "225",
						"getCurrentBlockGasLimit()": "269",
						"getCurrentBlockTimestamp()": "193",
						"getEthBalance(address)": "2945",
						"getLastBlockHash()": "299",
						"tryAggregate(bool,(address,bytes)[])": "infinite",
						"tryBlockAndAggregate(bool,(address,bytes)[])": "infinite"
					}
				},
				"methodIdentifiers": {
					"aggregate((address,bytes)[])": "252dba42",
					"aggregate3((address,bool,bytes)[])": "82ad56cb",
					"aggregate3Value((address,bool,uint256,bytes)[])": "174dea71",
					"blockAndAggregate((address,bytes)[])": "c3077fa9",
					"getBasefee()": "3e64a696",
					"getBlockHash(uint256)": "ee82ac5e",
					"getBlockNumber()": "42cbb15c",
					"getChainId()": "3408e470",
					"getCurrentBlockCoinbase()": "a8b0574e",
					"getCurrentBlockDifficulty()": "72425d9d",
					"getCurrentBlockGasLimit()": "86d516e8",
					"getCurrentBlockTimestamp()": "0f28c97d",
					"getEthBalance(address)": "4d2301cc",
					"getLastBlockHash()": "27e86d6e",
					"tryAggregate(bool,(address,bytes)[])": "bce38bd7",
					"tryBlockAndAggregate(bool,(address,bytes)[])": "399542e9"
				}
			},
			"storageLayout": {
				"storage": [],
				"types": null
			},
			"userdoc": {
				"kind": "user",
				"methods": {
					"aggregate((address,bytes)[])": {
						"notice": "Backwards-compatible call aggregation with Multicall"
					},
					"aggregate3((address,bool,bytes)[])": {
						"notice": "Aggregate calls, ensuring each returns success if required"
					},
					"aggregate3Value((address,bool,uint256,bytes)[])": {
						"notice": "Aggregate calls with a msg valueReverts if msg.value is less than the sum of the call values"
					},
					"blockAndAggregate((address,bytes)[])": {
						"notice": "Backwards-compatible with Multicall2Aggregate calls and allow failures using tryAggregate"
					},
					"getBasefee()": {
						"notice": "Gets the base fee of the given blockCan revert if the BASEFEE opcode is not implemented by the given chain"
					},
					"getBlockHash(uint256)": {
						"notice": "Returns the block hash for the given block number"
					},
					"getBlockNumber()": {
						"notice": "Returns the block number"
					},
					"getChainId()": {
						"notice": "Returns the chain id"
					},
					"getCurrentBlockCoinbase()": {
						"notice": "Returns the block coinbase"
					},
					"getCurrentBlockDifficulty()": {
						"notice": "Returns the block difficulty"
					},
					"getCurrentBlockGasLimit()": {
						"notice": "Returns the block gas limit"
					},
					"getCurrentBlockTimestamp()": {
						"notice": "Returns the block timestamp"
					},
					"getEthBalance(address)": {
						"notice": "Returns the (ETH) balance of a given address"
					},
					"getLastBlockHash()": {
						"notice": "Returns the block hash of the last block"
					},
					"tryAggregate(bool,(address,bytes)[])": {
						"notice": "Backwards-compatible with Multicall2Aggregate calls without requiring success"
					},
					"tryBlockAndAggregate(bool,(address,bytes)[])": {
						"notice": "Backwards-compatible with Multicall2Aggregate calls and allow failures using tryAggregate"
					}
				},
				"notice": "Aggregate results from multiple function calls",
				"version": 1
			}
		}
	}
}