{
	"DexSwap/MultiCall.sol": {
		"Multicall3": {
			"abi": [
				{
					"inputs": [
						{
							"components": [
								{
									"internalType": "address",
									"name": "target",
									"type": "address"
								},
								{
									"internalType": "bytes",
									"name": "callData",
									"type": "bytes"
								}
							],
							"internalType": "struct Multicall3.Call[]",
							"name": "calls",
							"type": "tuple[]"
						}
					],
					"name": "aggregate",
					"outputs": [
						{
							"internalType": "uint256",
							"name": "blockNumber",
							"type": "uint256"
						},
						{
							"internalType": "bytes[]",
							"name": "returnData",
							"type": "bytes[]"
						}
					],
					"stateMutability": "payable",
					"type": "function"
				},
				{
					"inputs": [
						{
							"components": [
								{
									"internalType": "address",
									"name": "target",
									"type": "address"
								},
								{
									"internalType": "bool",
									"name": "allowFailure",
									"type": "bool"
								},
								{
									"internalType": "bytes",
									"name": "callData",
									"type": "bytes"
								}
							],
							"internalType": "struct Multicall3.Call3[]",
							"name": "calls",
							"type": "tuple[]"
						}
					],
					"name": "aggregate3",
					"outputs": [
						{
							"components": [
								{
									"internalType": "bool",
									"name": "success",
									"type": "bool"
								},
								{
									"internalType": "bytes",
									"name": "returnData",
									"type": "bytes"
								}
							],
							"internalType": "struct Multicall3.Result[]",
							"name": "returnData",
							"type": "tuple[]"
						}
					],
					"stateMutability": "payable",
					"type": "function"
				},
				{
					"inputs": [
						{
							"components": [
								{
									"internalType": "address",
									"name": "target",
									"type": "address"
								},
								{
									"internalType": "bool",
									"name": "allowFailure",
									"type": "bool"
								},
								{
									"internalType": "uint256",
									"name": "value",
									"type": "uint256"
								},
								{
									"internalType": "bytes",
									"name": "callData",
									"type": "bytes"
								}
							],
							"internalType": "struct Multicall3.Call3Value[]",
							"name": "calls",
							"type": "tuple[]"
						}
					],
					"name": "aggregate3Value",
					"outputs": [
						{
							"components": [
								{
									"internalType": "bool",
									"name": "success",
									"type": "bool"
								},
								{
									"internalType": "bytes",
									"name": "returnData",
									"type": "bytes"
								}
							],
							"internalType": "struct Multicall3.Result[]",
							"name": "returnData",
							"type": "tuple[]"
						}
					],
					"stateMutability": "payable",
					"type": "function"
				},
				{
					"inputs": [
						{
							"components": [
								{
									"internalType": "address",
									"name": "target",
									"type": "address"
								},
								{
									"internalType": "bytes",
									"name": "callData",
									"type": "bytes"
								}
							],
							"internalType": "struct Multicall3.Call[]",
							"name": "calls",
							"type": "tuple[]"
						}
					],
					"name": "blockAndAggregate",
					"outputs": [
						{
							"internalType": "uint256",
							"name": "blockNumber",
							"type": "uint256"
						},
						{
							"internalType": "bytes32",
							"name": "blockHash",
							"type": "bytes32"
						},
						{
							"components": [
								{
									"internalType": "bool",
									"name": "success",
									"type": "bool"
								},
								{
									"internalType": "bytes",
									"name": "returnData",
									"type": "bytes"
								}
							],
							"internalType": "struct Multicall3.Result[]",
							"name": "returnData",
							"type": "tuple[]"
						}
					],
					"stateMutability": "payable",
					"type": "function"
				},
				{
					"inputs": [],
					"name": "getBasefee",
					"outputs": [
						{
							"internalType": "uint256",
							"name": "basefee",
							"type": "uint256"
						}
					],
					"stateMutability": "view",
					"type": "function"
				},
				{
					"inputs": [
						{
							"internalType": "uint256",
							"name": "blockNumber",
							"type": "uint256"
						}
					],
					"name": "getBlockHash",
					"outputs": [
						{
							"internalType": "bytes32",
							"name": "blockHash",
							"type": "bytes32"
						}
					],
					"stateMutability": "view",
					"type": "function"
				},
				{
					"inputs": [],
					"name": "getBlockNumber",
					"outputs": [
						{
							"internalType": "uint256",
							"name": "blockNumber",
							"type": "uint256"
						}
					],
					"stateMutability": "view",
					"type": "function"
				},
				{
					"inputs": [],
					"name": "getChainId",
					"outputs": [
						{
							"internalType": "uint256",
							"name": "chainid",
							"type": "uint256"
						}
					],
					"stateMutability": "view",
					"type": "function"
				},
				{
					"inputs": [],
					"name": "getCurrentBlockCoinbase",
					"outputs": [
						{
							"internalType": "address",
							"name": "coinbase",
							"type": "address"
						}
					],
					"stateMutability": "view",
					"type": "function"
				},
				{
					"inputs": [],
					"name": "getCurrentBlockDifficulty",
					"outputs": [
						{
							"internalType": "uint256",
							"name": "difficulty",
							"type": "uint256"
						}
					],
					"stateMutability": "view",
					"type": "function"
				},
				{
					"inputs": [],
					"name": "getCurrentBlockGasLimit",
					"outputs": [
						{
							"internalType": "uint256",
							"name": "gaslimit",
							"type": "uint256"
						}
					],
					"stateMutability": "view",
					"type": "function"
				},
				{
					"inputs": [],
					"name": "getCurrentBlockTimestamp",
					"outputs": [
						{
							"internalType": "uint256",
							"name": "timestamp",
							"type": "uint256"
						}
					],
					"stateMutability": "view",
					"type": "function"
				},
				{
					"inputs": [
						{
							"internalType": "address",
							"name": "addr",
							"type": "address"
						}
					],
					"name": "getEthBalance",
					"outputs": [
						{
							"internalType": "uint256",
							"name": "balance",
							"type": "uint256"
						}
					],
					"stateMutability": "view",
					"type": "function"
				},
				{
					"inputs": [],
					"name": "getLastBlockHash",
					"outputs": [
						{
							"internalType": "bytes32",
							"name": "blockHash",
							"type": "bytes32"
						}
					],
					"stateMutability": "view",
					"type": "function"
				},
				{
					"inputs": [
						{
							"internalType": "bool",
							"name": "requireSuccess",
							"type": "bool"
						},
						{
							"components": [
								{
									"internalType": "address",
									"name": "target",
									"type": "address"
								},
								{
									"internalType": "bytes",
									"name": "callData",
									"type": "bytes"
								}
							],
							"internalType": "struct Multicall3.Call[]",
							"name": "calls",
							"type": "tuple[]"
						}
					],
					"name": "tryAggregate",
					"outputs": [
						{
							"components": [
								{
									"internalType": "bool",
									"name": "success",
									"type": "bool"
								},
								{
									"internalType": "bytes",
									"name": "returnData",
									"type": "bytes"
								}
							],
							"internalType": "struct Multicall3.Result[]",
							"name": "returnData",
							"type": "tuple[]"
						}
					],
					"stateMutability": "payable",
					"type": "function"
				},
				{
					"inputs": [
						{
							"internalType": "bool",
							"name": "requireSuccess",
							"type": "bool"
						},
						{
							"components": [
								{
									"internalType": "address",
									"name": "target",
									"type": "address"
								},
								{
									"internalType": "bytes",
									"name": "callData",
									"type": "bytes"
								}
							],
							"internalType": "struct Multicall3.Call[]",
							"name": "calls",
							"type": "tuple[]"
						}
					],
					"name": "tryBlockAndAggregate",
					"outputs": [
						{
							"internalType": "uint256",
							"name": "blockNumber",
							"type": "uint256"
						},
						{
							"internalType": "bytes32",
							"name": "blockHash",
							"type": "bytes32"
						},
						{
							"components": [
								{
									"internalType": "bool",
									"name": "success",
									"type": "bool"
								},
								{
									"internalType": "bytes",
									"name": "returnData",
									"type": "bytes"
								}
							],
							"internalType": "struct Multicall3.Result[]",
							"name": "returnData",
							"type": "tuple[]"
						}
					],
					"stateMutability": "payable",
					"type": "function"
				}
			],
			"devdoc": {
				"author": "Michael Elliot <mike@makerdao.com>Joshua Levine <joshua@makerdao.com>Nick Johnson <arachnid@notdot.net>Andreas Bigger <andreas@nascent.xyz>Matt Solomon <matt@mattsolomon.dev>",
				"details": "Multicall & Multicall2 backwards-compatibleAggregate methods are marked `payable` to save 24 gas per call",
				"kind": "dev",
				"methods": {
					"aggregate((address,bytes)[])": {
						"params": {
							"calls": "An array of Call structs"
						},
						"returns": {
							"blockNumber": "The block number where the calls were executed",
							"returnData": "An array of bytes containing the responses"
						}
					},
					"aggregate3((address,bool,bytes)[])": {
						"params": {
							"calls": "An array of Call3 structs"
						},
						"returns": {
							"returnData": "An array of Result structs"
						}
					},
					"aggregate3Value((address,bool,uint256,bytes)[])": {
						"params": {
							"calls": "An array of Call3Value structs"
						},
						"returns": {
							"returnData": "An array of Result structs"
						}
					},
					"blockAndAggregate((address,bytes)[])": {
						"params": {
							"calls": "An array of Call structs"
						},
						"returns": {
							"blockHash": "The hash of the block where the calls were executed",
							"blockNumber": "The block number where the calls were executed",
							"returnData": "An array of Result structs"
						}
					},
					"getBlockHash(uint256)": {
						"params": {
							"blockNumber": "The block number"
						}
					},
					"tryAggregate(bool,(address,bytes)[])": {
						"params": {
							"calls": "An array of Call structs",
							"requireSuccess": "If true, require all calls to succeed"
						},
						"returns": {
							"returnData": "An array of Result structs"
						}
					},
					"tryBlockAndAggregate(bool,(address,bytes)[])": {
						"params": {
							"calls": "An array of Call structs"
						},
						"returns": {
							"blockHash": "The hash of the block where the calls were executed",
							"blockNumber": "The block number where the calls were executed",
							"returnData": "An array of Result structs"
						}
					}
				},
				"title": "Multicall3",
				"version": 1
			},
			"evm": {
				"assembly": "    /* \"DexSwap/MultiCall.sol\":576:9683  contract Multicall3 {... */\n  mstore(0x40, 0x80)\n  callvalue\n  dup1\n  iszero\n  tag_1\n  jumpi\n  0x00\n  dup1\n  revert\ntag_1:\n  pop\n  dataSize(sub_0)\n  dup1\n  dataOffset(sub_0)\n  0x00\n  codecopy\n  0x00\n  return\nstop\n\nsub_0: assembly {\n        /* \"DexSwap/MultiCall.sol\":576:9683  contract Multicall3 {... */\n      mstore(0x40, 0x80)\n      jumpi(tag_1, lt(calldatasize, 0x04))\n      shr(0xe0, calldataload(0x00))\n      dup1\n      0x4d2301cc\n      gt\n      tag_18\n      jumpi\n      dup1\n      0xa8b0574e\n      gt\n      tag_19\n      jumpi\n      dup1\n      0xa8b0574e\n      eq\n      tag_14\n      jumpi\n      dup1\n      0xbce38bd7\n      eq\n      tag_15\n      jumpi\n      dup1\n      0xc3077fa9\n      eq\n      tag_16\n      jumpi\n      dup1\n      0xee82ac5e\n      eq\n      tag_17\n      jumpi\n      jump(tag_1)\n    tag_19:\n      dup1\n      0x4d2301cc\n      eq\n      tag_10\n      jumpi\n      dup1\n      0x72425d9d\n      eq\n      tag_11\n      jumpi\n      dup1\n      0x82ad56cb\n      eq\n      tag_12\n      jumpi\n      dup1\n      0x86d516e8\n      eq\n      tag_13\n      jumpi\n      jump(tag_1)\n    tag_18:\n      dup1\n      0x3408e470\n      gt\n      tag_20\n      jumpi\n      dup1\n      0x3408e470\n      eq\n      tag_6\n      jumpi\n      dup1\n      0x399542e9\n      eq\n      tag_7\n      jumpi\n      dup1\n      0x3e64a696\n      eq\n      tag_8\n      jumpi\n      dup1\n      0x42cbb15c\n      eq\n      tag_9\n      jumpi\n      jump(tag_1)\n    tag_20:\n      dup1\n      0x0f28c97d\n      eq\n      tag_2\n      jumpi\n      dup1\n      0x174dea71\n      eq\n      tag_3\n      jumpi\n      dup1\n      0x252dba42\n      eq\n      tag_4\n      jumpi\n      dup1\n      0x27e86d6e\n      eq\n      tag_5\n      jumpi\n    tag_1:\n      0x00\n      dup1\n      revert\n        /* \"DexSwap/MultiCall.sol\":8770:8890  function getCurrentBlockTimestamp() public view returns (uint256 timestamp) {... */\n    tag_2:\n      callvalue\n      dup1\n      iszero\n      tag_21\n      jumpi\n      0x00\n      dup1\n      revert\n    tag_21:\n      pop\n      tag_22\n      tag_23\n      jump\t// in\n    tag_22:\n      mload(0x40)\n      tag_24\n      swap2\n      swap1\n      tag_25\n      jump\t// in\n    tag_24:\n      mload(0x40)\n      dup1\n      swap2\n      sub\n      swap1\n      return\n        /* \"DexSwap/MultiCall.sol\":5845:7806  function aggregate3Value(Call3Value[] calldata calls) public payable returns (Result[] memory returnData) {... */\n    tag_3:\n      tag_26\n      0x04\n      dup1\n      calldatasize\n      sub\n      dup2\n      add\n      swap1\n      tag_27\n      swap2\n      swap1\n      tag_28\n      jump\t// in\n    tag_27:\n      tag_29\n      jump\t// in\n    tag_26:\n      mload(0x40)\n      tag_30\n      swap2\n      swap1\n      tag_31\n      jump\t// in\n    tag_30:\n      mload(0x40)\n      dup1\n      swap2\n      sub\n      swap1\n      return\n        /* \"DexSwap/MultiCall.sol\":1240:1774  function aggregate(Call[] calldata calls) public payable returns (uint256 blockNumber, bytes[] memory returnData) {... */\n    tag_4:\n      tag_32\n      0x04\n      dup1\n      calldatasize\n      sub\n      dup2\n      add\n      swap1\n      tag_33\n      swap2\n      swap1\n      tag_34\n      jump\t// in\n    tag_33:\n      tag_35\n      jump\t// in\n    tag_32:\n      mload(0x40)\n      tag_36\n      swap3\n      swap2\n      swap1\n      tag_37\n      jump\t// in\n    tag_36:\n      mload(0x40)\n      dup1\n      swap2\n      sub\n      swap1\n      return\n        /* \"DexSwap/MultiCall.sol\":9134:9292  function getLastBlockHash() public view returns (bytes32 blockHash) {... */\n    tag_5:\n      callvalue\n      dup1\n      iszero\n      tag_38\n      jumpi\n      0x00\n      dup1\n      revert\n    tag_38:\n      pop\n      tag_39\n      tag_40\n      jump\t// in\n    tag_39:\n      mload(0x40)\n      tag_41\n      swap2\n      swap1\n      tag_42\n      jump\t// in\n    tag_41:\n      mload(0x40)\n      dup1\n      swap2\n      sub\n      swap1\n      return\n        /* \"DexSwap/MultiCall.sol\":9581:9681  function getChainId() public view returns (uint256 chainid) {... */\n    tag_6:\n      callvalue\n      dup1\n      iszero\n      tag_43\n      jumpi\n      0x00\n      dup1\n      revert\n    tag_43:\n      pop\n      tag_44\n      tag_45\n      jump\t// in\n    tag_44:\n      mload(0x40)\n      tag_46\n      swap2\n      swap1\n      tag_25\n      jump\t// in\n    tag_46:\n      mload(0x40)\n      dup1\n      swap2\n      sub\n      swap1\n      return\n        /* \"DexSwap/MultiCall.sol\":3006:3318  function tryBlockAndAggregate(bool requireSuccess, Call[] calldata calls) public payable returns (uint256 blockNumber, bytes32 blockHash, Result[] memory returnData) {... */\n    tag_7:\n      tag_47\n      0x04\n      dup1\n      calldatasize\n      sub\n      dup2\n      add\n      swap1\n      tag_48\n      swap2\n      swap1\n      tag_49\n      jump\t// in\n    tag_48:\n      tag_50\n      jump\t// in\n    tag_47:\n      mload(0x40)\n      tag_51\n      swap4\n      swap3\n      swap2\n      swap1\n      tag_52\n      jump\t// in\n    tag_51:\n      mload(0x40)\n      dup1\n      swap2\n      sub\n      swap1\n      return\n        /* \"DexSwap/MultiCall.sol\":9438:9538  function getBasefee() public view returns (uint256 basefee) {... */\n    tag_8:\n      callvalue\n      dup1\n      iszero\n      tag_53\n      jumpi\n      0x00\n      dup1\n      revert\n    tag_53:\n      pop\n      tag_54\n      tag_55\n      jump\t// in\n    tag_54:\n      mload(0x40)\n      tag_56\n      swap2\n      swap1\n      tag_25\n      jump\t// in\n    tag_56:\n      mload(0x40)\n      dup1\n      swap2\n      sub\n      swap1\n      return\n        /* \"DexSwap/MultiCall.sol\":8103:8214  function getBlockNumber() public view returns (uint256 blockNumber) {... */\n    tag_9:\n      callvalue\n      dup1\n      iszero\n      tag_57\n      jumpi\n      0x00\n      dup1\n      revert\n    tag_57:\n      pop\n      tag_58\n      tag_59\n      jump\t// in\n    tag_58:\n      mload(0x40)\n      tag_60\n      swap2\n      swap1\n      tag_25\n      jump\t// in\n    tag_60:\n      mload(0x40)\n      dup1\n      swap2\n      sub\n      swap1\n      return\n        /* \"DexSwap/MultiCall.sol\":8957:9071  function getEthBalance(address addr) public view returns (uint256 balance) {... */\n    tag_10:\n      callvalue\n      dup1\n      iszero\n      tag_61\n      jumpi\n      0x00\n      dup1\n      revert\n    tag_61:\n      pop\n      tag_62\n      0x04\n      dup1\n      calldatasize\n      sub\n      dup2\n      add\n      swap1\n      tag_63\n      swap2\n      swap1\n      tag_64\n      jump\t// in\n    tag_63:\n      tag_65\n      jump\t// in\n    tag_62:\n      mload(0x40)\n      tag_66\n      swap2\n      swap1\n      tag_25\n      jump\t// in\n    tag_66:\n      mload(0x40)\n      dup1\n      swap2\n      sub\n      swap1\n      return\n        /* \"DexSwap/MultiCall.sol\":8430:8554  function getCurrentBlockDifficulty() public view returns (uint256 difficulty) {... */\n    tag_11:\n      callvalue\n      dup1\n      iszero\n      tag_67\n      jumpi\n      0x00\n      dup1\n      revert\n    tag_67:\n      pop\n      tag_68\n      tag_69\n      jump\t// in\n    tag_68:\n      mload(0x40)\n      tag_70\n      swap2\n      swap1\n      tag_25\n      jump\t// in\n    tag_70:\n      mload(0x40)\n      dup1\n      swap2\n      sub\n      swap1\n      return\n        /* \"DexSwap/MultiCall.sol\":4113:5607  function aggregate3(Call3[] calldata calls) public payable returns (Result[] memory returnData) {... */\n    tag_12:\n      tag_71\n      0x04\n      dup1\n      calldatasize\n      sub\n      dup2\n      add\n      swap1\n      tag_72\n      swap2\n      swap1\n      tag_73\n      jump\t// in\n    tag_72:\n      tag_74\n      jump\t// in\n    tag_71:\n      mload(0x40)\n      tag_75\n      swap2\n      swap1\n      tag_31\n      jump\t// in\n    tag_75:\n      mload(0x40)\n      dup1\n      swap2\n      sub\n      swap1\n      return\n        /* \"DexSwap/MultiCall.sol\":8604:8720  function getCurrentBlockGasLimit() public view returns (uint256 gaslimit) {... */\n    tag_13:\n      callvalue\n      dup1\n      iszero\n      tag_76\n      jumpi\n      0x00\n      dup1\n      revert\n    tag_76:\n      pop\n      tag_77\n      tag_78\n      jump\t// in\n    tag_77:\n      mload(0x40)\n      tag_79\n      swap2\n      swap1\n      tag_25\n      jump\t// in\n    tag_79:\n      mload(0x40)\n      dup1\n      swap2\n      sub\n      swap1\n      return\n        /* \"DexSwap/MultiCall.sol\":8263:8379  function getCurrentBlockCoinbase() public view returns (address coinbase) {... */\n    tag_14:\n      callvalue\n      dup1\n      iszero\n      tag_80\n      jumpi\n      0x00\n      dup1\n      revert\n    tag_80:\n      pop\n      tag_81\n      tag_82\n      jump\t// in\n    tag_81:\n      mload(0x40)\n      tag_83\n      swap2\n      swap1\n      tag_84\n      jump\t// in\n    tag_83:\n      mload(0x40)\n      dup1\n      swap2\n      sub\n      swap1\n      return\n        /* \"DexSwap/MultiCall.sol\":2059:2624  function tryAggregate(bool requireSuccess, Call[] calldata calls) public payable returns (Result[] memory returnData) {... */\n    tag_15:\n      tag_85\n      0x04\n      dup1\n      calldatasize\n      sub\n      dup2\n      add\n      swap1\n      tag_86\n      swap2\n      swap1\n      tag_49\n      jump\t// in\n    tag_86:\n      tag_87\n      jump\t// in\n    tag_85:\n      mload(0x40)\n      tag_88\n      swap2\n      swap1\n      tag_31\n      jump\t// in\n    tag_88:\n      mload(0x40)\n      dup1\n      swap2\n      sub\n      swap1\n      return\n        /* \"DexSwap/MultiCall.sol\":3700:3931  function blockAndAggregate(Call[] calldata calls) public payable returns (uint256 blockNumber, bytes32 blockHash, Result[] memory returnData) {... */\n    tag_16:\n      tag_89\n      0x04\n      dup1\n      calldatasize\n      sub\n      dup2\n      add\n      swap1\n      tag_90\n      swap2\n      swap1\n      tag_34\n      jump\t// in\n    tag_90:\n      tag_91\n      jump\t// in\n    tag_89:\n      mload(0x40)\n      tag_92\n      swap4\n      swap3\n      swap2\n      swap1\n      tag_52\n      jump\t// in\n    tag_92:\n      mload(0x40)\n      dup1\n      swap2\n      sub\n      swap1\n      return\n        /* \"DexSwap/MultiCall.sol\":7922:8056  function getBlockHash(uint256 blockNumber) public view returns (bytes32 blockHash) {... */\n    tag_17:\n      callvalue\n      dup1\n      iszero\n      tag_93\n      jumpi\n      0x00\n      dup1\n      revert\n    tag_93:\n      pop\n      tag_94\n      0x04\n      dup1\n      calldatasize\n      sub\n      dup2\n      add\n      swap1\n      tag_95\n      swap2\n      swap1\n      tag_96\n      jump\t// in\n    tag_95:\n      tag_97\n      jump\t// in\n    tag_94:\n      mload(0x40)\n      tag_98\n      swap2\n      swap1\n      tag_42\n      jump\t// in\n    tag_98:\n      mload(0x40)\n      dup1\n      swap2\n      sub\n      swap1\n      return\n        /* \"DexSwap/MultiCall.sol\":8770:8890  function getCurrentBlockTimestamp() public view returns (uint256 timestamp) {... */\n    tag_23:\n        /* \"DexSwap/MultiCall.sol\":8827:8844  uint256 timestamp */\n      0x00\n        /* \"DexSwap/MultiCall.sol\":8868:8883  block.timestamp */\n      timestamp\n        /* \"DexSwap/MultiCall.sol\":8856:8883  timestamp = block.timestamp */\n      swap1\n      pop\n        /* \"DexSwap/MultiCall.sol\":8770:8890  function getCurrentBlockTimestamp() public view returns (uint256 timestamp) {... */\n      swap1\n      jump\t// out\n        /* \"DexSwap/MultiCall.sol\":5845:7806  function aggregate3Value(Call3Value[] calldata calls) public payable returns (Result[] memory returnData) {... */\n    tag_29:\n        /* \"DexSwap/MultiCall.sol\":5923:5949  Result[] memory returnData */\n      0x60\n        /* \"DexSwap/MultiCall.sol\":5961:5983  uint256 valAccumulator */\n      0x00\n        /* \"DexSwap/MultiCall.sol\":5993:6007  uint256 length */\n      dup1\n        /* \"DexSwap/MultiCall.sol\":6010:6015  calls */\n      dup5\n      dup5\n        /* \"DexSwap/MultiCall.sol\":6010:6022  calls.length */\n      swap1\n      pop\n        /* \"DexSwap/MultiCall.sol\":5993:6022  uint256 length = calls.length */\n      swap1\n      pop\n        /* \"DexSwap/MultiCall.sol\":6058:6064  length */\n      dup1\n        /* \"DexSwap/MultiCall.sol\":6045:6065  new Result[](length) */\n      0xffffffffffffffff\n      dup2\n      gt\n      iszero\n      tag_101\n      jumpi\n      tag_102\n      tag_103\n      jump\t// in\n    tag_102:\n    tag_101:\n      mload(0x40)\n      swap1\n      dup1\n      dup3\n      mstore\n      dup1\n      0x20\n      mul\n      0x20\n      add\n      dup3\n      add\n      0x40\n      mstore\n      dup1\n      iszero\n      tag_104\n      jumpi\n      dup2\n      0x20\n      add\n    tag_105:\n      tag_106\n      tag_107\n      jump\t// in\n    tag_106:\n      dup2\n      mstore\n      0x20\n      add\n      swap1\n      0x01\n      swap1\n      sub\n      swap1\n      dup2\n      tag_105\n      jumpi\n      swap1\n      pop\n    tag_104:\n      pop\n        /* \"DexSwap/MultiCall.sol\":6032:6065  returnData = new Result[](length) */\n      swap3\n      pop\n        /* \"DexSwap/MultiCall.sol\":6075:6100  Call3Value calldata calli */\n      calldatasize\n        /* \"DexSwap/MultiCall.sol\":6115:6124  uint256 i */\n      0x00\n        /* \"DexSwap/MultiCall.sol\":6110:7655  for (uint256 i = 0; i < length;) {... */\n    tag_108:\n        /* \"DexSwap/MultiCall.sol\":6134:6140  length */\n      dup3\n        /* \"DexSwap/MultiCall.sol\":6130:6131  i */\n      dup2\n        /* \"DexSwap/MultiCall.sol\":6130:6140  i < length */\n      lt\n        /* \"DexSwap/MultiCall.sol\":6110:7655  for (uint256 i = 0; i < length;) {... */\n      iszero\n      tag_109\n      jumpi\n        /* \"DexSwap/MultiCall.sol\":6157:6177  Result memory result */\n      0x00\n        /* \"DexSwap/MultiCall.sol\":6180:6190  returnData */\n      dup6\n        /* \"DexSwap/MultiCall.sol\":6191:6192  i */\n      dup3\n        /* \"DexSwap/MultiCall.sol\":6180:6193  returnData[i] */\n      dup2\n      mload\n      dup2\n      lt\n      tag_111\n      jumpi\n      tag_112\n      tag_113\n      jump\t// in\n    tag_112:\n    tag_111:\n      0x20\n      mul\n      0x20\n      add\n      add\n      mload\n        /* \"DexSwap/MultiCall.sol\":6157:6193  Result memory result = returnData[i] */\n      swap1\n      pop\n        /* \"DexSwap/MultiCall.sol\":6215:6220  calls */\n      dup8\n      dup8\n        /* \"DexSwap/MultiCall.sol\":6221:6222  i */\n      dup4\n        /* \"DexSwap/MultiCall.sol\":6215:6223  calls[i] */\n      dup2\n      dup2\n      lt\n      tag_114\n      jumpi\n      tag_115\n      tag_113\n      jump\t// in\n    tag_115:\n    tag_114:\n      swap1\n      pop\n      0x20\n      mul\n      dup2\n      add\n      swap1\n      tag_116\n      swap2\n      swap1\n      tag_117\n      jump\t// in\n    tag_116:\n        /* \"DexSwap/MultiCall.sol\":6207:6223  calli = calls[i] */\n      swap3\n      pop\n        /* \"DexSwap/MultiCall.sol\":6237:6248  uint256 val */\n      0x00\n        /* \"DexSwap/MultiCall.sol\":6251:6256  calli */\n      dup4\n        /* \"DexSwap/MultiCall.sol\":6251:6262  calli.value */\n      0x40\n      add\n      calldataload\n        /* \"DexSwap/MultiCall.sol\":6237:6262  uint256 val = calli.value */\n      swap1\n      pop\n        /* \"DexSwap/MultiCall.sol\":6481:6484  val */\n      dup1\n        /* \"DexSwap/MultiCall.sol\":6463:6484  valAccumulator += val */\n      dup7\n      add\n      swap6\n      pop\n        /* \"DexSwap/MultiCall.sol\":6538:6543  calli */\n      dup4\n        /* \"DexSwap/MultiCall.sol\":6538:6550  calli.target */\n      0x00\n      add\n      0x20\n      dup2\n      add\n      swap1\n      tag_118\n      swap2\n      swap1\n      tag_64\n      jump\t// in\n    tag_118:\n        /* \"DexSwap/MultiCall.sol\":6538:6555  calli.target.call */\n      0xffffffffffffffffffffffffffffffffffffffff\n      and\n        /* \"DexSwap/MultiCall.sol\":6563:6566  val */\n      dup2\n        /* \"DexSwap/MultiCall.sol\":6568:6573  calli */\n      dup6\n        /* \"DexSwap/MultiCall.sol\":6568:6582  calli.callData */\n      dup1\n      0x60\n      add\n      swap1\n      tag_119\n      swap2\n      swap1\n      tag_120\n      jump\t// in\n    tag_119:\n        /* \"DexSwap/MultiCall.sol\":6538:6583  calli.target.call{value: val}(calli.callData) */\n      mload(0x40)\n      tag_121\n      swap3\n      swap2\n      swap1\n      tag_122\n      jump\t// in\n    tag_121:\n      0x00\n      mload(0x40)\n      dup1\n      dup4\n      sub\n      dup2\n      dup6\n      dup8\n      gas\n      call\n      swap3\n      pop\n      pop\n      pop\n      returndatasize\n      dup1\n      0x00\n      dup2\n      eq\n      tag_125\n      jumpi\n      mload(0x40)\n      swap2\n      pop\n      and(add(returndatasize, 0x3f), not(0x1f))\n      dup3\n      add\n      0x40\n      mstore\n      returndatasize\n      dup3\n      mstore\n      returndatasize\n      0x00\n      0x20\n      dup5\n      add\n      returndatacopy\n      jump(tag_124)\n    tag_125:\n      0x60\n      swap2\n      pop\n    tag_124:\n      pop\n        /* \"DexSwap/MultiCall.sol\":6501:6507  result */\n      dup4\n        /* \"DexSwap/MultiCall.sol\":6501:6515  result.success */\n      0x00\n      add\n        /* \"DexSwap/MultiCall.sol\":6517:6523  result */\n      dup5\n        /* \"DexSwap/MultiCall.sol\":6517:6534  result.returnData */\n      0x20\n      add\n        /* \"DexSwap/MultiCall.sol\":6500:6583  (result.success, result.returnData) = calli.target.call{value: val}(calli.callData) */\n      dup3\n      swap1\n      mstore\n      dup3\n      iszero\n      iszero\n      iszero\n      iszero\n      dup2\n      mstore\n      pop\n      pop\n      pop\n        /* \"DexSwap/MultiCall.sol\":6845:6851  result */\n      dup2\n        /* \"DexSwap/MultiCall.sol\":6839:6852  mload(result) */\n      mload\n        /* \"DexSwap/MultiCall.sol\":6831:6835  0x20 */\n      0x20\n        /* \"DexSwap/MultiCall.sol\":6824:6829  calli */\n      dup6\n        /* \"DexSwap/MultiCall.sol\":6820:6836  add(calli, 0x20) */\n      add\n        /* \"DexSwap/MultiCall.sol\":6807:6837  calldataload(add(calli, 0x20)) */\n      calldataload\n        /* \"DexSwap/MultiCall.sol\":6804:6853  or(calldataload(add(calli, 0x20)), mload(result)) */\n      or\n        /* \"DexSwap/MultiCall.sol\":6794:7600  if iszero(or(calldataload(add(calli, 0x20)), mload(result))) {... */\n      tag_126\n      jumpi\n        /* \"DexSwap/MultiCall.sol\":6988:7054  0x08c379a000000000000000000000000000000000000000000000000000000000 */\n      0x08c379a000000000000000000000000000000000000000000000000000000000\n        /* \"DexSwap/MultiCall.sol\":6982:6986  0x00 */\n      0x00\n        /* \"DexSwap/MultiCall.sol\":6975:7055  mstore(0x00, 0x08c379a000000000000000000000000000000000000000000000000000000000) */\n      mstore\n        /* \"DexSwap/MultiCall.sol\":7128:7194  0x0000000000000000000000000000000000000000000000000000000000000020 */\n      0x20\n        /* \"DexSwap/MultiCall.sol\":7122:7126  0x04 */\n      0x04\n        /* \"DexSwap/MultiCall.sol\":7115:7195  mstore(0x04, 0x0000000000000000000000000000000000000000000000000000000000000020) */\n      mstore\n        /* \"DexSwap/MultiCall.sol\":7280:7346  0x0000000000000000000000000000000000000000000000000000000000000017 */\n      0x17\n        /* \"DexSwap/MultiCall.sol\":7274:7278  0x24 */\n      0x24\n        /* \"DexSwap/MultiCall.sol\":7267:7347  mstore(0x24, 0x0000000000000000000000000000000000000000000000000000000000000017) */\n      mstore\n        /* \"DexSwap/MultiCall.sol\":7476:7542  0x4d756c746963616c6c333a2063616c6c206661696c6564000000000000000000 */\n      0x4d756c746963616c6c333a2063616c6c206661696c6564000000000000000000\n        /* \"DexSwap/MultiCall.sol\":7470:7474  0x44 */\n      0x44\n        /* \"DexSwap/MultiCall.sol\":7463:7543  mstore(0x44, 0x4d756c746963616c6c333a2063616c6c206661696c6564000000000000000000) */\n      mstore\n        /* \"DexSwap/MultiCall.sol\":7577:7581  0x84 */\n      0x84\n        /* \"DexSwap/MultiCall.sol\":7571:7575  0x00 */\n      0x00\n        /* \"DexSwap/MultiCall.sol\":7564:7582  revert(0x00, 0x84) */\n      revert\n        /* \"DexSwap/MultiCall.sol\":6794:7600  if iszero(or(calldataload(add(calli, 0x20)), mload(result))) {... */\n    tag_126:\n        /* \"DexSwap/MultiCall.sol\":7639:7642  ++i */\n      dup3\n      0x01\n      add\n      swap3\n      pop\n        /* \"DexSwap/MultiCall.sol\":6143:7655  {... */\n      pop\n      pop\n        /* \"DexSwap/MultiCall.sol\":6110:7655  for (uint256 i = 0; i < length;) {... */\n      jump(tag_108)\n    tag_109:\n      pop\n        /* \"DexSwap/MultiCall.sol\":7754:7768  valAccumulator */\n      dup3\n        /* \"DexSwap/MultiCall.sol\":7741:7750  msg.value */\n      callvalue\n        /* \"DexSwap/MultiCall.sol\":7741:7768  msg.value == valAccumulator */\n      eq\n        /* \"DexSwap/MultiCall.sol\":7733:7799  require(msg.value == valAccumulator, \"Multicall3: value mismatch\") */\n      tag_127\n      jumpi\n      mload(0x40)\n      0x08c379a000000000000000000000000000000000000000000000000000000000\n      dup2\n      mstore\n      0x04\n      add\n      tag_128\n      swap1\n      tag_129\n      jump\t// in\n    tag_128:\n      mload(0x40)\n      dup1\n      swap2\n      sub\n      swap1\n      revert\n    tag_127:\n        /* \"DexSwap/MultiCall.sol\":5951:7806  {... */\n      pop\n      pop\n      pop\n        /* \"DexSwap/MultiCall.sol\":5845:7806  function aggregate3Value(Call3Value[] calldata calls) public payable returns (Result[] memory returnData) {... */\n      swap3\n      swap2\n      pop\n      pop\n      jump\t// out\n        /* \"DexSwap/MultiCall.sol\":1240:1774  function aggregate(Call[] calldata calls) public payable returns (uint256 blockNumber, bytes[] memory returnData) {... */\n    tag_35:\n        /* \"DexSwap/MultiCall.sol\":1306:1325  uint256 blockNumber */\n      0x00\n        /* \"DexSwap/MultiCall.sol\":1327:1352  bytes[] memory returnData */\n      0x60\n        /* \"DexSwap/MultiCall.sol\":1378:1390  block.number */\n      number\n        /* \"DexSwap/MultiCall.sol\":1364:1390  blockNumber = block.number */\n      swap2\n      pop\n        /* \"DexSwap/MultiCall.sol\":1400:1414  uint256 length */\n      0x00\n        /* \"DexSwap/MultiCall.sol\":1417:1422  calls */\n      dup5\n      dup5\n        /* \"DexSwap/MultiCall.sol\":1417:1429  calls.length */\n      swap1\n      pop\n        /* \"DexSwap/MultiCall.sol\":1400:1429  uint256 length = calls.length */\n      swap1\n      pop\n        /* \"DexSwap/MultiCall.sol\":1464:1470  length */\n      dup1\n        /* \"DexSwap/MultiCall.sol\":1452:1471  new bytes[](length) */\n      0xffffffffffffffff\n      dup2\n      gt\n      iszero\n      tag_131\n      jumpi\n      tag_132\n      tag_103\n      jump\t// in\n    tag_132:\n    tag_131:\n      mload(0x40)\n      swap1\n      dup1\n      dup3\n      mstore\n      dup1\n      0x20\n      mul\n      0x20\n      add\n      dup3\n      add\n      0x40\n      mstore\n      dup1\n      iszero\n      tag_133\n      jumpi\n      dup2\n      0x20\n      add\n    tag_134:\n      0x60\n      dup2\n      mstore\n      0x20\n      add\n      swap1\n      0x01\n      swap1\n      sub\n      swap1\n      dup2\n      tag_134\n      jumpi\n      swap1\n      pop\n    tag_133:\n      pop\n        /* \"DexSwap/MultiCall.sol\":1439:1471  returnData = new bytes[](length) */\n      swap2\n      pop\n        /* \"DexSwap/MultiCall.sol\":1481:1499  Call calldata call */\n      calldatasize\n        /* \"DexSwap/MultiCall.sol\":1514:1523  uint256 i */\n      0x00\n        /* \"DexSwap/MultiCall.sol\":1509:1768  for (uint256 i = 0; i < length;) {... */\n    tag_135:\n        /* \"DexSwap/MultiCall.sol\":1533:1539  length */\n      dup3\n        /* \"DexSwap/MultiCall.sol\":1529:1530  i */\n      dup2\n        /* \"DexSwap/MultiCall.sol\":1529:1539  i < length */\n      lt\n        /* \"DexSwap/MultiCall.sol\":1509:1768  for (uint256 i = 0; i < length;) {... */\n      iszero\n      tag_136\n      jumpi\n        /* \"DexSwap/MultiCall.sol\":1556:1568  bool success */\n      0x00\n        /* \"DexSwap/MultiCall.sol\":1589:1594  calls */\n      dup8\n      dup8\n        /* \"DexSwap/MultiCall.sol\":1595:1596  i */\n      dup4\n        /* \"DexSwap/MultiCall.sol\":1589:1597  calls[i] */\n      dup2\n      dup2\n      lt\n      tag_138\n      jumpi\n      tag_139\n      tag_113\n      jump\t// in\n    tag_139:\n    tag_138:\n      swap1\n      pop\n      0x20\n      mul\n      dup2\n      add\n      swap1\n      tag_140\n      swap2\n      swap1\n      tag_141\n      jump\t// in\n    tag_140:\n        /* \"DexSwap/MultiCall.sol\":1582:1597  call = calls[i] */\n      swap3\n      pop\n        /* \"DexSwap/MultiCall.sol\":1638:1642  call */\n      dup3\n        /* \"DexSwap/MultiCall.sol\":1638:1649  call.target */\n      0x00\n      add\n      0x20\n      dup2\n      add\n      swap1\n      tag_142\n      swap2\n      swap1\n      tag_64\n      jump\t// in\n    tag_142:\n        /* \"DexSwap/MultiCall.sol\":1638:1654  call.target.call */\n      0xffffffffffffffffffffffffffffffffffffffff\n      and\n        /* \"DexSwap/MultiCall.sol\":1655:1659  call */\n      dup4\n        /* \"DexSwap/MultiCall.sol\":1655:1668  call.callData */\n      dup1\n      0x20\n      add\n      swap1\n      tag_143\n      swap2\n      swap1\n      tag_120\n      jump\t// in\n    tag_143:\n        /* \"DexSwap/MultiCall.sol\":1638:1669  call.target.call(call.callData) */\n      mload(0x40)\n      tag_144\n      swap3\n      swap2\n      swap1\n      tag_122\n      jump\t// in\n    tag_144:\n      0x00\n      mload(0x40)\n      dup1\n      dup4\n      sub\n      dup2\n      0x00\n      dup7\n      gas\n      call\n      swap2\n      pop\n      pop\n      returndatasize\n      dup1\n      0x00\n      dup2\n      eq\n      tag_147\n      jumpi\n      mload(0x40)\n      swap2\n      pop\n      and(add(returndatasize, 0x3f), not(0x1f))\n      dup3\n      add\n      0x40\n      mstore\n      returndatasize\n      dup3\n      mstore\n      returndatasize\n      0x00\n      0x20\n      dup5\n      add\n      returndatacopy\n      jump(tag_146)\n    tag_147:\n      0x60\n      swap2\n      pop\n    tag_146:\n      pop\n        /* \"DexSwap/MultiCall.sol\":1621:1631  returnData */\n      dup7\n        /* \"DexSwap/MultiCall.sol\":1632:1633  i */\n      dup5\n        /* \"DexSwap/MultiCall.sol\":1621:1634  returnData[i] */\n      dup2\n      mload\n      dup2\n      lt\n      tag_148\n      jumpi\n      tag_149\n      tag_113\n      jump\t// in\n    tag_149:\n    tag_148:\n      0x20\n      mul\n      0x20\n      add\n      add\n        /* \"DexSwap/MultiCall.sol\":1611:1669  (success, returnData[i]) = call.target.call(call.callData) */\n      dup2\n      swap1\n      mstore\n      dup2\n      swap3\n      pop\n      pop\n      pop\n        /* \"DexSwap/MultiCall.sol\":1691:1698  success */\n      dup1\n        /* \"DexSwap/MultiCall.sol\":1683:1726  require(success, \"Multicall3: call failed\") */\n      tag_150\n      jumpi\n      mload(0x40)\n      0x08c379a000000000000000000000000000000000000000000000000000000000\n      dup2\n      mstore\n      0x04\n      add\n      tag_151\n      swap1\n      tag_152\n      jump\t// in\n    tag_151:\n      mload(0x40)\n      dup1\n      swap2\n      sub\n      swap1\n      revert\n    tag_150:\n        /* \"DexSwap/MultiCall.sol\":1752:1755  ++i */\n      dup2\n      0x01\n      add\n      swap2\n      pop\n        /* \"DexSwap/MultiCall.sol\":1542:1768  {... */\n      pop\n        /* \"DexSwap/MultiCall.sol\":1509:1768  for (uint256 i = 0; i < length;) {... */\n      jump(tag_135)\n    tag_136:\n      pop\n        /* \"DexSwap/MultiCall.sol\":1354:1774  {... */\n      pop\n      pop\n        /* \"DexSwap/MultiCall.sol\":1240:1774  function aggregate(Call[] calldata calls) public payable returns (uint256 blockNumber, bytes[] memory returnData) {... */\n      swap3\n      pop\n      swap3\n      swap1\n      pop\n      jump\t// out\n        /* \"DexSwap/MultiCall.sol\":9134:9292  function getLastBlockHash() public view returns (bytes32 blockHash) {... */\n    tag_40:\n        /* \"DexSwap/MultiCall.sol\":9183:9200  bytes32 blockHash */\n      0x00\n        /* \"DexSwap/MultiCall.sol\":9273:9274  1 */\n      0x01\n        /* \"DexSwap/MultiCall.sol\":9258:9270  block.number */\n      number\n        /* \"DexSwap/MultiCall.sol\":9258:9274  block.number - 1 */\n      sub\n        /* \"DexSwap/MultiCall.sol\":9248:9275  blockhash(block.number - 1) */\n      blockhash\n        /* \"DexSwap/MultiCall.sol\":9236:9275  blockHash = blockhash(block.number - 1) */\n      swap1\n      pop\n        /* \"DexSwap/MultiCall.sol\":9134:9292  function getLastBlockHash() public view returns (bytes32 blockHash) {... */\n      swap1\n      jump\t// out\n        /* \"DexSwap/MultiCall.sol\":9581:9681  function getChainId() public view returns (uint256 chainid) {... */\n    tag_45:\n        /* \"DexSwap/MultiCall.sol\":9624:9639  uint256 chainid */\n      0x00\n        /* \"DexSwap/MultiCall.sol\":9661:9674  block.chainid */\n      chainid\n        /* \"DexSwap/MultiCall.sol\":9651:9674  chainid = block.chainid */\n      swap1\n      pop\n        /* \"DexSwap/MultiCall.sol\":9581:9681  function getChainId() public view returns (uint256 chainid) {... */\n      swap1\n      jump\t// out\n        /* \"DexSwap/MultiCall.sol\":3006:3318  function tryBlockAndAggregate(bool requireSuccess, Call[] calldata calls) public payable returns (uint256 blockNumber, bytes32 blockHash, Result[] memory returnData) {... */\n    tag_50:\n        /* \"DexSwap/MultiCall.sol\":3104:3123  uint256 blockNumber */\n      0x00\n        /* \"DexSwap/MultiCall.sol\":3125:3142  bytes32 blockHash */\n      dup1\n        /* \"DexSwap/MultiCall.sol\":3144:3170  Result[] memory returnData */\n      0x60\n        /* \"DexSwap/MultiCall.sol\":3196:3208  block.number */\n      number\n        /* \"DexSwap/MultiCall.sol\":3182:3208  blockNumber = block.number */\n      swap3\n      pop\n        /* \"DexSwap/MultiCall.sol\":3240:3252  block.number */\n      number\n        /* \"DexSwap/MultiCall.sol\":3230:3253  blockhash(block.number) */\n      blockhash\n        /* \"DexSwap/MultiCall.sol\":3218:3253  blockHash = blockhash(block.number) */\n      swap2\n      pop\n        /* \"DexSwap/MultiCall.sol\":3276:3311  tryAggregate(requireSuccess, calls) */\n      tag_156\n        /* \"DexSwap/MultiCall.sol\":3289:3303  requireSuccess */\n      dup7\n        /* \"DexSwap/MultiCall.sol\":3305:3310  calls */\n      dup7\n      dup7\n        /* \"DexSwap/MultiCall.sol\":3276:3288  tryAggregate */\n      tag_87\n        /* \"DexSwap/MultiCall.sol\":3276:3311  tryAggregate(requireSuccess, calls) */\n      jump\t// in\n    tag_156:\n        /* \"DexSwap/MultiCall.sol\":3263:3311  returnData = tryAggregate(requireSuccess, calls) */\n      swap1\n      pop\n        /* \"DexSwap/MultiCall.sol\":3006:3318  function tryBlockAndAggregate(bool requireSuccess, Call[] calldata calls) public payable returns (uint256 blockNumber, bytes32 blockHash, Result[] memory returnData) {... */\n      swap4\n      pop\n      swap4\n      pop\n      swap4\n      swap1\n      pop\n      jump\t// out\n        /* \"DexSwap/MultiCall.sol\":9438:9538  function getBasefee() public view returns (uint256 basefee) {... */\n    tag_55:\n        /* \"DexSwap/MultiCall.sol\":9481:9496  uint256 basefee */\n      0x00\n        /* \"DexSwap/MultiCall.sol\":9518:9531  block.basefee */\n      basefee\n        /* \"DexSwap/MultiCall.sol\":9508:9531  basefee = block.basefee */\n      swap1\n      pop\n        /* \"DexSwap/MultiCall.sol\":9438:9538  function getBasefee() public view returns (uint256 basefee) {... */\n      swap1\n      jump\t// out\n        /* \"DexSwap/MultiCall.sol\":8103:8214  function getBlockNumber() public view returns (uint256 blockNumber) {... */\n    tag_59:\n        /* \"DexSwap/MultiCall.sol\":8150:8169  uint256 blockNumber */\n      0x00\n        /* \"DexSwap/MultiCall.sol\":8195:8207  block.number */\n      number\n        /* \"DexSwap/MultiCall.sol\":8181:8207  blockNumber = block.number */\n      swap1\n      pop\n        /* \"DexSwap/MultiCall.sol\":8103:8214  function getBlockNumber() public view returns (uint256 blockNumber) {... */\n      swap1\n      jump\t// out\n        /* \"DexSwap/MultiCall.sol\":8957:9071  function getEthBalance(address addr) public view returns (uint256 balance) {... */\n    tag_65:\n        /* \"DexSwap/MultiCall.sol\":9015:9030  uint256 balance */\n      0x00\n        /* \"DexSwap/MultiCall.sol\":9052:9056  addr */\n      dup2\n        /* \"DexSwap/MultiCall.sol\":9052:9064  addr.balance */\n      0xffffffffffffffffffffffffffffffffffffffff\n      and\n      balance\n        /* \"DexSwap/MultiCall.sol\":9042:9064  balance = addr.balance */\n      swap1\n      pop\n        /* \"DexSwap/MultiCall.sol\":8957:9071  function getEthBalance(address addr) public view returns (uint256 balance) {... */\n      swap2\n      swap1\n      pop\n      jump\t// out\n        /* \"DexSwap/MultiCall.sol\":8430:8554  function getCurrentBlockDifficulty() public view returns (uint256 difficulty) {... */\n    tag_69:\n        /* \"DexSwap/MultiCall.sol\":8488:8506  uint256 difficulty */\n      0x00\n        /* \"DexSwap/MultiCall.sol\":8531:8547  block.difficulty */\n      difficulty\n        /* \"DexSwap/MultiCall.sol\":8518:8547  difficulty = block.difficulty */\n      swap1\n      pop\n        /* \"DexSwap/MultiCall.sol\":8430:8554  function getCurrentBlockDifficulty() public view returns (uint256 difficulty) {... */\n      swap1\n      jump\t// out\n        /* \"DexSwap/MultiCall.sol\":4113:5607  function aggregate3(Call3[] calldata calls) public payable returns (Result[] memory returnData) {... */\n    tag_74:\n        /* \"DexSwap/MultiCall.sol\":4181:4207  Result[] memory returnData */\n      0x60\n        /* \"DexSwap/MultiCall.sol\":4219:4233  uint256 length */\n      0x00\n        /* \"DexSwap/MultiCall.sol\":4236:4241  calls */\n      dup4\n      dup4\n        /* \"DexSwap/MultiCall.sol\":4236:4248  calls.length */\n      swap1\n      pop\n        /* \"DexSwap/MultiCall.sol\":4219:4248  uint256 length = calls.length */\n      swap1\n      pop\n        /* \"DexSwap/MultiCall.sol\":4284:4290  length */\n      dup1\n        /* \"DexSwap/MultiCall.sol\":4271:4291  new Result[](length) */\n      0xffffffffffffffff\n      dup2\n      gt\n      iszero\n      tag_162\n      jumpi\n      tag_163\n      tag_103\n      jump\t// in\n    tag_163:\n    tag_162:\n      mload(0x40)\n      swap1\n      dup1\n      dup3\n      mstore\n      dup1\n      0x20\n      mul\n      0x20\n      add\n      dup3\n      add\n      0x40\n      mstore\n      dup1\n      iszero\n      tag_164\n      jumpi\n      dup2\n      0x20\n      add\n    tag_165:\n      tag_166\n      tag_107\n      jump\t// in\n    tag_166:\n      dup2\n      mstore\n      0x20\n      add\n      swap1\n      0x01\n      swap1\n      sub\n      swap1\n      dup2\n      tag_165\n      jumpi\n      swap1\n      pop\n    tag_164:\n      pop\n        /* \"DexSwap/MultiCall.sol\":4258:4291  returnData = new Result[](length) */\n      swap2\n      pop\n        /* \"DexSwap/MultiCall.sol\":4301:4321  Call3 calldata calli */\n      calldatasize\n        /* \"DexSwap/MultiCall.sol\":4336:4345  uint256 i */\n      0x00\n        /* \"DexSwap/MultiCall.sol\":4331:5601  for (uint256 i = 0; i < length;) {... */\n    tag_167:\n        /* \"DexSwap/MultiCall.sol\":4355:4361  length */\n      dup3\n        /* \"DexSwap/MultiCall.sol\":4351:4352  i */\n      dup2\n        /* \"DexSwap/MultiCall.sol\":4351:4361  i < length */\n      lt\n        /* \"DexSwap/MultiCall.sol\":4331:5601  for (uint256 i = 0; i < length;) {... */\n      iszero\n      tag_168\n      jumpi\n        /* \"DexSwap/MultiCall.sol\":4378:4398  Result memory result */\n      0x00\n        /* \"DexSwap/MultiCall.sol\":4401:4411  returnData */\n      dup5\n        /* \"DexSwap/MultiCall.sol\":4412:4413  i */\n      dup3\n        /* \"DexSwap/MultiCall.sol\":4401:4414  returnData[i] */\n      dup2\n      mload\n      dup2\n      lt\n      tag_170\n      jumpi\n      tag_171\n      tag_113\n      jump\t// in\n    tag_171:\n    tag_170:\n      0x20\n      mul\n      0x20\n      add\n      add\n      mload\n        /* \"DexSwap/MultiCall.sol\":4378:4414  Result memory result = returnData[i] */\n      swap1\n      pop\n        /* \"DexSwap/MultiCall.sol\":4436:4441  calls */\n      dup7\n      dup7\n        /* \"DexSwap/MultiCall.sol\":4442:4443  i */\n      dup4\n        /* \"DexSwap/MultiCall.sol\":4436:4444  calls[i] */\n      dup2\n      dup2\n      lt\n      tag_172\n      jumpi\n      tag_173\n      tag_113\n      jump\t// in\n    tag_173:\n    tag_172:\n      swap1\n      pop\n      0x20\n      mul\n      dup2\n      add\n      swap1\n      tag_174\n      swap2\n      swap1\n      tag_175\n      jump\t// in\n    tag_174:\n        /* \"DexSwap/MultiCall.sol\":4428:4444  calli = calls[i] */\n      swap3\n      pop\n        /* \"DexSwap/MultiCall.sol\":4496:4501  calli */\n      dup3\n        /* \"DexSwap/MultiCall.sol\":4496:4508  calli.target */\n      0x00\n      add\n      0x20\n      dup2\n      add\n      swap1\n      tag_176\n      swap2\n      swap1\n      tag_64\n      jump\t// in\n    tag_176:\n        /* \"DexSwap/MultiCall.sol\":4496:4513  calli.target.call */\n      0xffffffffffffffffffffffffffffffffffffffff\n      and\n        /* \"DexSwap/MultiCall.sol\":4514:4519  calli */\n      dup4\n        /* \"DexSwap/MultiCall.sol\":4514:4528  calli.callData */\n      dup1\n      0x40\n      add\n      swap1\n      tag_177\n      swap2\n      swap1\n      tag_120\n      jump\t// in\n    tag_177:\n        /* \"DexSwap/MultiCall.sol\":4496:4529  calli.target.call(calli.callData) */\n      mload(0x40)\n      tag_178\n      swap3\n      swap2\n      swap1\n      tag_122\n      jump\t// in\n    tag_178:\n      0x00\n      mload(0x40)\n      dup1\n      dup4\n      sub\n      dup2\n      0x00\n      dup7\n      gas\n      call\n      swap2\n      pop\n      pop\n      returndatasize\n      dup1\n      0x00\n      dup2\n      eq\n      tag_181\n      jumpi\n      mload(0x40)\n      swap2\n      pop\n      and(add(returndatasize, 0x3f), not(0x1f))\n      dup3\n      add\n      0x40\n      mstore\n      returndatasize\n      dup3\n      mstore\n      returndatasize\n      0x00\n      0x20\n      dup5\n      add\n      returndatacopy\n      jump(tag_180)\n    tag_181:\n      0x60\n      swap2\n      pop\n    tag_180:\n      pop\n        /* \"DexSwap/MultiCall.sol\":4459:4465  result */\n      dup3\n        /* \"DexSwap/MultiCall.sol\":4459:4473  result.success */\n      0x00\n      add\n        /* \"DexSwap/MultiCall.sol\":4475:4481  result */\n      dup4\n        /* \"DexSwap/MultiCall.sol\":4475:4492  result.returnData */\n      0x20\n      add\n        /* \"DexSwap/MultiCall.sol\":4458:4529  (result.success, result.returnData) = calli.target.call(calli.callData) */\n      dup3\n      swap1\n      mstore\n      dup3\n      iszero\n      iszero\n      iszero\n      iszero\n      dup2\n      mstore\n      pop\n      pop\n      pop\n        /* \"DexSwap/MultiCall.sol\":4791:4797  result */\n      dup1\n        /* \"DexSwap/MultiCall.sol\":4785:4798  mload(result) */\n      mload\n        /* \"DexSwap/MultiCall.sol\":4777:4781  0x20 */\n      0x20\n        /* \"DexSwap/MultiCall.sol\":4770:4775  calli */\n      dup5\n        /* \"DexSwap/MultiCall.sol\":4766:4782  add(calli, 0x20) */\n      add\n        /* \"DexSwap/MultiCall.sol\":4753:4783  calldataload(add(calli, 0x20)) */\n      calldataload\n        /* \"DexSwap/MultiCall.sol\":4750:4799  or(calldataload(add(calli, 0x20)), mload(result)) */\n      or\n        /* \"DexSwap/MultiCall.sol\":4740:5546  if iszero(or(calldataload(add(calli, 0x20)), mload(result))) {... */\n      tag_182\n      jumpi\n        /* \"DexSwap/MultiCall.sol\":4934:5000  0x08c379a000000000000000000000000000000000000000000000000000000000 */\n      0x08c379a000000000000000000000000000000000000000000000000000000000\n        /* \"DexSwap/MultiCall.sol\":4928:4932  0x00 */\n      0x00\n        /* \"DexSwap/MultiCall.sol\":4921:5001  mstore(0x00, 0x08c379a000000000000000000000000000000000000000000000000000000000) */\n      mstore\n        /* \"DexSwap/MultiCall.sol\":5074:5140  0x0000000000000000000000000000000000000000000000000000000000000020 */\n      0x20\n        /* \"DexSwap/MultiCall.sol\":5068:5072  0x04 */\n      0x04\n        /* \"DexSwap/MultiCall.sol\":5061:5141  mstore(0x04, 0x0000000000000000000000000000000000000000000000000000000000000020) */\n      mstore\n        /* \"DexSwap/MultiCall.sol\":5226:5292  0x0000000000000000000000000000000000000000000000000000000000000017 */\n      0x17\n        /* \"DexSwap/MultiCall.sol\":5220:5224  0x24 */\n      0x24\n        /* \"DexSwap/MultiCall.sol\":5213:5293  mstore(0x24, 0x0000000000000000000000000000000000000000000000000000000000000017) */\n      mstore\n        /* \"DexSwap/MultiCall.sol\":5422:5488  0x4d756c746963616c6c333a2063616c6c206661696c6564000000000000000000 */\n      0x4d756c746963616c6c333a2063616c6c206661696c6564000000000000000000\n        /* \"DexSwap/MultiCall.sol\":5416:5420  0x44 */\n      0x44\n        /* \"DexSwap/MultiCall.sol\":5409:5489  mstore(0x44, 0x4d756c746963616c6c333a2063616c6c206661696c6564000000000000000000) */\n      mstore\n        /* \"DexSwap/MultiCall.sol\":5523:5527  0x64 */\n      0x64\n        /* \"DexSwap/MultiCall.sol\":5517:5521  0x00 */\n      0x00\n        /* \"DexSwap/MultiCall.sol\":5510:5528  revert(0x00, 0x64) */\n      revert\n        /* \"DexSwap/MultiCall.sol\":4740:5546  if iszero(or(calldataload(add(calli, 0x20)), mload(result))) {... */\n    tag_182:\n        /* \"DexSwap/MultiCall.sol\":5585:5588  ++i */\n      dup2\n      0x01\n      add\n      swap2\n      pop\n        /* \"DexSwap/MultiCall.sol\":4364:5601  {... */\n      pop\n        /* \"DexSwap/MultiCall.sol\":4331:5601  for (uint256 i = 0; i < length;) {... */\n      jump(tag_167)\n    tag_168:\n      pop\n        /* \"DexSwap/MultiCall.sol\":4209:5607  {... */\n      pop\n      pop\n        /* \"DexSwap/MultiCall.sol\":4113:5607  function aggregate3(Call3[] calldata calls) public payable returns (Result[] memory returnData) {... */\n      swap3\n      swap2\n      pop\n      pop\n      jump\t// out\n        /* \"DexSwap/MultiCall.sol\":8604:8720  function getCurrentBlockGasLimit() public view returns (uint256 gaslimit) {... */\n    tag_78:\n        /* \"DexSwap/MultiCall.sol\":8660:8676  uint256 gaslimit */\n      0x00\n        /* \"DexSwap/MultiCall.sol\":8699:8713  block.gaslimit */\n      gaslimit\n        /* \"DexSwap/MultiCall.sol\":8688:8713  gaslimit = block.gaslimit */\n      swap1\n      pop\n        /* \"DexSwap/MultiCall.sol\":8604:8720  function getCurrentBlockGasLimit() public view returns (uint256 gaslimit) {... */\n      swap1\n      jump\t// out\n        /* \"DexSwap/MultiCall.sol\":8263:8379  function getCurrentBlockCoinbase() public view returns (address coinbase) {... */\n    tag_82:\n        /* \"DexSwap/MultiCall.sol\":8319:8335  address coinbase */\n      0x00\n        /* \"DexSwap/MultiCall.sol\":8358:8372  block.coinbase */\n      coinbase\n        /* \"DexSwap/MultiCall.sol\":8347:8372  coinbase = block.coinbase */\n      swap1\n      pop\n        /* \"DexSwap/MultiCall.sol\":8263:8379  function getCurrentBlockCoinbase() public view returns (address coinbase) {... */\n      swap1\n      jump\t// out\n        /* \"DexSwap/MultiCall.sol\":2059:2624  function tryAggregate(bool requireSuccess, Call[] calldata calls) public payable returns (Result[] memory returnData) {... */\n    tag_87:\n        /* \"DexSwap/MultiCall.sol\":2149:2175  Result[] memory returnData */\n      0x60\n        /* \"DexSwap/MultiCall.sol\":2187:2201  uint256 length */\n      0x00\n        /* \"DexSwap/MultiCall.sol\":2204:2209  calls */\n      dup4\n      dup4\n        /* \"DexSwap/MultiCall.sol\":2204:2216  calls.length */\n      swap1\n      pop\n        /* \"DexSwap/MultiCall.sol\":2187:2216  uint256 length = calls.length */\n      swap1\n      pop\n        /* \"DexSwap/MultiCall.sol\":2252:2258  length */\n      dup1\n        /* \"DexSwap/MultiCall.sol\":2239:2259  new Result[](length) */\n      0xffffffffffffffff\n      dup2\n      gt\n      iszero\n      tag_186\n      jumpi\n      tag_187\n      tag_103\n      jump\t// in\n    tag_187:\n    tag_186:\n      mload(0x40)\n      swap1\n      dup1\n      dup3\n      mstore\n      dup1\n      0x20\n      mul\n      0x20\n      add\n      dup3\n      add\n      0x40\n      mstore\n      dup1\n      iszero\n      tag_188\n      jumpi\n      dup2\n      0x20\n      add\n    tag_189:\n      tag_190\n      tag_107\n      jump\t// in\n    tag_190:\n      dup2\n      mstore\n      0x20\n      add\n      swap1\n      0x01\n      swap1\n      sub\n      swap1\n      dup2\n      tag_189\n      jumpi\n      swap1\n      pop\n    tag_188:\n      pop\n        /* \"DexSwap/MultiCall.sol\":2226:2259  returnData = new Result[](length) */\n      swap2\n      pop\n        /* \"DexSwap/MultiCall.sol\":2269:2287  Call calldata call */\n      calldatasize\n        /* \"DexSwap/MultiCall.sol\":2302:2311  uint256 i */\n      0x00\n        /* \"DexSwap/MultiCall.sol\":2297:2618  for (uint256 i = 0; i < length;) {... */\n    tag_191:\n        /* \"DexSwap/MultiCall.sol\":2321:2327  length */\n      dup3\n        /* \"DexSwap/MultiCall.sol\":2317:2318  i */\n      dup2\n        /* \"DexSwap/MultiCall.sol\":2317:2327  i < length */\n      lt\n        /* \"DexSwap/MultiCall.sol\":2297:2618  for (uint256 i = 0; i < length;) {... */\n      iszero\n      tag_192\n      jumpi\n        /* \"DexSwap/MultiCall.sol\":2344:2364  Result memory result */\n      0x00\n        /* \"DexSwap/MultiCall.sol\":2367:2377  returnData */\n      dup5\n        /* \"DexSwap/MultiCall.sol\":2378:2379  i */\n      dup3\n        /* \"DexSwap/MultiCall.sol\":2367:2380  returnData[i] */\n      dup2\n      mload\n      dup2\n      lt\n      tag_194\n      jumpi\n      tag_195\n      tag_113\n      jump\t// in\n    tag_195:\n    tag_194:\n      0x20\n      mul\n      0x20\n      add\n      add\n      mload\n        /* \"DexSwap/MultiCall.sol\":2344:2380  Result memory result = returnData[i] */\n      swap1\n      pop\n        /* \"DexSwap/MultiCall.sol\":2401:2406  calls */\n      dup7\n      dup7\n        /* \"DexSwap/MultiCall.sol\":2407:2408  i */\n      dup4\n        /* \"DexSwap/MultiCall.sol\":2401:2409  calls[i] */\n      dup2\n      dup2\n      lt\n      tag_196\n      jumpi\n      tag_197\n      tag_113\n      jump\t// in\n    tag_197:\n    tag_196:\n      swap1\n      pop\n      0x20\n      mul\n      dup2\n      add\n      swap1\n      tag_198\n      swap2\n      swap1\n      tag_141\n      jump\t// in\n    tag_198:\n        /* \"DexSwap/MultiCall.sol\":2394:2409  call = calls[i] */\n      swap3\n      pop\n        /* \"DexSwap/MultiCall.sol\":2461:2465  call */\n      dup3\n        /* \"DexSwap/MultiCall.sol\":2461:2472  call.target */\n      0x00\n      add\n      0x20\n      dup2\n      add\n      swap1\n      tag_199\n      swap2\n      swap1\n      tag_64\n      jump\t// in\n    tag_199:\n        /* \"DexSwap/MultiCall.sol\":2461:2477  call.target.call */\n      0xffffffffffffffffffffffffffffffffffffffff\n      and\n        /* \"DexSwap/MultiCall.sol\":2478:2482  call */\n      dup4\n        /* \"DexSwap/MultiCall.sol\":2478:2491  call.callData */\n      dup1\n      0x20\n      add\n      swap1\n      tag_200\n      swap2\n      swap1\n      tag_120\n      jump\t// in\n    tag_200:\n        /* \"DexSwap/MultiCall.sol\":2461:2492  call.target.call(call.callData) */\n      mload(0x40)\n      tag_201\n      swap3\n      swap2\n      swap1\n      tag_122\n      jump\t// in\n    tag_201:\n      0x00\n      mload(0x40)\n      dup1\n      dup4\n      sub\n      dup2\n      0x00\n      dup7\n      gas\n      call\n      swap2\n      pop\n      pop\n      returndatasize\n      dup1\n      0x00\n      dup2\n      eq\n      tag_204\n      jumpi\n      mload(0x40)\n      swap2\n      pop\n      and(add(returndatasize, 0x3f), not(0x1f))\n      dup3\n      add\n      0x40\n      mstore\n      returndatasize\n      dup3\n      mstore\n      returndatasize\n      0x00\n      0x20\n      dup5\n      add\n      returndatacopy\n      jump(tag_203)\n    tag_204:\n      0x60\n      swap2\n      pop\n    tag_203:\n      pop\n        /* \"DexSwap/MultiCall.sol\":2424:2430  result */\n      dup3\n        /* \"DexSwap/MultiCall.sol\":2424:2438  result.success */\n      0x00\n      add\n        /* \"DexSwap/MultiCall.sol\":2440:2446  result */\n      dup4\n        /* \"DexSwap/MultiCall.sol\":2440:2457  result.returnData */\n      0x20\n      add\n        /* \"DexSwap/MultiCall.sol\":2423:2492  (result.success, result.returnData) = call.target.call(call.callData) */\n      dup3\n      swap1\n      mstore\n      dup3\n      iszero\n      iszero\n      iszero\n      iszero\n      dup2\n      mstore\n      pop\n      pop\n      pop\n        /* \"DexSwap/MultiCall.sol\":2510:2524  requireSuccess */\n      dup8\n        /* \"DexSwap/MultiCall.sol\":2506:2576  if (requireSuccess) require(result.success, \"Multicall3: call failed\") */\n      iszero\n      tag_205\n      jumpi\n        /* \"DexSwap/MultiCall.sol\":2534:2540  result */\n      dup1\n        /* \"DexSwap/MultiCall.sol\":2534:2548  result.success */\n      0x00\n      add\n      mload\n        /* \"DexSwap/MultiCall.sol\":2526:2576  require(result.success, \"Multicall3: call failed\") */\n      tag_206\n      jumpi\n      mload(0x40)\n      0x08c379a000000000000000000000000000000000000000000000000000000000\n      dup2\n      mstore\n      0x04\n      add\n      tag_207\n      swap1\n      tag_152\n      jump\t// in\n    tag_207:\n      mload(0x40)\n      dup1\n      swap2\n      sub\n      swap1\n      revert\n    tag_206:\n        /* \"DexSwap/MultiCall.sol\":2506:2576  if (requireSuccess) require(result.success, \"Multicall3: call failed\") */\n    tag_205:\n        /* \"DexSwap/MultiCall.sol\":2602:2605  ++i */\n      dup2\n      0x01\n      add\n      swap2\n      pop\n        /* \"DexSwap/MultiCall.sol\":2330:2618  {... */\n      pop\n        /* \"DexSwap/MultiCall.sol\":2297:2618  for (uint256 i = 0; i < length;) {... */\n      jump(tag_191)\n    tag_192:\n      pop\n        /* \"DexSwap/MultiCall.sol\":2177:2624  {... */\n      pop\n      pop\n        /* \"DexSwap/MultiCall.sol\":2059:2624  function tryAggregate(bool requireSuccess, Call[] calldata calls) public payable returns (Result[] memory returnData) {... */\n      swap4\n      swap3\n      pop\n      pop\n      pop\n      jump\t// out\n        /* \"DexSwap/MultiCall.sol\":3700:3931  function blockAndAggregate(Call[] calldata calls) public payable returns (uint256 blockNumber, bytes32 blockHash, Result[] memory returnData) {... */\n    tag_91:\n        /* \"DexSwap/MultiCall.sol\":3774:3793  uint256 blockNumber */\n      0x00\n        /* \"DexSwap/MultiCall.sol\":3795:3812  bytes32 blockHash */\n      dup1\n        /* \"DexSwap/MultiCall.sol\":3814:3840  Result[] memory returnData */\n      0x60\n        /* \"DexSwap/MultiCall.sol\":3891:3924  tryBlockAndAggregate(true, calls) */\n      tag_209\n        /* \"DexSwap/MultiCall.sol\":3912:3916  true */\n      0x01\n        /* \"DexSwap/MultiCall.sol\":3918:3923  calls */\n      dup7\n      dup7\n        /* \"DexSwap/MultiCall.sol\":3891:3911  tryBlockAndAggregate */\n      tag_50\n        /* \"DexSwap/MultiCall.sol\":3891:3924  tryBlockAndAggregate(true, calls) */\n      jump\t// in\n    tag_209:\n        /* \"DexSwap/MultiCall.sol\":3852:3924  (blockNumber, blockHash, returnData) = tryBlockAndAggregate(true, calls) */\n      dup1\n      swap4\n      pop\n      dup2\n      swap5\n      pop\n      dup3\n      swap6\n      pop\n      pop\n      pop\n      pop\n        /* \"DexSwap/MultiCall.sol\":3700:3931  function blockAndAggregate(Call[] calldata calls) public payable returns (uint256 blockNumber, bytes32 blockHash, Result[] memory returnData) {... */\n      swap3\n      pop\n      swap3\n      pop\n      swap3\n      jump\t// out\n        /* \"DexSwap/MultiCall.sol\":7922:8056  function getBlockHash(uint256 blockNumber) public view returns (bytes32 blockHash) {... */\n    tag_97:\n        /* \"DexSwap/MultiCall.sol\":7986:8003  bytes32 blockHash */\n      0x00\n        /* \"DexSwap/MultiCall.sol\":8037:8048  blockNumber */\n      dup2\n        /* \"DexSwap/MultiCall.sol\":8027:8049  blockhash(blockNumber) */\n      blockhash\n        /* \"DexSwap/MultiCall.sol\":8015:8049  blockHash = blockhash(blockNumber) */\n      swap1\n      pop\n        /* \"DexSwap/MultiCall.sol\":7922:8056  function getBlockHash(uint256 blockNumber) public view returns (bytes32 blockHash) {... */\n      swap2\n      swap1\n      pop\n      jump\t// out\n    tag_107:\n      mload(0x40)\n      dup1\n      0x40\n      add\n      0x40\n      mstore\n      dup1\n      iszero(iszero(0x00))\n      dup2\n      mstore\n      0x20\n      add\n      0x60\n      dup2\n      mstore\n      pop\n      swap1\n      jump\t// out\n        /* \"#utility.yul\":7:84   */\n    tag_211:\n        /* \"#utility.yul\":44:51   */\n      0x00\n        /* \"#utility.yul\":73:78   */\n      dup2\n        /* \"#utility.yul\":62:78   */\n      swap1\n      pop\n        /* \"#utility.yul\":7:84   */\n      swap2\n      swap1\n      pop\n      jump\t// out\n        /* \"#utility.yul\":90:208   */\n    tag_212:\n        /* \"#utility.yul\":177:201   */\n      tag_267\n        /* \"#utility.yul\":195:200   */\n      dup2\n        /* \"#utility.yul\":177:201   */\n      tag_211\n      jump\t// in\n    tag_267:\n        /* \"#utility.yul\":172:175   */\n      dup3\n        /* \"#utility.yul\":165:202   */\n      mstore\n        /* \"#utility.yul\":90:208   */\n      pop\n      pop\n      jump\t// out\n        /* \"#utility.yul\":214:436   */\n    tag_25:\n        /* \"#utility.yul\":307:311   */\n      0x00\n        /* \"#utility.yul\":345:347   */\n      0x20\n        /* \"#utility.yul\":334:343   */\n      dup3\n        /* \"#utility.yul\":330:348   */\n      add\n        /* \"#utility.yul\":322:348   */\n      swap1\n      pop\n        /* \"#utility.yul\":358:429   */\n      tag_269\n        /* \"#utility.yul\":426:427   */\n      0x00\n        /* \"#utility.yul\":415:424   */\n      dup4\n        /* \"#utility.yul\":411:428   */\n      add\n        /* \"#utility.yul\":402:408   */\n      dup5\n        /* \"#utility.yul\":358:429   */\n      tag_212\n      jump\t// in\n    tag_269:\n        /* \"#utility.yul\":214:436   */\n      swap3\n      swap2\n      pop\n      pop\n      jump\t// out\n        /* \"#utility.yul\":523:640   */\n    tag_214:\n        /* \"#utility.yul\":632:633   */\n      0x00\n        /* \"#utility.yul\":629:630   */\n      dup1\n        /* \"#utility.yul\":622:634   */\n      revert\n        /* \"#utility.yul\":646:763   */\n    tag_215:\n        /* \"#utility.yul\":755:756   */\n      0x00\n        /* \"#utility.yul\":752:753   */\n      dup1\n        /* \"#utility.yul\":745:757   */\n      revert\n        /* \"#utility.yul\":769:886   */\n    tag_216:\n        /* \"#utility.yul\":878:879   */\n      0x00\n        /* \"#utility.yul\":875:876   */\n      dup1\n        /* \"#utility.yul\":868:880   */\n      revert\n        /* \"#utility.yul\":892:1009   */\n    tag_217:\n        /* \"#utility.yul\":1001:1002   */\n      0x00\n        /* \"#utility.yul\":998:999   */\n      dup1\n        /* \"#utility.yul\":991:1003   */\n      revert\n        /* \"#utility.yul\":1015:1132   */\n    tag_218:\n        /* \"#utility.yul\":1124:1125   */\n      0x00\n        /* \"#utility.yul\":1121:1122   */\n      dup1\n        /* \"#utility.yul\":1114:1126   */\n      revert\n        /* \"#utility.yul\":1176:1772   */\n    tag_219:\n        /* \"#utility.yul\":1277:1285   */\n      0x00\n        /* \"#utility.yul\":1287:1293   */\n      dup1\n        /* \"#utility.yul\":1337:1340   */\n      dup4\n        /* \"#utility.yul\":1330:1334   */\n      0x1f\n        /* \"#utility.yul\":1322:1328   */\n      dup5\n        /* \"#utility.yul\":1318:1335   */\n      add\n        /* \"#utility.yul\":1314:1341   */\n      slt\n        /* \"#utility.yul\":1304:1426   */\n      tag_277\n      jumpi\n        /* \"#utility.yul\":1345:1424   */\n      tag_278\n      tag_216\n      jump\t// in\n    tag_278:\n        /* \"#utility.yul\":1304:1426   */\n    tag_277:\n        /* \"#utility.yul\":1458:1464   */\n      dup3\n        /* \"#utility.yul\":1445:1465   */\n      calldataload\n        /* \"#utility.yul\":1435:1465   */\n      swap1\n      pop\n        /* \"#utility.yul\":1488:1506   */\n      0xffffffffffffffff\n        /* \"#utility.yul\":1480:1486   */\n      dup2\n        /* \"#utility.yul\":1477:1507   */\n      gt\n        /* \"#utility.yul\":1474:1591   */\n      iszero\n      tag_279\n      jumpi\n        /* \"#utility.yul\":1510:1589   */\n      tag_280\n      tag_217\n      jump\t// in\n    tag_280:\n        /* \"#utility.yul\":1474:1591   */\n    tag_279:\n        /* \"#utility.yul\":1624:1628   */\n      0x20\n        /* \"#utility.yul\":1616:1622   */\n      dup4\n        /* \"#utility.yul\":1612:1629   */\n      add\n        /* \"#utility.yul\":1600:1629   */\n      swap2\n      pop\n        /* \"#utility.yul\":1678:1681   */\n      dup4\n        /* \"#utility.yul\":1670:1674   */\n      0x20\n        /* \"#utility.yul\":1662:1668   */\n      dup3\n        /* \"#utility.yul\":1658:1675   */\n      mul\n        /* \"#utility.yul\":1648:1656   */\n      dup4\n        /* \"#utility.yul\":1644:1676   */\n      add\n        /* \"#utility.yul\":1641:1682   */\n      gt\n        /* \"#utility.yul\":1638:1766   */\n      iszero\n      tag_281\n      jumpi\n        /* \"#utility.yul\":1685:1764   */\n      tag_282\n      tag_218\n      jump\t// in\n    tag_282:\n        /* \"#utility.yul\":1638:1766   */\n    tag_281:\n        /* \"#utility.yul\":1176:1772   */\n      swap3\n      pop\n      swap3\n      swap1\n      pop\n      jump\t// out\n        /* \"#utility.yul\":1778:2393   */\n    tag_28:\n        /* \"#utility.yul\":1892:1898   */\n      0x00\n        /* \"#utility.yul\":1900:1906   */\n      dup1\n        /* \"#utility.yul\":1949:1951   */\n      0x20\n        /* \"#utility.yul\":1937:1946   */\n      dup4\n        /* \"#utility.yul\":1928:1935   */\n      dup6\n        /* \"#utility.yul\":1924:1947   */\n      sub\n        /* \"#utility.yul\":1920:1952   */\n      slt\n        /* \"#utility.yul\":1917:2036   */\n      iszero\n      tag_284\n      jumpi\n        /* \"#utility.yul\":1955:2034   */\n      tag_285\n      tag_214\n      jump\t// in\n    tag_285:\n        /* \"#utility.yul\":1917:2036   */\n    tag_284:\n        /* \"#utility.yul\":2103:2104   */\n      0x00\n        /* \"#utility.yul\":2092:2101   */\n      dup4\n        /* \"#utility.yul\":2088:2105   */\n      add\n        /* \"#utility.yul\":2075:2106   */\n      calldataload\n        /* \"#utility.yul\":2133:2151   */\n      0xffffffffffffffff\n        /* \"#utility.yul\":2125:2131   */\n      dup2\n        /* \"#utility.yul\":2122:2152   */\n      gt\n        /* \"#utility.yul\":2119:2236   */\n      iszero\n      tag_286\n      jumpi\n        /* \"#utility.yul\":2155:2234   */\n      tag_287\n      tag_215\n      jump\t// in\n    tag_287:\n        /* \"#utility.yul\":2119:2236   */\n    tag_286:\n        /* \"#utility.yul\":2268:2376   */\n      tag_288\n        /* \"#utility.yul\":2368:2375   */\n      dup6\n        /* \"#utility.yul\":2359:2365   */\n      dup3\n        /* \"#utility.yul\":2348:2357   */\n      dup7\n        /* \"#utility.yul\":2344:2366   */\n      add\n        /* \"#utility.yul\":2268:2376   */\n      tag_219\n      jump\t// in\n    tag_288:\n        /* \"#utility.yul\":2250:2376   */\n      swap3\n      pop\n      swap3\n      pop\n        /* \"#utility.yul\":2046:2386   */\n      pop\n        /* \"#utility.yul\":1778:2393   */\n      swap3\n      pop\n      swap3\n      swap1\n      pop\n      jump\t// out\n        /* \"#utility.yul\":2399:2535   */\n    tag_220:\n        /* \"#utility.yul\":2488:2494   */\n      0x00\n        /* \"#utility.yul\":2522:2527   */\n      dup2\n        /* \"#utility.yul\":2516:2528   */\n      mload\n        /* \"#utility.yul\":2506:2528   */\n      swap1\n      pop\n        /* \"#utility.yul\":2399:2535   */\n      swap2\n      swap1\n      pop\n      jump\t// out\n        /* \"#utility.yul\":2541:2747   */\n    tag_221:\n        /* \"#utility.yul\":2662:2673   */\n      0x00\n        /* \"#utility.yul\":2696:2702   */\n      dup3\n        /* \"#utility.yul\":2691:2694   */\n      dup3\n        /* \"#utility.yul\":2684:2703   */\n      mstore\n        /* \"#utility.yul\":2736:2740   */\n      0x20\n        /* \"#utility.yul\":2731:2734   */\n      dup3\n        /* \"#utility.yul\":2727:2741   */\n      add\n        /* \"#utility.yul\":2712:2741   */\n      swap1\n      pop\n        /* \"#utility.yul\":2541:2747   */\n      swap3\n      swap2\n      pop\n      pop\n      jump\t// out\n        /* \"#utility.yul\":2753:2907   */\n    tag_222:\n        /* \"#utility.yul\":2842:2846   */\n      0x00\n        /* \"#utility.yul\":2865:2868   */\n      dup2\n        /* \"#utility.yul\":2857:2868   */\n      swap1\n      pop\n        /* \"#utility.yul\":2895:2899   */\n      0x20\n        /* \"#utility.yul\":2890:2893   */\n      dup3\n        /* \"#utility.yul\":2886:2900   */\n      add\n        /* \"#utility.yul\":2878:2900   */\n      swap1\n      pop\n        /* \"#utility.yul\":2753:2907   */\n      swap2\n      swap1\n      pop\n      jump\t// out\n        /* \"#utility.yul\":2913:3003   */\n    tag_223:\n        /* \"#utility.yul\":2947:2954   */\n      0x00\n        /* \"#utility.yul\":2990:2995   */\n      dup2\n        /* \"#utility.yul\":2983:2996   */\n      iszero\n        /* \"#utility.yul\":2976:2997   */\n      iszero\n        /* \"#utility.yul\":2965:2997   */\n      swap1\n      pop\n        /* \"#utility.yul\":2913:3003   */\n      swap2\n      swap1\n      pop\n      jump\t// out\n        /* \"#utility.yul\":3009:3108   */\n    tag_224:\n        /* \"#utility.yul\":3080:3101   */\n      tag_294\n        /* \"#utility.yul\":3095:3100   */\n      dup2\n        /* \"#utility.yul\":3080:3101   */\n      tag_223\n      jump\t// in\n    tag_294:\n        /* \"#utility.yul\":3075:3078   */\n      dup3\n        /* \"#utility.yul\":3068:3102   */\n      mstore\n        /* \"#utility.yul\":3009:3108   */\n      pop\n      pop\n      jump\t// out\n        /* \"#utility.yul\":3114:3212   */\n    tag_225:\n        /* \"#utility.yul\":3165:3171   */\n      0x00\n        /* \"#utility.yul\":3199:3204   */\n      dup2\n        /* \"#utility.yul\":3193:3205   */\n      mload\n        /* \"#utility.yul\":3183:3205   */\n      swap1\n      pop\n        /* \"#utility.yul\":3114:3212   */\n      swap2\n      swap1\n      pop\n      jump\t// out\n        /* \"#utility.yul\":3218:3376   */\n    tag_226:\n        /* \"#utility.yul\":3291:3302   */\n      0x00\n        /* \"#utility.yul\":3325:3331   */\n      dup3\n        /* \"#utility.yul\":3320:3323   */\n      dup3\n        /* \"#utility.yul\":3313:3332   */\n      mstore\n        /* \"#utility.yul\":3365:3369   */\n      0x20\n        /* \"#utility.yul\":3360:3363   */\n      dup3\n        /* \"#utility.yul\":3356:3370   */\n      add\n        /* \"#utility.yul\":3341:3370   */\n      swap1\n      pop\n        /* \"#utility.yul\":3218:3376   */\n      swap3\n      swap2\n      pop\n      pop\n      jump\t// out\n        /* \"#utility.yul\":3382:3689   */\n    tag_227:\n        /* \"#utility.yul\":3450:3451   */\n      0x00\n        /* \"#utility.yul\":3460:3573   */\n    tag_298:\n        /* \"#utility.yul\":3474:3480   */\n      dup4\n        /* \"#utility.yul\":3471:3472   */\n      dup2\n        /* \"#utility.yul\":3468:3481   */\n      lt\n        /* \"#utility.yul\":3460:3573   */\n      iszero\n      tag_300\n      jumpi\n        /* \"#utility.yul\":3559:3560   */\n      dup1\n        /* \"#utility.yul\":3554:3557   */\n      dup3\n        /* \"#utility.yul\":3550:3561   */\n      add\n        /* \"#utility.yul\":3544:3562   */\n      mload\n        /* \"#utility.yul\":3540:3541   */\n      dup2\n        /* \"#utility.yul\":3535:3538   */\n      dup5\n        /* \"#utility.yul\":3531:3542   */\n      add\n        /* \"#utility.yul\":3524:3563   */\n      mstore\n        /* \"#utility.yul\":3496:3498   */\n      0x20\n        /* \"#utility.yul\":3493:3494   */\n      dup2\n        /* \"#utility.yul\":3489:3499   */\n      add\n        /* \"#utility.yul\":3484:3499   */\n      swap1\n      pop\n        /* \"#utility.yul\":3460:3573   */\n      jump(tag_298)\n    tag_300:\n        /* \"#utility.yul\":3591:3597   */\n      dup4\n        /* \"#utility.yul\":3588:3589   */\n      dup2\n        /* \"#utility.yul\":3585:3598   */\n      gt\n        /* \"#utility.yul\":3582:3683   */\n      iszero\n      tag_301\n      jumpi\n        /* \"#utility.yul\":3671:3672   */\n      0x00\n        /* \"#utility.yul\":3662:3668   */\n      dup5\n        /* \"#utility.yul\":3657:3660   */\n      dup5\n        /* \"#utility.yul\":3653:3669   */\n      add\n        /* \"#utility.yul\":3646:3673   */\n      mstore\n        /* \"#utility.yul\":3582:3683   */\n    tag_301:\n        /* \"#utility.yul\":3431:3689   */\n      pop\n        /* \"#utility.yul\":3382:3689   */\n      pop\n      pop\n      pop\n      jump\t// out\n        /* \"#utility.yul\":3695:3797   */\n    tag_228:\n        /* \"#utility.yul\":3736:3742   */\n      0x00\n        /* \"#utility.yul\":3787:3789   */\n      0x1f\n        /* \"#utility.yul\":3783:3790   */\n      not\n        /* \"#utility.yul\":3778:3780   */\n      0x1f\n        /* \"#utility.yul\":3771:3776   */\n      dup4\n        /* \"#utility.yul\":3767:3781   */\n      add\n        /* \"#utility.yul\":3763:3791   */\n      and\n        /* \"#utility.yul\":3753:3791   */\n      swap1\n      pop\n        /* \"#utility.yul\":3695:3797   */\n      swap2\n      swap1\n      pop\n      jump\t// out\n        /* \"#utility.yul\":3803:4143   */\n    tag_229:\n        /* \"#utility.yul\":3879:3882   */\n      0x00\n        /* \"#utility.yul\":3907:3945   */\n      tag_304\n        /* \"#utility.yul\":3939:3944   */\n      dup3\n        /* \"#utility.yul\":3907:3945   */\n      tag_225\n      jump\t// in\n    tag_304:\n        /* \"#utility.yul\":3961:4021   */\n      tag_305\n        /* \"#utility.yul\":4014:4020   */\n      dup2\n        /* \"#utility.yul\":4009:4012   */\n      dup6\n        /* \"#utility.yul\":3961:4021   */\n      tag_226\n      jump\t// in\n    tag_305:\n        /* \"#utility.yul\":3954:4021   */\n      swap4\n      pop\n        /* \"#utility.yul\":4030:4082   */\n      tag_306\n        /* \"#utility.yul\":4075:4081   */\n      dup2\n        /* \"#utility.yul\":4070:4073   */\n      dup6\n        /* \"#utility.yul\":4063:4067   */\n      0x20\n        /* \"#utility.yul\":4056:4061   */\n      dup7\n        /* \"#utility.yul\":4052:4068   */\n      add\n        /* \"#utility.yul\":4030:4082   */\n      tag_227\n      jump\t// in\n    tag_306:\n        /* \"#utility.yul\":4107:4136   */\n      tag_307\n        /* \"#utility.yul\":4129:4135   */\n      dup2\n        /* \"#utility.yul\":4107:4136   */\n      tag_228\n      jump\t// in\n    tag_307:\n        /* \"#utility.yul\":4102:4105   */\n      dup5\n        /* \"#utility.yul\":4098:4137   */\n      add\n        /* \"#utility.yul\":4091:4137   */\n      swap2\n      pop\n        /* \"#utility.yul\":3883:4143   */\n      pop\n        /* \"#utility.yul\":3803:4143   */\n      swap3\n      swap2\n      pop\n      pop\n      jump\t// out\n        /* \"#utility.yul\":4209:4800   */\n    tag_230:\n        /* \"#utility.yul\":4312:4315   */\n      0x00\n        /* \"#utility.yul\":4348:4352   */\n      0x40\n        /* \"#utility.yul\":4343:4346   */\n      dup4\n        /* \"#utility.yul\":4339:4353   */\n      add\n        /* \"#utility.yul\":4438:4442   */\n      0x00\n        /* \"#utility.yul\":4431:4436   */\n      dup4\n        /* \"#utility.yul\":4427:4443   */\n      add\n        /* \"#utility.yul\":4421:4444   */\n      mload\n        /* \"#utility.yul\":4457:4514   */\n      tag_309\n        /* \"#utility.yul\":4508:4512   */\n      0x00\n        /* \"#utility.yul\":4503:4506   */\n      dup7\n        /* \"#utility.yul\":4499:4513   */\n      add\n        /* \"#utility.yul\":4485:4497   */\n      dup3\n        /* \"#utility.yul\":4457:4514   */\n      tag_224\n      jump\t// in\n    tag_309:\n        /* \"#utility.yul\":4363:4524   */\n      pop\n        /* \"#utility.yul\":4612:4616   */\n      0x20\n        /* \"#utility.yul\":4605:4610   */\n      dup4\n        /* \"#utility.yul\":4601:4617   */\n      add\n        /* \"#utility.yul\":4595:4618   */\n      mload\n        /* \"#utility.yul\":4665:4668   */\n      dup5\n        /* \"#utility.yul\":4659:4663   */\n      dup3\n        /* \"#utility.yul\":4655:4669   */\n      sub\n        /* \"#utility.yul\":4648:4652   */\n      0x20\n        /* \"#utility.yul\":4643:4646   */\n      dup7\n        /* \"#utility.yul\":4639:4653   */\n      add\n        /* \"#utility.yul\":4632:4670   */\n      mstore\n        /* \"#utility.yul\":4691:4762   */\n      tag_310\n        /* \"#utility.yul\":4757:4761   */\n      dup3\n        /* \"#utility.yul\":4743:4755   */\n      dup3\n        /* \"#utility.yul\":4691:4762   */\n      tag_229\n      jump\t// in\n    tag_310:\n        /* \"#utility.yul\":4683:4762   */\n      swap2\n      pop\n        /* \"#utility.yul\":4534:4773   */\n      pop\n        /* \"#utility.yul\":4790:4794   */\n      dup1\n        /* \"#utility.yul\":4783:4794   */\n      swap2\n      pop\n        /* \"#utility.yul\":4317:4800   */\n      pop\n        /* \"#utility.yul\":4209:4800   */\n      swap3\n      swap2\n      pop\n      pop\n      jump\t// out\n        /* \"#utility.yul\":4806:5050   */\n    tag_231:\n        /* \"#utility.yul\":4919:4929   */\n      0x00\n        /* \"#utility.yul\":4954:5044   */\n      tag_312\n        /* \"#utility.yul\":5040:5043   */\n      dup4\n        /* \"#utility.yul\":5032:5038   */\n      dup4\n        /* \"#utility.yul\":4954:5044   */\n      tag_230\n      jump\t// in\n    tag_312:\n        /* \"#utility.yul\":4940:5044   */\n      swap1\n      pop\n        /* \"#utility.yul\":4806:5050   */\n      swap3\n      swap2\n      pop\n      pop\n      jump\t// out\n        /* \"#utility.yul\":5056:5191   */\n    tag_232:\n        /* \"#utility.yul\":5148:5152   */\n      0x00\n        /* \"#utility.yul\":5180:5184   */\n      0x20\n        /* \"#utility.yul\":5175:5178   */\n      dup3\n        /* \"#utility.yul\":5171:5185   */\n      add\n        /* \"#utility.yul\":5163:5185   */\n      swap1\n      pop\n        /* \"#utility.yul\":5056:5191   */\n      swap2\n      swap1\n      pop\n      jump\t// out\n        /* \"#utility.yul\":5261:6348   */\n    tag_233:\n        /* \"#utility.yul\":5424:5427   */\n      0x00\n        /* \"#utility.yul\":5453:5529   */\n      tag_315\n        /* \"#utility.yul\":5523:5528   */\n      dup3\n        /* \"#utility.yul\":5453:5529   */\n      tag_220\n      jump\t// in\n    tag_315:\n        /* \"#utility.yul\":5545:5653   */\n      tag_316\n        /* \"#utility.yul\":5646:5652   */\n      dup2\n        /* \"#utility.yul\":5641:5644   */\n      dup6\n        /* \"#utility.yul\":5545:5653   */\n      tag_221\n      jump\t// in\n    tag_316:\n        /* \"#utility.yul\":5538:5653   */\n      swap4\n      pop\n        /* \"#utility.yul\":5679:5682   */\n      dup4\n        /* \"#utility.yul\":5724:5728   */\n      0x20\n        /* \"#utility.yul\":5716:5722   */\n      dup3\n        /* \"#utility.yul\":5712:5729   */\n      mul\n        /* \"#utility.yul\":5707:5710   */\n      dup6\n        /* \"#utility.yul\":5703:5730   */\n      add\n        /* \"#utility.yul\":5754:5832   */\n      tag_317\n        /* \"#utility.yul\":5826:5831   */\n      dup6\n        /* \"#utility.yul\":5754:5832   */\n      tag_222\n      jump\t// in\n    tag_317:\n        /* \"#utility.yul\":5855:5862   */\n      dup1\n        /* \"#utility.yul\":5886:5887   */\n      0x00\n        /* \"#utility.yul\":5871:6303   */\n    tag_318:\n        /* \"#utility.yul\":5896:5902   */\n      dup6\n        /* \"#utility.yul\":5893:5894   */\n      dup2\n        /* \"#utility.yul\":5890:5903   */\n      lt\n        /* \"#utility.yul\":5871:6303   */\n      iszero\n      tag_320\n      jumpi\n        /* \"#utility.yul\":5967:5976   */\n      dup5\n        /* \"#utility.yul\":5961:5965   */\n      dup5\n        /* \"#utility.yul\":5957:5977   */\n      sub\n        /* \"#utility.yul\":5952:5955   */\n      dup10\n        /* \"#utility.yul\":5945:5978   */\n      mstore\n        /* \"#utility.yul\":6018:6024   */\n      dup2\n        /* \"#utility.yul\":6012:6025   */\n      mload\n        /* \"#utility.yul\":6046:6154   */\n      tag_321\n        /* \"#utility.yul\":6149:6153   */\n      dup6\n        /* \"#utility.yul\":6134:6147   */\n      dup3\n        /* \"#utility.yul\":6046:6154   */\n      tag_231\n      jump\t// in\n    tag_321:\n        /* \"#utility.yul\":6038:6154   */\n      swap5\n      pop\n        /* \"#utility.yul\":6177:6259   */\n      tag_322\n        /* \"#utility.yul\":6252:6258   */\n      dup4\n        /* \"#utility.yul\":6177:6259   */\n      tag_232\n      jump\t// in\n    tag_322:\n        /* \"#utility.yul\":6167:6259   */\n      swap3\n      pop\n        /* \"#utility.yul\":6288:6292   */\n      0x20\n        /* \"#utility.yul\":6283:6286   */\n      dup11\n        /* \"#utility.yul\":6279:6293   */\n      add\n        /* \"#utility.yul\":6272:6293   */\n      swap10\n      pop\n        /* \"#utility.yul\":5931:6303   */\n      pop\n        /* \"#utility.yul\":5918:5919   */\n      0x01\n        /* \"#utility.yul\":5915:5916   */\n      dup2\n        /* \"#utility.yul\":5911:5920   */\n      add\n        /* \"#utility.yul\":5906:5920   */\n      swap1\n      pop\n        /* \"#utility.yul\":5871:6303   */\n      jump(tag_318)\n    tag_320:\n        /* \"#utility.yul\":5875:5889   */\n      pop\n        /* \"#utility.yul\":6319:6323   */\n      dup3\n        /* \"#utility.yul\":6312:6323   */\n      swap8\n      pop\n        /* \"#utility.yul\":6339:6342   */\n      dup8\n        /* \"#utility.yul\":6332:6342   */\n      swap6\n      pop\n        /* \"#utility.yul\":5429:6348   */\n      pop\n      pop\n      pop\n      pop\n      pop\n        /* \"#utility.yul\":5261:6348   */\n      swap3\n      swap2\n      pop\n      pop\n      jump\t// out\n        /* \"#utility.yul\":6354:6815   */\n    tag_31:\n        /* \"#utility.yul\":6541:6545   */\n      0x00\n        /* \"#utility.yul\":6579:6581   */\n      0x20\n        /* \"#utility.yul\":6568:6577   */\n      dup3\n        /* \"#utility.yul\":6564:6582   */\n      add\n        /* \"#utility.yul\":6556:6582   */\n      swap1\n      pop\n        /* \"#utility.yul\":6628:6637   */\n      dup2\n        /* \"#utility.yul\":6622:6626   */\n      dup2\n        /* \"#utility.yul\":6618:6638   */\n      sub\n        /* \"#utility.yul\":6614:6615   */\n      0x00\n        /* \"#utility.yul\":6603:6612   */\n      dup4\n        /* \"#utility.yul\":6599:6616   */\n      add\n        /* \"#utility.yul\":6592:6639   */\n      mstore\n        /* \"#utility.yul\":6656:6808   */\n      tag_324\n        /* \"#utility.yul\":6803:6807   */\n      dup2\n        /* \"#utility.yul\":6794:6800   */\n      dup5\n        /* \"#utility.yul\":6656:6808   */\n      tag_233\n      jump\t// in\n    tag_324:\n        /* \"#utility.yul\":6648:6808   */\n      swap1\n      pop\n        /* \"#utility.yul\":6354:6815   */\n      swap3\n      swap2\n      pop\n      pop\n      jump\t// out\n        /* \"#utility.yul\":6853:7442   */\n    tag_234:\n        /* \"#utility.yul\":6947:6955   */\n      0x00\n        /* \"#utility.yul\":6957:6963   */\n      dup1\n        /* \"#utility.yul\":7007:7010   */\n      dup4\n        /* \"#utility.yul\":7000:7004   */\n      0x1f\n        /* \"#utility.yul\":6992:6998   */\n      dup5\n        /* \"#utility.yul\":6988:7005   */\n      add\n        /* \"#utility.yul\":6984:7011   */\n      slt\n        /* \"#utility.yul\":6974:7096   */\n      tag_326\n      jumpi\n        /* \"#utility.yul\":7015:7094   */\n      tag_327\n      tag_216\n      jump\t// in\n    tag_327:\n        /* \"#utility.yul\":6974:7096   */\n    tag_326:\n        /* \"#utility.yul\":7128:7134   */\n      dup3\n        /* \"#utility.yul\":7115:7135   */\n      calldataload\n        /* \"#utility.yul\":7105:7135   */\n      swap1\n      pop\n        /* \"#utility.yul\":7158:7176   */\n      0xffffffffffffffff\n        /* \"#utility.yul\":7150:7156   */\n      dup2\n        /* \"#utility.yul\":7147:7177   */\n      gt\n        /* \"#utility.yul\":7144:7261   */\n      iszero\n      tag_328\n      jumpi\n        /* \"#utility.yul\":7180:7259   */\n      tag_329\n      tag_217\n      jump\t// in\n    tag_329:\n        /* \"#utility.yul\":7144:7261   */\n    tag_328:\n        /* \"#utility.yul\":7294:7298   */\n      0x20\n        /* \"#utility.yul\":7286:7292   */\n      dup4\n        /* \"#utility.yul\":7282:7299   */\n      add\n        /* \"#utility.yul\":7270:7299   */\n      swap2\n      pop\n        /* \"#utility.yul\":7348:7351   */\n      dup4\n        /* \"#utility.yul\":7340:7344   */\n      0x20\n        /* \"#utility.yul\":7332:7338   */\n      dup3\n        /* \"#utility.yul\":7328:7345   */\n      mul\n        /* \"#utility.yul\":7318:7326   */\n      dup4\n        /* \"#utility.yul\":7314:7346   */\n      add\n        /* \"#utility.yul\":7311:7352   */\n      gt\n        /* \"#utility.yul\":7308:7436   */\n      iszero\n      tag_330\n      jumpi\n        /* \"#utility.yul\":7355:7434   */\n      tag_331\n      tag_218\n      jump\t// in\n    tag_331:\n        /* \"#utility.yul\":7308:7436   */\n    tag_330:\n        /* \"#utility.yul\":6853:7442   */\n      swap3\n      pop\n      swap3\n      swap1\n      pop\n      jump\t// out\n        /* \"#utility.yul\":7448:8049   */\n    tag_34:\n        /* \"#utility.yul\":7555:7561   */\n      0x00\n        /* \"#utility.yul\":7563:7569   */\n      dup1\n        /* \"#utility.yul\":7612:7614   */\n      0x20\n        /* \"#utility.yul\":7600:7609   */\n      dup4\n        /* \"#utility.yul\":7591:7598   */\n      dup6\n        /* \"#utility.yul\":7587:7610   */\n      sub\n        /* \"#utility.yul\":7583:7615   */\n      slt\n        /* \"#utility.yul\":7580:7699   */\n      iszero\n      tag_333\n      jumpi\n        /* \"#utility.yul\":7618:7697   */\n      tag_334\n      tag_214\n      jump\t// in\n    tag_334:\n        /* \"#utility.yul\":7580:7699   */\n    tag_333:\n        /* \"#utility.yul\":7766:7767   */\n      0x00\n        /* \"#utility.yul\":7755:7764   */\n      dup4\n        /* \"#utility.yul\":7751:7768   */\n      add\n        /* \"#utility.yul\":7738:7769   */\n      calldataload\n        /* \"#utility.yul\":7796:7814   */\n      0xffffffffffffffff\n        /* \"#utility.yul\":7788:7794   */\n      dup2\n        /* \"#utility.yul\":7785:7815   */\n      gt\n        /* \"#utility.yul\":7782:7899   */\n      iszero\n      tag_335\n      jumpi\n        /* \"#utility.yul\":7818:7897   */\n      tag_336\n      tag_215\n      jump\t// in\n    tag_336:\n        /* \"#utility.yul\":7782:7899   */\n    tag_335:\n        /* \"#utility.yul\":7931:8032   */\n      tag_337\n        /* \"#utility.yul\":8024:8031   */\n      dup6\n        /* \"#utility.yul\":8015:8021   */\n      dup3\n        /* \"#utility.yul\":8004:8013   */\n      dup7\n        /* \"#utility.yul\":8000:8022   */\n      add\n        /* \"#utility.yul\":7931:8032   */\n      tag_234\n      jump\t// in\n    tag_337:\n        /* \"#utility.yul\":7913:8032   */\n      swap3\n      pop\n      swap3\n      pop\n        /* \"#utility.yul\":7709:8042   */\n      pop\n        /* \"#utility.yul\":7448:8049   */\n      swap3\n      pop\n      swap3\n      swap1\n      pop\n      jump\t// out\n        /* \"#utility.yul\":8055:8178   */\n    tag_235:\n        /* \"#utility.yul\":8131:8137   */\n      0x00\n        /* \"#utility.yul\":8165:8170   */\n      dup2\n        /* \"#utility.yul\":8159:8171   */\n      mload\n        /* \"#utility.yul\":8149:8171   */\n      swap1\n      pop\n        /* \"#utility.yul\":8055:8178   */\n      swap2\n      swap1\n      pop\n      jump\t// out\n        /* \"#utility.yul\":8184:8377   */\n    tag_236:\n        /* \"#utility.yul\":8292:8303   */\n      0x00\n        /* \"#utility.yul\":8326:8332   */\n      dup3\n        /* \"#utility.yul\":8321:8324   */\n      dup3\n        /* \"#utility.yul\":8314:8333   */\n      mstore\n        /* \"#utility.yul\":8366:8370   */\n      0x20\n        /* \"#utility.yul\":8361:8364   */\n      dup3\n        /* \"#utility.yul\":8357:8371   */\n      add\n        /* \"#utility.yul\":8342:8371   */\n      swap1\n      pop\n        /* \"#utility.yul\":8184:8377   */\n      swap3\n      swap2\n      pop\n      pop\n      jump\t// out\n        /* \"#utility.yul\":8383:8524   */\n    tag_237:\n        /* \"#utility.yul\":8459:8463   */\n      0x00\n        /* \"#utility.yul\":8482:8485   */\n      dup2\n        /* \"#utility.yul\":8474:8485   */\n      swap1\n      pop\n        /* \"#utility.yul\":8512:8516   */\n      0x20\n        /* \"#utility.yul\":8507:8510   */\n      dup3\n        /* \"#utility.yul\":8503:8517   */\n      add\n        /* \"#utility.yul\":8495:8517   */\n      swap1\n      pop\n        /* \"#utility.yul\":8383:8524   */\n      swap2\n      swap1\n      pop\n      jump\t// out\n        /* \"#utility.yul\":8530:8722   */\n    tag_238:\n        /* \"#utility.yul\":8617:8627   */\n      0x00\n        /* \"#utility.yul\":8652:8716   */\n      tag_342\n        /* \"#utility.yul\":8712:8715   */\n      dup4\n        /* \"#utility.yul\":8704:8710   */\n      dup4\n        /* \"#utility.yul\":8652:8716   */\n      tag_229\n      jump\t// in\n    tag_342:\n        /* \"#utility.yul\":8638:8716   */\n      swap1\n      pop\n        /* \"#utility.yul\":8530:8722   */\n      swap3\n      swap2\n      pop\n      pop\n      jump\t// out\n        /* \"#utility.yul\":8728:8850   */\n    tag_239:\n        /* \"#utility.yul\":8807:8811   */\n      0x00\n        /* \"#utility.yul\":8839:8843   */\n      0x20\n        /* \"#utility.yul\":8834:8837   */\n      dup3\n        /* \"#utility.yul\":8830:8844   */\n      add\n        /* \"#utility.yul\":8822:8844   */\n      swap1\n      pop\n        /* \"#utility.yul\":8728:8850   */\n      swap2\n      swap1\n      pop\n      jump\t// out\n        /* \"#utility.yul\":8882:9865   */\n    tag_240:\n        /* \"#utility.yul\":9019:9022   */\n      0x00\n        /* \"#utility.yul\":9048:9111   */\n      tag_345\n        /* \"#utility.yul\":9105:9110   */\n      dup3\n        /* \"#utility.yul\":9048:9111   */\n      tag_235\n      jump\t// in\n    tag_345:\n        /* \"#utility.yul\":9127:9222   */\n      tag_346\n        /* \"#utility.yul\":9215:9221   */\n      dup2\n        /* \"#utility.yul\":9210:9213   */\n      dup6\n        /* \"#utility.yul\":9127:9222   */\n      tag_236\n      jump\t// in\n    tag_346:\n        /* \"#utility.yul\":9120:9222   */\n      swap4\n      pop\n        /* \"#utility.yul\":9248:9251   */\n      dup4\n        /* \"#utility.yul\":9293:9297   */\n      0x20\n        /* \"#utility.yul\":9285:9291   */\n      dup3\n        /* \"#utility.yul\":9281:9298   */\n      mul\n        /* \"#utility.yul\":9276:9279   */\n      dup6\n        /* \"#utility.yul\":9272:9299   */\n      add\n        /* \"#utility.yul\":9323:9388   */\n      tag_347\n        /* \"#utility.yul\":9382:9387   */\n      dup6\n        /* \"#utility.yul\":9323:9388   */\n      tag_237\n      jump\t// in\n    tag_347:\n        /* \"#utility.yul\":9411:9418   */\n      dup1\n        /* \"#utility.yul\":9442:9443   */\n      0x00\n        /* \"#utility.yul\":9427:9820   */\n    tag_348:\n        /* \"#utility.yul\":9452:9458   */\n      dup6\n        /* \"#utility.yul\":9449:9450   */\n      dup2\n        /* \"#utility.yul\":9446:9459   */\n      lt\n        /* \"#utility.yul\":9427:9820   */\n      iszero\n      tag_350\n      jumpi\n        /* \"#utility.yul\":9523:9532   */\n      dup5\n        /* \"#utility.yul\":9517:9521   */\n      dup5\n        /* \"#utility.yul\":9513:9533   */\n      sub\n        /* \"#utility.yul\":9508:9511   */\n      dup10\n        /* \"#utility.yul\":9501:9534   */\n      mstore\n        /* \"#utility.yul\":9574:9580   */\n      dup2\n        /* \"#utility.yul\":9568:9581   */\n      mload\n        /* \"#utility.yul\":9602:9684   */\n      tag_351\n        /* \"#utility.yul\":9679:9683   */\n      dup6\n        /* \"#utility.yul\":9664:9677   */\n      dup3\n        /* \"#utility.yul\":9602:9684   */\n      tag_238\n      jump\t// in\n    tag_351:\n        /* \"#utility.yul\":9594:9684   */\n      swap5\n      pop\n        /* \"#utility.yul\":9707:9776   */\n      tag_352\n        /* \"#utility.yul\":9769:9775   */\n      dup4\n        /* \"#utility.yul\":9707:9776   */\n      tag_239\n      jump\t// in\n    tag_352:\n        /* \"#utility.yul\":9697:9776   */\n      swap3\n      pop\n        /* \"#utility.yul\":9805:9809   */\n      0x20\n        /* \"#utility.yul\":9800:9803   */\n      dup11\n        /* \"#utility.yul\":9796:9810   */\n      add\n        /* \"#utility.yul\":9789:9810   */\n      swap10\n      pop\n        /* \"#utility.yul\":9487:9820   */\n      pop\n        /* \"#utility.yul\":9474:9475   */\n      0x01\n        /* \"#utility.yul\":9471:9472   */\n      dup2\n        /* \"#utility.yul\":9467:9476   */\n      add\n        /* \"#utility.yul\":9462:9476   */\n      swap1\n      pop\n        /* \"#utility.yul\":9427:9820   */\n      jump(tag_348)\n    tag_350:\n        /* \"#utility.yul\":9431:9445   */\n      pop\n        /* \"#utility.yul\":9836:9840   */\n      dup3\n        /* \"#utility.yul\":9829:9840   */\n      swap8\n      pop\n        /* \"#utility.yul\":9856:9859   */\n      dup8\n        /* \"#utility.yul\":9849:9859   */\n      swap6\n      pop\n        /* \"#utility.yul\":9024:9865   */\n      pop\n      pop\n      pop\n      pop\n      pop\n        /* \"#utility.yul\":8882:9865   */\n      swap3\n      swap2\n      pop\n      pop\n      jump\t// out\n        /* \"#utility.yul\":9871:10390   */\n    tag_37:\n        /* \"#utility.yul\":10060:10064   */\n      0x00\n        /* \"#utility.yul\":10098:10100   */\n      0x40\n        /* \"#utility.yul\":10087:10096   */\n      dup3\n        /* \"#utility.yul\":10083:10101   */\n      add\n        /* \"#utility.yul\":10075:10101   */\n      swap1\n      pop\n        /* \"#utility.yul\":10111:10182   */\n      tag_354\n        /* \"#utility.yul\":10179:10180   */\n      0x00\n        /* \"#utility.yul\":10168:10177   */\n      dup4\n        /* \"#utility.yul\":10164:10181   */\n      add\n        /* \"#utility.yul\":10155:10161   */\n      dup6\n        /* \"#utility.yul\":10111:10182   */\n      tag_212\n      jump\t// in\n    tag_354:\n        /* \"#utility.yul\":10229:10238   */\n      dup2\n        /* \"#utility.yul\":10223:10227   */\n      dup2\n        /* \"#utility.yul\":10219:10239   */\n      sub\n        /* \"#utility.yul\":10214:10216   */\n      0x20\n        /* \"#utility.yul\":10203:10212   */\n      dup4\n        /* \"#utility.yul\":10199:10217   */\n      add\n        /* \"#utility.yul\":10192:10240   */\n      mstore\n        /* \"#utility.yul\":10257:10383   */\n      tag_355\n        /* \"#utility.yul\":10378:10382   */\n      dup2\n        /* \"#utility.yul\":10369:10375   */\n      dup5\n        /* \"#utility.yul\":10257:10383   */\n      tag_240\n      jump\t// in\n    tag_355:\n        /* \"#utility.yul\":10249:10383   */\n      swap1\n      pop\n        /* \"#utility.yul\":9871:10390   */\n      swap4\n      swap3\n      pop\n      pop\n      pop\n      jump\t// out\n        /* \"#utility.yul\":10396:10473   */\n    tag_241:\n        /* \"#utility.yul\":10433:10440   */\n      0x00\n        /* \"#utility.yul\":10462:10467   */\n      dup2\n        /* \"#utility.yul\":10451:10467   */\n      swap1\n      pop\n        /* \"#utility.yul\":10396:10473   */\n      swap2\n      swap1\n      pop\n      jump\t// out\n        /* \"#utility.yul\":10479:10597   */\n    tag_242:\n        /* \"#utility.yul\":10566:10590   */\n      tag_358\n        /* \"#utility.yul\":10584:10589   */\n      dup2\n        /* \"#utility.yul\":10566:10590   */\n      tag_241\n      jump\t// in\n    tag_358:\n        /* \"#utility.yul\":10561:10564   */\n      dup3\n        /* \"#utility.yul\":10554:10591   */\n      mstore\n        /* \"#utility.yul\":10479:10597   */\n      pop\n      pop\n      jump\t// out\n        /* \"#utility.yul\":10603:10825   */\n    tag_42:\n        /* \"#utility.yul\":10696:10700   */\n      0x00\n        /* \"#utility.yul\":10734:10736   */\n      0x20\n        /* \"#utility.yul\":10723:10732   */\n      dup3\n        /* \"#utility.yul\":10719:10737   */\n      add\n        /* \"#utility.yul\":10711:10737   */\n      swap1\n      pop\n        /* \"#utility.yul\":10747:10818   */\n      tag_360\n        /* \"#utility.yul\":10815:10816   */\n      0x00\n        /* \"#utility.yul\":10804:10813   */\n      dup4\n        /* \"#utility.yul\":10800:10817   */\n      add\n        /* \"#utility.yul\":10791:10797   */\n      dup5\n        /* \"#utility.yul\":10747:10818   */\n      tag_242\n      jump\t// in\n    tag_360:\n        /* \"#utility.yul\":10603:10825   */\n      swap3\n      swap2\n      pop\n      pop\n      jump\t// out\n        /* \"#utility.yul\":10831:10947   */\n    tag_243:\n        /* \"#utility.yul\":10901:10922   */\n      tag_362\n        /* \"#utility.yul\":10916:10921   */\n      dup2\n        /* \"#utility.yul\":10901:10922   */\n      tag_223\n      jump\t// in\n    tag_362:\n        /* \"#utility.yul\":10894:10899   */\n      dup2\n        /* \"#utility.yul\":10891:10923   */\n      eq\n        /* \"#utility.yul\":10881:10941   */\n      tag_363\n      jumpi\n        /* \"#utility.yul\":10937:10938   */\n      0x00\n        /* \"#utility.yul\":10934:10935   */\n      dup1\n        /* \"#utility.yul\":10927:10939   */\n      revert\n        /* \"#utility.yul\":10881:10941   */\n    tag_363:\n        /* \"#utility.yul\":10831:10947   */\n      pop\n      jump\t// out\n        /* \"#utility.yul\":10953:11086   */\n    tag_244:\n        /* \"#utility.yul\":10996:11001   */\n      0x00\n        /* \"#utility.yul\":11034:11040   */\n      dup2\n        /* \"#utility.yul\":11021:11041   */\n      calldataload\n        /* \"#utility.yul\":11012:11041   */\n      swap1\n      pop\n        /* \"#utility.yul\":11050:11080   */\n      tag_365\n        /* \"#utility.yul\":11074:11079   */\n      dup2\n        /* \"#utility.yul\":11050:11080   */\n      tag_243\n      jump\t// in\n    tag_365:\n        /* \"#utility.yul\":10953:11086   */\n      swap3\n      swap2\n      pop\n      pop\n      jump\t// out\n        /* \"#utility.yul\":11092:11832   */\n    tag_49:\n        /* \"#utility.yul\":11205:11211   */\n      0x00\n        /* \"#utility.yul\":11213:11219   */\n      dup1\n        /* \"#utility.yul\":11221:11227   */\n      0x00\n        /* \"#utility.yul\":11270:11272   */\n      0x40\n        /* \"#utility.yul\":11258:11267   */\n      dup5\n        /* \"#utility.yul\":11249:11256   */\n      dup7\n        /* \"#utility.yul\":11245:11268   */\n      sub\n        /* \"#utility.yul\":11241:11273   */\n      slt\n        /* \"#utility.yul\":11238:11357   */\n      iszero\n      tag_367\n      jumpi\n        /* \"#utility.yul\":11276:11355   */\n      tag_368\n      tag_214\n      jump\t// in\n    tag_368:\n        /* \"#utility.yul\":11238:11357   */\n    tag_367:\n        /* \"#utility.yul\":11396:11397   */\n      0x00\n        /* \"#utility.yul\":11421:11471   */\n      tag_369\n        /* \"#utility.yul\":11463:11470   */\n      dup7\n        /* \"#utility.yul\":11454:11460   */\n      dup3\n        /* \"#utility.yul\":11443:11452   */\n      dup8\n        /* \"#utility.yul\":11439:11461   */\n      add\n        /* \"#utility.yul\":11421:11471   */\n      tag_244\n      jump\t// in\n    tag_369:\n        /* \"#utility.yul\":11411:11471   */\n      swap4\n      pop\n        /* \"#utility.yul\":11367:11481   */\n      pop\n        /* \"#utility.yul\":11548:11550   */\n      0x20\n        /* \"#utility.yul\":11537:11546   */\n      dup5\n        /* \"#utility.yul\":11533:11551   */\n      add\n        /* \"#utility.yul\":11520:11552   */\n      calldataload\n        /* \"#utility.yul\":11579:11597   */\n      0xffffffffffffffff\n        /* \"#utility.yul\":11571:11577   */\n      dup2\n        /* \"#utility.yul\":11568:11598   */\n      gt\n        /* \"#utility.yul\":11565:11682   */\n      iszero\n      tag_370\n      jumpi\n        /* \"#utility.yul\":11601:11680   */\n      tag_371\n      tag_215\n      jump\t// in\n    tag_371:\n        /* \"#utility.yul\":11565:11682   */\n    tag_370:\n        /* \"#utility.yul\":11714:11815   */\n      tag_372\n        /* \"#utility.yul\":11807:11814   */\n      dup7\n        /* \"#utility.yul\":11798:11804   */\n      dup3\n        /* \"#utility.yul\":11787:11796   */\n      dup8\n        /* \"#utility.yul\":11783:11805   */\n      add\n        /* \"#utility.yul\":11714:11815   */\n      tag_234\n      jump\t// in\n    tag_372:\n        /* \"#utility.yul\":11696:11815   */\n      swap3\n      pop\n      swap3\n      pop\n        /* \"#utility.yul\":11491:11825   */\n      pop\n        /* \"#utility.yul\":11092:11832   */\n      swap3\n      pop\n      swap3\n      pop\n      swap3\n      jump\t// out\n        /* \"#utility.yul\":11838:12519   */\n    tag_52:\n        /* \"#utility.yul\":12081:12085   */\n      0x00\n        /* \"#utility.yul\":12119:12121   */\n      0x60\n        /* \"#utility.yul\":12108:12117   */\n      dup3\n        /* \"#utility.yul\":12104:12122   */\n      add\n        /* \"#utility.yul\":12096:12122   */\n      swap1\n      pop\n        /* \"#utility.yul\":12132:12203   */\n      tag_374\n        /* \"#utility.yul\":12200:12201   */\n      0x00\n        /* \"#utility.yul\":12189:12198   */\n      dup4\n        /* \"#utility.yul\":12185:12202   */\n      add\n        /* \"#utility.yul\":12176:12182   */\n      dup7\n        /* \"#utility.yul\":12132:12203   */\n      tag_212\n      jump\t// in\n    tag_374:\n        /* \"#utility.yul\":12213:12285   */\n      tag_375\n        /* \"#utility.yul\":12281:12283   */\n      0x20\n        /* \"#utility.yul\":12270:12279   */\n      dup4\n        /* \"#utility.yul\":12266:12284   */\n      add\n        /* \"#utility.yul\":12257:12263   */\n      dup6\n        /* \"#utility.yul\":12213:12285   */\n      tag_242\n      jump\t// in\n    tag_375:\n        /* \"#utility.yul\":12332:12341   */\n      dup2\n        /* \"#utility.yul\":12326:12330   */\n      dup2\n        /* \"#utility.yul\":12322:12342   */\n      sub\n        /* \"#utility.yul\":12317:12319   */\n      0x40\n        /* \"#utility.yul\":12306:12315   */\n      dup4\n        /* \"#utility.yul\":12302:12320   */\n      add\n        /* \"#utility.yul\":12295:12343   */\n      mstore\n        /* \"#utility.yul\":12360:12512   */\n      tag_376\n        /* \"#utility.yul\":12507:12511   */\n      dup2\n        /* \"#utility.yul\":12498:12504   */\n      dup5\n        /* \"#utility.yul\":12360:12512   */\n      tag_233\n      jump\t// in\n    tag_376:\n        /* \"#utility.yul\":12352:12512   */\n      swap1\n      pop\n        /* \"#utility.yul\":11838:12519   */\n      swap5\n      swap4\n      pop\n      pop\n      pop\n      pop\n      jump\t// out\n        /* \"#utility.yul\":12525:12651   */\n    tag_245:\n        /* \"#utility.yul\":12562:12569   */\n      0x00\n        /* \"#utility.yul\":12602:12644   */\n      0xffffffffffffffffffffffffffffffffffffffff\n        /* \"#utility.yul\":12595:12600   */\n      dup3\n        /* \"#utility.yul\":12591:12645   */\n      and\n        /* \"#utility.yul\":12580:12645   */\n      swap1\n      pop\n        /* \"#utility.yul\":12525:12651   */\n      swap2\n      swap1\n      pop\n      jump\t// out\n        /* \"#utility.yul\":12657:12753   */\n    tag_246:\n        /* \"#utility.yul\":12694:12701   */\n      0x00\n        /* \"#utility.yul\":12723:12747   */\n      tag_379\n        /* \"#utility.yul\":12741:12746   */\n      dup3\n        /* \"#utility.yul\":12723:12747   */\n      tag_245\n      jump\t// in\n    tag_379:\n        /* \"#utility.yul\":12712:12747   */\n      swap1\n      pop\n        /* \"#utility.yul\":12657:12753   */\n      swap2\n      swap1\n      pop\n      jump\t// out\n        /* \"#utility.yul\":12759:12881   */\n    tag_247:\n        /* \"#utility.yul\":12832:12856   */\n      tag_381\n        /* \"#utility.yul\":12850:12855   */\n      dup2\n        /* \"#utility.yul\":12832:12856   */\n      tag_246\n      jump\t// in\n    tag_381:\n        /* \"#utility.yul\":12825:12830   */\n      dup2\n        /* \"#utility.yul\":12822:12857   */\n      eq\n        /* \"#utility.yul\":12812:12875   */\n      tag_382\n      jumpi\n        /* \"#utility.yul\":12871:12872   */\n      0x00\n        /* \"#utility.yul\":12868:12869   */\n      dup1\n        /* \"#utility.yul\":12861:12873   */\n      revert\n        /* \"#utility.yul\":12812:12875   */\n    tag_382:\n        /* \"#utility.yul\":12759:12881   */\n      pop\n      jump\t// out\n        /* \"#utility.yul\":12887:13026   */\n    tag_248:\n        /* \"#utility.yul\":12933:12938   */\n      0x00\n        /* \"#utility.yul\":12971:12977   */\n      dup2\n        /* \"#utility.yul\":12958:12978   */\n      calldataload\n        /* \"#utility.yul\":12949:12978   */\n      swap1\n      pop\n        /* \"#utility.yul\":12987:13020   */\n      tag_384\n        /* \"#utility.yul\":13014:13019   */\n      dup2\n        /* \"#utility.yul\":12987:13020   */\n      tag_247\n      jump\t// in\n    tag_384:\n        /* \"#utility.yul\":12887:13026   */\n      swap3\n      swap2\n      pop\n      pop\n      jump\t// out\n        /* \"#utility.yul\":13032:13361   */\n    tag_64:\n        /* \"#utility.yul\":13091:13097   */\n      0x00\n        /* \"#utility.yul\":13140:13142   */\n      0x20\n        /* \"#utility.yul\":13128:13137   */\n      dup3\n        /* \"#utility.yul\":13119:13126   */\n      dup5\n        /* \"#utility.yul\":13115:13138   */\n      sub\n        /* \"#utility.yul\":13111:13143   */\n      slt\n        /* \"#utility.yul\":13108:13227   */\n      iszero\n      tag_386\n      jumpi\n        /* \"#utility.yul\":13146:13225   */\n      tag_387\n      tag_214\n      jump\t// in\n    tag_387:\n        /* \"#utility.yul\":13108:13227   */\n    tag_386:\n        /* \"#utility.yul\":13266:13267   */\n      0x00\n        /* \"#utility.yul\":13291:13344   */\n      tag_388\n        /* \"#utility.yul\":13336:13343   */\n      dup5\n        /* \"#utility.yul\":13327:13333   */\n      dup3\n        /* \"#utility.yul\":13316:13325   */\n      dup6\n        /* \"#utility.yul\":13312:13334   */\n      add\n        /* \"#utility.yul\":13291:13344   */\n      tag_248\n      jump\t// in\n    tag_388:\n        /* \"#utility.yul\":13281:13344   */\n      swap2\n      pop\n        /* \"#utility.yul\":13237:13354   */\n      pop\n        /* \"#utility.yul\":13032:13361   */\n      swap3\n      swap2\n      pop\n      pop\n      jump\t// out\n        /* \"#utility.yul\":13400:13991   */\n    tag_249:\n        /* \"#utility.yul\":13496:13504   */\n      0x00\n        /* \"#utility.yul\":13506:13512   */\n      dup1\n        /* \"#utility.yul\":13556:13559   */\n      dup4\n        /* \"#utility.yul\":13549:13553   */\n      0x1f\n        /* \"#utility.yul\":13541:13547   */\n      dup5\n        /* \"#utility.yul\":13537:13554   */\n      add\n        /* \"#utility.yul\":13533:13560   */\n      slt\n        /* \"#utility.yul\":13523:13645   */\n      tag_390\n      jumpi\n        /* \"#utility.yul\":13564:13643   */\n      tag_391\n      tag_216\n      jump\t// in\n    tag_391:\n        /* \"#utility.yul\":13523:13645   */\n    tag_390:\n        /* \"#utility.yul\":13677:13683   */\n      dup3\n        /* \"#utility.yul\":13664:13684   */\n      calldataload\n        /* \"#utility.yul\":13654:13684   */\n      swap1\n      pop\n        /* \"#utility.yul\":13707:13725   */\n      0xffffffffffffffff\n        /* \"#utility.yul\":13699:13705   */\n      dup2\n        /* \"#utility.yul\":13696:13726   */\n      gt\n        /* \"#utility.yul\":13693:13810   */\n      iszero\n      tag_392\n      jumpi\n        /* \"#utility.yul\":13729:13808   */\n      tag_393\n      tag_217\n      jump\t// in\n    tag_393:\n        /* \"#utility.yul\":13693:13810   */\n    tag_392:\n        /* \"#utility.yul\":13843:13847   */\n      0x20\n        /* \"#utility.yul\":13835:13841   */\n      dup4\n        /* \"#utility.yul\":13831:13848   */\n      add\n        /* \"#utility.yul\":13819:13848   */\n      swap2\n      pop\n        /* \"#utility.yul\":13897:13900   */\n      dup4\n        /* \"#utility.yul\":13889:13893   */\n      0x20\n        /* \"#utility.yul\":13881:13887   */\n      dup3\n        /* \"#utility.yul\":13877:13894   */\n      mul\n        /* \"#utility.yul\":13867:13875   */\n      dup4\n        /* \"#utility.yul\":13863:13895   */\n      add\n        /* \"#utility.yul\":13860:13901   */\n      gt\n        /* \"#utility.yul\":13857:13985   */\n      iszero\n      tag_394\n      jumpi\n        /* \"#utility.yul\":13904:13983   */\n      tag_395\n      tag_218\n      jump\t// in\n    tag_395:\n        /* \"#utility.yul\":13857:13985   */\n    tag_394:\n        /* \"#utility.yul\":13400:13991   */\n      swap3\n      pop\n      swap3\n      swap1\n      pop\n      jump\t// out\n        /* \"#utility.yul\":13997:14602   */\n    tag_73:\n        /* \"#utility.yul\":14106:14112   */\n      0x00\n        /* \"#utility.yul\":14114:14120   */\n      dup1\n        /* \"#utility.yul\":14163:14165   */\n      0x20\n        /* \"#utility.yul\":14151:14160   */\n      dup4\n        /* \"#utility.yul\":14142:14149   */\n      dup6\n        /* \"#utility.yul\":14138:14161   */\n      sub\n        /* \"#utility.yul\":14134:14166   */\n      slt\n        /* \"#utility.yul\":14131:14250   */\n      iszero\n      tag_397\n      jumpi\n        /* \"#utility.yul\":14169:14248   */\n      tag_398\n      tag_214\n      jump\t// in\n    tag_398:\n        /* \"#utility.yul\":14131:14250   */\n    tag_397:\n        /* \"#utility.yul\":14317:14318   */\n      0x00\n        /* \"#utility.yul\":14306:14315   */\n      dup4\n        /* \"#utility.yul\":14302:14319   */\n      add\n        /* \"#utility.yul\":14289:14320   */\n      calldataload\n        /* \"#utility.yul\":14347:14365   */\n      0xffffffffffffffff\n        /* \"#utility.yul\":14339:14345   */\n      dup2\n        /* \"#utility.yul\":14336:14366   */\n      gt\n        /* \"#utility.yul\":14333:14450   */\n      iszero\n      tag_399\n      jumpi\n        /* \"#utility.yul\":14369:14448   */\n      tag_400\n      tag_215\n      jump\t// in\n    tag_400:\n        /* \"#utility.yul\":14333:14450   */\n    tag_399:\n        /* \"#utility.yul\":14482:14585   */\n      tag_401\n        /* \"#utility.yul\":14577:14584   */\n      dup6\n        /* \"#utility.yul\":14568:14574   */\n      dup3\n        /* \"#utility.yul\":14557:14566   */\n      dup7\n        /* \"#utility.yul\":14553:14575   */\n      add\n        /* \"#utility.yul\":14482:14585   */\n      tag_249\n      jump\t// in\n    tag_401:\n        /* \"#utility.yul\":14464:14585   */\n      swap3\n      pop\n      swap3\n      pop\n        /* \"#utility.yul\":14260:14595   */\n      pop\n        /* \"#utility.yul\":13997:14602   */\n      swap3\n      pop\n      swap3\n      swap1\n      pop\n      jump\t// out\n        /* \"#utility.yul\":14608:14726   */\n    tag_250:\n        /* \"#utility.yul\":14695:14719   */\n      tag_403\n        /* \"#utility.yul\":14713:14718   */\n      dup2\n        /* \"#utility.yul\":14695:14719   */\n      tag_246\n      jump\t// in\n    tag_403:\n        /* \"#utility.yul\":14690:14693   */\n      dup3\n        /* \"#utility.yul\":14683:14720   */\n      mstore\n        /* \"#utility.yul\":14608:14726   */\n      pop\n      pop\n      jump\t// out\n        /* \"#utility.yul\":14732:14954   */\n    tag_84:\n        /* \"#utility.yul\":14825:14829   */\n      0x00\n        /* \"#utility.yul\":14863:14865   */\n      0x20\n        /* \"#utility.yul\":14852:14861   */\n      dup3\n        /* \"#utility.yul\":14848:14866   */\n      add\n        /* \"#utility.yul\":14840:14866   */\n      swap1\n      pop\n        /* \"#utility.yul\":14876:14947   */\n      tag_405\n        /* \"#utility.yul\":14944:14945   */\n      0x00\n        /* \"#utility.yul\":14933:14942   */\n      dup4\n        /* \"#utility.yul\":14929:14946   */\n      add\n        /* \"#utility.yul\":14920:14926   */\n      dup5\n        /* \"#utility.yul\":14876:14947   */\n      tag_250\n      jump\t// in\n    tag_405:\n        /* \"#utility.yul\":14732:14954   */\n      swap3\n      swap2\n      pop\n      pop\n      jump\t// out\n        /* \"#utility.yul\":14960:15082   */\n    tag_251:\n        /* \"#utility.yul\":15033:15057   */\n      tag_407\n        /* \"#utility.yul\":15051:15056   */\n      dup2\n        /* \"#utility.yul\":15033:15057   */\n      tag_211\n      jump\t// in\n    tag_407:\n        /* \"#utility.yul\":15026:15031   */\n      dup2\n        /* \"#utility.yul\":15023:15058   */\n      eq\n        /* \"#utility.yul\":15013:15076   */\n      tag_408\n      jumpi\n        /* \"#utility.yul\":15072:15073   */\n      0x00\n        /* \"#utility.yul\":15069:15070   */\n      dup1\n        /* \"#utility.yul\":15062:15074   */\n      revert\n        /* \"#utility.yul\":15013:15076   */\n    tag_408:\n        /* \"#utility.yul\":14960:15082   */\n      pop\n      jump\t// out\n        /* \"#utility.yul\":15088:15227   */\n    tag_252:\n        /* \"#utility.yul\":15134:15139   */\n      0x00\n        /* \"#utility.yul\":15172:15178   */\n      dup2\n        /* \"#utility.yul\":15159:15179   */\n      calldataload\n        /* \"#utility.yul\":15150:15179   */\n      swap1\n      pop\n        /* \"#utility.yul\":15188:15221   */\n      tag_410\n        /* \"#utility.yul\":15215:15220   */\n      dup2\n        /* \"#utility.yul\":15188:15221   */\n      tag_251\n      jump\t// in\n    tag_410:\n        /* \"#utility.yul\":15088:15227   */\n      swap3\n      swap2\n      pop\n      pop\n      jump\t// out\n        /* \"#utility.yul\":15233:15562   */\n    tag_96:\n        /* \"#utility.yul\":15292:15298   */\n      0x00\n        /* \"#utility.yul\":15341:15343   */\n      0x20\n        /* \"#utility.yul\":15329:15338   */\n      dup3\n        /* \"#utility.yul\":15320:15327   */\n      dup5\n        /* \"#utility.yul\":15316:15339   */\n      sub\n        /* \"#utility.yul\":15312:15344   */\n      slt\n        /* \"#utility.yul\":15309:15428   */\n      iszero\n      tag_412\n      jumpi\n        /* \"#utility.yul\":15347:15426   */\n      tag_413\n      tag_214\n      jump\t// in\n    tag_413:\n        /* \"#utility.yul\":15309:15428   */\n    tag_412:\n        /* \"#utility.yul\":15467:15468   */\n      0x00\n        /* \"#utility.yul\":15492:15545   */\n      tag_414\n        /* \"#utility.yul\":15537:15544   */\n      dup5\n        /* \"#utility.yul\":15528:15534   */\n      dup3\n        /* \"#utility.yul\":15517:15526   */\n      dup6\n        /* \"#utility.yul\":15513:15535   */\n      add\n        /* \"#utility.yul\":15492:15545   */\n      tag_252\n      jump\t// in\n    tag_414:\n        /* \"#utility.yul\":15482:15545   */\n      swap2\n      pop\n        /* \"#utility.yul\":15438:15555   */\n      pop\n        /* \"#utility.yul\":15233:15562   */\n      swap3\n      swap2\n      pop\n      pop\n      jump\t// out\n        /* \"#utility.yul\":15568:15748   */\n    tag_103:\n        /* \"#utility.yul\":15616:15693   */\n      0x4e487b7100000000000000000000000000000000000000000000000000000000\n        /* \"#utility.yul\":15613:15614   */\n      0x00\n        /* \"#utility.yul\":15606:15694   */\n      mstore\n        /* \"#utility.yul\":15713:15717   */\n      0x41\n        /* \"#utility.yul\":15710:15711   */\n      0x04\n        /* \"#utility.yul\":15703:15718   */\n      mstore\n        /* \"#utility.yul\":15737:15741   */\n      0x24\n        /* \"#utility.yul\":15734:15735   */\n      0x00\n        /* \"#utility.yul\":15727:15742   */\n      revert\n        /* \"#utility.yul\":15754:15934   */\n    tag_113:\n        /* \"#utility.yul\":15802:15879   */\n      0x4e487b7100000000000000000000000000000000000000000000000000000000\n        /* \"#utility.yul\":15799:15800   */\n      0x00\n        /* \"#utility.yul\":15792:15880   */\n      mstore\n        /* \"#utility.yul\":15899:15903   */\n      0x32\n        /* \"#utility.yul\":15896:15897   */\n      0x04\n        /* \"#utility.yul\":15889:15904   */\n      mstore\n        /* \"#utility.yul\":15923:15927   */\n      0x24\n        /* \"#utility.yul\":15920:15921   */\n      0x00\n        /* \"#utility.yul\":15913:15928   */\n      revert\n        /* \"#utility.yul\":15940:16057   */\n    tag_253:\n        /* \"#utility.yul\":16049:16050   */\n      0x00\n        /* \"#utility.yul\":16046:16047   */\n      dup1\n        /* \"#utility.yul\":16039:16051   */\n      revert\n        /* \"#utility.yul\":16063:16180   */\n    tag_254:\n        /* \"#utility.yul\":16172:16173   */\n      0x00\n        /* \"#utility.yul\":16169:16170   */\n      dup1\n        /* \"#utility.yul\":16162:16174   */\n      revert\n        /* \"#utility.yul\":16186:16303   */\n    tag_255:\n        /* \"#utility.yul\":16295:16296   */\n      0x00\n        /* \"#utility.yul\":16292:16293   */\n      dup1\n        /* \"#utility.yul\":16285:16297   */\n      revert\n        /* \"#utility.yul\":16309:16703   */\n    tag_117:\n        /* \"#utility.yul\":16403:16407   */\n      0x00\n        /* \"#utility.yul\":16457:16468   */\n      dup3\n        /* \"#utility.yul\":16444:16469   */\n      calldataload\n        /* \"#utility.yul\":16557:16558   */\n      0x01\n        /* \"#utility.yul\":16551:16555   */\n      0x80\n        /* \"#utility.yul\":16547:16559   */\n      sub\n        /* \"#utility.yul\":16536:16544   */\n      dup4\n        /* \"#utility.yul\":16520:16534   */\n      calldatasize\n        /* \"#utility.yul\":16516:16545   */\n      sub\n        /* \"#utility.yul\":16512:16560   */\n      sub\n        /* \"#utility.yul\":16492:16510   */\n      dup2\n        /* \"#utility.yul\":16488:16561   */\n      slt\n        /* \"#utility.yul\":16478:16646   */\n      tag_421\n      jumpi\n        /* \"#utility.yul\":16565:16644   */\n      tag_422\n      tag_253\n      jump\t// in\n    tag_422:\n        /* \"#utility.yul\":16478:16646   */\n    tag_421:\n        /* \"#utility.yul\":16677:16695   */\n      dup1\n        /* \"#utility.yul\":16667:16675   */\n      dup4\n        /* \"#utility.yul\":16663:16696   */\n      add\n        /* \"#utility.yul\":16655:16696   */\n      swap2\n      pop\n        /* \"#utility.yul\":16408:16703   */\n      pop\n        /* \"#utility.yul\":16309:16703   */\n      swap3\n      swap2\n      pop\n      pop\n      jump\t// out\n        /* \"#utility.yul\":16709:17433   */\n    tag_120:\n        /* \"#utility.yul\":16786:16790   */\n      0x00\n        /* \"#utility.yul\":16792:16798   */\n      dup1\n        /* \"#utility.yul\":16848:16859   */\n      dup4\n        /* \"#utility.yul\":16835:16860   */\n      calldataload\n        /* \"#utility.yul\":16948:16949   */\n      0x01\n        /* \"#utility.yul\":16942:16946   */\n      0x20\n        /* \"#utility.yul\":16938:16950   */\n      sub\n        /* \"#utility.yul\":16927:16935   */\n      dup5\n        /* \"#utility.yul\":16911:16925   */\n      calldatasize\n        /* \"#utility.yul\":16907:16936   */\n      sub\n        /* \"#utility.yul\":16903:16951   */\n      sub\n        /* \"#utility.yul\":16883:16901   */\n      dup2\n        /* \"#utility.yul\":16879:16952   */\n      slt\n        /* \"#utility.yul\":16869:17037   */\n      tag_424\n      jumpi\n        /* \"#utility.yul\":16956:17035   */\n      tag_425\n      tag_253\n      jump\t// in\n    tag_425:\n        /* \"#utility.yul\":16869:17037   */\n    tag_424:\n        /* \"#utility.yul\":17068:17086   */\n      dup1\n        /* \"#utility.yul\":17058:17066   */\n      dup5\n        /* \"#utility.yul\":17054:17087   */\n      add\n        /* \"#utility.yul\":17046:17087   */\n      swap3\n      pop\n        /* \"#utility.yul\":17120:17124   */\n      dup3\n        /* \"#utility.yul\":17107:17125   */\n      calldataload\n        /* \"#utility.yul\":17097:17125   */\n      swap2\n      pop\n        /* \"#utility.yul\":17148:17166   */\n      0xffffffffffffffff\n        /* \"#utility.yul\":17140:17146   */\n      dup3\n        /* \"#utility.yul\":17137:17167   */\n      gt\n        /* \"#utility.yul\":17134:17251   */\n      iszero\n      tag_426\n      jumpi\n        /* \"#utility.yul\":17170:17249   */\n      tag_427\n      tag_254\n      jump\t// in\n    tag_427:\n        /* \"#utility.yul\":17134:17251   */\n    tag_426:\n        /* \"#utility.yul\":17278:17280   */\n      0x20\n        /* \"#utility.yul\":17272:17276   */\n      dup4\n        /* \"#utility.yul\":17268:17281   */\n      add\n        /* \"#utility.yul\":17260:17281   */\n      swap3\n      pop\n        /* \"#utility.yul\":17335:17339   */\n      0x01\n        /* \"#utility.yul\":17327:17333   */\n      dup3\n        /* \"#utility.yul\":17323:17340   */\n      mul\n        /* \"#utility.yul\":17307:17321   */\n      calldatasize\n        /* \"#utility.yul\":17303:17341   */\n      sub\n        /* \"#utility.yul\":17297:17301   */\n      dup4\n        /* \"#utility.yul\":17293:17342   */\n      sgt\n        /* \"#utility.yul\":17290:17426   */\n      iszero\n      tag_428\n      jumpi\n        /* \"#utility.yul\":17345:17424   */\n      tag_429\n      tag_255\n      jump\t// in\n    tag_429:\n        /* \"#utility.yul\":17290:17426   */\n    tag_428:\n        /* \"#utility.yul\":16799:17433   */\n      pop\n        /* \"#utility.yul\":16709:17433   */\n      swap3\n      pop\n      swap3\n      swap1\n      pop\n      jump\t// out\n        /* \"#utility.yul\":17439:17586   */\n    tag_256:\n        /* \"#utility.yul\":17540:17551   */\n      0x00\n        /* \"#utility.yul\":17577:17580   */\n      dup2\n        /* \"#utility.yul\":17562:17580   */\n      swap1\n      pop\n        /* \"#utility.yul\":17439:17586   */\n      swap3\n      swap2\n      pop\n      pop\n      jump\t// out\n        /* \"#utility.yul\":17592:17746   */\n    tag_257:\n        /* \"#utility.yul\":17676:17682   */\n      dup3\n        /* \"#utility.yul\":17671:17674   */\n      dup2\n        /* \"#utility.yul\":17666:17669   */\n      dup4\n        /* \"#utility.yul\":17653:17683   */\n      calldatacopy\n        /* \"#utility.yul\":17738:17739   */\n      0x00\n        /* \"#utility.yul\":17729:17735   */\n      dup4\n        /* \"#utility.yul\":17724:17727   */\n      dup4\n        /* \"#utility.yul\":17720:17736   */\n      add\n        /* \"#utility.yul\":17713:17740   */\n      mstore\n        /* \"#utility.yul\":17592:17746   */\n      pop\n      pop\n      pop\n      jump\t// out\n        /* \"#utility.yul\":17774:18088   */\n    tag_258:\n        /* \"#utility.yul\":17888:17891   */\n      0x00\n        /* \"#utility.yul\":17909:17997   */\n      tag_433\n        /* \"#utility.yul\":17990:17996   */\n      dup4\n        /* \"#utility.yul\":17985:17988   */\n      dup6\n        /* \"#utility.yul\":17909:17997   */\n      tag_256\n      jump\t// in\n    tag_433:\n        /* \"#utility.yul\":17902:17997   */\n      swap4\n      pop\n        /* \"#utility.yul\":18007:18050   */\n      tag_434\n        /* \"#utility.yul\":18043:18049   */\n      dup4\n        /* \"#utility.yul\":18038:18041   */\n      dup6\n        /* \"#utility.yul\":18031:18036   */\n      dup5\n        /* \"#utility.yul\":18007:18050   */\n      tag_257\n      jump\t// in\n    tag_434:\n        /* \"#utility.yul\":18075:18081   */\n      dup3\n        /* \"#utility.yul\":18070:18073   */\n      dup5\n        /* \"#utility.yul\":18066:18082   */\n      add\n        /* \"#utility.yul\":18059:18082   */\n      swap1\n      pop\n        /* \"#utility.yul\":17774:18088   */\n      swap4\n      swap3\n      pop\n      pop\n      pop\n      jump\t// out\n        /* \"#utility.yul\":18094:18385   */\n    tag_122:\n        /* \"#utility.yul\":18234:18237   */\n      0x00\n        /* \"#utility.yul\":18256:18359   */\n      tag_436\n        /* \"#utility.yul\":18355:18358   */\n      dup3\n        /* \"#utility.yul\":18346:18352   */\n      dup5\n        /* \"#utility.yul\":18338:18344   */\n      dup7\n        /* \"#utility.yul\":18256:18359   */\n      tag_258\n      jump\t// in\n    tag_436:\n        /* \"#utility.yul\":18249:18359   */\n      swap2\n      pop\n        /* \"#utility.yul\":18376:18379   */\n      dup2\n        /* \"#utility.yul\":18369:18379   */\n      swap1\n      pop\n        /* \"#utility.yul\":18094:18385   */\n      swap4\n      swap3\n      pop\n      pop\n      pop\n      jump\t// out\n        /* \"#utility.yul\":18391:18560   */\n    tag_259:\n        /* \"#utility.yul\":18475:18486   */\n      0x00\n        /* \"#utility.yul\":18509:18515   */\n      dup3\n        /* \"#utility.yul\":18504:18507   */\n      dup3\n        /* \"#utility.yul\":18497:18516   */\n      mstore\n        /* \"#utility.yul\":18549:18553   */\n      0x20\n        /* \"#utility.yul\":18544:18547   */\n      dup3\n        /* \"#utility.yul\":18540:18554   */\n      add\n        /* \"#utility.yul\":18525:18554   */\n      swap1\n      pop\n        /* \"#utility.yul\":18391:18560   */\n      swap3\n      swap2\n      pop\n      pop\n      jump\t// out\n        /* \"#utility.yul\":18566:18742   */\n    tag_260:\n        /* \"#utility.yul\":18706:18734   */\n      0x4d756c746963616c6c333a2076616c7565206d69736d61746368000000000000\n        /* \"#utility.yul\":18702:18703   */\n      0x00\n        /* \"#utility.yul\":18694:18700   */\n      dup3\n        /* \"#utility.yul\":18690:18704   */\n      add\n        /* \"#utility.yul\":18683:18735   */\n      mstore\n        /* \"#utility.yul\":18566:18742   */\n      pop\n      jump\t// out\n        /* \"#utility.yul\":18748:19114   */\n    tag_261:\n        /* \"#utility.yul\":18890:18893   */\n      0x00\n        /* \"#utility.yul\":18911:18978   */\n      tag_440\n        /* \"#utility.yul\":18975:18977   */\n      0x1a\n        /* \"#utility.yul\":18970:18973   */\n      dup4\n        /* \"#utility.yul\":18911:18978   */\n      tag_259\n      jump\t// in\n    tag_440:\n        /* \"#utility.yul\":18904:18978   */\n      swap2\n      pop\n        /* \"#utility.yul\":18987:19080   */\n      tag_441\n        /* \"#utility.yul\":19076:19079   */\n      dup3\n        /* \"#utility.yul\":18987:19080   */\n      tag_260\n      jump\t// in\n    tag_441:\n        /* \"#utility.yul\":19105:19107   */\n      0x20\n        /* \"#utility.yul\":19100:19103   */\n      dup3\n        /* \"#utility.yul\":19096:19108   */\n      add\n        /* \"#utility.yul\":19089:19108   */\n      swap1\n      pop\n        /* \"#utility.yul\":18748:19114   */\n      swap2\n      swap1\n      pop\n      jump\t// out\n        /* \"#utility.yul\":19120:19539   */\n    tag_129:\n        /* \"#utility.yul\":19286:19290   */\n      0x00\n        /* \"#utility.yul\":19324:19326   */\n      0x20\n        /* \"#utility.yul\":19313:19322   */\n      dup3\n        /* \"#utility.yul\":19309:19327   */\n      add\n        /* \"#utility.yul\":19301:19327   */\n      swap1\n      pop\n        /* \"#utility.yul\":19373:19382   */\n      dup2\n        /* \"#utility.yul\":19367:19371   */\n      dup2\n        /* \"#utility.yul\":19363:19383   */\n      sub\n        /* \"#utility.yul\":19359:19360   */\n      0x00\n        /* \"#utility.yul\":19348:19357   */\n      dup4\n        /* \"#utility.yul\":19344:19361   */\n      add\n        /* \"#utility.yul\":19337:19384   */\n      mstore\n        /* \"#utility.yul\":19401:19532   */\n      tag_443\n        /* \"#utility.yul\":19527:19531   */\n      dup2\n        /* \"#utility.yul\":19401:19532   */\n      tag_261\n      jump\t// in\n    tag_443:\n        /* \"#utility.yul\":19393:19532   */\n      swap1\n      pop\n        /* \"#utility.yul\":19120:19539   */\n      swap2\n      swap1\n      pop\n      jump\t// out\n        /* \"#utility.yul\":19545:19932   */\n    tag_141:\n        /* \"#utility.yul\":19632:19636   */\n      0x00\n        /* \"#utility.yul\":19686:19697   */\n      dup3\n        /* \"#utility.yul\":19673:19698   */\n      calldataload\n        /* \"#utility.yul\":19786:19787   */\n      0x01\n        /* \"#utility.yul\":19780:19784   */\n      0x40\n        /* \"#utility.yul\":19776:19788   */\n      sub\n        /* \"#utility.yul\":19765:19773   */\n      dup4\n        /* \"#utility.yul\":19749:19763   */\n      calldatasize\n        /* \"#utility.yul\":19745:19774   */\n      sub\n        /* \"#utility.yul\":19741:19789   */\n      sub\n        /* \"#utility.yul\":19721:19739   */\n      dup2\n        /* \"#utility.yul\":19717:19790   */\n      slt\n        /* \"#utility.yul\":19707:19875   */\n      tag_445\n      jumpi\n        /* \"#utility.yul\":19794:19873   */\n      tag_446\n      tag_253\n      jump\t// in\n    tag_446:\n        /* \"#utility.yul\":19707:19875   */\n    tag_445:\n        /* \"#utility.yul\":19906:19924   */\n      dup1\n        /* \"#utility.yul\":19896:19904   */\n      dup4\n        /* \"#utility.yul\":19892:19925   */\n      add\n        /* \"#utility.yul\":19884:19925   */\n      swap2\n      pop\n        /* \"#utility.yul\":19637:19932   */\n      pop\n        /* \"#utility.yul\":19545:19932   */\n      swap3\n      swap2\n      pop\n      pop\n      jump\t// out\n        /* \"#utility.yul\":19938:20111   */\n    tag_262:\n        /* \"#utility.yul\":20078:20103   */\n      0x4d756c746963616c6c333a2063616c6c206661696c6564000000000000000000\n        /* \"#utility.yul\":20074:20075   */\n      0x00\n        /* \"#utility.yul\":20066:20072   */\n      dup3\n        /* \"#utility.yul\":20062:20076   */\n      add\n        /* \"#utility.yul\":20055:20104   */\n      mstore\n        /* \"#utility.yul\":19938:20111   */\n      pop\n      jump\t// out\n        /* \"#utility.yul\":20117:20483   */\n    tag_263:\n        /* \"#utility.yul\":20259:20262   */\n      0x00\n        /* \"#utility.yul\":20280:20347   */\n      tag_449\n        /* \"#utility.yul\":20344:20346   */\n      0x17\n        /* \"#utility.yul\":20339:20342   */\n      dup4\n        /* \"#utility.yul\":20280:20347   */\n      tag_259\n      jump\t// in\n    tag_449:\n        /* \"#utility.yul\":20273:20347   */\n      swap2\n      pop\n        /* \"#utility.yul\":20356:20449   */\n      tag_450\n        /* \"#utility.yul\":20445:20448   */\n      dup3\n        /* \"#utility.yul\":20356:20449   */\n      tag_262\n      jump\t// in\n    tag_450:\n        /* \"#utility.yul\":20474:20476   */\n      0x20\n        /* \"#utility.yul\":20469:20472   */\n      dup3\n        /* \"#utility.yul\":20465:20477   */\n      add\n        /* \"#utility.yul\":20458:20477   */\n      swap1\n      pop\n        /* \"#utility.yul\":20117:20483   */\n      swap2\n      swap1\n      pop\n      jump\t// out\n        /* \"#utility.yul\":20489:20908   */\n    tag_152:\n        /* \"#utility.yul\":20655:20659   */\n      0x00\n        /* \"#utility.yul\":20693:20695   */\n      0x20\n        /* \"#utility.yul\":20682:20691   */\n      dup3\n        /* \"#utility.yul\":20678:20696   */\n      add\n        /* \"#utility.yul\":20670:20696   */\n      swap1\n      pop\n        /* \"#utility.yul\":20742:20751   */\n      dup2\n        /* \"#utility.yul\":20736:20740   */\n      dup2\n        /* \"#utility.yul\":20732:20752   */\n      sub\n        /* \"#utility.yul\":20728:20729   */\n      0x00\n        /* \"#utility.yul\":20717:20726   */\n      dup4\n        /* \"#utility.yul\":20713:20730   */\n      add\n        /* \"#utility.yul\":20706:20753   */\n      mstore\n        /* \"#utility.yul\":20770:20901   */\n      tag_452\n        /* \"#utility.yul\":20896:20900   */\n      dup2\n        /* \"#utility.yul\":20770:20901   */\n      tag_263\n      jump\t// in\n    tag_452:\n        /* \"#utility.yul\":20762:20901   */\n      swap1\n      pop\n        /* \"#utility.yul\":20489:20908   */\n      swap2\n      swap1\n      pop\n      jump\t// out\n        /* \"#utility.yul\":20914:21303   */\n    tag_175:\n        /* \"#utility.yul\":21003:21007   */\n      0x00\n        /* \"#utility.yul\":21057:21068   */\n      dup3\n        /* \"#utility.yul\":21044:21069   */\n      calldataload\n        /* \"#utility.yul\":21157:21158   */\n      0x01\n        /* \"#utility.yul\":21151:21155   */\n      0x60\n        /* \"#utility.yul\":21147:21159   */\n      sub\n        /* \"#utility.yul\":21136:21144   */\n      dup4\n        /* \"#utility.yul\":21120:21134   */\n      calldatasize\n        /* \"#utility.yul\":21116:21145   */\n      sub\n        /* \"#utility.yul\":21112:21160   */\n      sub\n        /* \"#utility.yul\":21092:21110   */\n      dup2\n        /* \"#utility.yul\":21088:21161   */\n      slt\n        /* \"#utility.yul\":21078:21246   */\n      tag_454\n      jumpi\n        /* \"#utility.yul\":21165:21244   */\n      tag_455\n      tag_253\n      jump\t// in\n    tag_455:\n        /* \"#utility.yul\":21078:21246   */\n    tag_454:\n        /* \"#utility.yul\":21277:21295   */\n      dup1\n        /* \"#utility.yul\":21267:21275   */\n      dup4\n        /* \"#utility.yul\":21263:21296   */\n      add\n        /* \"#utility.yul\":21255:21296   */\n      swap2\n      pop\n        /* \"#utility.yul\":21008:21303   */\n      pop\n        /* \"#utility.yul\":20914:21303   */\n      swap3\n      swap2\n      pop\n      pop\n      jump\t// out\n\n    auxdata: 0xa2646970667358221220146dff77e9f7705e91abf77c1ac5e4a8f1de022ad9eba6feb66dcf57a35f816764736f6c634300080c0033\n}\n",
				"bytecode": {
					"linkReferences": {},
					"object": "608060405234801561001057600080fd5b506115b9806100206000396000f3fe6080604052600436106100f35760003560e01c80634d2301cc1161008a578063a8b0574e11610059578063a8b0574e14610325578063bce38bd714610350578063c3077fa914610380578063ee82ac5e146103b2576100f3565b80634d2301cc1461026257806372425d9d1461029f57806382ad56cb146102ca57806386d516e8146102fa576100f3565b80633408e470116100c65780633408e470146101af578063399542e9146101da5780633e64a6961461020c57806342cbb15c14610237576100f3565b80630f28c97d146100f8578063174dea7114610123578063252dba421461015357806327e86d6e14610184575b600080fd5b34801561010457600080fd5b5061010d6103ef565b60405161011a9190610c0a565b60405180910390f35b61013d60048036038101906101389190610c94565b6103f7565b60405161014a9190610e94565b60405180910390f35b61016d60048036038101906101689190610f0c565b610615565b60405161017b92919061101b565b60405180910390f35b34801561019057600080fd5b506101996107ab565b6040516101a69190611064565b60405180910390f35b3480156101bb57600080fd5b506101c46107b7565b6040516101d19190610c0a565b60405180910390f35b6101f460048036038101906101ef91906110ab565b6107bf565b6040516102039392919061110b565b60405180910390f35b34801561021857600080fd5b506102216107e1565b60405161022e9190610c0a565b60405180910390f35b34801561024357600080fd5b5061024c6107e9565b6040516102599190610c0a565b60405180910390f35b34801561026e57600080fd5b50610289600480360381019061028491906111a7565b6107f1565b6040516102969190610c0a565b60405180910390f35b3480156102ab57600080fd5b506102b4610812565b6040516102c19190610c0a565b60405180910390f35b6102e460048036038101906102df919061122a565b61081a565b6040516102f19190610e94565b60405180910390f35b34801561030657600080fd5b5061030f6109e4565b60405161031c9190610c0a565b60405180910390f35b34801561033157600080fd5b5061033a6109ec565b6040516103479190611286565b60405180910390f35b61036a600480360381019061036591906110ab565b6109f4565b6040516103779190610e94565b60405180910390f35b61039a60048036038101906103959190610f0c565b610ba6565b6040516103a99392919061110b565b60405180910390f35b3480156103be57600080fd5b506103d960048036038101906103d491906112cd565b610bca565b6040516103e69190611064565b60405180910390f35b600042905090565b60606000808484905090508067ffffffffffffffff81111561041c5761041b6112fa565b5b60405190808252806020026020018201604052801561045557816020015b610442610bd5565b81526020019060019003908161043a5790505b5092503660005b828110156105c957600085828151811061047957610478611329565b5b6020026020010151905087878381811061049657610495611329565b5b90506020028101906104a89190611367565b925060008360400135905080860195508360000160208101906104cb91906111a7565b73ffffffffffffffffffffffffffffffffffffffff16818580606001906104f2919061138f565b604051610500929190611431565b60006040518083038185875af1925050503d806000811461053d576040519150601f19603f3d011682016040523d82523d6000602084013e610542565b606091505b5083600001846020018290528215151515815250505081516020850135176105bc577f08c379a000000000000000000000000000000000000000000000000000000000600052602060045260176024527f4d756c746963616c6c333a2063616c6c206661696c656400000000000000000060445260846000fd5b826001019250505061045c565b5082341461060c576040517f08c379a0000000000000000000000000000000000000000000000000000000008152600401610603906114a7565b60405180910390fd5b50505092915050565b6000606043915060008484905090508067ffffffffffffffff81111561063e5761063d6112fa565b5b60405190808252806020026020018201604052801561067157816020015b606081526020019060019003908161065c5790505b5091503660005b828110156107a157600087878381811061069557610694611329565b5b90506020028101906106a791906114c7565b92508260000160208101906106bc91906111a7565b73ffffffffffffffffffffffffffffffffffffffff168380602001906106e2919061138f565b6040516106f0929190611431565b6000604051808303816000865af19150503d806000811461072d576040519150601f19603f3d011682016040523d82523d6000602084013e610732565b606091505b5086848151811061074657610745611329565b5b60200260200101819052819250505080610795576040517f08c379a000000000000000000000000000000000000000000000000000000000815260040161078c9061153b565b60405180910390fd5b81600101915050610678565b5050509250929050565b60006001430340905090565b600046905090565b6000806060439250434091506107d68686866109f4565b905093509350939050565b600048905090565b600043905090565b60008173ffffffffffffffffffffffffffffffffffffffff16319050919050565b600044905090565b606060008383905090508067ffffffffffffffff81111561083e5761083d6112fa565b5b60405190808252806020026020018201604052801561087757816020015b610864610bd5565b81526020019060019003908161085c5790505b5091503660005b828110156109db57600084828151811061089b5761089a611329565b5b602002602001015190508686838181106108b8576108b7611329565b5b90506020028101906108ca919061155b565b92508260000160208101906108df91906111a7565b73ffffffffffffffffffffffffffffffffffffffff16838060400190610905919061138f565b604051610913929190611431565b6000604051808303816000865af19150503d8060008114610950576040519150601f19603f3d011682016040523d82523d6000602084013e610955565b606091505b5082600001836020018290528215151515815250505080516020840135176109cf577f08c379a000000000000000000000000000000000000000000000000000000000600052602060045260176024527f4d756c746963616c6c333a2063616c6c206661696c656400000000000000000060445260646000fd5b8160010191505061087e565b50505092915050565b600045905090565b600041905090565b606060008383905090508067ffffffffffffffff811115610a1857610a176112fa565b5b604051908082528060200260200182016040528015610a5157816020015b610a3e610bd5565b815260200190600190039081610a365790505b5091503660005b82811015610b9c576000848281518110610a7557610a74611329565b5b60200260200101519050868683818110610a9257610a91611329565b5b9050602002810190610aa491906114c7565b9250826000016020810190610ab991906111a7565b73ffffffffffffffffffffffffffffffffffffffff16838060200190610adf919061138f565b604051610aed929190611431565b6000604051808303816000865af19150503d8060008114610b2a576040519150601f19603f3d011682016040523d82523d6000602084013e610b2f565b606091505b508260000183602001829052821515151581525050508715610b90578060000151610b8f576040517f08c379a0000000000000000000000000000000000000000000000000000000008152600401610b869061153b565b60405180910390fd5b5b81600101915050610a58565b5050509392505050565b6000806060610bb7600186866107bf565b8093508194508295505050509250925092565b600081409050919050565b6040518060400160405280600015158152602001606081525090565b6000819050919050565b610c0481610bf1565b82525050565b6000602082019050610c1f6000830184610bfb565b92915050565b600080fd5b600080fd5b600080fd5b600080fd5b600080fd5b60008083601f840112610c5457610c53610c2f565b5b8235905067ffffffffffffffff811115610c7157610c70610c34565b5b602083019150836020820283011115610c8d57610c8c610c39565b5b9250929050565b60008060208385031215610cab57610caa610c25565b5b600083013567ffffffffffffffff811115610cc957610cc8610c2a565b5b610cd585828601610c3e565b92509250509250929050565b600081519050919050565b600082825260208201905092915050565b6000819050602082019050919050565b60008115159050919050565b610d2281610d0d565b82525050565b600081519050919050565b600082825260208201905092915050565b60005b83811015610d62578082015181840152602081019050610d47565b83811115610d71576000848401525b50505050565b6000601f19601f8301169050919050565b6000610d9382610d28565b610d9d8185610d33565b9350610dad818560208601610d44565b610db681610d77565b840191505092915050565b6000604083016000830151610dd96000860182610d19565b5060208301518482036020860152610df18282610d88565b9150508091505092915050565b6000610e0a8383610dc1565b905092915050565b6000602082019050919050565b6000610e2a82610ce1565b610e348185610cec565b935083602082028501610e4685610cfd565b8060005b85811015610e825784840389528151610e638582610dfe565b9450610e6e83610e12565b925060208a01995050600181019050610e4a565b50829750879550505050505092915050565b60006020820190508181036000830152610eae8184610e1f565b905092915050565b60008083601f840112610ecc57610ecb610c2f565b5b8235905067ffffffffffffffff811115610ee957610ee8610c34565b5b602083019150836020820283011115610f0557610f04610c39565b5b9250929050565b60008060208385031215610f2357610f22610c25565b5b600083013567ffffffffffffffff811115610f4157610f40610c2a565b5b610f4d85828601610eb6565b92509250509250929050565b600081519050919050565b600082825260208201905092915050565b6000819050602082019050919050565b6000610f918383610d88565b905092915050565b6000602082019050919050565b6000610fb182610f59565b610fbb8185610f64565b935083602082028501610fcd85610f75565b8060005b858110156110095784840389528151610fea8582610f85565b9450610ff583610f99565b925060208a01995050600181019050610fd1565b50829750879550505050505092915050565b60006040820190506110306000830185610bfb565b81810360208301526110428184610fa6565b90509392505050565b6000819050919050565b61105e8161104b565b82525050565b60006020820190506110796000830184611055565b92915050565b61108881610d0d565b811461109357600080fd5b50565b6000813590506110a58161107f565b92915050565b6000806000604084860312156110c4576110c3610c25565b5b60006110d286828701611096565b935050602084013567ffffffffffffffff8111156110f3576110f2610c2a565b5b6110ff86828701610eb6565b92509250509250925092565b60006060820190506111206000830186610bfb565b61112d6020830185611055565b818103604083015261113f8184610e1f565b9050949350505050565b600073ffffffffffffffffffffffffffffffffffffffff82169050919050565b600061117482611149565b9050919050565b61118481611169565b811461118f57600080fd5b50565b6000813590506111a18161117b565b92915050565b6000602082840312156111bd576111bc610c25565b5b60006111cb84828501611192565b91505092915050565b60008083601f8401126111ea576111e9610c2f565b5b8235905067ffffffffffffffff81111561120757611206610c34565b5b60208301915083602082028301111561122357611222610c39565b5b9250929050565b6000806020838503121561124157611240610c25565b5b600083013567ffffffffffffffff81111561125f5761125e610c2a565b5b61126b858286016111d4565b92509250509250929050565b61128081611169565b82525050565b600060208201905061129b6000830184611277565b92915050565b6112aa81610bf1565b81146112b557600080fd5b50565b6000813590506112c7816112a1565b92915050565b6000602082840312156112e3576112e2610c25565b5b60006112f1848285016112b8565b91505092915050565b7f4e487b7100000000000000000000000000000000000000000000000000000000600052604160045260246000fd5b7f4e487b7100000000000000000000000000000000000000000000000000000000600052603260045260246000fd5b600080fd5b600080fd5b600080fd5b60008235600160800383360303811261138357611382611358565b5b80830191505092915050565b600080833560016020038436030381126113ac576113ab611358565b5b80840192508235915067ffffffffffffffff8211156113ce576113cd61135d565b5b6020830192506001820236038313156113ea576113e9611362565b5b509250929050565b600081905092915050565b82818337600083830152505050565b600061141883856113f2565b93506114258385846113fd565b82840190509392505050565b600061143e82848661140c565b91508190509392505050565b600082825260208201905092915050565b7f4d756c746963616c6c333a2076616c7565206d69736d61746368000000000000600082015250565b6000611491601a8361144a565b915061149c8261145b565b602082019050919050565b600060208201905081810360008301526114c081611484565b9050919050565b6000823560016040038336030381126114e3576114e2611358565b5b80830191505092915050565b7f4d756c746963616c6c333a2063616c6c206661696c6564000000000000000000600082015250565b600061152560178361144a565b9150611530826114ef565b602082019050919050565b6000602082019050818103600083015261155481611518565b9050919050565b60008235600160600383360303811261157757611576611358565b5b8083019150509291505056fea2646970667358221220146dff77e9f7705e91abf77c1ac5e4a8f1de022ad9eba6feb66dcf57a35f816764736f6c634300080c0033",
					"opcodes": "PUSH1 0x80 PUSH1 0x40 MSTORE CALLVALUE DUP1 ISZERO PUSH2 0x10 JUMPI PUSH1 0x0 DUP1 REVERT JUMPDEST POP PUSH2 0x15B9 DUP1 PUSH2 0x20 PUSH1 0x0 CODECOPY PUSH1 0x0 RETURN INVALID PUSH1 0x80 PUSH1 0x40 MSTORE PUSH1 0x4 CALLDATASIZE LT PUSH2 0xF3 JUMPI PUSH1 0x0 CALLDATALOAD PUSH1 0xE0 SHR DUP1 PUSH4 0x4D2301CC GT PUSH2 0x8A JUMPI DUP1 PUSH4 0xA8B0574E GT PUSH2 0x59 JUMPI DUP1 PUSH4 0xA8B0574E EQ PUSH2 0x325 JUMPI DUP1 PUSH4 0xBCE38BD7 EQ PUSH2 0x350 JUMPI DUP1 PUSH4 0xC3077FA9 EQ PUSH2 0x380 JUMPI DUP1 PUSH4 0xEE82AC5E EQ PUSH2 0x3B2 JUMPI PUSH2 0xF3 JUMP JUMPDEST DUP1 PUSH4 0x4D2301CC EQ PUSH2 0x262 JUMPI DUP1 PUSH4 0x72425D9D EQ PUSH2 0x29F JUMPI DUP1 PUSH4 0x82AD56CB EQ PUSH2 0x2CA JUMPI DUP1 PUSH4 0x86D516E8 EQ PUSH2 0x2FA JUMPI PUSH2 0xF3 JUMP JUMPDEST DUP1 PUSH4 0x3408E470 GT PUSH2 0xC6 JUMPI DUP1 PUSH4 0x3408E470 EQ PUSH2 0x1AF JUMPI DUP1 PUSH4 0x399542E9 EQ PUSH2 0x1DA JUMPI DUP1 PUSH4 0x3E64A696 EQ PUSH2 0x20C JUMPI DUP1 PUSH4 0x42CBB15C EQ PUSH2 0x237 JUMPI PUSH2 0xF3 JUMP JUMPDEST DUP1 PUSH4 0xF28C97D EQ PUSH2 0xF8 JUMPI DUP1 PUSH4 0x174DEA71 EQ PUSH2 0x123 JUMPI DUP1 PUSH4 0x252DBA42 EQ PUSH2 0x153 JUMPI DUP1 PUSH4 0x27E86D6E EQ PUSH2 0x184 JUMPI JUMPDEST PUSH1 0x0 DUP1 REVERT JUMPDEST CALLVALUE DUP1 ISZERO PUSH2 0x104 JUMPI PUSH1 0x0 DUP1 REVERT JUMPDEST POP PUSH2 0x10D PUSH2 0x3EF JUMP JUMPDEST PUSH1 0x40 MLOAD PUSH2 0x11A SWAP2 SWAP1 PUSH2 0xC0A JUMP JUMPDEST PUSH1 0x40 MLOAD DUP1 SWAP2 SUB SWAP1 RETURN JUMPDEST PUSH2 0x13D PUSH1 0x4 DUP1 CALLDATASIZE SUB DUP2 ADD SWAP1 PUSH2 0x138 SWAP2 SWAP1 PUSH2 0xC94 JUMP JUMPDEST PUSH2 0x3F7 JUMP JUMPDEST PUSH1 0x40 MLOAD PUSH2 0x14A SWAP2 SWAP1 PUSH2 0xE94 JUMP JUMPDEST PUSH1 0x40 MLOAD DUP1 SWAP2 SUB SWAP1 RETURN JUMPDEST PUSH2 0x16D PUSH1 0x4 DUP1 CALLDATASIZE SUB DUP2 ADD SWAP1 PUSH2 0x168 SWAP2 SWAP1 PUSH2 0xF0C JUMP JUMPDEST PUSH2 0x615 JUMP JUMPDEST PUSH1 0x40 MLOAD PUSH2 0x17B SWAP3 SWAP2 SWAP1 PUSH2 0x101B JUMP JUMPDEST PUSH1 0x40 MLOAD DUP1 SWAP2 SUB SWAP1 RETURN JUMPDEST CALLVALUE DUP1 ISZERO PUSH2 0x190 JUMPI PUSH1 0x0 DUP1 REVERT JUMPDEST POP PUSH2 0x199 PUSH2 0x7AB JUMP JUMPDEST PUSH1 0x40 MLOAD PUSH2 0x1A6 SWAP2 SWAP1 PUSH2 0x1064 JUMP JUMPDEST PUSH1 0x40 MLOAD DUP1 SWAP2 SUB SWAP1 RETURN JUMPDEST CALLVALUE DUP1 ISZERO PUSH2 0x1BB JUMPI PUSH1 0x0 DUP1 REVERT JUMPDEST POP PUSH2 0x1C4 PUSH2 0x7B7 JUMP JUMPDEST PUSH1 0x40 MLOAD PUSH2 0x1D1 SWAP2 SWAP1 PUSH2 0xC0A JUMP JUMPDEST PUSH1 0x40 MLOAD DUP1 SWAP2 SUB SWAP1 RETURN JUMPDEST PUSH2 0x1F4 PUSH1 0x4 DUP1 CALLDATASIZE SUB DUP2 ADD SWAP1 PUSH2 0x1EF SWAP2 SWAP1 PUSH2 0x10AB JUMP JUMPDEST PUSH2 0x7BF JUMP JUMPDEST PUSH1 0x40 MLOAD PUSH2 0x203 SWAP4 SWAP3 SWAP2 SWAP1 PUSH2 0x110B JUMP JUMPDEST PUSH1 0x40 MLOAD DUP1 SWAP2 SUB SWAP1 RETURN JUMPDEST CALLVALUE DUP1 ISZERO PUSH2 0x218 JUMPI PUSH1 0x0 DUP1 REVERT JUMPDEST POP PUSH2 0x221 PUSH2 0x7E1 JUMP JUMPDEST PUSH1 0x40 MLOAD PUSH2 0x22E SWAP2 SWAP1 PUSH2 0xC0A JUMP JUMPDEST PUSH1 0x40 MLOAD DUP1 SWAP2 SUB SWAP1 RETURN JUMPDEST CALLVALUE DUP1 ISZERO PUSH2 0x243 JUMPI PUSH1 0x0 DUP1 REVERT JUMPDEST POP PUSH2 0x24C PUSH2 0x7E9 JUMP JUMPDEST PUSH1 0x40 MLOAD PUSH2 0x259 SWAP2 SWAP1 PUSH2 0xC0A JUMP JUMPDEST PUSH1 0x40 MLOAD DUP1 SWAP2 SUB SWAP1 RETURN JUMPDEST CALLVALUE DUP1 ISZERO PUSH2 0x26E JUMPI PUSH1 0x0 DUP1 REVERT JUMPDEST POP PUSH2 0x289 PUSH1 0x4 DUP1 CALLDATASIZE SUB DUP2 ADD SWAP1 PUSH2 0x284 SWAP2 SWAP1 PUSH2 0x11A7 JUMP JUMPDEST PUSH2 0x7F1 JUMP JUMPDEST PUSH1 0x40 MLOAD PUSH2 0x296 SWAP2 SWAP1 PUSH2 0xC0A JUMP JUMPDEST PUSH1 0x40 MLOAD DUP1 SWAP2 SUB SWAP1 RETURN JUMPDEST CALLVALUE DUP1 ISZERO PUSH2 0x2AB JUMPI PUSH1 0x0 DUP1 REVERT JUMPDEST POP PUSH2 0x2B4 PUSH2 0x812 JUMP JUMPDEST PUSH1 0x40 MLOAD PUSH2 0x2C1 SWAP2 SWAP1 PUSH2 0xC0A JUMP JUMPDEST PUSH1 0x40 MLOAD DUP1 SWAP2 SUB SWAP1 RETURN JUMPDEST PUSH2 0x2E4 PUSH1 0x4 DUP1 CALLDATASIZE SUB DUP2 ADD SWAP1 PUSH2 0x2DF SWAP2 SWAP1 PUSH2 0x122A JUMP JUMPDEST PUSH2 0x81A JUMP JUMPDEST PUSH1 0x40 MLOAD PUSH2 0x2F1 SWAP2 SWAP1 PUSH2 0xE94 JUMP JUMPDEST PUSH1 0x40 MLOAD DUP1 SWAP2 SUB SWAP1 RETURN JUMPDEST CALLVALUE DUP1 ISZERO PUSH2 0x306 JUMPI PUSH1 0x0 DUP1 REVERT JUMPDEST POP PUSH2 0x30F PUSH2 0x9E4 JUMP JUMPDEST PUSH1 0x40 MLOAD PUSH2 0x31C SWAP2 SWAP1 PUSH2 0xC0A JUMP JUMPDEST PUSH1 0x40 MLOAD DUP1 SWAP2 SUB SWAP1 RETURN JUMPDEST CALLVALUE DUP1 ISZERO PUSH2 0x331 JUMPI PUSH1 0x0 DUP1 REVERT JUMPDEST POP PUSH2 0x33A PUSH2 0x9EC JUMP JUMPDEST PUSH1 0x40 MLOAD PUSH2 0x347 SWAP2 SWAP1 PUSH2 0x1286 JUMP JUMPDEST PUSH1 0x40 MLOAD DUP1 SWAP2 SUB SWAP1 RETURN JUMPDEST PUSH2 0x36A PUSH1 0x4 DUP1 CALLDATASIZE SUB DUP2 ADD SWAP1 PUSH2 0x365 SWAP2 SWAP1 PUSH2 0x10AB JUMP JUMPDEST PUSH2 0x9F4 JUMP JUMPDEST PUSH1 0x40 MLOAD PUSH2 0x377 SWAP2 SWAP1 PUSH2 0xE94 JUMP JUMPDEST PUSH1 0x40 MLOAD DUP1 SWAP2 SUB SWAP1 RETURN JUMPDEST PUSH2 0x39A PUSH1 0x4 DUP1 CALLDATASIZE SUB DUP2 ADD SWAP1 PUSH2 0x395 SWAP2 SWAP1 PUSH2 0xF0C JUMP JUMPDEST PUSH2 0xBA6 JUMP JUMPDEST PUSH1 0x40 MLOAD PUSH2 0x3A9 SWAP4 SWAP3 SWAP2 SWAP1 PUSH2 0x110B JUMP JUMPDEST PUSH1 0x40 MLOAD DUP1 SWAP2 SUB SWAP1 RETURN JUMPDEST CALLVALUE DUP1 ISZERO PUSH2 0x3BE JUMPI PUSH1 0x0 DUP1 REVERT JUMPDEST POP PUSH2 0x3D9 PUSH1 0x4 DUP1 CALLDATASIZE SUB DUP2 ADD SWAP1 PUSH2 0x3D4 SWAP2 SWAP1 PUSH2 0x12CD JUMP JUMPDEST PUSH2 0xBCA JUMP JUMPDEST PUSH1 0x40 MLOAD PUSH2 0x3E6 SWAP2 SWAP1 PUSH2 0x1064 JUMP JUMPDEST PUSH1 0x40 MLOAD DUP1 SWAP2 SUB SWAP1 RETURN JUMPDEST PUSH1 0x0 TIMESTAMP SWAP1 POP SWAP1 JUMP JUMPDEST PUSH1 0x60 PUSH1 0x0 DUP1 DUP5 DUP5 SWAP1 POP SWAP1 POP DUP1 PUSH8 0xFFFFFFFFFFFFFFFF DUP2 GT ISZERO PUSH2 0x41C JUMPI PUSH2 0x41B PUSH2 0x12FA JUMP JUMPDEST JUMPDEST PUSH1 0x40 MLOAD SWAP1 DUP1 DUP3 MSTORE DUP1 PUSH1 0x20 MUL PUSH1 0x20 ADD DUP3 ADD PUSH1 0x40 MSTORE DUP1 ISZERO PUSH2 0x455 JUMPI DUP2 PUSH1 0x20 ADD JUMPDEST PUSH2 0x442 PUSH2 0xBD5 JUMP JUMPDEST DUP2 MSTORE PUSH1 0x20 ADD SWAP1 PUSH1 0x1 SWAP1 SUB SWAP1 DUP2 PUSH2 0x43A JUMPI SWAP1 POP JUMPDEST POP SWAP3 POP CALLDATASIZE PUSH1 0x0 JUMPDEST DUP3 DUP2 LT ISZERO PUSH2 0x5C9 JUMPI PUSH1 0x0 DUP6 DUP3 DUP2 MLOAD DUP2 LT PUSH2 0x479 JUMPI PUSH2 0x478 PUSH2 0x1329 JUMP JUMPDEST JUMPDEST PUSH1 0x20 MUL PUSH1 0x20 ADD ADD MLOAD SWAP1 POP DUP8 DUP8 DUP4 DUP2 DUP2 LT PUSH2 0x496 JUMPI PUSH2 0x495 PUSH2 0x1329 JUMP JUMPDEST JUMPDEST SWAP1 POP PUSH1 0x20 MUL DUP2 ADD SWAP1 PUSH2 0x4A8 SWAP2 SWAP1 PUSH2 0x1367 JUMP JUMPDEST SWAP3 POP PUSH1 0x0 DUP4 PUSH1 0x40 ADD CALLDATALOAD SWAP1 POP DUP1 DUP7 ADD SWAP6 POP DUP4 PUSH1 0x0 ADD PUSH1 0x20 DUP2 ADD SWAP1 PUSH2 0x4CB SWAP2 SWAP1 PUSH2 0x11A7 JUMP JUMPDEST PUSH20 0xFFFFFFFFFFFFFFFFFFFFFFFFFFFFFFFFFFFFFFFF AND DUP2 DUP6 DUP1 PUSH1 0x60 ADD SWAP1 PUSH2 0x4F2 SWAP2 SWAP1 PUSH2 0x138F JUMP JUMPDEST PUSH1 0x40 MLOAD PUSH2 0x500 SWAP3 SWAP2 SWAP1 PUSH2 0x1431 JUMP JUMPDEST PUSH1 0x0 PUSH1 0x40 MLOAD DUP1 DUP4 SUB DUP2 DUP6 DUP8 GAS CALL SWAP3 POP POP POP RETURNDATASIZE DUP1 PUSH1 0x0 DUP2 EQ PUSH2 0x53D JUMPI PUSH1 0x40 MLOAD SWAP2 POP PUSH1 0x1F NOT PUSH1 0x3F RETURNDATASIZE ADD AND DUP3 ADD PUSH1 0x40 MSTORE RETURNDATASIZE DUP3 MSTORE RETURNDATASIZE PUSH1 0x0 PUSH1 0x20 DUP5 ADD RETURNDATACOPY PUSH2 0x542 JUMP JUMPDEST PUSH1 0x60 SWAP2 POP JUMPDEST POP DUP4 PUSH1 0x0 ADD DUP5 PUSH1 0x20 ADD DUP3 SWAP1 MSTORE DUP3 ISZERO ISZERO ISZERO ISZERO DUP2 MSTORE POP POP POP DUP2 MLOAD PUSH1 0x20 DUP6 ADD CALLDATALOAD OR PUSH2 0x5BC JUMPI PUSH32 0x8C379A000000000000000000000000000000000000000000000000000000000 PUSH1 0x0 MSTORE PUSH1 0x20 PUSH1 0x4 MSTORE PUSH1 0x17 PUSH1 0x24 MSTORE PUSH32 0x4D756C746963616C6C333A2063616C6C206661696C6564000000000000000000 PUSH1 0x44 MSTORE PUSH1 0x84 PUSH1 0x0 REVERT JUMPDEST DUP3 PUSH1 0x1 ADD SWAP3 POP POP POP PUSH2 0x45C JUMP JUMPDEST POP DUP3 CALLVALUE EQ PUSH2 0x60C JUMPI PUSH1 0x40 MLOAD PUSH32 0x8C379A000000000000000000000000000000000000000000000000000000000 DUP2 MSTORE PUSH1 0x4 ADD PUSH2 0x603 SWAP1 PUSH2 0x14A7 JUMP JUMPDEST PUSH1 0x40 MLOAD DUP1 SWAP2 SUB SWAP1 REVERT JUMPDEST POP POP POP SWAP3 SWAP2 POP POP JUMP JUMPDEST PUSH1 0x0 PUSH1 0x60 NUMBER SWAP2 POP PUSH1 0x0 DUP5 DUP5 SWAP1 POP SWAP1 POP DUP1 PUSH8 0xFFFFFFFFFFFFFFFF DUP2 GT ISZERO PUSH2 0x63E JUMPI PUSH2 0x63D PUSH2 0x12FA JUMP JUMPDEST JUMPDEST PUSH1 0x40 MLOAD SWAP1 DUP1 DUP3 MSTORE DUP1 PUSH1 0x20 MUL PUSH1 0x20 ADD DUP3 ADD PUSH1 0x40 MSTORE DUP1 ISZERO PUSH2 0x671 JUMPI DUP2 PUSH1 0x20 ADD JUMPDEST PUSH1 0x60 DUP2 MSTORE PUSH1 0x20 ADD SWAP1 PUSH1 0x1 SWAP1 SUB SWAP1 DUP2 PUSH2 0x65C JUMPI SWAP1 POP JUMPDEST POP SWAP2 POP CALLDATASIZE PUSH1 0x0 JUMPDEST DUP3 DUP2 LT ISZERO PUSH2 0x7A1 JUMPI PUSH1 0x0 DUP8 DUP8 DUP4 DUP2 DUP2 LT PUSH2 0x695 JUMPI PUSH2 0x694 PUSH2 0x1329 JUMP JUMPDEST JUMPDEST SWAP1 POP PUSH1 0x20 MUL DUP2 ADD SWAP1 PUSH2 0x6A7 SWAP2 SWAP1 PUSH2 0x14C7 JUMP JUMPDEST SWAP3 POP DUP3 PUSH1 0x0 ADD PUSH1 0x20 DUP2 ADD SWAP1 PUSH2 0x6BC SWAP2 SWAP1 PUSH2 0x11A7 JUMP JUMPDEST PUSH20 0xFFFFFFFFFFFFFFFFFFFFFFFFFFFFFFFFFFFFFFFF AND DUP4 DUP1 PUSH1 0x20 ADD SWAP1 PUSH2 0x6E2 SWAP2 SWAP1 PUSH2 0x138F JUMP JUMPDEST PUSH1 0x40 MLOAD PUSH2 0x6F0 SWAP3 SWAP2 SWAP1 PUSH2 0x1431 JUMP JUMPDEST PUSH1 0x0 PUSH1 0x40 MLOAD DUP1 DUP4 SUB DUP2 PUSH1 0x0 DUP7 GAS CALL SWAP2 POP POP RETURNDATASIZE DUP1 PUSH1 0x0 DUP2 EQ PUSH2 0x72D JUMPI PUSH1 0x40 MLOAD SWAP2 POP PUSH1 0x1F NOT PUSH1 0x3F RETURNDATASIZE ADD AND DUP3 ADD PUSH1 0x40 MSTORE RETURNDATASIZE DUP3 MSTORE RETURNDATASIZE PUSH1 0x0 PUSH1 0x20 DUP5 ADD RETURNDATACOPY PUSH2 0x732 JUMP JUMPDEST PUSH1 0x60 SWAP2 POP JUMPDEST POP DUP7 DUP5 DUP2 MLOAD DUP2 LT PUSH2 0x746 JUMPI PUSH2 0x745 PUSH2 0x1329 JUMP JUMPDEST JUMPDEST PUSH1 0x20 MUL PUSH1 0x20 ADD ADD DUP2 SWAP1 MSTORE DUP2 SWAP3 POP POP POP DUP1 PUSH2 0x795 JUMPI PUSH1 0x40 MLOAD PUSH32 0x8C379A000000000000000000000000000000000000000000000000000000000 DUP2 MSTORE PUSH1 0x4 ADD PUSH2 0x78C SWAP1 PUSH2 0x153B JUMP JUMPDEST PUSH1 0x40 MLOAD DUP1 SWAP2 SUB SWAP1 REVERT JUMPDEST DUP2 PUSH1 0x1 ADD SWAP2 POP POP PUSH2 0x678 JUMP JUMPDEST POP POP POP SWAP3 POP SWAP3 SWAP1 POP JUMP JUMPDEST PUSH1 0x0 PUSH1 0x1 NUMBER SUB BLOCKHASH SWAP1 POP SWAP1 JUMP JUMPDEST PUSH1 0x0 CHAINID SWAP1 POP SWAP1 JUMP JUMPDEST PUSH1 0x0 DUP1 PUSH1 0x60 NUMBER SWAP3 POP NUMBER BLOCKHASH SWAP2 POP PUSH2 0x7D6 DUP7 DUP7 DUP7 PUSH2 0x9F4 JUMP JUMPDEST SWAP1 POP SWAP4 POP SWAP4 POP SWAP4 SWAP1 POP JUMP JUMPDEST PUSH1 0x0 BASEFEE SWAP1 POP SWAP1 JUMP JUMPDEST PUSH1 0x0 NUMBER SWAP1 POP SWAP1 JUMP JUMPDEST PUSH1 0x0 DUP2 PUSH20 0xFFFFFFFFFFFFFFFFFFFFFFFFFFFFFFFFFFFFFFFF AND BALANCE SWAP1 POP SWAP2 SWAP1 POP JUMP JUMPDEST PUSH1 0x0 DIFFICULTY SWAP1 POP SWAP1 JUMP JUMPDEST PUSH1 0x60 PUSH1 0x0 DUP4 DUP4 SWAP1 POP SWAP1 POP DUP1 PUSH8 0xFFFFFFFFFFFFFFFF DUP2 GT ISZERO PUSH2 0x83E JUMPI PUSH2 0x83D PUSH2 0x12FA JUMP JUMPDEST JUMPDEST PUSH1 0x40 MLOAD SWAP1 DUP1 DUP3 MSTORE DUP1 PUSH1 0x20 MUL PUSH1 0x20 ADD DUP3 ADD PUSH1 0x40 MSTORE DUP1 ISZERO PUSH2 0x877 JUMPI DUP2 PUSH1 0x20 ADD JUMPDEST PUSH2 0x864 PUSH2 0xBD5 JUMP JUMPDEST DUP2 MSTORE PUSH1 0x20 ADD SWAP1 PUSH1 0x1 SWAP1 SUB SWAP1 DUP2 PUSH2 0x85C JUMPI SWAP1 POP JUMPDEST POP SWAP2 POP CALLDATASIZE PUSH1 0x0 JUMPDEST DUP3 DUP2 LT ISZERO PUSH2 0x9DB JUMPI PUSH1 0x0 DUP5 DUP3 DUP2 MLOAD DUP2 LT PUSH2 0x89B JUMPI PUSH2 0x89A PUSH2 0x1329 JUMP JUMPDEST JUMPDEST PUSH1 0x20 MUL PUSH1 0x20 ADD ADD MLOAD SWAP1 POP DUP7 DUP7 DUP4 DUP2 DUP2 LT PUSH2 0x8B8 JUMPI PUSH2 0x8B7 PUSH2 0x1329 JUMP JUMPDEST JUMPDEST SWAP1 POP PUSH1 0x20 MUL DUP2 ADD SWAP1 PUSH2 0x8CA SWAP2 SWAP1 PUSH2 0x155B JUMP JUMPDEST SWAP3 POP DUP3 PUSH1 0x0 ADD PUSH1 0x20 DUP2 ADD SWAP1 PUSH2 0x8DF SWAP2 SWAP1 PUSH2 0x11A7 JUMP JUMPDEST PUSH20 0xFFFFFFFFFFFFFFFFFFFFFFFFFFFFFFFFFFFFFFFF AND DUP4 DUP1 PUSH1 0x40 ADD SWAP1 PUSH2 0x905 SWAP2 SWAP1 PUSH2 0x138F JUMP JUMPDEST PUSH1 0x40 MLOAD PUSH2 0x913 SWAP3 SWAP2 SWAP1 PUSH2 0x1431 JUMP JUMPDEST PUSH1 0x0 PUSH1 0x40 MLOAD DUP1 DUP4 SUB DUP2 PUSH1 0x0 DUP7 GAS CALL SWAP2 POP POP RETURNDATASIZE DUP1 PUSH1 0x0 DUP2 EQ PUSH2 0x950 JUMPI PUSH1 0x40 MLOAD SWAP2 POP PUSH1 0x1F NOT PUSH1 0x3F RETURNDATASIZE ADD AND DUP3 ADD PUSH1 0x40 MSTORE RETURNDATASIZE DUP3 MSTORE RETURNDATASIZE PUSH1 0x0 PUSH1 0x20 DUP5 ADD RETURNDATACOPY PUSH2 0x955 JUMP JUMPDEST PUSH1 0x60 SWAP2 POP JUMPDEST POP DUP3 PUSH1 0x0 ADD DUP4 PUSH1 0x20 ADD DUP3 SWAP1 MSTORE DUP3 ISZERO ISZERO ISZERO ISZERO DUP2 MSTORE POP POP POP DUP1 MLOAD PUSH1 0x20 DUP5 ADD CALLDATALOAD OR PUSH2 0x9CF JUMPI PUSH32 0x8C379A000000000000000000000000000000000000000000000000000000000 PUSH1 0x0 MSTORE PUSH1 0x20 PUSH1 0x4 MSTORE PUSH1 0x17 PUSH1 0x24 MSTORE PUSH32 0x4D756C746963616C6C333A2063616C6C206661696C6564000000000000000000 PUSH1 0x44 MSTORE PUSH1 0x64 PUSH1 0x0 REVERT JUMPDEST DUP2 PUSH1 0x1 ADD SWAP2 POP POP PUSH2 0x87E JUMP JUMPDEST POP POP POP SWAP3 SWAP2 POP POP JUMP JUMPDEST PUSH1 0x0 GASLIMIT SWAP1 POP SWAP1 JUMP JUMPDEST PUSH1 0x0 COINBASE SWAP1 POP SWAP1 JUMP JUMPDEST PUSH1 0x60 PUSH1 0x0 DUP4 DUP4 SWAP1 POP SWAP1 POP DUP1 PUSH8 0xFFFFFFFFFFFFFFFF DUP2 GT ISZERO PUSH2 0xA18 JUMPI PUSH2 0xA17 PUSH2 0x12FA JUMP JUMPDEST JUMPDEST PUSH1 0x40 MLOAD SWAP1 DUP1 DUP3 MSTORE DUP1 PUSH1 0x20 MUL PUSH1 0x20 ADD DUP3 ADD PUSH1 0x40 MSTORE DUP1 ISZERO PUSH2 0xA51 JUMPI DUP2 PUSH1 0x20 ADD JUMPDEST PUSH2 0xA3E PUSH2 0xBD5 JUMP JUMPDEST DUP2 MSTORE PUSH1 0x20 ADD SWAP1 PUSH1 0x1 SWAP1 SUB SWAP1 DUP2 PUSH2 0xA36 JUMPI SWAP1 POP JUMPDEST POP SWAP2 POP CALLDATASIZE PUSH1 0x0 JUMPDEST DUP3 DUP2 LT ISZERO PUSH2 0xB9C JUMPI PUSH1 0x0 DUP5 DUP3 DUP2 MLOAD DUP2 LT PUSH2 0xA75 JUMPI PUSH2 0xA74 PUSH2 0x1329 JUMP JUMPDEST JUMPDEST PUSH1 0x20 MUL PUSH1 0x20 ADD ADD MLOAD SWAP1 POP DUP7 DUP7 DUP4 DUP2 DUP2 LT PUSH2 0xA92 JUMPI PUSH2 0xA91 PUSH2 0x1329 JUMP JUMPDEST JUMPDEST SWAP1 POP PUSH1 0x20 MUL DUP2 ADD SWAP1 PUSH2 0xAA4 SWAP2 SWAP1 PUSH2 0x14C7 JUMP JUMPDEST SWAP3 POP DUP3 PUSH1 0x0 ADD PUSH1 0x20 DUP2 ADD SWAP1 PUSH2 0xAB9 SWAP2 SWAP1 PUSH2 0x11A7 JUMP JUMPDEST PUSH20 0xFFFFFFFFFFFFFFFFFFFFFFFFFFFFFFFFFFFFFFFF AND DUP4 DUP1 PUSH1 0x20 ADD SWAP1 PUSH2 0xADF SWAP2 SWAP1 PUSH2 0x138F JUMP JUMPDEST PUSH1 0x40 MLOAD PUSH2 0xAED SWAP3 SWAP2 SWAP1 PUSH2 0x1431 JUMP JUMPDEST PUSH1 0x0 PUSH1 0x40 MLOAD DUP1 DUP4 SUB DUP2 PUSH1 0x0 DUP7 GAS CALL SWAP2 POP POP RETURNDATASIZE DUP1 PUSH1 0x0 DUP2 EQ PUSH2 0xB2A JUMPI PUSH1 0x40 MLOAD SWAP2 POP PUSH1 0x1F NOT PUSH1 0x3F RETURNDATASIZE ADD AND DUP3 ADD PUSH1 0x40 MSTORE RETURNDATASIZE DUP3 MSTORE RETURNDATASIZE PUSH1 0x0 PUSH1 0x20 DUP5 ADD RETURNDATACOPY PUSH2 0xB2F JUMP JUMPDEST PUSH1 0x60 SWAP2 POP JUMPDEST POP DUP3 PUSH1 0x0 ADD DUP4 PUSH1 0x20 ADD DUP3 SWAP1 MSTORE DUP3 ISZERO ISZERO ISZERO ISZERO DUP2 MSTORE POP POP POP DUP8 ISZERO PUSH2 0xB90 JUMPI DUP1 PUSH1 0x0 ADD MLOAD PUSH2 0xB8F JUMPI PUSH1 0x40 MLOAD PUSH32 0x8C379A000000000000000000000000000000000000000000000000000000000 DUP2 MSTORE PUSH1 0x4 ADD PUSH2 0xB86 SWAP1 PUSH2 0x153B JUMP JUMPDEST PUSH1 0x40 MLOAD DUP1 SWAP2 SUB SWAP1 REVERT JUMPDEST JUMPDEST DUP2 PUSH1 0x1 ADD SWAP2 POP POP PUSH2 0xA58 JUMP JUMPDEST POP POP POP SWAP4 SWAP3 POP POP POP JUMP JUMPDEST PUSH1 0x0 DUP1 PUSH1 0x60 PUSH2 0xBB7 PUSH1 0x1 DUP7 DUP7 PUSH2 0x7BF JUMP JUMPDEST DUP1 SWAP4 POP DUP2 SWAP5 POP DUP3 SWAP6 POP POP POP POP SWAP3 POP SWAP3 POP SWAP3 JUMP JUMPDEST PUSH1 0x0 DUP2 BLOCKHASH SWAP1 POP SWAP2 SWAP1 POP JUMP JUMPDEST PUSH1 0x40 MLOAD DUP1 PUSH1 0x40 ADD PUSH1 0x40 MSTORE DUP1 PUSH1 0x0 ISZERO ISZERO DUP2 MSTORE PUSH1 0x20 ADD PUSH1 0x60 DUP2 MSTORE POP SWAP1 JUMP JUMPDEST PUSH1 0x0 DUP2 SWAP1 POP SWAP2 SWAP1 POP JUMP JUMPDEST PUSH2 0xC04 DUP2 PUSH2 0xBF1 JUMP JUMPDEST DUP3 MSTORE POP POP JUMP JUMPDEST PUSH1 0x0 PUSH1 0x20 DUP3 ADD SWAP1 POP PUSH2 0xC1F PUSH1 0x0 DUP4 ADD DUP5 PUSH2 0xBFB JUMP JUMPDEST SWAP3 SWAP2 POP POP JUMP JUMPDEST PUSH1 0x0 DUP1 REVERT JUMPDEST PUSH1 0x0 DUP1 REVERT JUMPDEST PUSH1 0x0 DUP1 REVERT JUMPDEST PUSH1 0x0 DUP1 REVERT JUMPDEST PUSH1 0x0 DUP1 REVERT JUMPDEST PUSH1 0x0 DUP1 DUP4 PUSH1 0x1F DUP5 ADD SLT PUSH2 0xC54 JUMPI PUSH2 0xC53 PUSH2 0xC2F JUMP JUMPDEST JUMPDEST DUP3 CALLDATALOAD SWAP1 POP PUSH8 0xFFFFFFFFFFFFFFFF DUP2 GT ISZERO PUSH2 0xC71 JUMPI PUSH2 0xC70 PUSH2 0xC34 JUMP JUMPDEST JUMPDEST PUSH1 0x20 DUP4 ADD SWAP2 POP DUP4 PUSH1 0x20 DUP3 MUL DUP4 ADD GT ISZERO PUSH2 0xC8D JUMPI PUSH2 0xC8C PUSH2 0xC39 JUMP JUMPDEST JUMPDEST SWAP3 POP SWAP3 SWAP1 POP JUMP JUMPDEST PUSH1 0x0 DUP1 PUSH1 0x20 DUP4 DUP6 SUB SLT ISZERO PUSH2 0xCAB JUMPI PUSH2 0xCAA PUSH2 0xC25 JUMP JUMPDEST JUMPDEST PUSH1 0x0 DUP4 ADD CALLDATALOAD PUSH8 0xFFFFFFFFFFFFFFFF DUP2 GT ISZERO PUSH2 0xCC9 JUMPI PUSH2 0xCC8 PUSH2 0xC2A JUMP JUMPDEST JUMPDEST PUSH2 0xCD5 DUP6 DUP3 DUP7 ADD PUSH2 0xC3E JUMP JUMPDEST SWAP3 POP SWAP3 POP POP SWAP3 POP SWAP3 SWAP1 POP JUMP JUMPDEST PUSH1 0x0 DUP2 MLOAD SWAP1 POP SWAP2 SWAP1 POP JUMP JUMPDEST PUSH1 0x0 DUP3 DUP3 MSTORE PUSH1 0x20 DUP3 ADD SWAP1 POP SWAP3 SWAP2 POP POP JUMP JUMPDEST PUSH1 0x0 DUP2 SWAP1 POP PUSH1 0x20 DUP3 ADD SWAP1 POP SWAP2 SWAP1 POP JUMP JUMPDEST PUSH1 0x0 DUP2 ISZERO ISZERO SWAP1 POP SWAP2 SWAP1 POP JUMP JUMPDEST PUSH2 0xD22 DUP2 PUSH2 0xD0D JUMP JUMPDEST DUP3 MSTORE POP POP JUMP JUMPDEST PUSH1 0x0 DUP2 MLOAD SWAP1 POP SWAP2 SWAP1 POP JUMP JUMPDEST PUSH1 0x0 DUP3 DUP3 MSTORE PUSH1 0x20 DUP3 ADD SWAP1 POP SWAP3 SWAP2 POP POP JUMP JUMPDEST PUSH1 0x0 JUMPDEST DUP4 DUP2 LT ISZERO PUSH2 0xD62 JUMPI DUP1 DUP3 ADD MLOAD DUP2 DUP5 ADD MSTORE PUSH1 0x20 DUP2 ADD SWAP1 POP PUSH2 0xD47 JUMP JUMPDEST DUP4 DUP2 GT ISZERO PUSH2 0xD71 JUMPI PUSH1 0x0 DUP5 DUP5 ADD MSTORE JUMPDEST POP POP POP POP JUMP JUMPDEST PUSH1 0x0 PUSH1 0x1F NOT PUSH1 0x1F DUP4 ADD AND SWAP1 POP SWAP2 SWAP1 POP JUMP JUMPDEST PUSH1 0x0 PUSH2 0xD93 DUP3 PUSH2 0xD28 JUMP JUMPDEST PUSH2 0xD9D DUP2 DUP6 PUSH2 0xD33 JUMP JUMPDEST SWAP4 POP PUSH2 0xDAD DUP2 DUP6 PUSH1 0x20 DUP7 ADD PUSH2 0xD44 JUMP JUMPDEST PUSH2 0xDB6 DUP2 PUSH2 0xD77 JUMP JUMPDEST DUP5 ADD SWAP2 POP POP SWAP3 SWAP2 POP POP JUMP JUMPDEST PUSH1 0x0 PUSH1 0x40 DUP4 ADD PUSH1 0x0 DUP4 ADD MLOAD PUSH2 0xDD9 PUSH1 0x0 DUP7 ADD DUP3 PUSH2 0xD19 JUMP JUMPDEST POP PUSH1 0x20 DUP4 ADD MLOAD DUP5 DUP3 SUB PUSH1 0x20 DUP7 ADD MSTORE PUSH2 0xDF1 DUP3 DUP3 PUSH2 0xD88 JUMP JUMPDEST SWAP2 POP POP DUP1 SWAP2 POP POP SWAP3 SWAP2 POP POP JUMP JUMPDEST PUSH1 0x0 PUSH2 0xE0A DUP4 DUP4 PUSH2 0xDC1 JUMP JUMPDEST SWAP1 POP SWAP3 SWAP2 POP POP JUMP JUMPDEST PUSH1 0x0 PUSH1 0x20 DUP3 ADD SWAP1 POP SWAP2 SWAP1 POP JUMP JUMPDEST PUSH1 0x0 PUSH2 0xE2A DUP3 PUSH2 0xCE1 JUMP JUMPDEST PUSH2 0xE34 DUP2 DUP6 PUSH2 0xCEC JUMP JUMPDEST SWAP4 POP DUP4 PUSH1 0x20 DUP3 MUL DUP6 ADD PUSH2 0xE46 DUP6 PUSH2 0xCFD JUMP JUMPDEST DUP1 PUSH1 0x0 JUMPDEST DUP6 DUP2 LT ISZERO PUSH2 0xE82 JUMPI DUP5 DUP5 SUB DUP10 MSTORE DUP2 MLOAD PUSH2 0xE63 DUP6 DUP3 PUSH2 0xDFE JUMP JUMPDEST SWAP5 POP PUSH2 0xE6E DUP4 PUSH2 0xE12 JUMP JUMPDEST SWAP3 POP PUSH1 0x20 DUP11 ADD SWAP10 POP POP PUSH1 0x1 DUP2 ADD SWAP1 POP PUSH2 0xE4A JUMP JUMPDEST POP DUP3 SWAP8 POP DUP8 SWAP6 POP POP POP POP POP POP SWAP3 SWAP2 POP POP JUMP JUMPDEST PUSH1 0x0 PUSH1 0x20 DUP3 ADD SWAP1 POP DUP2 DUP2 SUB PUSH1 0x0 DUP4 ADD MSTORE PUSH2 0xEAE DUP2 DUP5 PUSH2 0xE1F JUMP JUMPDEST SWAP1 POP SWAP3 SWAP2 POP POP JUMP JUMPDEST PUSH1 0x0 DUP1 DUP4 PUSH1 0x1F DUP5 ADD SLT PUSH2 0xECC JUMPI PUSH2 0xECB PUSH2 0xC2F JUMP JUMPDEST JUMPDEST DUP3 CALLDATALOAD SWAP1 POP PUSH8 0xFFFFFFFFFFFFFFFF DUP2 GT ISZERO PUSH2 0xEE9 JUMPI PUSH2 0xEE8 PUSH2 0xC34 JUMP JUMPDEST JUMPDEST PUSH1 0x20 DUP4 ADD SWAP2 POP DUP4 PUSH1 0x20 DUP3 MUL DUP4 ADD GT ISZERO PUSH2 0xF05 JUMPI PUSH2 0xF04 PUSH2 0xC39 JUMP JUMPDEST JUMPDEST SWAP3 POP SWAP3 SWAP1 POP JUMP JUMPDEST PUSH1 0x0 DUP1 PUSH1 0x20 DUP4 DUP6 SUB SLT ISZERO PUSH2 0xF23 JUMPI PUSH2 0xF22 PUSH2 0xC25 JUMP JUMPDEST JUMPDEST PUSH1 0x0 DUP4 ADD CALLDATALOAD PUSH8 0xFFFFFFFFFFFFFFFF DUP2 GT ISZERO PUSH2 0xF41 JUMPI PUSH2 0xF40 PUSH2 0xC2A JUMP JUMPDEST JUMPDEST PUSH2 0xF4D DUP6 DUP3 DUP7 ADD PUSH2 0xEB6 JUMP JUMPDEST SWAP3 POP SWAP3 POP POP SWAP3 POP SWAP3 SWAP1 POP JUMP JUMPDEST PUSH1 0x0 DUP2 MLOAD SWAP1 POP SWAP2 SWAP1 POP JUMP JUMPDEST PUSH1 0x0 DUP3 DUP3 MSTORE PUSH1 0x20 DUP3 ADD SWAP1 POP SWAP3 SWAP2 POP POP JUMP JUMPDEST PUSH1 0x0 DUP2 SWAP1 POP PUSH1 0x20 DUP3 ADD SWAP1 POP SWAP2 SWAP1 POP JUMP JUMPDEST PUSH1 0x0 PUSH2 0xF91 DUP4 DUP4 PUSH2 0xD88 JUMP JUMPDEST SWAP1 POP SWAP3 SWAP2 POP POP JUMP JUMPDEST PUSH1 0x0 PUSH1 0x20 DUP3 ADD SWAP1 POP SWAP2 SWAP1 POP JUMP JUMPDEST PUSH1 0x0 PUSH2 0xFB1 DUP3 PUSH2 0xF59 JUMP JUMPDEST PUSH2 0xFBB DUP2 DUP6 PUSH2 0xF64 JUMP JUMPDEST SWAP4 POP DUP4 PUSH1 0x20 DUP3 MUL DUP6 ADD PUSH2 0xFCD DUP6 PUSH2 0xF75 JUMP JUMPDEST DUP1 PUSH1 0x0 JUMPDEST DUP6 DUP2 LT ISZERO PUSH2 0x1009 JUMPI DUP5 DUP5 SUB DUP10 MSTORE DUP2 MLOAD PUSH2 0xFEA DUP6 DUP3 PUSH2 0xF85 JUMP JUMPDEST SWAP5 POP PUSH2 0xFF5 DUP4 PUSH2 0xF99 JUMP JUMPDEST SWAP3 POP PUSH1 0x20 DUP11 ADD SWAP10 POP POP PUSH1 0x1 DUP2 ADD SWAP1 POP PUSH2 0xFD1 JUMP JUMPDEST POP DUP3 SWAP8 POP DUP8 SWAP6 POP POP POP POP POP POP SWAP3 SWAP2 POP POP JUMP JUMPDEST PUSH1 0x0 PUSH1 0x40 DUP3 ADD SWAP1 POP PUSH2 0x1030 PUSH1 0x0 DUP4 ADD DUP6 PUSH2 0xBFB JUMP JUMPDEST DUP2 DUP2 SUB PUSH1 0x20 DUP4 ADD MSTORE PUSH2 0x1042 DUP2 DUP5 PUSH2 0xFA6 JUMP JUMPDEST SWAP1 POP SWAP4 SWAP3 POP POP POP JUMP JUMPDEST PUSH1 0x0 DUP2 SWAP1 POP SWAP2 SWAP1 POP JUMP JUMPDEST PUSH2 0x105E DUP2 PUSH2 0x104B JUMP JUMPDEST DUP3 MSTORE POP POP JUMP JUMPDEST PUSH1 0x0 PUSH1 0x20 DUP3 ADD SWAP1 POP PUSH2 0x1079 PUSH1 0x0 DUP4 ADD DUP5 PUSH2 0x1055 JUMP JUMPDEST SWAP3 SWAP2 POP POP JUMP JUMPDEST PUSH2 0x1088 DUP2 PUSH2 0xD0D JUMP JUMPDEST DUP2 EQ PUSH2 0x1093 JUMPI PUSH1 0x0 DUP1 REVERT JUMPDEST POP JUMP JUMPDEST PUSH1 0x0 DUP2 CALLDATALOAD SWAP1 POP PUSH2 0x10A5 DUP2 PUSH2 0x107F JUMP JUMPDEST SWAP3 SWAP2 POP POP JUMP JUMPDEST PUSH1 0x0 DUP1 PUSH1 0x0 PUSH1 0x40 DUP5 DUP7 SUB SLT ISZERO PUSH2 0x10C4 JUMPI PUSH2 0x10C3 PUSH2 0xC25 JUMP JUMPDEST JUMPDEST PUSH1 0x0 PUSH2 0x10D2 DUP7 DUP3 DUP8 ADD PUSH2 0x1096 JUMP JUMPDEST SWAP4 POP POP PUSH1 0x20 DUP5 ADD CALLDATALOAD PUSH8 0xFFFFFFFFFFFFFFFF DUP2 GT ISZERO PUSH2 0x10F3 JUMPI PUSH2 0x10F2 PUSH2 0xC2A JUMP JUMPDEST JUMPDEST PUSH2 0x10FF DUP7 DUP3 DUP8 ADD PUSH2 0xEB6 JUMP JUMPDEST SWAP3 POP SWAP3 POP POP SWAP3 POP SWAP3 POP SWAP3 JUMP JUMPDEST PUSH1 0x0 PUSH1 0x60 DUP3 ADD SWAP1 POP PUSH2 0x1120 PUSH1 0x0 DUP4 ADD DUP7 PUSH2 0xBFB JUMP JUMPDEST PUSH2 0x112D PUSH1 0x20 DUP4 ADD DUP6 PUSH2 0x1055 JUMP JUMPDEST DUP2 DUP2 SUB PUSH1 0x40 DUP4 ADD MSTORE PUSH2 0x113F DUP2 DUP5 PUSH2 0xE1F JUMP JUMPDEST SWAP1 POP SWAP5 SWAP4 POP POP POP POP JUMP JUMPDEST PUSH1 0x0 PUSH20 0xFFFFFFFFFFFFFFFFFFFFFFFFFFFFFFFFFFFFFFFF DUP3 AND SWAP1 POP SWAP2 SWAP1 POP JUMP JUMPDEST PUSH1 0x0 PUSH2 0x1174 DUP3 PUSH2 0x1149 JUMP JUMPDEST SWAP1 POP SWAP2 SWAP1 POP JUMP JUMPDEST PUSH2 0x1184 DUP2 PUSH2 0x1169 JUMP JUMPDEST DUP2 EQ PUSH2 0x118F JUMPI PUSH1 0x0 DUP1 REVERT JUMPDEST POP JUMP JUMPDEST PUSH1 0x0 DUP2 CALLDATALOAD SWAP1 POP PUSH2 0x11A1 DUP2 PUSH2 0x117B JUMP JUMPDEST SWAP3 SWAP2 POP POP JUMP JUMPDEST PUSH1 0x0 PUSH1 0x20 DUP3 DUP5 SUB SLT ISZERO PUSH2 0x11BD JUMPI PUSH2 0x11BC PUSH2 0xC25 JUMP JUMPDEST JUMPDEST PUSH1 0x0 PUSH2 0x11CB DUP5 DUP3 DUP6 ADD PUSH2 0x1192 JUMP JUMPDEST SWAP2 POP POP SWAP3 SWAP2 POP POP JUMP JUMPDEST PUSH1 0x0 DUP1 DUP4 PUSH1 0x1F DUP5 ADD SLT PUSH2 0x11EA JUMPI PUSH2 0x11E9 PUSH2 0xC2F JUMP JUMPDEST JUMPDEST DUP3 CALLDATALOAD SWAP1 POP PUSH8 0xFFFFFFFFFFFFFFFF DUP2 GT ISZERO PUSH2 0x1207 JUMPI PUSH2 0x1206 PUSH2 0xC34 JUMP JUMPDEST JUMPDEST PUSH1 0x20 DUP4 ADD SWAP2 POP DUP4 PUSH1 0x20 DUP3 MUL DUP4 ADD GT ISZERO PUSH2 0x1223 JUMPI PUSH2 0x1222 PUSH2 0xC39 JUMP JUMPDEST JUMPDEST SWAP3 POP SWAP3 SWAP1 POP JUMP JUMPDEST PUSH1 0x0 DUP1 PUSH1 0x20 DUP4 DUP6 SUB SLT ISZERO PUSH2 0x1241 JUMPI PUSH2 0x1240 PUSH2 0xC25 JUMP JUMPDEST JUMPDEST PUSH1 0x0 DUP4 ADD CALLDATALOAD PUSH8 0xFFFFFFFFFFFFFFFF DUP2 GT ISZERO PUSH2 0x125F JUMPI PUSH2 0x125E PUSH2 0xC2A JUMP JUMPDEST JUMPDEST PUSH2 0x126B DUP6 DUP3 DUP7 ADD PUSH2 0x11D4 JUMP JUMPDEST SWAP3 POP SWAP3 POP POP SWAP3 POP SWAP3 SWAP1 POP JUMP JUMPDEST PUSH2 0x1280 DUP2 PUSH2 0x1169 JUMP JUMPDEST DUP3 MSTORE POP POP JUMP JUMPDEST PUSH1 0x0 PUSH1 0x20 DUP3 ADD SWAP1 POP PUSH2 0x129B PUSH1 0x0 DUP4 ADD DUP5 PUSH2 0x1277 JUMP JUMPDEST SWAP3 SWAP2 POP POP JUMP JUMPDEST PUSH2 0x12AA DUP2 PUSH2 0xBF1 JUMP JUMPDEST DUP2 EQ PUSH2 0x12B5 JUMPI PUSH1 0x0 DUP1 REVERT JUMPDEST POP JUMP JUMPDEST PUSH1 0x0 DUP2 CALLDATALOAD SWAP1 POP PUSH2 0x12C7 DUP2 PUSH2 0x12A1 JUMP JUMPDEST SWAP3 SWAP2 POP POP JUMP JUMPDEST PUSH1 0x0 PUSH1 0x20 DUP3 DUP5 SUB SLT ISZERO PUSH2 0x12E3 JUMPI PUSH2 0x12E2 PUSH2 0xC25 JUMP JUMPDEST JUMPDEST PUSH1 0x0 PUSH2 0x12F1 DUP5 DUP3 DUP6 ADD PUSH2 0x12B8 JUMP JUMPDEST SWAP2 POP POP SWAP3 SWAP2 POP POP JUMP JUMPDEST PUSH32 0x4E487B7100000000000000000000000000000000000000000000000000000000 PUSH1 0x0 MSTORE PUSH1 0x41 PUSH1 0x4 MSTORE PUSH1 0x24 PUSH1 0x0 REVERT JUMPDEST PUSH32 0x4E487B7100000000000000000000000000000000000000000000000000000000 PUSH1 0x0 MSTORE PUSH1 0x32 PUSH1 0x4 MSTORE PUSH1 0x24 PUSH1 0x0 REVERT JUMPDEST PUSH1 0x0 DUP1 REVERT JUMPDEST PUSH1 0x0 DUP1 REVERT JUMPDEST PUSH1 0x0 DUP1 REVERT JUMPDEST PUSH1 0x0 DUP3 CALLDATALOAD PUSH1 0x1 PUSH1 0x80 SUB DUP4 CALLDATASIZE SUB SUB DUP2 SLT PUSH2 0x1383 JUMPI PUSH2 0x1382 PUSH2 0x1358 JUMP JUMPDEST JUMPDEST DUP1 DUP4 ADD SWAP2 POP POP SWAP3 SWAP2 POP POP JUMP JUMPDEST PUSH1 0x0 DUP1 DUP4 CALLDATALOAD PUSH1 0x1 PUSH1 0x20 SUB DUP5 CALLDATASIZE SUB SUB DUP2 SLT PUSH2 0x13AC JUMPI PUSH2 0x13AB PUSH2 0x1358 JUMP JUMPDEST JUMPDEST DUP1 DUP5 ADD SWAP3 POP DUP3 CALLDATALOAD SWAP2 POP PUSH8 0xFFFFFFFFFFFFFFFF DUP3 GT ISZERO PUSH2 0x13CE JUMPI PUSH2 0x13CD PUSH2 0x135D JUMP JUMPDEST JUMPDEST PUSH1 0x20 DUP4 ADD SWAP3 POP PUSH1 0x1 DUP3 MUL CALLDATASIZE SUB DUP4 SGT ISZERO PUSH2 0x13EA JUMPI PUSH2 0x13E9 PUSH2 0x1362 JUMP JUMPDEST JUMPDEST POP SWAP3 POP SWAP3 SWAP1 POP JUMP JUMPDEST PUSH1 0x0 DUP2 SWAP1 POP SWAP3 SWAP2 POP POP JUMP JUMPDEST DUP3 DUP2 DUP4 CALLDATACOPY PUSH1 0x0 DUP4 DUP4 ADD MSTORE POP POP POP JUMP JUMPDEST PUSH1 0x0 PUSH2 0x1418 DUP4 DUP6 PUSH2 0x13F2 JUMP JUMPDEST SWAP4 POP PUSH2 0x1425 DUP4 DUP6 DUP5 PUSH2 0x13FD JUMP JUMPDEST DUP3 DUP5 ADD SWAP1 POP SWAP4 SWAP3 POP POP POP JUMP JUMPDEST PUSH1 0x0 PUSH2 0x143E DUP3 DUP5 DUP7 PUSH2 0x140C JUMP JUMPDEST SWAP2 POP DUP2 SWAP1 POP SWAP4 SWAP3 POP POP POP JUMP JUMPDEST PUSH1 0x0 DUP3 DUP3 MSTORE PUSH1 0x20 DUP3 ADD SWAP1 POP SWAP3 SWAP2 POP POP JUMP JUMPDEST PUSH32 0x4D756C746963616C6C333A2076616C7565206D69736D61746368000000000000 PUSH1 0x0 DUP3 ADD MSTORE POP JUMP JUMPDEST PUSH1 0x0 PUSH2 0x1491 PUSH1 0x1A DUP4 PUSH2 0x144A JUMP JUMPDEST SWAP2 POP PUSH2 0x149C DUP3 PUSH2 0x145B JUMP JUMPDEST PUSH1 0x20 DUP3 ADD SWAP1 POP SWAP2 SWAP1 POP JUMP JUMPDEST PUSH1 0x0 PUSH1 0x20 DUP3 ADD SWAP1 POP DUP2 DUP2 SUB PUSH1 0x0 DUP4 ADD MSTORE PUSH2 0x14C0 DUP2 PUSH2 0x1484 JUMP JUMPDEST SWAP1 POP SWAP2 SWAP1 POP JUMP JUMPDEST PUSH1 0x0 DUP3 CALLDATALOAD PUSH1 0x1 PUSH1 0x40 SUB DUP4 CALLDATASIZE SUB SUB DUP2 SLT PUSH2 0x14E3 JUMPI PUSH2 0x14E2 PUSH2 0x1358 JUMP JUMPDEST JUMPDEST DUP1 DUP4 ADD SWAP2 POP POP SWAP3 SWAP2 POP POP JUMP JUMPDEST PUSH32 0x4D756C746963616C6C333A2063616C6C206661696C6564000000000000000000 PUSH1 0x0 DUP3 ADD MSTORE POP JUMP JUMPDEST PUSH1 0x0 PUSH2 0x1525 PUSH1 0x17 DUP4 PUSH2 0x144A JUMP JUMPDEST SWAP2 POP PUSH2 0x1530 DUP3 PUSH2 0x14EF JUMP JUMPDEST PUSH1 0x20 DUP3 ADD SWAP1 POP SWAP2 SWAP1 POP JUMP JUMPDEST PUSH1 0x0 PUSH1 0x20 DUP3 ADD SWAP1 POP DUP2 DUP2 SUB PUSH1 0x0 DUP4 ADD MSTORE PUSH2 0x1554 DUP2 PUSH2 0x1518 JUMP JUMPDEST SWAP1 POP SWAP2 SWAP1 POP JUMP JUMPDEST PUSH1 0x0 DUP3 CALLDATALOAD PUSH1 0x1 PUSH1 0x60 SUB DUP4 CALLDATASIZE SUB SUB DUP2 SLT PUSH2 0x1577 JUMPI PUSH2 0x1576 PUSH2 0x1358 JUMP JUMPDEST JUMPDEST DUP1 DUP4 ADD SWAP2 POP POP SWAP3 SWAP2 POP POP JUMP INVALID LOG2 PUSH5 0x6970667358 0x22 SLT KECCAK256 EQ PUSH14 0xFF77E9F7705E91ABF77C1AC5E4A8 CALL 0xDE MUL 0x2A 0xD9 0xEB 0xA6 INVALID 0xB6 PUSH14 0xCF57A35F816764736F6C63430008 0xC STOP CALLER "
				},
				"gasEstimates": {
					"creation": {
						"codeDepositCost": "1112200",
						"executionCost": "1154",
						"totalCost": "1113354"
					},
					"external": {
						"aggregate((address,bytes)[])": "infinite",
						"aggregate3((address,bool,bytes)[])": "infinite",
						"aggregate3Value((address,bool,uint256,bytes)[])": "infinite",
						"blockAndAggregate((address,bytes)[])": "infinite",
						"getBasefee()": "403",
						"getBlockHash(uint256)": "710",
						"getBlockNumber()": "425",
						"getChainId()": "359",
						"getCurrentBlockCoinbase()": "407",
						"getCurrentBlockDifficulty()": "381",
						"getCurrentBlockGasLimit()": "425",
						"getCurrentBlockTimestamp()": "360",
						"getEthBalance(address)": "3280",
						"getLastBlockHash()": "452",
						"tryAggregate(bool,(address,bytes)[])": "infinite",
						"tryBlockAndAggregate(bool,(address,bytes)[])": "infinite"
					}
				},
				"methodIdentifiers": {
					"aggregate((address,bytes)[])": "252dba42",
					"aggregate3((address,bool,bytes)[])": "82ad56cb",
					"aggregate3Value((address,bool,uint256,bytes)[])": "174dea71",
					"blockAndAggregate((address,bytes)[])": "c3077fa9",
					"getBasefee()": "3e64a696",
					"getBlockHash(uint256)": "ee82ac5e",
					"getBlockNumber()": "42cbb15c",
					"getChainId()": "3408e470",
					"getCurrentBlockCoinbase()": "a8b0574e",
					"getCurrentBlockDifficulty()": "72425d9d",
					"getCurrentBlockGasLimit()": "86d516e8",
					"getCurrentBlockTimestamp()": "0f28c97d",
					"getEthBalance(address)": "4d2301cc",
					"getLastBlockHash()": "27e86d6e",
					"tryAggregate(bool,(address,bytes)[])": "bce38bd7",
					"tryBlockAndAggregate(bool,(address,bytes)[])": "399542e9"
				}
			},
			"storageLayout": {
				"storage": [],
				"types": null
			},
			"userdoc": {
				"kind": "user",
				"methods": {
					"aggregate((address,bytes)[])": {
						"notice": "Backwards-compatible call aggregation with Multicall"
					},
					"aggregate3((address,bool,bytes)[])": {
						"notice": "Aggregate calls, ensuring each returns success if required"
					},
					"aggregate3Value((address,bool,uint256,bytes)[])": {
						"notice": "Aggregate calls with a msg valueReverts if msg.value is less than the sum of the call values"
					},
					"blockAndAggregate((address,bytes)[])": {
						"notice": "Backwards-compatible with Multicall2Aggregate calls and allow failures using tryAggregate"
					},
					"getBasefee()": {
						"notice": "Gets the base fee of the given blockCan revert if the BASEFEE opcode is not implemented by the given chain"
					},
					"getBlockHash(uint256)": {
						"notice": "Returns the block hash for the given block number"
					},
					"getBlockNumber()": {
						"notice": "Returns the block number"
					},
					"getChainId()": {
						"notice": "Returns the chain id"
					},
					"getCurrentBlockCoinbase()": {
						"notice": "Returns the block coinbase"
					},
					"getCurrentBlockDifficulty()": {
						"notice": "Returns the block difficulty"
					},
					"getCurrentBlockGasLimit()": {
						"notice": "Returns the block gas limit"
					},
					"getCurrentBlockTimestamp()": {
						"notice": "Returns the block timestamp"
					},
					"getEthBalance(address)": {
						"notice": "Returns the (ETH) balance of a given address"
					},
					"getLastBlockHash()": {
						"notice": "Returns the block hash of the last block"
					},
					"tryAggregate(bool,(address,bytes)[])": {
						"notice": "Backwards-compatible with Multicall2Aggregate calls without requiring success"
					},
					"tryBlockAndAggregate(bool,(address,bytes)[])": {
						"notice": "Backwards-compatible with Multicall2Aggregate calls and allow failures using tryAggregate"
					}
				},
				"notice": "Aggregate results from multiple function calls",
				"version": 1
			}
		}
	}
}